{"project/contracts/AtlasIslandNFT.sol":{"AtlasIslandNFT":{"abi":[{"inputs":[],"stateMutability":"nonpayable","type":"constructor"},{"inputs":[{"internalType":"address","name":"sender","type":"address"},{"internalType":"uint256","name":"tokenId","type":"uint256"},{"internalType":"address","name":"owner","type":"address"}],"name":"ERC721IncorrectOwner","type":"error"},{"inputs":[{"internalType":"address","name":"operator","type":"address"},{"internalType":"uint256","name":"tokenId","type":"uint256"}],"name":"ERC721InsufficientApproval","type":"error"},{"inputs":[{"internalType":"address","name":"approver","type":"address"}],"name":"ERC721InvalidApprover","type":"error"},{"inputs":[{"internalType":"address","name":"operator","type":"address"}],"name":"ERC721InvalidOperator","type":"error"},{"inputs":[{"internalType":"address","name":"owner","type":"address"}],"name":"ERC721InvalidOwner","type":"error"},{"inputs":[{"internalType":"address","name":"receiver","type":"address"}],"name":"ERC721InvalidReceiver","type":"error"},{"inputs":[{"internalType":"address","name":"sender","type":"address"}],"name":"ERC721InvalidSender","type":"error"},{"inputs":[{"internalType":"uint256","name":"tokenId","type":"uint256"}],"name":"ERC721NonexistentToken","type":"error"},{"inputs":[{"internalType":"address","name":"owner","type":"address"}],"name":"OwnableInvalidOwner","type":"error"},{"inputs":[{"internalType":"address","name":"account","type":"address"}],"name":"OwnableUnauthorizedAccount","type":"error"},{"anonymous":false,"inputs":[{"indexed":true,"internalType":"address","name":"owner","type":"address"},{"indexed":true,"internalType":"address","name":"approved","type":"address"},{"indexed":true,"internalType":"uint256","name":"tokenId","type":"uint256"}],"name":"Approval","type":"event"},{"anonymous":false,"inputs":[{"indexed":true,"internalType":"address","name":"owner","type":"address"},{"indexed":true,"internalType":"address","name":"operator","type":"address"},{"indexed":false,"internalType":"bool","name":"approved","type":"bool"}],"name":"ApprovalForAll","type":"event"},{"anonymous":false,"inputs":[{"indexed":true,"internalType":"uint256","name":"tokenId","type":"uint256"}],"name":"IslandDelisted","type":"event"},{"anonymous":false,"inputs":[{"indexed":true,"internalType":"uint256","name":"tokenId","type":"uint256"},{"indexed":false,"internalType":"uint256","name":"priceUsdCents","type":"uint256"}],"name":"IslandListed","type":"event"},{"anonymous":false,"inputs":[{"indexed":true,"internalType":"address","name":"owner","type":"address"},{"indexed":true,"internalType":"uint256","name":"tokenId","type":"uint256"},{"indexed":false,"internalType":"uint8","name":"tier","type":"uint8"},{"indexed":false,"internalType":"string","name":"tierName","type":"string"},{"indexed":false,"internalType":"uint256","name":"tvlUsdCents","type":"uint256"},{"indexed":false,"internalType":"uint8","name":"milestonesCount","type":"uint8"}],"name":"IslandMinted","type":"event"},{"anonymous":false,"inputs":[{"indexed":true,"internalType":"address","name":"previousOwner","type":"address"},{"indexed":true,"internalType":"address","name":"newOwner","type":"address"}],"name":"OwnershipTransferred","type":"event"},{"anonymous":false,"inputs":[{"indexed":true,"internalType":"address","name":"from","type":"address"},{"indexed":true,"internalType":"address","name":"to","type":"address"},{"indexed":true,"internalType":"uint256","name":"tokenId","type":"uint256"}],"name":"Transfer","type":"event"},{"inputs":[],"name":"MIN_TVL_USD_CENTS","outputs":[{"internalType":"uint256","name":"","type":"uint256"}],"stateMutability":"view","type":"function"},{"inputs":[{"internalType":"address","name":"to","type":"address"},{"internalType":"uint256","name":"tokenId","type":"uint256"}],"name":"approve","outputs":[],"stateMutability":"nonpayable","type":"function"},{"inputs":[{"internalType":"address","name":"owner","type":"address"}],"name":"balanceOf","outputs":[{"internalType":"uint256","name":"","type":"uint256"}],"stateMutability":"view","type":"function"},{"inputs":[{"internalType":"uint256","name":"tokenId","type":"uint256"}],"name":"delistIsland","outputs":[],"stateMutability":"nonpayable","type":"function"},{"inputs":[{"internalType":"uint256","name":"tokenId","type":"uint256"}],"name":"getApproved","outputs":[{"internalType":"address","name":"","type":"address"}],"stateMutability":"view","type":"function"},{"inputs":[],"name":"getListedIslands","outputs":[{"internalType":"uint256[]","name":"tokenIds","type":"uint256[]"}],"stateMutability":"view","type":"function"},{"inputs":[{"internalType":"address","name":"","type":"address"}],"name":"hasMinted","outputs":[{"internalType":"bool","name":"","type":"bool"}],"stateMutability":"view","type":"function"},{"inputs":[{"internalType":"address","name":"owner","type":"address"},{"internalType":"address","name":"operator","type":"address"}],"name":"isApprovedForAll","outputs":[{"internalType":"bool","name":"","type":"bool"}],"stateMutability":"view","type":"function"},{"inputs":[{"internalType":"uint256","name":"","type":"uint256"}],"name":"islands","outputs":[{"internalType":"address","name":"owner","type":"address"},{"internalType":"uint256","name":"tvlUsdCents","type":"uint256"},{"internalType":"uint8","name":"tier","type":"uint8"},{"internalType":"string","name":"tierName","type":"string"},{"internalType":"uint8","name":"milestonesCount","type":"uint8"},{"internalType":"uint8","name":"healthScore","type":"uint8"},{"internalType":"uint256","name":"mintedAt","type":"uint256"},{"internalType":"bool","name":"forSale","type":"bool"},{"internalType":"uint256","name":"priceUsdCents","type":"uint256"}],"stateMutability":"view","type":"function"},{"inputs":[{"internalType":"uint256","name":"tokenId","type":"uint256"},{"internalType":"uint256","name":"priceUsdCents","type":"uint256"}],"name":"listIsland","outputs":[],"stateMutability":"nonpayable","type":"function"},{"inputs":[{"internalType":"uint256","name":"tvlUsdCents","type":"uint256"},{"internalType":"uint8","name":"tier","type":"uint8"},{"internalType":"string","name":"tierName","type":"string"},{"internalType":"uint8","name":"milestonesCount","type":"uint8"},{"internalType":"uint8","name":"healthScore","type":"uint8"}],"name":"mintIsland","outputs":[{"internalType":"uint256","name":"tokenId","type":"uint256"}],"stateMutability":"nonpayable","type":"function"},{"inputs":[],"name":"name","outputs":[{"internalType":"string","name":"","type":"string"}],"stateMutability":"view","type":"function"},{"inputs":[],"name":"owner","outputs":[{"internalType":"address","name":"","type":"address"}],"stateMutability":"view","type":"function"},{"inputs":[{"internalType":"uint256","name":"tokenId","type":"uint256"}],"name":"ownerOf","outputs":[{"internalType":"address","name":"","type":"address"}],"stateMutability":"view","type":"function"},{"inputs":[],"name":"renounceOwnership","outputs":[],"stateMutability":"nonpayable","type":"function"},{"inputs":[{"internalType":"address","name":"from","type":"address"},{"internalType":"address","name":"to","type":"address"},{"internalType":"uint256","name":"tokenId","type":"uint256"}],"name":"safeTransferFrom","outputs":[],"stateMutability":"nonpayable","type":"function"},{"inputs":[{"internalType":"address","name":"from","type":"address"},{"internalType":"address","name":"to","type":"address"},{"internalType":"uint256","name":"tokenId","type":"uint256"},{"internalType":"bytes","name":"data","type":"bytes"}],"name":"safeTransferFrom","outputs":[],"stateMutability":"nonpayable","type":"function"},{"inputs":[{"internalType":"address","name":"operator","type":"address"},{"internalType":"bool","name":"approved","type":"bool"}],"name":"setApprovalForAll","outputs":[],"stateMutability":"nonpayable","type":"function"},{"inputs":[{"internalType":"bytes4","name":"interfaceId","type":"bytes4"}],"name":"supportsInterface","outputs":[{"internalType":"bool","name":"","type":"bool"}],"stateMutability":"view","type":"function"},{"inputs":[],"name":"symbol","outputs":[{"internalType":"string","name":"","type":"string"}],"stateMutability":"view","type":"function"},{"inputs":[{"internalType":"uint256","name":"tokenId","type":"uint256"}],"name":"tokenURI","outputs":[{"internalType":"string","name":"","type":"string"}],"stateMutability":"view","type":"function"},{"inputs":[],"name":"totalMinted","outputs":[{"internalType":"uint256","name":"","type":"uint256"}],"stateMutability":"view","type":"function"},{"inputs":[{"internalType":"address","name":"from","type":"address"},{"internalType":"address","name":"to","type":"address"},{"internalType":"uint256","name":"tokenId","type":"uint256"}],"name":"transferFrom","outputs":[],"stateMutability":"nonpayable","type":"function"},{"inputs":[{"internalType":"address","name":"newOwner","type":"address"}],"name":"transferOwnership","outputs":[],"stateMutability":"nonpayable","type":"function"},{"inputs":[{"internalType":"address","name":"","type":"address"}],"name":"userIslandToken","outputs":[{"internalType":"uint256","name":"","type":"uint256"}],"stateMutability":"view","type":"function"}],"evm":{"bytecode":{"linkReferences":{},"object":"60806040523461037857604080519081016001600160401b0381118282101761028e576040908152600c82526b105d1b185cc8125cdb185b9960a21b602083015280519081016001600160401b0381118282101761028e5760405260098152681055131054cb5254d360ba1b602082015281516001600160401b03811161028e575f54600181811c9116801561036e575b602082101461027057601f811161030c575b50602092601f82116001146102ad57928192935f926102a2575b50508160011b915f199060031b1c1916175f555b80516001600160401b03811161028e57600154600181811c91168015610284575b602082101461027057601f811161020d575b50602091601f82116001146101ad579181925f926101a2575b50508160011b915f199060031b1c1916176001555b331561018f5760068054336001600160a01b03198216811790925560405191906001600160a01b03167f8be0079c531659141344cd1fd0a4f28419497f9722a3daafe3b4186f6b6457e05f80a360016007556116b1908161037d8239f35b631e4fbdf760e01b5f525f60045260245ffd5b015190505f8061011c565b601f1982169260015f52805f20915f5b8581106101f5575083600195106101dd575b505050811b01600155610131565b01515f1960f88460031b161c191690555f80806101cf565b919260206001819286850151815501940192016101bd565b60015f527fb10e2d527612073b26eecdfd717e6a320cf44b4afac2b0732d9fcbe2b7fa0cf6601f830160051c81019160208410610266575b601f0160051c01905b81811061025b5750610103565b5f815560010161024e565b9091508190610245565b634e487b7160e01b5f52602260045260245ffd5b90607f16906100f1565b634e487b7160e01b5f52604160045260245ffd5b015190505f806100bc565b601f198216935f8052805f20915f5b8681106102f457508360019596106102dc575b505050811b015f556100d0565b01515f1960f88460031b161c191690555f80806102cf565b919260206001819286850151815501940192016102bc565b5f80527f290decd9548b62a8d60345a988386fc84ba6bc95484008f6362f93160ef3e563601f830160051c81019160208410610364575b601f0160051c01905b81811061035957506100a2565b5f815560010161034c565b9091508190610343565b90607f1690610090565b5f80fdfe6080806040526004361015610012575f80fd5b5f905f3560e01c90816301ffc9a71461114e5750806306fdde03146110ac578063081812fc14611070578063095ea7b314610f8657806323b872dd14610f6f57806338e21cce14610f325780633ac4df1d14610f1557806342842e0e14610eec5780636352211e14610ebc57806370a0823114610e6b578063715018a614610e1057806380981f2b14610cc15780638da5cb5b14610c9957806395d89b4114610bbb578063a22cb46514610afe578063a2309ff814610ac1578063b88d4fde14610a5f578063bc6b1b0a146104d6578063c1ee22551461045e578063c87b56dd14610401578063da4c963a146103c8578063de85635414610359578063e2c5a91714610214578063e985e9c5146101bc5763f2fde38b14610131575f80fd5b346101b95760203660031901126101b95761014a6111dd565b610152611654565b6001600160a01b031680156101a557600680546001600160a01b0319811683179091556001600160a01b03167f8be0079c531659141344cd1fd0a4f28419497f9722a3daafe3b4186f6b6457e05f80a380f35b631e4fbdf760e01b82526004829052602482fd5b80fd5b50346101b95760403660031901126101b95760406101d86111dd565b916101e16111f3565b9260018060a01b031681526005602052209060018060a01b03165f52602052602060ff60405f2054166040519015158152f35b50346101b95760203660031901126101b957604090600435815260086020522060018060a01b0381541660018201549160ff600282015416600382019160405192835f825492610263846112b7565b808452936001811690811561033757506001146102f3575b5061028892500384611243565b60048101549260ff6102cb60058401549260078360068701541695015495604051998a998a5260208a0152604089015261012060608901526101208801906111b9565b94818116608088015260081c1660a086015260c0850152151560e08401526101008301520390f35b90505f9291925260205f20905f915b81831061031b575050906020610288928201015f61027b565b6020919350806001915483858a01015201910190918592610302565b90506020925061028894915060ff191682840152151560051b8201015f61027b565b50346101b95760203660031901126101b95760043561038a61037a82611620565b6001600160a01b031633146115e2565b808252600860205260408220600601805460ff191690557f9dd180759db5a33374bd9db1c06109b15c5ff13fb85ed9417557bb0e34643cc58280a280f35b50346101b95760203660031901126101b9576020906040906001600160a01b036103f06111dd565b168152600983522054604051908152f35b3461045a57602036600319011261045a5761041d600435611620565b505f60405161042d602082611243565b5261045660405161043f602082611243565b5f81526040519182916020835260208301906111b9565b0390f35b5f80fd5b3461045a57604036600319011261045a576004357ffc923409361dde370fd0740830134eb7e059d959edf60061c9fa59b00e1668aa60206024356104a461037a85611620565b835f5260088252600660405f2001600160ff19825416179055835f526008825280600760405f200155604051908152a2005b3461045a5760a036600319011261045a5760243560ff8116810361045a576044359067ffffffffffffffff821161045a573660238301121561045a5767ffffffffffffffff82600401351161045a5736602483600401358401011161045a5760643560ff8116810361045a576084359260ff841680940361045a57335f52600a60205260ff60405f205416610a22576207a120600435106109dd57600260ff84161061098e57600754916105898361147c565b600755331561097b575f838152600260205260409020546001600160a01b03168015159081610948575b335f818152600360209081526040808320805460010190558883526002909152812080546001600160a01b0319168317905586919083907fddf252ad1be2c89b69c2b068fc378daa952ba7f163c4a11628f55a4df523b3ef9080a4506109355760405194610120860186811067ffffffffffffffff821117610921576040523386526020860190600435825260ff60408801818816815261065c36876004013560248901611281565b9260608a0193845282861660808b015260a08a01524260c08a01525f60e08a01525f6101008a0152865f52600860205260405f209360018060a01b0360018060a01b038b5116166bffffffffffffffffffffffff60a01b865416178555516001850155511660ff60028401911660ff198254161790555195865167ffffffffffffffff8111610921576106f260038401546112b7565b97601f89116108d9575b602098508890601f83116001146108425761010060ff94847ffdda520b65e27df0f5dde80a52f8aeb7cee91da2a545b064f7a2ba1020d23e9298958b9c98956007955f92610837575b50508160011b915f199060031b1c19161760038501555b60048401868060808401511616871982541617815560a082015161ff0082549160081b169061ff00191617905560c081015160058501556107b260e08201511515600686019060ff801983541691151516179055565b0151910155335f52600988528560405f2055335f52600a885260405f206001831982541617905581604051931683526080888401528460040135608084015284600401356024860160a08501375f60a0866004013585010152600435604084015216606082015260a0813394601f8019916004013501168101030190a3604051908152f35b015190508e80610745565b90600385015f52805f20915f5b601f19851681106108c2575060ff946001858b9c9895600795610100957ffdda520b65e27df0f5dde80a52f8aeb7cee91da2a545b064f7a2ba1020d23e929c99601f198116106108aa575b505050811b01600385015561075c565b01515f1960f88460031b161c191690558e808061089a565b91928b60018192868501518155019401920161084f565b600384015f5260205f20601f830160051c81019960208410610917575b601f0160051c01985b89811061090c57506106fc565b5f81556001016108ff565b90995089906108f6565b634e487b7160e01b5f52604160045260245ffd5b6339e3563760e11b5f525f60045260245ffd5b5f85815260046020526040902080546001600160a01b0319169055805f52600360205260405f205f1981540190556105b3565b633250574960e11b5f525f60045260245ffd5b60405162461bcd60e51b815260206004820152602160248201527f4d757374207265616368204f7574706f73742074696572206f722068696768656044820152603960f91b6064820152608490fd5b60405162461bcd60e51b815260206004820152601a60248201527f54564c2062656c6f77206d696e696d756d202824352c303030290000000000006044820152606490fd5b60405162461bcd60e51b8152602060048201526015602482015274125cdb185b9908185b1c9958591e481b5a5b9d1959605a1b6044820152606490fd5b3461045a57608036600319011261045a57610a786111dd565b610a806111f3565b6064359167ffffffffffffffff831161045a573660238401121561045a57610ab5610abf933690602481600401359101611281565b91604435916114a2565b005b3461045a575f36600319011261045a576007545f198101908111610aea57602090604051908152f35b634e487b7160e01b5f52601160045260245ffd5b3461045a57604036600319011261045a57610b176111dd565b602435908115159081830361045a573315610ba8576001600160a01b0316918215610b9557610b6790335f52600560205260405f20845f5260205260405f209060ff801983541691151516179055565b6040519081527f17307eab39ab6107e8899845ad3d59bd9653f200f220920489ca2b5937696c3160203392a3005b82630b61174360e31b5f5260045260245ffd5b63a9fbf51f60e01b5f525f60045260245ffd5b3461045a575f36600319011261045a576040515f600154610bdb816112b7565b8084529060018116908115610c755750600114610c17575b61045683610c0381850382611243565b6040519182916020835260208301906111b9565b60015f9081527fb10e2d527612073b26eecdfd717e6a320cf44b4afac2b0732d9fcbe2b7fa0cf6939250905b808210610c5b57509091508101602001610c03610bf3565b919260018160209254838588010152019101909291610c43565b60ff191660208086019190915291151560051b84019091019150610c039050610bf3565b3461045a575f36600319011261045a576006546040516001600160a01b039091168152602090f35b3461045a575f36600319011261045a576007545f198101908111610aea575f9060015b81811115610dd05750610d0f610cf98361148a565b92610d076040519485611243565b80845261148a565b602083019190601f19013683375f9060015b81811115610d6d578385604051918291602083019060208452518091526040830191905f5b818110610d54575050500390f35b8251845285945060209384019390920191600101610d46565b805f52600860205260ff600660405f20015416610d93575b610d8e9061147c565b610d21565b91610d9d8161147c565b928551821015610dbc57806020610d8e9360051b880101529050610d85565b634e487b7160e01b5f52603260045260245ffd5b91825f52600860205260ff600660405f200154165f14610e085760ff60015b168101809111610aea57610e03909261147c565b610ce4565b60ff5f610def565b3461045a575f36600319011261045a57610e28611654565b600680546001600160a01b031981169091555f906001600160a01b03167f8be0079c531659141344cd1fd0a4f28419497f9722a3daafe3b4186f6b6457e08280a3005b3461045a57602036600319011261045a576001600160a01b03610e8c6111dd565b168015610ea9575f526003602052602060405f2054604051908152f35b6322718ad960e21b5f525f60045260245ffd5b3461045a57602036600319011261045a576020610eda600435611620565b6040516001600160a01b039091168152f35b3461045a57610abf610efd36611209565b9060405192610f0d602085611243565b5f84526114a2565b3461045a575f36600319011261045a5760206040516207a1208152f35b3461045a57602036600319011261045a576001600160a01b03610f536111dd565b165f52600a602052602060ff60405f2054166040519015158152f35b3461045a57610abf610f8036611209565b916112ef565b3461045a57604036600319011261045a57610f9f6111dd565b602435610fab81611620565b3315158061105d575b80611030575b61101d5781906001600160a01b0384811691167f8c5be1e5ebec7d5bd14f71427d1e84f3dd0314c0f7b2291e5b200ac8c7c3b9255f80a45f90815260046020526040902080546001600160a01b0319166001600160a01b03909216919091179055005b63a9fbf51f60e01b5f523360045260245ffd5b506001600160a01b0381165f90815260056020908152604080832033845290915290205460ff1615610fba565b506001600160a01b038116331415610fb4565b3461045a57602036600319011261045a5760043561108d81611620565b505f526004602052602060018060a01b0360405f205416604051908152f35b3461045a575f36600319011261045a576040515f80546110cb816112b7565b8084529060018116908115610c7557506001146110f25761045683610c0381850382611243565b5f8080527f290decd9548b62a8d60345a988386fc84ba6bc95484008f6362f93160ef3e563939250905b80821061113457509091508101602001610c03610bf3565b91926001816020925483858801015201910190929161111c565b3461045a57602036600319011261045a576004359063ffffffff60e01b821680920361045a576020916380ac58cd60e01b81149081156111a8575b8115611197575b5015158152f35b6301ffc9a760e01b14905083611190565b635b5e139f60e01b81149150611189565b805180835260209291819084018484015e5f828201840152601f01601f1916010190565b600435906001600160a01b038216820361045a57565b602435906001600160a01b038216820361045a57565b606090600319011261045a576004356001600160a01b038116810361045a57906024356001600160a01b038116810361045a579060443590565b90601f8019910116810190811067ffffffffffffffff82111761092157604052565b67ffffffffffffffff811161092157601f01601f191660200190565b92919261128d82611265565b9161129b6040519384611243565b82948184528183011161045a578281602093845f960137010152565b90600182811c921680156112e5575b60208310146112d157565b634e487b7160e01b5f52602260045260245ffd5b91607f16916112c6565b6001600160a01b039091169190821561097b575f828152600260205260409020546001600160a01b0316928290331515806113e7575b50846113b4575b805f52600360205260405f2060018154019055815f52600260205260405f20816bffffffffffffffffffffffff60a01b825416179055847fddf252ad1be2c89b69c2b068fc378daa952ba7f163c4a11628f55a4df523b3ef5f80a46001600160a01b031680830361139c57505050565b6364283d7b60e01b5f5260045260245260445260645ffd5b5f82815260046020526040902080546001600160a01b0319169055845f52600360205260405f205f19815401905561132c565b9091508061142b575b156113fd5782905f611325565b828461141557637e27328960e01b5f5260045260245ffd5b63177e802f60e01b5f523360045260245260445ffd5b50338414801561145a575b806113f057505f838152600460205260409020546001600160a01b031633146113f0565b505f84815260056020908152604080832033845290915290205460ff16611436565b5f198114610aea5760010190565b67ffffffffffffffff81116109215760051b60200190565b92916114af8183866112ef565b813b6114bc575b50505050565b604051630a85bd0160e11b81523360048201526001600160a01b03948516602482015260448101919091526080606482015292169190602090829081906115079060848301906111b9565b03815f865af15f918161159d575b5061156a57503d15611563573d61152b81611265565b906115396040519283611243565b81523d5f602083013e5b8051908161155e5782633250574960e11b5f5260045260245ffd5b602001fd5b6060611543565b6001600160e01b03191663757a42ff60e11b0161158b57505f8080806114b6565b633250574960e11b5f5260045260245ffd5b9091506020813d6020116115da575b816115b960209383611243565b8101031261045a57516001600160e01b03198116810361045a57905f611515565b3d91506115ac565b156115e957565b60405162461bcd60e51b815260206004820152600f60248201526e139bdd081e5bdd5c881a5cdb185b99608a1b6044820152606490fd5b5f818152600260205260409020546001600160a01b0316908115611642575090565b637e27328960e01b5f5260045260245ffd5b6006546001600160a01b0316330361166857565b63118cdaa760e01b5f523360045260245ffdfea264697066735822122031ea7b180009fed05a8e50e8dd9c9c2f2d7191c90909468301bd13d010f5ffba64736f6c634300081a0033","opcodes":"PUSH1 0x80 PUSH1 0x40 MSTORE CALLVALUE PUSH2 0x378 JUMPI PUSH1 0x40 DUP1 MLOAD SWAP1 DUP2 ADD PUSH1 0x1 PUSH1 0x1 PUSH1 0x40 SHL SUB DUP2 GT DUP3 DUP3 LT OR PUSH2 0x28E JUMPI PUSH1 0x40 SWAP1 DUP2 MSTORE PUSH1 0xC DUP3 MSTORE PUSH12 0x105D1B185CC8125CDB185B99 PUSH1 0xA2 SHL PUSH1 0x20 DUP4 ADD MSTORE DUP1 MLOAD SWAP1 DUP2 ADD PUSH1 0x1 PUSH1 0x1 PUSH1 0x40 SHL SUB DUP2 GT DUP3 DUP3 LT OR PUSH2 0x28E JUMPI PUSH1 0x40 MSTORE PUSH1 0x9 DUP2 MSTORE PUSH9 0x1055131054CB5254D3 PUSH1 0xBA SHL PUSH1 0x20 DUP3 ADD MSTORE DUP2 MLOAD PUSH1 0x1 PUSH1 0x1 PUSH1 0x40 SHL SUB DUP2 GT PUSH2 0x28E JUMPI PUSH0 SLOAD PUSH1 0x1 DUP2 DUP2 SHR SWAP2 AND DUP1 ISZERO PUSH2 0x36E JUMPI JUMPDEST PUSH1 0x20 DUP3 LT EQ PUSH2 0x270 JUMPI PUSH1 0x1F DUP2 GT PUSH2 0x30C JUMPI JUMPDEST POP PUSH1 0x20 SWAP3 PUSH1 0x1F DUP3 GT PUSH1 0x1 EQ PUSH2 0x2AD JUMPI SWAP3 DUP2 SWAP3 SWAP4 PUSH0 SWAP3 PUSH2 0x2A2 JUMPI JUMPDEST POP POP DUP2 PUSH1 0x1 SHL SWAP2 PUSH0 NOT SWAP1 PUSH1 0x3 SHL SHR NOT AND OR PUSH0 SSTORE JUMPDEST DUP1 MLOAD PUSH1 0x1 PUSH1 0x1 PUSH1 0x40 SHL SUB DUP2 GT PUSH2 0x28E JUMPI PUSH1 0x1 SLOAD PUSH1 0x1 DUP2 DUP2 SHR SWAP2 AND DUP1 ISZERO PUSH2 0x284 JUMPI JUMPDEST PUSH1 0x20 DUP3 LT EQ PUSH2 0x270 JUMPI PUSH1 0x1F DUP2 GT PUSH2 0x20D JUMPI JUMPDEST POP PUSH1 0x20 SWAP2 PUSH1 0x1F DUP3 GT PUSH1 0x1 EQ PUSH2 0x1AD JUMPI SWAP2 DUP2 SWAP3 PUSH0 SWAP3 PUSH2 0x1A2 JUMPI JUMPDEST POP POP DUP2 PUSH1 0x1 SHL SWAP2 PUSH0 NOT SWAP1 PUSH1 0x3 SHL SHR NOT AND OR PUSH1 0x1 SSTORE JUMPDEST CALLER ISZERO PUSH2 0x18F JUMPI PUSH1 0x6 DUP1 SLOAD CALLER PUSH1 0x1 PUSH1 0x1 PUSH1 0xA0 SHL SUB NOT DUP3 AND DUP2 OR SWAP1 SWAP3 SSTORE PUSH1 0x40 MLOAD SWAP2 SWAP1 PUSH1 0x1 PUSH1 0x1 PUSH1 0xA0 SHL SUB AND PUSH32 0x8BE0079C531659141344CD1FD0A4F28419497F9722A3DAAFE3B4186F6B6457E0 PUSH0 DUP1 LOG3 PUSH1 0x1 PUSH1 0x7 SSTORE PUSH2 0x16B1 SWAP1 DUP2 PUSH2 0x37D DUP3 CODECOPY RETURN JUMPDEST PUSH4 0x1E4FBDF7 PUSH1 0xE0 SHL PUSH0 MSTORE PUSH0 PUSH1 0x4 MSTORE PUSH1 0x24 PUSH0 REVERT JUMPDEST ADD MLOAD SWAP1 POP PUSH0 DUP1 PUSH2 0x11C JUMP JUMPDEST PUSH1 0x1F NOT DUP3 AND SWAP3 PUSH1 0x1 PUSH0 MSTORE DUP1 PUSH0 KECCAK256 SWAP2 PUSH0 JUMPDEST DUP6 DUP2 LT PUSH2 0x1F5 JUMPI POP DUP4 PUSH1 0x1 SWAP6 LT PUSH2 0x1DD JUMPI JUMPDEST POP POP POP DUP2 SHL ADD PUSH1 0x1 SSTORE PUSH2 0x131 JUMP JUMPDEST ADD MLOAD PUSH0 NOT PUSH1 0xF8 DUP5 PUSH1 0x3 SHL AND SHR NOT AND SWAP1 SSTORE PUSH0 DUP1 DUP1 PUSH2 0x1CF JUMP JUMPDEST SWAP2 SWAP3 PUSH1 0x20 PUSH1 0x1 DUP2 SWAP3 DUP7 DUP6 ADD MLOAD DUP2 SSTORE ADD SWAP5 ADD SWAP3 ADD PUSH2 0x1BD JUMP JUMPDEST PUSH1 0x1 PUSH0 MSTORE PUSH32 0xB10E2D527612073B26EECDFD717E6A320CF44B4AFAC2B0732D9FCBE2B7FA0CF6 PUSH1 0x1F DUP4 ADD PUSH1 0x5 SHR DUP2 ADD SWAP2 PUSH1 0x20 DUP5 LT PUSH2 0x266 JUMPI JUMPDEST PUSH1 0x1F ADD PUSH1 0x5 SHR ADD SWAP1 JUMPDEST DUP2 DUP2 LT PUSH2 0x25B JUMPI POP PUSH2 0x103 JUMP JUMPDEST PUSH0 DUP2 SSTORE PUSH1 0x1 ADD PUSH2 0x24E JUMP JUMPDEST SWAP1 SWAP2 POP DUP2 SWAP1 PUSH2 0x245 JUMP JUMPDEST PUSH4 0x4E487B71 PUSH1 0xE0 SHL PUSH0 MSTORE PUSH1 0x22 PUSH1 0x4 MSTORE PUSH1 0x24 PUSH0 REVERT JUMPDEST SWAP1 PUSH1 0x7F AND SWAP1 PUSH2 0xF1 JUMP JUMPDEST PUSH4 0x4E487B71 PUSH1 0xE0 SHL PUSH0 MSTORE PUSH1 0x41 PUSH1 0x4 MSTORE PUSH1 0x24 PUSH0 REVERT JUMPDEST ADD MLOAD SWAP1 POP PUSH0 DUP1 PUSH2 0xBC JUMP JUMPDEST PUSH1 0x1F NOT DUP3 AND SWAP4 PUSH0 DUP1 MSTORE DUP1 PUSH0 KECCAK256 SWAP2 PUSH0 JUMPDEST DUP7 DUP2 LT PUSH2 0x2F4 JUMPI POP DUP4 PUSH1 0x1 SWAP6 SWAP7 LT PUSH2 0x2DC JUMPI JUMPDEST POP POP POP DUP2 SHL ADD PUSH0 SSTORE PUSH2 0xD0 JUMP JUMPDEST ADD MLOAD PUSH0 NOT PUSH1 0xF8 DUP5 PUSH1 0x3 SHL AND SHR NOT AND SWAP1 SSTORE PUSH0 DUP1 DUP1 PUSH2 0x2CF JUMP JUMPDEST SWAP2 SWAP3 PUSH1 0x20 PUSH1 0x1 DUP2 SWAP3 DUP7 DUP6 ADD MLOAD DUP2 SSTORE ADD SWAP5 ADD SWAP3 ADD PUSH2 0x2BC JUMP JUMPDEST PUSH0 DUP1 MSTORE PUSH32 0x290DECD9548B62A8D60345A988386FC84BA6BC95484008F6362F93160EF3E563 PUSH1 0x1F DUP4 ADD PUSH1 0x5 SHR DUP2 ADD SWAP2 PUSH1 0x20 DUP5 LT PUSH2 0x364 JUMPI JUMPDEST PUSH1 0x1F ADD PUSH1 0x5 SHR ADD SWAP1 JUMPDEST DUP2 DUP2 LT PUSH2 0x359 JUMPI POP PUSH2 0xA2 JUMP JUMPDEST PUSH0 DUP2 SSTORE PUSH1 0x1 ADD PUSH2 0x34C JUMP JUMPDEST SWAP1 SWAP2 POP DUP2 SWAP1 PUSH2 0x343 JUMP JUMPDEST SWAP1 PUSH1 0x7F AND SWAP1 PUSH2 0x90 JUMP JUMPDEST PUSH0 DUP1 REVERT INVALID PUSH1 0x80 DUP1 PUSH1 0x40 MSTORE PUSH1 0x4 CALLDATASIZE LT ISZERO PUSH2 0x12 JUMPI PUSH0 DUP1 REVERT JUMPDEST PUSH0 SWAP1 PUSH0 CALLDATALOAD PUSH1 0xE0 SHR SWAP1 DUP2 PUSH4 0x1FFC9A7 EQ PUSH2 0x114E JUMPI POP DUP1 PUSH4 0x6FDDE03 EQ PUSH2 0x10AC JUMPI DUP1 PUSH4 0x81812FC EQ PUSH2 0x1070 JUMPI DUP1 PUSH4 0x95EA7B3 EQ PUSH2 0xF86 JUMPI DUP1 PUSH4 0x23B872DD EQ PUSH2 0xF6F JUMPI DUP1 PUSH4 0x38E21CCE EQ PUSH2 0xF32 JUMPI DUP1 PUSH4 0x3AC4DF1D EQ PUSH2 0xF15 JUMPI DUP1 PUSH4 0x42842E0E EQ PUSH2 0xEEC JUMPI DUP1 PUSH4 0x6352211E EQ PUSH2 0xEBC JUMPI DUP1 PUSH4 0x70A08231 EQ PUSH2 0xE6B JUMPI DUP1 PUSH4 0x715018A6 EQ PUSH2 0xE10 JUMPI DUP1 PUSH4 0x80981F2B EQ PUSH2 0xCC1 JUMPI DUP1 PUSH4 0x8DA5CB5B EQ PUSH2 0xC99 JUMPI DUP1 PUSH4 0x95D89B41 EQ PUSH2 0xBBB JUMPI DUP1 PUSH4 0xA22CB465 EQ PUSH2 0xAFE JUMPI DUP1 PUSH4 0xA2309FF8 EQ PUSH2 0xAC1 JUMPI DUP1 PUSH4 0xB88D4FDE EQ PUSH2 0xA5F JUMPI DUP1 PUSH4 0xBC6B1B0A EQ PUSH2 0x4D6 JUMPI DUP1 PUSH4 0xC1EE2255 EQ PUSH2 0x45E JUMPI DUP1 PUSH4 0xC87B56DD EQ PUSH2 0x401 JUMPI DUP1 PUSH4 0xDA4C963A EQ PUSH2 0x3C8 JUMPI DUP1 PUSH4 0xDE856354 EQ PUSH2 0x359 JUMPI DUP1 PUSH4 0xE2C5A917 EQ PUSH2 0x214 JUMPI DUP1 PUSH4 0xE985E9C5 EQ PUSH2 0x1BC JUMPI PUSH4 0xF2FDE38B EQ PUSH2 0x131 JUMPI PUSH0 DUP1 REVERT JUMPDEST CALLVALUE PUSH2 0x1B9 JUMPI PUSH1 0x20 CALLDATASIZE PUSH1 0x3 NOT ADD SLT PUSH2 0x1B9 JUMPI PUSH2 0x14A PUSH2 0x11DD JUMP JUMPDEST PUSH2 0x152 PUSH2 0x1654 JUMP JUMPDEST PUSH1 0x1 PUSH1 0x1 PUSH1 0xA0 SHL SUB AND DUP1 ISZERO PUSH2 0x1A5 JUMPI PUSH1 0x6 DUP1 SLOAD PUSH1 0x1 PUSH1 0x1 PUSH1 0xA0 SHL SUB NOT DUP2 AND DUP4 OR SWAP1 SWAP2 SSTORE PUSH1 0x1 PUSH1 0x1 PUSH1 0xA0 SHL SUB AND PUSH32 0x8BE0079C531659141344CD1FD0A4F28419497F9722A3DAAFE3B4186F6B6457E0 PUSH0 DUP1 LOG3 DUP1 RETURN JUMPDEST PUSH4 0x1E4FBDF7 PUSH1 0xE0 SHL DUP3 MSTORE PUSH1 0x4 DUP3 SWAP1 MSTORE PUSH1 0x24 DUP3 REVERT JUMPDEST DUP1 REVERT JUMPDEST POP CALLVALUE PUSH2 0x1B9 JUMPI PUSH1 0x40 CALLDATASIZE PUSH1 0x3 NOT ADD SLT PUSH2 0x1B9 JUMPI PUSH1 0x40 PUSH2 0x1D8 PUSH2 0x11DD JUMP JUMPDEST SWAP2 PUSH2 0x1E1 PUSH2 0x11F3 JUMP JUMPDEST SWAP3 PUSH1 0x1 DUP1 PUSH1 0xA0 SHL SUB AND DUP2 MSTORE PUSH1 0x5 PUSH1 0x20 MSTORE KECCAK256 SWAP1 PUSH1 0x1 DUP1 PUSH1 0xA0 SHL SUB AND PUSH0 MSTORE PUSH1 0x20 MSTORE PUSH1 0x20 PUSH1 0xFF PUSH1 0x40 PUSH0 KECCAK256 SLOAD AND PUSH1 0x40 MLOAD SWAP1 ISZERO ISZERO DUP2 MSTORE RETURN JUMPDEST POP CALLVALUE PUSH2 0x1B9 JUMPI PUSH1 0x20 CALLDATASIZE PUSH1 0x3 NOT ADD SLT PUSH2 0x1B9 JUMPI PUSH1 0x40 SWAP1 PUSH1 0x4 CALLDATALOAD DUP2 MSTORE PUSH1 0x8 PUSH1 0x20 MSTORE KECCAK256 PUSH1 0x1 DUP1 PUSH1 0xA0 SHL SUB DUP2 SLOAD AND PUSH1 0x1 DUP3 ADD SLOAD SWAP2 PUSH1 0xFF PUSH1 0x2 DUP3 ADD SLOAD AND PUSH1 0x3 DUP3 ADD SWAP2 PUSH1 0x40 MLOAD SWAP3 DUP4 PUSH0 DUP3 SLOAD SWAP3 PUSH2 0x263 DUP5 PUSH2 0x12B7 JUMP JUMPDEST DUP1 DUP5 MSTORE SWAP4 PUSH1 0x1 DUP2 AND SWAP1 DUP2 ISZERO PUSH2 0x337 JUMPI POP PUSH1 0x1 EQ PUSH2 0x2F3 JUMPI JUMPDEST POP PUSH2 0x288 SWAP3 POP SUB DUP5 PUSH2 0x1243 JUMP JUMPDEST PUSH1 0x4 DUP2 ADD SLOAD SWAP3 PUSH1 0xFF PUSH2 0x2CB PUSH1 0x5 DUP5 ADD SLOAD SWAP3 PUSH1 0x7 DUP4 PUSH1 0x6 DUP8 ADD SLOAD AND SWAP6 ADD SLOAD SWAP6 PUSH1 0x40 MLOAD SWAP10 DUP11 SWAP10 DUP11 MSTORE PUSH1 0x20 DUP11 ADD MSTORE PUSH1 0x40 DUP10 ADD MSTORE PUSH2 0x120 PUSH1 0x60 DUP10 ADD MSTORE PUSH2 0x120 DUP9 ADD SWAP1 PUSH2 0x11B9 JUMP JUMPDEST SWAP5 DUP2 DUP2 AND PUSH1 0x80 DUP9 ADD MSTORE PUSH1 0x8 SHR AND PUSH1 0xA0 DUP7 ADD MSTORE PUSH1 0xC0 DUP6 ADD MSTORE ISZERO ISZERO PUSH1 0xE0 DUP5 ADD MSTORE PUSH2 0x100 DUP4 ADD MSTORE SUB SWAP1 RETURN JUMPDEST SWAP1 POP PUSH0 SWAP3 SWAP2 SWAP3 MSTORE PUSH1 0x20 PUSH0 KECCAK256 SWAP1 PUSH0 SWAP2 JUMPDEST DUP2 DUP4 LT PUSH2 0x31B JUMPI POP POP SWAP1 PUSH1 0x20 PUSH2 0x288 SWAP3 DUP3 ADD ADD PUSH0 PUSH2 0x27B JUMP JUMPDEST PUSH1 0x20 SWAP2 SWAP4 POP DUP1 PUSH1 0x1 SWAP2 SLOAD DUP4 DUP6 DUP11 ADD ADD MSTORE ADD SWAP2 ADD SWAP1 SWAP2 DUP6 SWAP3 PUSH2 0x302 JUMP JUMPDEST SWAP1 POP PUSH1 0x20 SWAP3 POP PUSH2 0x288 SWAP5 SWAP2 POP PUSH1 0xFF NOT AND DUP3 DUP5 ADD MSTORE ISZERO ISZERO PUSH1 0x5 SHL DUP3 ADD ADD PUSH0 PUSH2 0x27B JUMP JUMPDEST POP CALLVALUE PUSH2 0x1B9 JUMPI PUSH1 0x20 CALLDATASIZE PUSH1 0x3 NOT ADD SLT PUSH2 0x1B9 JUMPI PUSH1 0x4 CALLDATALOAD PUSH2 0x38A PUSH2 0x37A DUP3 PUSH2 0x1620 JUMP JUMPDEST PUSH1 0x1 PUSH1 0x1 PUSH1 0xA0 SHL SUB AND CALLER EQ PUSH2 0x15E2 JUMP JUMPDEST DUP1 DUP3 MSTORE PUSH1 0x8 PUSH1 0x20 MSTORE PUSH1 0x40 DUP3 KECCAK256 PUSH1 0x6 ADD DUP1 SLOAD PUSH1 0xFF NOT AND SWAP1 SSTORE PUSH32 0x9DD180759DB5A33374BD9DB1C06109B15C5FF13FB85ED9417557BB0E34643CC5 DUP3 DUP1 LOG2 DUP1 RETURN JUMPDEST POP CALLVALUE PUSH2 0x1B9 JUMPI PUSH1 0x20 CALLDATASIZE PUSH1 0x3 NOT ADD SLT PUSH2 0x1B9 JUMPI PUSH1 0x20 SWAP1 PUSH1 0x40 SWAP1 PUSH1 0x1 PUSH1 0x1 PUSH1 0xA0 SHL SUB PUSH2 0x3F0 PUSH2 0x11DD JUMP JUMPDEST AND DUP2 MSTORE PUSH1 0x9 DUP4 MSTORE KECCAK256 SLOAD PUSH1 0x40 MLOAD SWAP1 DUP2 MSTORE RETURN JUMPDEST CALLVALUE PUSH2 0x45A JUMPI PUSH1 0x20 CALLDATASIZE PUSH1 0x3 NOT ADD SLT PUSH2 0x45A JUMPI PUSH2 0x41D PUSH1 0x4 CALLDATALOAD PUSH2 0x1620 JUMP JUMPDEST POP PUSH0 PUSH1 0x40 MLOAD PUSH2 0x42D PUSH1 0x20 DUP3 PUSH2 0x1243 JUMP JUMPDEST MSTORE PUSH2 0x456 PUSH1 0x40 MLOAD PUSH2 0x43F PUSH1 0x20 DUP3 PUSH2 0x1243 JUMP JUMPDEST PUSH0 DUP2 MSTORE PUSH1 0x40 MLOAD SWAP2 DUP3 SWAP2 PUSH1 0x20 DUP4 MSTORE PUSH1 0x20 DUP4 ADD SWAP1 PUSH2 0x11B9 JUMP JUMPDEST SUB SWAP1 RETURN JUMPDEST PUSH0 DUP1 REVERT JUMPDEST CALLVALUE PUSH2 0x45A JUMPI PUSH1 0x40 CALLDATASIZE PUSH1 0x3 NOT ADD SLT PUSH2 0x45A JUMPI PUSH1 0x4 CALLDATALOAD PUSH32 0xFC923409361DDE370FD0740830134EB7E059D959EDF60061C9FA59B00E1668AA PUSH1 0x20 PUSH1 0x24 CALLDATALOAD PUSH2 0x4A4 PUSH2 0x37A DUP6 PUSH2 0x1620 JUMP JUMPDEST DUP4 PUSH0 MSTORE PUSH1 0x8 DUP3 MSTORE PUSH1 0x6 PUSH1 0x40 PUSH0 KECCAK256 ADD PUSH1 0x1 PUSH1 0xFF NOT DUP3 SLOAD AND OR SWAP1 SSTORE DUP4 PUSH0 MSTORE PUSH1 0x8 DUP3 MSTORE DUP1 PUSH1 0x7 PUSH1 0x40 PUSH0 KECCAK256 ADD SSTORE PUSH1 0x40 MLOAD SWAP1 DUP2 MSTORE LOG2 STOP JUMPDEST CALLVALUE PUSH2 0x45A JUMPI PUSH1 0xA0 CALLDATASIZE PUSH1 0x3 NOT ADD SLT PUSH2 0x45A JUMPI PUSH1 0x24 CALLDATALOAD PUSH1 0xFF DUP2 AND DUP2 SUB PUSH2 0x45A JUMPI PUSH1 0x44 CALLDATALOAD SWAP1 PUSH8 0xFFFFFFFFFFFFFFFF DUP3 GT PUSH2 0x45A JUMPI CALLDATASIZE PUSH1 0x23 DUP4 ADD SLT ISZERO PUSH2 0x45A JUMPI PUSH8 0xFFFFFFFFFFFFFFFF DUP3 PUSH1 0x4 ADD CALLDATALOAD GT PUSH2 0x45A JUMPI CALLDATASIZE PUSH1 0x24 DUP4 PUSH1 0x4 ADD CALLDATALOAD DUP5 ADD ADD GT PUSH2 0x45A JUMPI PUSH1 0x64 CALLDATALOAD PUSH1 0xFF DUP2 AND DUP2 SUB PUSH2 0x45A JUMPI PUSH1 0x84 CALLDATALOAD SWAP3 PUSH1 0xFF DUP5 AND DUP1 SWAP5 SUB PUSH2 0x45A JUMPI CALLER PUSH0 MSTORE PUSH1 0xA PUSH1 0x20 MSTORE PUSH1 0xFF PUSH1 0x40 PUSH0 KECCAK256 SLOAD AND PUSH2 0xA22 JUMPI PUSH3 0x7A120 PUSH1 0x4 CALLDATALOAD LT PUSH2 0x9DD JUMPI PUSH1 0x2 PUSH1 0xFF DUP5 AND LT PUSH2 0x98E JUMPI PUSH1 0x7 SLOAD SWAP2 PUSH2 0x589 DUP4 PUSH2 0x147C JUMP JUMPDEST PUSH1 0x7 SSTORE CALLER ISZERO PUSH2 0x97B JUMPI PUSH0 DUP4 DUP2 MSTORE PUSH1 0x2 PUSH1 0x20 MSTORE PUSH1 0x40 SWAP1 KECCAK256 SLOAD PUSH1 0x1 PUSH1 0x1 PUSH1 0xA0 SHL SUB AND DUP1 ISZERO ISZERO SWAP1 DUP2 PUSH2 0x948 JUMPI JUMPDEST CALLER PUSH0 DUP2 DUP2 MSTORE PUSH1 0x3 PUSH1 0x20 SWAP1 DUP2 MSTORE PUSH1 0x40 DUP1 DUP4 KECCAK256 DUP1 SLOAD PUSH1 0x1 ADD SWAP1 SSTORE DUP9 DUP4 MSTORE PUSH1 0x2 SWAP1 SWAP2 MSTORE DUP2 KECCAK256 DUP1 SLOAD PUSH1 0x1 PUSH1 0x1 PUSH1 0xA0 SHL SUB NOT AND DUP4 OR SWAP1 SSTORE DUP7 SWAP2 SWAP1 DUP4 SWAP1 PUSH32 0xDDF252AD1BE2C89B69C2B068FC378DAA952BA7F163C4A11628F55A4DF523B3EF SWAP1 DUP1 LOG4 POP PUSH2 0x935 JUMPI PUSH1 0x40 MLOAD SWAP5 PUSH2 0x120 DUP7 ADD DUP7 DUP2 LT PUSH8 0xFFFFFFFFFFFFFFFF DUP3 GT OR PUSH2 0x921 JUMPI PUSH1 0x40 MSTORE CALLER DUP7 MSTORE PUSH1 0x20 DUP7 ADD SWAP1 PUSH1 0x4 CALLDATALOAD DUP3 MSTORE PUSH1 0xFF PUSH1 0x40 DUP9 ADD DUP2 DUP9 AND DUP2 MSTORE PUSH2 0x65C CALLDATASIZE DUP8 PUSH1 0x4 ADD CALLDATALOAD PUSH1 0x24 DUP10 ADD PUSH2 0x1281 JUMP JUMPDEST SWAP3 PUSH1 0x60 DUP11 ADD SWAP4 DUP5 MSTORE DUP3 DUP7 AND PUSH1 0x80 DUP12 ADD MSTORE PUSH1 0xA0 DUP11 ADD MSTORE TIMESTAMP PUSH1 0xC0 DUP11 ADD MSTORE PUSH0 PUSH1 0xE0 DUP11 ADD MSTORE PUSH0 PUSH2 0x100 DUP11 ADD MSTORE DUP7 PUSH0 MSTORE PUSH1 0x8 PUSH1 0x20 MSTORE PUSH1 0x40 PUSH0 KECCAK256 SWAP4 PUSH1 0x1 DUP1 PUSH1 0xA0 SHL SUB PUSH1 0x1 DUP1 PUSH1 0xA0 SHL SUB DUP12 MLOAD AND AND PUSH12 0xFFFFFFFFFFFFFFFFFFFFFFFF PUSH1 0xA0 SHL DUP7 SLOAD AND OR DUP6 SSTORE MLOAD PUSH1 0x1 DUP6 ADD SSTORE MLOAD AND PUSH1 0xFF PUSH1 0x2 DUP5 ADD SWAP2 AND PUSH1 0xFF NOT DUP3 SLOAD AND OR SWAP1 SSTORE MLOAD SWAP6 DUP7 MLOAD PUSH8 0xFFFFFFFFFFFFFFFF DUP2 GT PUSH2 0x921 JUMPI PUSH2 0x6F2 PUSH1 0x3 DUP5 ADD SLOAD PUSH2 0x12B7 JUMP JUMPDEST SWAP8 PUSH1 0x1F DUP10 GT PUSH2 0x8D9 JUMPI JUMPDEST PUSH1 0x20 SWAP9 POP DUP9 SWAP1 PUSH1 0x1F DUP4 GT PUSH1 0x1 EQ PUSH2 0x842 JUMPI PUSH2 0x100 PUSH1 0xFF SWAP5 DUP5 PUSH32 0xFDDA520B65E27DF0F5DDE80A52F8AEB7CEE91DA2A545B064F7A2BA1020D23E92 SWAP9 SWAP6 DUP12 SWAP13 SWAP9 SWAP6 PUSH1 0x7 SWAP6 PUSH0 SWAP3 PUSH2 0x837 JUMPI JUMPDEST POP POP DUP2 PUSH1 0x1 SHL SWAP2 PUSH0 NOT SWAP1 PUSH1 0x3 SHL SHR NOT AND OR PUSH1 0x3 DUP6 ADD SSTORE JUMPDEST PUSH1 0x4 DUP5 ADD DUP7 DUP1 PUSH1 0x80 DUP5 ADD MLOAD AND AND DUP8 NOT DUP3 SLOAD AND OR DUP2 SSTORE PUSH1 0xA0 DUP3 ADD MLOAD PUSH2 0xFF00 DUP3 SLOAD SWAP2 PUSH1 0x8 SHL AND SWAP1 PUSH2 0xFF00 NOT AND OR SWAP1 SSTORE PUSH1 0xC0 DUP2 ADD MLOAD PUSH1 0x5 DUP6 ADD SSTORE PUSH2 0x7B2 PUSH1 0xE0 DUP3 ADD MLOAD ISZERO ISZERO PUSH1 0x6 DUP7 ADD SWAP1 PUSH1 0xFF DUP1 NOT DUP4 SLOAD AND SWAP2 ISZERO ISZERO AND OR SWAP1 SSTORE JUMP JUMPDEST ADD MLOAD SWAP2 ADD SSTORE CALLER PUSH0 MSTORE PUSH1 0x9 DUP9 MSTORE DUP6 PUSH1 0x40 PUSH0 KECCAK256 SSTORE CALLER PUSH0 MSTORE PUSH1 0xA DUP9 MSTORE PUSH1 0x40 PUSH0 KECCAK256 PUSH1 0x1 DUP4 NOT DUP3 SLOAD AND OR SWAP1 SSTORE DUP2 PUSH1 0x40 MLOAD SWAP4 AND DUP4 MSTORE PUSH1 0x80 DUP9 DUP5 ADD MSTORE DUP5 PUSH1 0x4 ADD CALLDATALOAD PUSH1 0x80 DUP5 ADD MSTORE DUP5 PUSH1 0x4 ADD CALLDATALOAD PUSH1 0x24 DUP7 ADD PUSH1 0xA0 DUP6 ADD CALLDATACOPY PUSH0 PUSH1 0xA0 DUP7 PUSH1 0x4 ADD CALLDATALOAD DUP6 ADD ADD MSTORE PUSH1 0x4 CALLDATALOAD PUSH1 0x40 DUP5 ADD MSTORE AND PUSH1 0x60 DUP3 ADD MSTORE PUSH1 0xA0 DUP2 CALLER SWAP5 PUSH1 0x1F DUP1 NOT SWAP2 PUSH1 0x4 ADD CALLDATALOAD ADD AND DUP2 ADD SUB ADD SWAP1 LOG3 PUSH1 0x40 MLOAD SWAP1 DUP2 MSTORE RETURN JUMPDEST ADD MLOAD SWAP1 POP DUP15 DUP1 PUSH2 0x745 JUMP JUMPDEST SWAP1 PUSH1 0x3 DUP6 ADD PUSH0 MSTORE DUP1 PUSH0 KECCAK256 SWAP2 PUSH0 JUMPDEST PUSH1 0x1F NOT DUP6 AND DUP2 LT PUSH2 0x8C2 JUMPI POP PUSH1 0xFF SWAP5 PUSH1 0x1 DUP6 DUP12 SWAP13 SWAP9 SWAP6 PUSH1 0x7 SWAP6 PUSH2 0x100 SWAP6 PUSH32 0xFDDA520B65E27DF0F5DDE80A52F8AEB7CEE91DA2A545B064F7A2BA1020D23E92 SWAP13 SWAP10 PUSH1 0x1F NOT DUP2 AND LT PUSH2 0x8AA JUMPI JUMPDEST POP POP POP DUP2 SHL ADD PUSH1 0x3 DUP6 ADD SSTORE PUSH2 0x75C JUMP JUMPDEST ADD MLOAD PUSH0 NOT PUSH1 0xF8 DUP5 PUSH1 0x3 SHL AND SHR NOT AND SWAP1 SSTORE DUP15 DUP1 DUP1 PUSH2 0x89A JUMP JUMPDEST SWAP2 SWAP3 DUP12 PUSH1 0x1 DUP2 SWAP3 DUP7 DUP6 ADD MLOAD DUP2 SSTORE ADD SWAP5 ADD SWAP3 ADD PUSH2 0x84F JUMP JUMPDEST PUSH1 0x3 DUP5 ADD PUSH0 MSTORE PUSH1 0x20 PUSH0 KECCAK256 PUSH1 0x1F DUP4 ADD PUSH1 0x5 SHR DUP2 ADD SWAP10 PUSH1 0x20 DUP5 LT PUSH2 0x917 JUMPI JUMPDEST PUSH1 0x1F ADD PUSH1 0x5 SHR ADD SWAP9 JUMPDEST DUP10 DUP2 LT PUSH2 0x90C JUMPI POP PUSH2 0x6FC JUMP JUMPDEST PUSH0 DUP2 SSTORE PUSH1 0x1 ADD PUSH2 0x8FF JUMP JUMPDEST SWAP1 SWAP10 POP DUP10 SWAP1 PUSH2 0x8F6 JUMP JUMPDEST PUSH4 0x4E487B71 PUSH1 0xE0 SHL PUSH0 MSTORE PUSH1 0x41 PUSH1 0x4 MSTORE PUSH1 0x24 PUSH0 REVERT JUMPDEST PUSH4 0x39E35637 PUSH1 0xE1 SHL PUSH0 MSTORE PUSH0 PUSH1 0x4 MSTORE PUSH1 0x24 PUSH0 REVERT JUMPDEST PUSH0 DUP6 DUP2 MSTORE PUSH1 0x4 PUSH1 0x20 MSTORE PUSH1 0x40 SWAP1 KECCAK256 DUP1 SLOAD PUSH1 0x1 PUSH1 0x1 PUSH1 0xA0 SHL SUB NOT AND SWAP1 SSTORE DUP1 PUSH0 MSTORE PUSH1 0x3 PUSH1 0x20 MSTORE PUSH1 0x40 PUSH0 KECCAK256 PUSH0 NOT DUP2 SLOAD ADD SWAP1 SSTORE PUSH2 0x5B3 JUMP JUMPDEST PUSH4 0x32505749 PUSH1 0xE1 SHL PUSH0 MSTORE PUSH0 PUSH1 0x4 MSTORE PUSH1 0x24 PUSH0 REVERT JUMPDEST PUSH1 0x40 MLOAD PUSH3 0x461BCD PUSH1 0xE5 SHL DUP2 MSTORE PUSH1 0x20 PUSH1 0x4 DUP3 ADD MSTORE PUSH1 0x21 PUSH1 0x24 DUP3 ADD MSTORE PUSH32 0x4D757374207265616368204F7574706F73742074696572206F72206869676865 PUSH1 0x44 DUP3 ADD MSTORE PUSH1 0x39 PUSH1 0xF9 SHL PUSH1 0x64 DUP3 ADD MSTORE PUSH1 0x84 SWAP1 REVERT JUMPDEST PUSH1 0x40 MLOAD PUSH3 0x461BCD PUSH1 0xE5 SHL DUP2 MSTORE PUSH1 0x20 PUSH1 0x4 DUP3 ADD MSTORE PUSH1 0x1A PUSH1 0x24 DUP3 ADD MSTORE PUSH32 0x54564C2062656C6F77206D696E696D756D202824352C30303029000000000000 PUSH1 0x44 DUP3 ADD MSTORE PUSH1 0x64 SWAP1 REVERT JUMPDEST PUSH1 0x40 MLOAD PUSH3 0x461BCD PUSH1 0xE5 SHL DUP2 MSTORE PUSH1 0x20 PUSH1 0x4 DUP3 ADD MSTORE PUSH1 0x15 PUSH1 0x24 DUP3 ADD MSTORE PUSH21 0x125CDB185B9908185B1C9958591E481B5A5B9D1959 PUSH1 0x5A SHL PUSH1 0x44 DUP3 ADD MSTORE PUSH1 0x64 SWAP1 REVERT JUMPDEST CALLVALUE PUSH2 0x45A JUMPI PUSH1 0x80 CALLDATASIZE PUSH1 0x3 NOT ADD SLT PUSH2 0x45A JUMPI PUSH2 0xA78 PUSH2 0x11DD JUMP JUMPDEST PUSH2 0xA80 PUSH2 0x11F3 JUMP JUMPDEST PUSH1 0x64 CALLDATALOAD SWAP2 PUSH8 0xFFFFFFFFFFFFFFFF DUP4 GT PUSH2 0x45A JUMPI CALLDATASIZE PUSH1 0x23 DUP5 ADD SLT ISZERO PUSH2 0x45A JUMPI PUSH2 0xAB5 PUSH2 0xABF SWAP4 CALLDATASIZE SWAP1 PUSH1 0x24 DUP2 PUSH1 0x4 ADD CALLDATALOAD SWAP2 ADD PUSH2 0x1281 JUMP JUMPDEST SWAP2 PUSH1 0x44 CALLDATALOAD SWAP2 PUSH2 0x14A2 JUMP JUMPDEST STOP JUMPDEST CALLVALUE PUSH2 0x45A JUMPI PUSH0 CALLDATASIZE PUSH1 0x3 NOT ADD SLT PUSH2 0x45A JUMPI PUSH1 0x7 SLOAD PUSH0 NOT DUP2 ADD SWAP1 DUP2 GT PUSH2 0xAEA JUMPI PUSH1 0x20 SWAP1 PUSH1 0x40 MLOAD SWAP1 DUP2 MSTORE RETURN JUMPDEST PUSH4 0x4E487B71 PUSH1 0xE0 SHL PUSH0 MSTORE PUSH1 0x11 PUSH1 0x4 MSTORE PUSH1 0x24 PUSH0 REVERT JUMPDEST CALLVALUE PUSH2 0x45A JUMPI PUSH1 0x40 CALLDATASIZE PUSH1 0x3 NOT ADD SLT PUSH2 0x45A JUMPI PUSH2 0xB17 PUSH2 0x11DD JUMP JUMPDEST PUSH1 0x24 CALLDATALOAD SWAP1 DUP2 ISZERO ISZERO SWAP1 DUP2 DUP4 SUB PUSH2 0x45A JUMPI CALLER ISZERO PUSH2 0xBA8 JUMPI PUSH1 0x1 PUSH1 0x1 PUSH1 0xA0 SHL SUB AND SWAP2 DUP3 ISZERO PUSH2 0xB95 JUMPI PUSH2 0xB67 SWAP1 CALLER PUSH0 MSTORE PUSH1 0x5 PUSH1 0x20 MSTORE PUSH1 0x40 PUSH0 KECCAK256 DUP5 PUSH0 MSTORE PUSH1 0x20 MSTORE PUSH1 0x40 PUSH0 KECCAK256 SWAP1 PUSH1 0xFF DUP1 NOT DUP4 SLOAD AND SWAP2 ISZERO ISZERO AND OR SWAP1 SSTORE JUMP JUMPDEST PUSH1 0x40 MLOAD SWAP1 DUP2 MSTORE PUSH32 0x17307EAB39AB6107E8899845AD3D59BD9653F200F220920489CA2B5937696C31 PUSH1 0x20 CALLER SWAP3 LOG3 STOP JUMPDEST DUP3 PUSH4 0xB611743 PUSH1 0xE3 SHL PUSH0 MSTORE PUSH1 0x4 MSTORE PUSH1 0x24 PUSH0 REVERT JUMPDEST PUSH4 0xA9FBF51F PUSH1 0xE0 SHL PUSH0 MSTORE PUSH0 PUSH1 0x4 MSTORE PUSH1 0x24 PUSH0 REVERT JUMPDEST CALLVALUE PUSH2 0x45A JUMPI PUSH0 CALLDATASIZE PUSH1 0x3 NOT ADD SLT PUSH2 0x45A JUMPI PUSH1 0x40 MLOAD PUSH0 PUSH1 0x1 SLOAD PUSH2 0xBDB DUP2 PUSH2 0x12B7 JUMP JUMPDEST DUP1 DUP5 MSTORE SWAP1 PUSH1 0x1 DUP2 AND SWAP1 DUP2 ISZERO PUSH2 0xC75 JUMPI POP PUSH1 0x1 EQ PUSH2 0xC17 JUMPI JUMPDEST PUSH2 0x456 DUP4 PUSH2 0xC03 DUP2 DUP6 SUB DUP3 PUSH2 0x1243 JUMP JUMPDEST PUSH1 0x40 MLOAD SWAP2 DUP3 SWAP2 PUSH1 0x20 DUP4 MSTORE PUSH1 0x20 DUP4 ADD SWAP1 PUSH2 0x11B9 JUMP JUMPDEST PUSH1 0x1 PUSH0 SWAP1 DUP2 MSTORE PUSH32 0xB10E2D527612073B26EECDFD717E6A320CF44B4AFAC2B0732D9FCBE2B7FA0CF6 SWAP4 SWAP3 POP SWAP1 JUMPDEST DUP1 DUP3 LT PUSH2 0xC5B JUMPI POP SWAP1 SWAP2 POP DUP2 ADD PUSH1 0x20 ADD PUSH2 0xC03 PUSH2 0xBF3 JUMP JUMPDEST SWAP2 SWAP3 PUSH1 0x1 DUP2 PUSH1 0x20 SWAP3 SLOAD DUP4 DUP6 DUP9 ADD ADD MSTORE ADD SWAP2 ADD SWAP1 SWAP3 SWAP2 PUSH2 0xC43 JUMP JUMPDEST PUSH1 0xFF NOT AND PUSH1 0x20 DUP1 DUP7 ADD SWAP2 SWAP1 SWAP2 MSTORE SWAP2 ISZERO ISZERO PUSH1 0x5 SHL DUP5 ADD SWAP1 SWAP2 ADD SWAP2 POP PUSH2 0xC03 SWAP1 POP PUSH2 0xBF3 JUMP JUMPDEST CALLVALUE PUSH2 0x45A JUMPI PUSH0 CALLDATASIZE PUSH1 0x3 NOT ADD SLT PUSH2 0x45A JUMPI PUSH1 0x6 SLOAD PUSH1 0x40 MLOAD PUSH1 0x1 PUSH1 0x1 PUSH1 0xA0 SHL SUB SWAP1 SWAP2 AND DUP2 MSTORE PUSH1 0x20 SWAP1 RETURN JUMPDEST CALLVALUE PUSH2 0x45A JUMPI PUSH0 CALLDATASIZE PUSH1 0x3 NOT ADD SLT PUSH2 0x45A JUMPI PUSH1 0x7 SLOAD PUSH0 NOT DUP2 ADD SWAP1 DUP2 GT PUSH2 0xAEA JUMPI PUSH0 SWAP1 PUSH1 0x1 JUMPDEST DUP2 DUP2 GT ISZERO PUSH2 0xDD0 JUMPI POP PUSH2 0xD0F PUSH2 0xCF9 DUP4 PUSH2 0x148A JUMP JUMPDEST SWAP3 PUSH2 0xD07 PUSH1 0x40 MLOAD SWAP5 DUP6 PUSH2 0x1243 JUMP JUMPDEST DUP1 DUP5 MSTORE PUSH2 0x148A JUMP JUMPDEST PUSH1 0x20 DUP4 ADD SWAP2 SWAP1 PUSH1 0x1F NOT ADD CALLDATASIZE DUP4 CALLDATACOPY PUSH0 SWAP1 PUSH1 0x1 JUMPDEST DUP2 DUP2 GT ISZERO PUSH2 0xD6D JUMPI DUP4 DUP6 PUSH1 0x40 MLOAD SWAP2 DUP3 SWAP2 PUSH1 0x20 DUP4 ADD SWAP1 PUSH1 0x20 DUP5 MSTORE MLOAD DUP1 SWAP2 MSTORE PUSH1 0x40 DUP4 ADD SWAP2 SWAP1 PUSH0 JUMPDEST DUP2 DUP2 LT PUSH2 0xD54 JUMPI POP POP POP SUB SWAP1 RETURN JUMPDEST DUP3 MLOAD DUP5 MSTORE DUP6 SWAP5 POP PUSH1 0x20 SWAP4 DUP5 ADD SWAP4 SWAP1 SWAP3 ADD SWAP2 PUSH1 0x1 ADD PUSH2 0xD46 JUMP JUMPDEST DUP1 PUSH0 MSTORE PUSH1 0x8 PUSH1 0x20 MSTORE PUSH1 0xFF PUSH1 0x6 PUSH1 0x40 PUSH0 KECCAK256 ADD SLOAD AND PUSH2 0xD93 JUMPI JUMPDEST PUSH2 0xD8E SWAP1 PUSH2 0x147C JUMP JUMPDEST PUSH2 0xD21 JUMP JUMPDEST SWAP2 PUSH2 0xD9D DUP2 PUSH2 0x147C JUMP JUMPDEST SWAP3 DUP6 MLOAD DUP3 LT ISZERO PUSH2 0xDBC JUMPI DUP1 PUSH1 0x20 PUSH2 0xD8E SWAP4 PUSH1 0x5 SHL DUP9 ADD ADD MSTORE SWAP1 POP PUSH2 0xD85 JUMP JUMPDEST PUSH4 0x4E487B71 PUSH1 0xE0 SHL PUSH0 MSTORE PUSH1 0x32 PUSH1 0x4 MSTORE PUSH1 0x24 PUSH0 REVERT JUMPDEST SWAP2 DUP3 PUSH0 MSTORE PUSH1 0x8 PUSH1 0x20 MSTORE PUSH1 0xFF PUSH1 0x6 PUSH1 0x40 PUSH0 KECCAK256 ADD SLOAD AND PUSH0 EQ PUSH2 0xE08 JUMPI PUSH1 0xFF PUSH1 0x1 JUMPDEST AND DUP2 ADD DUP1 SWAP2 GT PUSH2 0xAEA JUMPI PUSH2 0xE03 SWAP1 SWAP3 PUSH2 0x147C JUMP JUMPDEST PUSH2 0xCE4 JUMP JUMPDEST PUSH1 0xFF PUSH0 PUSH2 0xDEF JUMP JUMPDEST CALLVALUE PUSH2 0x45A JUMPI PUSH0 CALLDATASIZE PUSH1 0x3 NOT ADD SLT PUSH2 0x45A JUMPI PUSH2 0xE28 PUSH2 0x1654 JUMP JUMPDEST PUSH1 0x6 DUP1 SLOAD PUSH1 0x1 PUSH1 0x1 PUSH1 0xA0 SHL SUB NOT DUP2 AND SWAP1 SWAP2 SSTORE PUSH0 SWAP1 PUSH1 0x1 PUSH1 0x1 PUSH1 0xA0 SHL SUB AND PUSH32 0x8BE0079C531659141344CD1FD0A4F28419497F9722A3DAAFE3B4186F6B6457E0 DUP3 DUP1 LOG3 STOP JUMPDEST CALLVALUE PUSH2 0x45A JUMPI PUSH1 0x20 CALLDATASIZE PUSH1 0x3 NOT ADD SLT PUSH2 0x45A JUMPI PUSH1 0x1 PUSH1 0x1 PUSH1 0xA0 SHL SUB PUSH2 0xE8C PUSH2 0x11DD JUMP JUMPDEST AND DUP1 ISZERO PUSH2 0xEA9 JUMPI PUSH0 MSTORE PUSH1 0x3 PUSH1 0x20 MSTORE PUSH1 0x20 PUSH1 0x40 PUSH0 KECCAK256 SLOAD PUSH1 0x40 MLOAD SWAP1 DUP2 MSTORE RETURN JUMPDEST PUSH4 0x22718AD9 PUSH1 0xE2 SHL PUSH0 MSTORE PUSH0 PUSH1 0x4 MSTORE PUSH1 0x24 PUSH0 REVERT JUMPDEST CALLVALUE PUSH2 0x45A JUMPI PUSH1 0x20 CALLDATASIZE PUSH1 0x3 NOT ADD SLT PUSH2 0x45A JUMPI PUSH1 0x20 PUSH2 0xEDA PUSH1 0x4 CALLDATALOAD PUSH2 0x1620 JUMP JUMPDEST PUSH1 0x40 MLOAD PUSH1 0x1 PUSH1 0x1 PUSH1 0xA0 SHL SUB SWAP1 SWAP2 AND DUP2 MSTORE RETURN JUMPDEST CALLVALUE PUSH2 0x45A JUMPI PUSH2 0xABF PUSH2 0xEFD CALLDATASIZE PUSH2 0x1209 JUMP JUMPDEST SWAP1 PUSH1 0x40 MLOAD SWAP3 PUSH2 0xF0D PUSH1 0x20 DUP6 PUSH2 0x1243 JUMP JUMPDEST PUSH0 DUP5 MSTORE PUSH2 0x14A2 JUMP JUMPDEST CALLVALUE PUSH2 0x45A JUMPI PUSH0 CALLDATASIZE PUSH1 0x3 NOT ADD SLT PUSH2 0x45A JUMPI PUSH1 0x20 PUSH1 0x40 MLOAD PUSH3 0x7A120 DUP2 MSTORE RETURN JUMPDEST CALLVALUE PUSH2 0x45A JUMPI PUSH1 0x20 CALLDATASIZE PUSH1 0x3 NOT ADD SLT PUSH2 0x45A JUMPI PUSH1 0x1 PUSH1 0x1 PUSH1 0xA0 SHL SUB PUSH2 0xF53 PUSH2 0x11DD JUMP JUMPDEST AND PUSH0 MSTORE PUSH1 0xA PUSH1 0x20 MSTORE PUSH1 0x20 PUSH1 0xFF PUSH1 0x40 PUSH0 KECCAK256 SLOAD AND PUSH1 0x40 MLOAD SWAP1 ISZERO ISZERO DUP2 MSTORE RETURN JUMPDEST CALLVALUE PUSH2 0x45A JUMPI PUSH2 0xABF PUSH2 0xF80 CALLDATASIZE PUSH2 0x1209 JUMP JUMPDEST SWAP2 PUSH2 0x12EF JUMP JUMPDEST CALLVALUE PUSH2 0x45A JUMPI PUSH1 0x40 CALLDATASIZE PUSH1 0x3 NOT ADD SLT PUSH2 0x45A JUMPI PUSH2 0xF9F PUSH2 0x11DD JUMP JUMPDEST PUSH1 0x24 CALLDATALOAD PUSH2 0xFAB DUP2 PUSH2 0x1620 JUMP JUMPDEST CALLER ISZERO ISZERO DUP1 PUSH2 0x105D JUMPI JUMPDEST DUP1 PUSH2 0x1030 JUMPI JUMPDEST PUSH2 0x101D JUMPI DUP2 SWAP1 PUSH1 0x1 PUSH1 0x1 PUSH1 0xA0 SHL SUB DUP5 DUP2 AND SWAP2 AND PUSH32 0x8C5BE1E5EBEC7D5BD14F71427D1E84F3DD0314C0F7B2291E5B200AC8C7C3B925 PUSH0 DUP1 LOG4 PUSH0 SWAP1 DUP2 MSTORE PUSH1 0x4 PUSH1 0x20 MSTORE PUSH1 0x40 SWAP1 KECCAK256 DUP1 SLOAD PUSH1 0x1 PUSH1 0x1 PUSH1 0xA0 SHL SUB NOT AND PUSH1 0x1 PUSH1 0x1 PUSH1 0xA0 SHL SUB SWAP1 SWAP3 AND SWAP2 SWAP1 SWAP2 OR SWAP1 SSTORE STOP JUMPDEST PUSH4 0xA9FBF51F PUSH1 0xE0 SHL PUSH0 MSTORE CALLER PUSH1 0x4 MSTORE PUSH1 0x24 PUSH0 REVERT JUMPDEST POP PUSH1 0x1 PUSH1 0x1 PUSH1 0xA0 SHL SUB DUP2 AND PUSH0 SWAP1 DUP2 MSTORE PUSH1 0x5 PUSH1 0x20 SWAP1 DUP2 MSTORE PUSH1 0x40 DUP1 DUP4 KECCAK256 CALLER DUP5 MSTORE SWAP1 SWAP2 MSTORE SWAP1 KECCAK256 SLOAD PUSH1 0xFF AND ISZERO PUSH2 0xFBA JUMP JUMPDEST POP PUSH1 0x1 PUSH1 0x1 PUSH1 0xA0 SHL SUB DUP2 AND CALLER EQ ISZERO PUSH2 0xFB4 JUMP JUMPDEST CALLVALUE PUSH2 0x45A JUMPI PUSH1 0x20 CALLDATASIZE PUSH1 0x3 NOT ADD SLT PUSH2 0x45A JUMPI PUSH1 0x4 CALLDATALOAD PUSH2 0x108D DUP2 PUSH2 0x1620 JUMP JUMPDEST POP PUSH0 MSTORE PUSH1 0x4 PUSH1 0x20 MSTORE PUSH1 0x20 PUSH1 0x1 DUP1 PUSH1 0xA0 SHL SUB PUSH1 0x40 PUSH0 KECCAK256 SLOAD AND PUSH1 0x40 MLOAD SWAP1 DUP2 MSTORE RETURN JUMPDEST CALLVALUE PUSH2 0x45A JUMPI PUSH0 CALLDATASIZE PUSH1 0x3 NOT ADD SLT PUSH2 0x45A JUMPI PUSH1 0x40 MLOAD PUSH0 DUP1 SLOAD PUSH2 0x10CB DUP2 PUSH2 0x12B7 JUMP JUMPDEST DUP1 DUP5 MSTORE SWAP1 PUSH1 0x1 DUP2 AND SWAP1 DUP2 ISZERO PUSH2 0xC75 JUMPI POP PUSH1 0x1 EQ PUSH2 0x10F2 JUMPI PUSH2 0x456 DUP4 PUSH2 0xC03 DUP2 DUP6 SUB DUP3 PUSH2 0x1243 JUMP JUMPDEST PUSH0 DUP1 DUP1 MSTORE PUSH32 0x290DECD9548B62A8D60345A988386FC84BA6BC95484008F6362F93160EF3E563 SWAP4 SWAP3 POP SWAP1 JUMPDEST DUP1 DUP3 LT PUSH2 0x1134 JUMPI POP SWAP1 SWAP2 POP DUP2 ADD PUSH1 0x20 ADD PUSH2 0xC03 PUSH2 0xBF3 JUMP JUMPDEST SWAP2 SWAP3 PUSH1 0x1 DUP2 PUSH1 0x20 SWAP3 SLOAD DUP4 DUP6 DUP9 ADD ADD MSTORE ADD SWAP2 ADD SWAP1 SWAP3 SWAP2 PUSH2 0x111C JUMP JUMPDEST CALLVALUE PUSH2 0x45A JUMPI PUSH1 0x20 CALLDATASIZE PUSH1 0x3 NOT ADD SLT PUSH2 0x45A JUMPI PUSH1 0x4 CALLDATALOAD SWAP1 PUSH4 0xFFFFFFFF PUSH1 0xE0 SHL DUP3 AND DUP1 SWAP3 SUB PUSH2 0x45A JUMPI PUSH1 0x20 SWAP2 PUSH4 0x80AC58CD PUSH1 0xE0 SHL DUP2 EQ SWAP1 DUP2 ISZERO PUSH2 0x11A8 JUMPI JUMPDEST DUP2 ISZERO PUSH2 0x1197 JUMPI JUMPDEST POP ISZERO ISZERO DUP2 MSTORE RETURN JUMPDEST PUSH4 0x1FFC9A7 PUSH1 0xE0 SHL EQ SWAP1 POP DUP4 PUSH2 0x1190 JUMP JUMPDEST PUSH4 0x5B5E139F PUSH1 0xE0 SHL DUP2 EQ SWAP2 POP PUSH2 0x1189 JUMP JUMPDEST DUP1 MLOAD DUP1 DUP4 MSTORE PUSH1 0x20 SWAP3 SWAP2 DUP2 SWAP1 DUP5 ADD DUP5 DUP5 ADD MCOPY PUSH0 DUP3 DUP3 ADD DUP5 ADD MSTORE PUSH1 0x1F ADD PUSH1 0x1F NOT AND ADD ADD SWAP1 JUMP JUMPDEST PUSH1 0x4 CALLDATALOAD SWAP1 PUSH1 0x1 PUSH1 0x1 PUSH1 0xA0 SHL SUB DUP3 AND DUP3 SUB PUSH2 0x45A JUMPI JUMP JUMPDEST PUSH1 0x24 CALLDATALOAD SWAP1 PUSH1 0x1 PUSH1 0x1 PUSH1 0xA0 SHL SUB DUP3 AND DUP3 SUB PUSH2 0x45A JUMPI JUMP JUMPDEST PUSH1 0x60 SWAP1 PUSH1 0x3 NOT ADD SLT PUSH2 0x45A JUMPI PUSH1 0x4 CALLDATALOAD PUSH1 0x1 PUSH1 0x1 PUSH1 0xA0 SHL SUB DUP2 AND DUP2 SUB PUSH2 0x45A JUMPI SWAP1 PUSH1 0x24 CALLDATALOAD PUSH1 0x1 PUSH1 0x1 PUSH1 0xA0 SHL SUB DUP2 AND DUP2 SUB PUSH2 0x45A JUMPI SWAP1 PUSH1 0x44 CALLDATALOAD SWAP1 JUMP JUMPDEST SWAP1 PUSH1 0x1F DUP1 NOT SWAP2 ADD AND DUP2 ADD SWAP1 DUP2 LT PUSH8 0xFFFFFFFFFFFFFFFF DUP3 GT OR PUSH2 0x921 JUMPI PUSH1 0x40 MSTORE JUMP JUMPDEST PUSH8 0xFFFFFFFFFFFFFFFF DUP2 GT PUSH2 0x921 JUMPI PUSH1 0x1F ADD PUSH1 0x1F NOT AND PUSH1 0x20 ADD SWAP1 JUMP JUMPDEST SWAP3 SWAP2 SWAP3 PUSH2 0x128D DUP3 PUSH2 0x1265 JUMP JUMPDEST SWAP2 PUSH2 0x129B PUSH1 0x40 MLOAD SWAP4 DUP5 PUSH2 0x1243 JUMP JUMPDEST DUP3 SWAP5 DUP2 DUP5 MSTORE DUP2 DUP4 ADD GT PUSH2 0x45A JUMPI DUP3 DUP2 PUSH1 0x20 SWAP4 DUP5 PUSH0 SWAP7 ADD CALLDATACOPY ADD ADD MSTORE JUMP JUMPDEST SWAP1 PUSH1 0x1 DUP3 DUP2 SHR SWAP3 AND DUP1 ISZERO PUSH2 0x12E5 JUMPI JUMPDEST PUSH1 0x20 DUP4 LT EQ PUSH2 0x12D1 JUMPI JUMP JUMPDEST PUSH4 0x4E487B71 PUSH1 0xE0 SHL PUSH0 MSTORE PUSH1 0x22 PUSH1 0x4 MSTORE PUSH1 0x24 PUSH0 REVERT JUMPDEST SWAP2 PUSH1 0x7F AND SWAP2 PUSH2 0x12C6 JUMP JUMPDEST PUSH1 0x1 PUSH1 0x1 PUSH1 0xA0 SHL SUB SWAP1 SWAP2 AND SWAP2 SWAP1 DUP3 ISZERO PUSH2 0x97B JUMPI PUSH0 DUP3 DUP2 MSTORE PUSH1 0x2 PUSH1 0x20 MSTORE PUSH1 0x40 SWAP1 KECCAK256 SLOAD PUSH1 0x1 PUSH1 0x1 PUSH1 0xA0 SHL SUB AND SWAP3 DUP3 SWAP1 CALLER ISZERO ISZERO DUP1 PUSH2 0x13E7 JUMPI JUMPDEST POP DUP5 PUSH2 0x13B4 JUMPI JUMPDEST DUP1 PUSH0 MSTORE PUSH1 0x3 PUSH1 0x20 MSTORE PUSH1 0x40 PUSH0 KECCAK256 PUSH1 0x1 DUP2 SLOAD ADD SWAP1 SSTORE DUP2 PUSH0 MSTORE PUSH1 0x2 PUSH1 0x20 MSTORE PUSH1 0x40 PUSH0 KECCAK256 DUP2 PUSH12 0xFFFFFFFFFFFFFFFFFFFFFFFF PUSH1 0xA0 SHL DUP3 SLOAD AND OR SWAP1 SSTORE DUP5 PUSH32 0xDDF252AD1BE2C89B69C2B068FC378DAA952BA7F163C4A11628F55A4DF523B3EF PUSH0 DUP1 LOG4 PUSH1 0x1 PUSH1 0x1 PUSH1 0xA0 SHL SUB AND DUP1 DUP4 SUB PUSH2 0x139C JUMPI POP POP POP JUMP JUMPDEST PUSH4 0x64283D7B PUSH1 0xE0 SHL PUSH0 MSTORE PUSH1 0x4 MSTORE PUSH1 0x24 MSTORE PUSH1 0x44 MSTORE PUSH1 0x64 PUSH0 REVERT JUMPDEST PUSH0 DUP3 DUP2 MSTORE PUSH1 0x4 PUSH1 0x20 MSTORE PUSH1 0x40 SWAP1 KECCAK256 DUP1 SLOAD PUSH1 0x1 PUSH1 0x1 PUSH1 0xA0 SHL SUB NOT AND SWAP1 SSTORE DUP5 PUSH0 MSTORE PUSH1 0x3 PUSH1 0x20 MSTORE PUSH1 0x40 PUSH0 KECCAK256 PUSH0 NOT DUP2 SLOAD ADD SWAP1 SSTORE PUSH2 0x132C JUMP JUMPDEST SWAP1 SWAP2 POP DUP1 PUSH2 0x142B JUMPI JUMPDEST ISZERO PUSH2 0x13FD JUMPI DUP3 SWAP1 PUSH0 PUSH2 0x1325 JUMP JUMPDEST DUP3 DUP5 PUSH2 0x1415 JUMPI PUSH4 0x7E273289 PUSH1 0xE0 SHL PUSH0 MSTORE PUSH1 0x4 MSTORE PUSH1 0x24 PUSH0 REVERT JUMPDEST PUSH4 0x177E802F PUSH1 0xE0 SHL PUSH0 MSTORE CALLER PUSH1 0x4 MSTORE PUSH1 0x24 MSTORE PUSH1 0x44 PUSH0 REVERT JUMPDEST POP CALLER DUP5 EQ DUP1 ISZERO PUSH2 0x145A JUMPI JUMPDEST DUP1 PUSH2 0x13F0 JUMPI POP PUSH0 DUP4 DUP2 MSTORE PUSH1 0x4 PUSH1 0x20 MSTORE PUSH1 0x40 SWAP1 KECCAK256 SLOAD PUSH1 0x1 PUSH1 0x1 PUSH1 0xA0 SHL SUB AND CALLER EQ PUSH2 0x13F0 JUMP JUMPDEST POP PUSH0 DUP5 DUP2 MSTORE PUSH1 0x5 PUSH1 0x20 SWAP1 DUP2 MSTORE PUSH1 0x40 DUP1 DUP4 KECCAK256 CALLER DUP5 MSTORE SWAP1 SWAP2 MSTORE SWAP1 KECCAK256 SLOAD PUSH1 0xFF AND PUSH2 0x1436 JUMP JUMPDEST PUSH0 NOT DUP2 EQ PUSH2 0xAEA JUMPI PUSH1 0x1 ADD SWAP1 JUMP JUMPDEST PUSH8 0xFFFFFFFFFFFFFFFF DUP2 GT PUSH2 0x921 JUMPI PUSH1 0x5 SHL PUSH1 0x20 ADD SWAP1 JUMP JUMPDEST SWAP3 SWAP2 PUSH2 0x14AF DUP2 DUP4 DUP7 PUSH2 0x12EF JUMP JUMPDEST DUP2 EXTCODESIZE PUSH2 0x14BC JUMPI JUMPDEST POP POP POP POP JUMP JUMPDEST PUSH1 0x40 MLOAD PUSH4 0xA85BD01 PUSH1 0xE1 SHL DUP2 MSTORE CALLER PUSH1 0x4 DUP3 ADD MSTORE PUSH1 0x1 PUSH1 0x1 PUSH1 0xA0 SHL SUB SWAP5 DUP6 AND PUSH1 0x24 DUP3 ADD MSTORE PUSH1 0x44 DUP2 ADD SWAP2 SWAP1 SWAP2 MSTORE PUSH1 0x80 PUSH1 0x64 DUP3 ADD MSTORE SWAP3 AND SWAP2 SWAP1 PUSH1 0x20 SWAP1 DUP3 SWAP1 DUP2 SWAP1 PUSH2 0x1507 SWAP1 PUSH1 0x84 DUP4 ADD SWAP1 PUSH2 0x11B9 JUMP JUMPDEST SUB DUP2 PUSH0 DUP7 GAS CALL PUSH0 SWAP2 DUP2 PUSH2 0x159D JUMPI JUMPDEST POP PUSH2 0x156A JUMPI POP RETURNDATASIZE ISZERO PUSH2 0x1563 JUMPI RETURNDATASIZE PUSH2 0x152B DUP2 PUSH2 0x1265 JUMP JUMPDEST SWAP1 PUSH2 0x1539 PUSH1 0x40 MLOAD SWAP3 DUP4 PUSH2 0x1243 JUMP JUMPDEST DUP2 MSTORE RETURNDATASIZE PUSH0 PUSH1 0x20 DUP4 ADD RETURNDATACOPY JUMPDEST DUP1 MLOAD SWAP1 DUP2 PUSH2 0x155E JUMPI DUP3 PUSH4 0x32505749 PUSH1 0xE1 SHL PUSH0 MSTORE PUSH1 0x4 MSTORE PUSH1 0x24 PUSH0 REVERT JUMPDEST PUSH1 0x20 ADD REVERT JUMPDEST PUSH1 0x60 PUSH2 0x1543 JUMP JUMPDEST PUSH1 0x1 PUSH1 0x1 PUSH1 0xE0 SHL SUB NOT AND PUSH4 0x757A42FF PUSH1 0xE1 SHL ADD PUSH2 0x158B JUMPI POP PUSH0 DUP1 DUP1 DUP1 PUSH2 0x14B6 JUMP JUMPDEST PUSH4 0x32505749 PUSH1 0xE1 SHL PUSH0 MSTORE PUSH1 0x4 MSTORE PUSH1 0x24 PUSH0 REVERT JUMPDEST SWAP1 SWAP2 POP PUSH1 0x20 DUP2 RETURNDATASIZE PUSH1 0x20 GT PUSH2 0x15DA JUMPI JUMPDEST DUP2 PUSH2 0x15B9 PUSH1 0x20 SWAP4 DUP4 PUSH2 0x1243 JUMP JUMPDEST DUP2 ADD SUB SLT PUSH2 0x45A JUMPI MLOAD PUSH1 0x1 PUSH1 0x1 PUSH1 0xE0 SHL SUB NOT DUP2 AND DUP2 SUB PUSH2 0x45A JUMPI SWAP1 PUSH0 PUSH2 0x1515 JUMP JUMPDEST RETURNDATASIZE SWAP2 POP PUSH2 0x15AC JUMP JUMPDEST ISZERO PUSH2 0x15E9 JUMPI JUMP JUMPDEST PUSH1 0x40 MLOAD PUSH3 0x461BCD PUSH1 0xE5 SHL DUP2 MSTORE PUSH1 0x20 PUSH1 0x4 DUP3 ADD MSTORE PUSH1 0xF PUSH1 0x24 DUP3 ADD MSTORE PUSH15 0x139BDD081E5BDD5C881A5CDB185B99 PUSH1 0x8A SHL PUSH1 0x44 DUP3 ADD MSTORE PUSH1 0x64 SWAP1 REVERT JUMPDEST PUSH0 DUP2 DUP2 MSTORE PUSH1 0x2 PUSH1 0x20 MSTORE PUSH1 0x40 SWAP1 KECCAK256 SLOAD PUSH1 0x1 PUSH1 0x1 PUSH1 0xA0 SHL SUB AND SWAP1 DUP2 ISZERO PUSH2 0x1642 JUMPI POP SWAP1 JUMP JUMPDEST PUSH4 0x7E273289 PUSH1 0xE0 SHL PUSH0 MSTORE PUSH1 0x4 MSTORE PUSH1 0x24 PUSH0 REVERT JUMPDEST PUSH1 0x6 SLOAD PUSH1 0x1 PUSH1 0x1 PUSH1 0xA0 SHL SUB AND CALLER SUB PUSH2 0x1668 JUMPI JUMP JUMPDEST PUSH4 0x118CDAA7 PUSH1 0xE0 SHL PUSH0 MSTORE CALLER PUSH1 0x4 MSTORE PUSH1 0x24 PUSH0 REVERT INVALID LOG2 PUSH5 0x6970667358 0x22 SLT KECCAK256 BALANCE 0xEA PUSH28 0x180009FED05A8E50E8DD9C9C2F2D7191C90909468301BD13D010F5FF 0xBA PUSH5 0x736F6C6343 STOP ADDMOD BYTE STOP CALLER "},"methodIdentifiers":{"MIN_TVL_USD_CENTS()":"3ac4df1d","approve(address,uint256)":"095ea7b3","balanceOf(address)":"70a08231","delistIsland(uint256)":"de856354","getApproved(uint256)":"081812fc","getListedIslands()":"80981f2b","hasMinted(address)":"38e21cce","isApprovedForAll(address,address)":"e985e9c5","islands(uint256)":"e2c5a917","listIsland(uint256,uint256)":"c1ee2255","mintIsland(uint256,uint8,string,uint8,uint8)":"bc6b1b0a","name()":"06fdde03","owner()":"8da5cb5b","ownerOf(uint256)":"6352211e","renounceOwnership()":"715018a6","safeTransferFrom(address,address,uint256)":"42842e0e","safeTransferFrom(address,address,uint256,bytes)":"b88d4fde","setApprovalForAll(address,bool)":"a22cb465","supportsInterface(bytes4)":"01ffc9a7","symbol()":"95d89b41","tokenURI(uint256)":"c87b56dd","totalMinted()":"a2309ff8","transferFrom(address,address,uint256)":"23b872dd","transferOwnership(address)":"f2fde38b","userIslandToken(address)":"da4c963a"}}}}}