{"project/contracts/AtlasReputationRegistry.sol":{"AtlasReputationRegistry":{"abi":[{"inputs":[{"internalType":"address","name":"_identityRegistry","type":"address"}],"stateMutability":"nonpayable","type":"constructor"},{"anonymous":false,"inputs":[{"indexed":true,"internalType":"uint256","name":"agentId","type":"uint256"},{"indexed":true,"internalType":"address","name":"clientAddress","type":"address"},{"indexed":true,"internalType":"uint64","name":"feedbackIndex","type":"uint64"}],"name":"FeedbackRevoked","type":"event"},{"anonymous":false,"inputs":[{"indexed":true,"internalType":"uint256","name":"agentId","type":"uint256"},{"indexed":true,"internalType":"address","name":"clientAddress","type":"address"},{"indexed":false,"internalType":"uint64","name":"feedbackIndex","type":"uint64"},{"indexed":false,"internalType":"int128","name":"value","type":"int128"},{"indexed":false,"internalType":"uint8","name":"valueDecimals","type":"uint8"},{"indexed":true,"internalType":"string","name":"indexedTag1","type":"string"},{"indexed":false,"internalType":"string","name":"tag1","type":"string"},{"indexed":false,"internalType":"string","name":"tag2","type":"string"},{"indexed":false,"internalType":"string","name":"endpoint","type":"string"},{"indexed":false,"internalType":"string","name":"feedbackURI","type":"string"},{"indexed":false,"internalType":"bytes32","name":"feedbackHash","type":"bytes32"}],"name":"NewFeedback","type":"event"},{"anonymous":false,"inputs":[{"indexed":true,"internalType":"uint256","name":"agentId","type":"uint256"},{"indexed":true,"internalType":"address","name":"clientAddress","type":"address"},{"indexed":false,"internalType":"uint64","name":"feedbackIndex","type":"uint64"},{"indexed":true,"internalType":"address","name":"responder","type":"address"},{"indexed":false,"internalType":"string","name":"responseURI","type":"string"},{"indexed":false,"internalType":"bytes32","name":"responseHash","type":"bytes32"}],"name":"ResponseAppended","type":"event"},{"inputs":[{"internalType":"uint256","name":"agentId","type":"uint256"},{"internalType":"address","name":"clientAddress","type":"address"},{"internalType":"uint64","name":"feedbackIndex","type":"uint64"},{"internalType":"string","name":"responseURI","type":"string"},{"internalType":"bytes32","name":"responseHash","type":"bytes32"}],"name":"appendResponse","outputs":[],"stateMutability":"nonpayable","type":"function"},{"inputs":[{"internalType":"uint256","name":"agentId","type":"uint256"}],"name":"getClients","outputs":[{"internalType":"address[]","name":"","type":"address[]"}],"stateMutability":"view","type":"function"},{"inputs":[],"name":"getIdentityRegistry","outputs":[{"internalType":"address","name":"","type":"address"}],"stateMutability":"view","type":"function"},{"inputs":[{"internalType":"uint256","name":"agentId","type":"uint256"},{"internalType":"address","name":"clientAddress","type":"address"}],"name":"getLastIndex","outputs":[{"internalType":"uint64","name":"","type":"uint64"}],"stateMutability":"view","type":"function"},{"inputs":[{"internalType":"uint256","name":"agentId","type":"uint256"},{"internalType":"address","name":"clientAddress","type":"address"},{"internalType":"uint64","name":"feedbackIndex","type":"uint64"},{"internalType":"address[]","name":"","type":"address[]"}],"name":"getResponseCount","outputs":[{"internalType":"uint64","name":"","type":"uint64"}],"stateMutability":"view","type":"function"},{"inputs":[{"internalType":"uint256","name":"agentId","type":"uint256"},{"internalType":"address[]","name":"clientAddresses","type":"address[]"},{"internalType":"string","name":"tag1","type":"string"},{"internalType":"string","name":"tag2","type":"string"}],"name":"getSummary","outputs":[{"internalType":"uint64","name":"count","type":"uint64"},{"internalType":"int128","name":"summaryValue","type":"int128"},{"internalType":"uint8","name":"summaryValueDecimals","type":"uint8"}],"stateMutability":"view","type":"function"},{"inputs":[{"internalType":"uint256","name":"agentId","type":"uint256"},{"internalType":"int128","name":"value","type":"int128"},{"internalType":"uint8","name":"valueDecimals","type":"uint8"},{"internalType":"string","name":"tag1","type":"string"},{"internalType":"string","name":"tag2","type":"string"},{"internalType":"string","name":"endpoint","type":"string"},{"internalType":"string","name":"feedbackURI","type":"string"},{"internalType":"bytes32","name":"feedbackHash","type":"bytes32"}],"name":"giveFeedback","outputs":[],"stateMutability":"nonpayable","type":"function"},{"inputs":[],"name":"identityRegistry","outputs":[{"internalType":"address","name":"","type":"address"}],"stateMutability":"view","type":"function"},{"inputs":[{"internalType":"uint256","name":"agentId","type":"uint256"},{"internalType":"address[]","name":"clientAddresses","type":"address[]"},{"internalType":"string","name":"tag1","type":"string"},{"internalType":"string","name":"tag2","type":"string"},{"internalType":"bool","name":"includeRevoked","type":"bool"}],"name":"readAllFeedback","outputs":[{"internalType":"address[]","name":"clients","type":"address[]"},{"internalType":"uint64[]","name":"feedbackIndexes","type":"uint64[]"},{"internalType":"int128[]","name":"values","type":"int128[]"},{"internalType":"uint8[]","name":"valueDecimals","type":"uint8[]"},{"internalType":"string[]","name":"tag1s","type":"string[]"},{"internalType":"string[]","name":"tag2s","type":"string[]"},{"internalType":"bool[]","name":"revokedStatuses","type":"bool[]"}],"stateMutability":"view","type":"function"},{"inputs":[{"internalType":"uint256","name":"agentId","type":"uint256"},{"internalType":"address","name":"clientAddress","type":"address"},{"internalType":"uint64","name":"feedbackIndex","type":"uint64"}],"name":"readFeedback","outputs":[{"internalType":"int128","name":"value","type":"int128"},{"internalType":"uint8","name":"valueDecimals","type":"uint8"},{"internalType":"string","name":"tag1","type":"string"},{"internalType":"string","name":"tag2","type":"string"},{"internalType":"bool","name":"isRevoked","type":"bool"}],"stateMutability":"view","type":"function"},{"inputs":[{"internalType":"uint256","name":"agentId","type":"uint256"},{"internalType":"uint64","name":"feedbackIndex","type":"uint64"}],"name":"revokeFeedback","outputs":[],"stateMutability":"nonpayable","type":"function"}],"evm":{"bytecode":{"linkReferences":{},"object":"60a034606657601f611c5538819003918201601f19168301916001600160401b03831184841017606a57808492602094604052833981010312606657516001600160a01b0381168103606657608052604051611bd6908161007f8239608051816117de0152f35b5f80fd5b634e487b7160e01b5f52604160045260245ffdfe6102a06040526004361015610012575f80fd5b5f3560e01c8063134e18f4146117c9578063232b0810146116fb5780633c036a7e14610f7457806342dd519c14610eef5780634ab3ca9914610e4c5780636e04cacd14610dc257806381bbba5814610b57578063bc4d861b14610b52578063c2349ab214610866578063d9d842241461011f5763f2d8175914610093575f80fd5b3461011b57604036600319011261011b576100ac61180d565b6004355f908152602081815260408083206001600160a01b03909416835292905220548015610112575f1981019081116100fe576001600160401b03602091165b6001600160401b0360405191168152f35b634e487b7160e01b5f52601160045260245ffd5b5060205f6100ed565b5f80fd5b3461011b5760a036600319011261011b576024356001600160401b03811161011b5761014f9036906004016118c6565b60a0526080526044356001600160401b03811161011b5761017490369060040161185d565b61012052610140526064356001600160401b03811161011b5761019b90369060040161185d565b60e0526101005260843561018052610180511515610180510361011b576004355f52600260205260405f205f6101a05260a05115155f1461085b5760a0516101a0525b5f805b6101a051811061070e57508061020c6101fc61031193611b2c565b6040516102605261026051611a20565b806102605152601f1961021e82611b2c565b0136602061026051013761024461023482611b2c565b6040516101c0526101c051611a20565b806101c0515261025381611b2c565b601f19013660206101c051013761027c61026c82611b2c565b6040516101e0526101e051611a20565b806101e0515261028b81611b2c565b601f19013660206101e05101376102b46102a482611b2c565b6040516102805261028051611a20565b8061028051526102c381611b2c565b601f19013660206102805101376102d981611b43565b610200526102e681611b43565b610220526103066102f682611b2c565b6040516102405261024051611a20565b806102405152611b2c565b601f19013660206102405101375f6101608190525b6101a051811061048e5760405160e081528061034860e082016102605161188a565b818103602083015260206101c0515191828152019060206101c05101905f5b81811061046c57505050818103604083015260206101e0515191828152019060206101e05101905f5b8181106104505750505081810360608301526020610280515191828152019060206102805101905f5b818110610434575050506103db81836103ec93036080850152610200516118f6565b82810360a0840152610220516118f6565b81810360c08301526020610240515191828152019060206102405101905f5b818110610419575050500390f35b8251151584528594506020938401939092019160010161040b565b825160ff168452859450602093840193909201916001016103b9565b8251600f0b845285945060209384019390920191600101610390565b82516001600160401b0316845285945060209384019390920191600101610367565b60a051156106ed576104ad6104a88260a051608051611afa565b611b0a565b6004355f525f60205260405f2060018060a01b0382165f5260205260405f205f60c05280545b8060c051106104e757505050600101610326565b6101805115806106d3575b61065f576101205115156101205161069b575b61065f5760e051151560e051610664575b61065f5761052a6101605161026051611b8c565b60018060a01b03841690526001600160401b0360c05116610551610160516101c051611b8c565b5261055e60c0518361194e565b5054600f0b610573610160516101e051611b8c565b5260ff61058260c0518461194e565b505460801c166105986101605161028051611b8c565b5260016105c26105aa60c0518561194e565b506105bb604051809481930161199f565b0382611a20565b6105d26101605161020051611b8c565b526105e36101605161020051611b8c565b5060026105f56105aa60c0518561194e565b6106056101605161022051611b8c565b526106166101605161022051611b8c565b5060ff600661062760c0518561194e565b5001541661063b6101605161024051611b8c565b901515905261064c61016051611b1e565b610160525b600160c0510160c0526104d3565b610651565b5060026106766105aa60c0518561194e565b6020815191012061068d3660e05161010051611a56565b602081519101201415610516565b5060016106ad6105aa60c0518561194e565b602081519101206106c5366101205161014051611a56565b602081519101201415610505565b5060ff60066106e460c0518561194e565b500154166104f2565b6106f78183611a41565b905460039190911b1c6001600160a01b03166104ad565b60a0511561083a576107286104a88260a051608051611afa565b6004355f525f60205260405f209060018060a01b03165f5260205260405f205f908054905b81831061075f575050506001016101e1565b90919361018051156101805115610822575b6107ae57610120511515610120516107ec575b6107ae5760e051151560e0516107b7575b6107ae576107a4600191611b1e565b945b01919061074d565b936001906107a6565b5060026107c76105aa878561194e565b602081519101206107de3660e05161010051611a56565b602081519101201415610795565b5060016107fc6105aa878561194e565b60208151910120610814366101205161014051611a56565b602081519101201415610784565b5060ff6006610831878561194e565b50015416610771565b6108448184611a41565b905460039190911b1c6001600160a01b0316610728565b80546101a0526101de565b3461011b5760a036600319011261011b5760043561088261180d565b9061088b611823565b906064356001600160401b03811161011b576108ab90369060040161185d565b5f838152602081815260408083206001600160a01b0389168452909152902054608435946001600160401b03169291906108e6908410611abb565b835f52600160205260405f2060018060a01b0387165f5260205260405f20835f5260205260405f2060405190606082018281106001600160401b03821117610b2a57604052338252610939368486611a56565b602083019081526040830191888352805490600160401b821015610b2a5760018201808255821015610b3e575f52600360205f209102019260018060a01b039051166bffffffffffffffffffffffff60a01b8454161783556001830190518051906001600160401b038211610b2a576109b28354611967565b601f8111610ae5575b50602090601f8311600114610a56579282600293610a309896937fb1c6be0b5b8aef6539e2fac0fd131a2faa7b49edf8e505b5eb0ad487d56051d49b9a98965f92610a4b575b50508160011b915f199060031b1c19161790555b51910155604051938452606060208501526060840191611a9b565b604082019490945233946001600160a01b03169381900390a4005b015190508e80610a01565b90601f19831691845f52815f20925f5b818110610acd575093610a309896937fb1c6be0b5b8aef6539e2fac0fd131a2faa7b49edf8e505b5eb0ad487d56051d49b9a9896936001938360029810610ab5575b505050811b019055610a15565b01515f1960f88460031b161c191690558e8080610aa8565b92936020600181928786015181550195019301610a66565b835f5260205f20601f840160051c81019160208510610b20575b601f0160051c01905b818110610b1557506109bb565b5f8155600101610b08565b9091508190610aff565b634e487b7160e01b5f52604160045260245ffd5b634e487b7160e01b5f52603260045260245ffd5b6117c9565b3461011b57608036600319011261011b576024356001600160401b03811161011b57610b879036906004016118c6565b6044356001600160401b03811161011b57610ba690369060040161185d565b926064356001600160401b03811161011b57610bc690369060040161185d565b92905f936004355f52600260205260405f20958015155f14610dba5780945b5f975f5b878110610c5557896001600160401b038a16801580610c4a57610c3657600160ff1b82145f198214166100fe578060609205600f0b5b604051918252600f0b602082015260026040820152f35b634e487b7160e01b5f52601260045260245ffd5b50606091505f610c1f565b8315610d9957610c696104a8828686611afa565b6004355f525f60205260405f209060018060a01b03165f5260205260405f205f908054905b818310610ca057505050600101610be9565b90919a9b60ff6006610cb28e8561194e565b50015416610d28578d15158e8d81610d64575b5050610d28578715158c89610d32575b50610d2857610ce48c8361194e565b5054600f0b905f82820192831291129080158216911516176100fe576001600160401b03909c166001600160401b0381146100fe5760018091019b5b019190610c8e565b9b9a600190610d20565b600291506105aa610d43918561194e565b60208151910120610d55368a8c611a56565b6020815191012014158c610cd5565b610d89919250610d796105aa6001928761194e565b602081519101209136908d611a56565b6020815191012014158e8d610cc5565b610da38183611a41565b905460039190911b1c6001600160a01b0316610c69565b865494610be5565b3461011b57608036600319011261011b57610ddb61180d565b610de3611823565b906064356001600160401b03811161011b57610e039036906004016118c6565b50506004355f52600160205260405f209060018060a01b03165f526020526001600160401b0360405f2091165f5260205260206001600160401b0360405f205416604051908152f35b3461011b57604036600319011261011b57600435602435906001600160401b0382169182810361011b575f82815260208181526040808320338452909152902054600691610eba91610e9f908610611abb565b5f84815260208181526040808320338452909152902061194e565b5001805460ff1916600117905533907f25156fd3288212246d8b008d5921fde376c71ed14ac2e072a506eb06fde6d09d5f80a4005b3461011b57602036600319011261011b576004355f52600260205260405f206040519081602082549182815201915f5260205f20905f5b818110610f5557610f5185610f3d81870382611a20565b60405191829160208352602083019061188a565b0390f35b82546001600160a01b0316845260209093019260019283019201610f26565b3461011b5761010036600319011261011b576004356024359081600f0b80920361011b576044359060ff821680920361011b576064356001600160401b03811161011b57610fc690369060040161185d565b92906084356001600160401b03811161011b57610fe790369060040161185d565b9060a4356001600160401b03811161011b5761100790369060040161185d565b909160c4356001600160401b03811161011b5761102890369060040161185d565b94909560e43599895f52600360205260405f2060018060a01b0333165f5260205260ff60405f2054161561168d575b5f8a81526020818152604080832033845290915290819020805491516001600160401b039283169b92909190610120830190811183821017610b2a576040528e8252602082018381528e8a8c8b8f6110b0368b8d611a56565b93604089019485528d8d36906110c592611a56565b9260608a0193845236906110d892611a56565b926080890193845236906110eb92611a56565b9260a0880193845260c0880194855260e08801955f87526101008901974289528054600160401b811015610b2a576111289160018201815561194e565b99909961167a57518954915170ffffffffffffffffffffffffffffffffff199092166fffffffffffffffffffffffffffffffff9091161760809190911b60ff60801b1617885551805160018901916001600160401b038211610b2a5781906111908454611967565b601f811161162a575b50602090601f83116001146115c7575f926115bc575b50508160011b915f199060031b1c19161790555b51805160028801916001600160401b038211610b2a5781906111e58454611967565b601f811161156c575b50602090601f8311600114611509575f926114fe575b50508160011b915f199060031b1c19161790555b51805160038701916001600160401b038211610b2a57819061123a8454611967565b601f81116114ae575b50602090601f831160011461144b575f92611440575b50508160011b915f199060031b1c19161790555b51805160048601916001600160401b038211610b2a57819061128f8454611967565b601f81116113f0575b50602090601f831160011461138d575f92611382575b50508160011b915f199060031b1c19161790555b516005840155600683019051151560ff198254169060ff1617905551906007015560405182848237808381015f81520390209c6040519a8b5260208b015260408a015260608901610100905261010089019061131d92611a9b565b90878203608089015261132f92611a9b565b9085820360a087015261134192611a9b565b9083820360c085015261135392611a9b565b9260e0820152803393037f6a4a61743519c9d648a14e6493f47dbe3ff1aa29e7785c96c8326a205e58febc91a4005b015190505f806112ae565b5f8581528281209350601f198516905b8181106113d857509084600195949392106113c0575b505050811b0190556112c2565b01515f1960f88460031b161c191690555f80806113b3565b9293602060018192878601518155019501930161139d565b909150835f5260205f20601f840160051c81019160208510611436575b90601f859493920160051c01905b8181106114285750611298565b5f815584935060010161141b565b909150819061140d565b015190505f80611259565b5f8581528281209350601f198516905b818110611496575090846001959493921061147e575b505050811b01905561126d565b01515f1960f88460031b161c191690555f8080611471565b9293602060018192878601518155019501930161145b565b909150835f5260205f20601f840160051c810191602085106114f4575b90601f859493920160051c01905b8181106114e65750611243565b5f81558493506001016114d9565b90915081906114cb565b015190505f80611204565b5f8581528281209350601f198516905b818110611554575090846001959493921061153c575b505050811b019055611218565b01515f1960f88460031b161c191690555f808061152f565b92936020600181928786015181550195019301611519565b909150835f5260205f20601f840160051c810191602085106115b2575b90601f859493920160051c01905b8181106115a457506111ee565b5f8155849350600101611597565b9091508190611589565b015190505f806111af565b5f8581528281209350601f198516905b81811061161257509084600195949392106115fa575b505050811b0190556111c3565b01515f1960f88460031b161c191690555f80806115ed565b929360206001819287860151815501950193016115d7565b909150835f5260205f20601f840160051c81019160208510611670575b90601f859493920160051c01905b8181106116625750611199565b5f8155849350600101611655565b9091508190611647565b634e487b7160e01b5f525f60045260245ffd5b895f52600260205260405f208054600160401b811015610b2a576116b691600182018155611a41565b81546001600160a01b03600392831b90811b19909116339182901b179092555f8c8152602091825260408082209382529290915220805460ff19166001179055611057565b3461011b57606036600319011261011b5760ff61174661171961180d565b611721611823565b906004355f525f60205260405f209060018060a01b03165f5260205260405f2061194e565b508054906117bd60026117af85600685015416936117896040519161177983611772816001850161199f565b0384611a20565b611772604051809681930161199f565b60405196868897600f0b885260801c16602087015260a0604087015260a0860190611839565b908482036060860152611839565b90151560808301520390f35b3461011b575f36600319011261011b576040517f00000000000000000000000000000000000000000000000000000000000000006001600160a01b03168152602090f35b602435906001600160a01b038216820361011b57565b604435906001600160401b038216820361011b57565b805180835260209291819084018484015e5f828201840152601f01601f1916010190565b9181601f8401121561011b578235916001600160401b03831161011b576020838186019501011161011b57565b90602080835192838152019201905f5b8181106118a75750505090565b82516001600160a01b031684526020938401939092019160010161189a565b9181601f8401121561011b578235916001600160401b03831161011b576020808501948460051b01011161011b57565b9080602083519182815201916020808360051b8301019401925f915b83831061192157505050505090565b909192939460208061193f600193601f198682030187528951611839565b97019301930191939290611912565b8054821015610b3e575f5260205f209060031b01905f90565b90600182811c92168015611995575b602083101461198157565b634e487b7160e01b5f52602260045260245ffd5b91607f1691611976565b5f92918154916119ae83611967565b8083529260018116908115611a0357506001146119ca57505050565b5f9081526020812093945091925b8383106119e9575060209250010190565b6001816020929493945483858701015201910191906119d8565b915050602093945060ff929192191683830152151560051b010190565b90601f801991011681019081106001600160401b03821117610b2a57604052565b8054821015610b3e575f5260205f2001905f90565b9291926001600160401b038211610b2a5760405191611a7f601f8201601f191660200184611a20565b82948184528183011161011b578281602093845f960137010152565b908060209392818452848401375f828201840152601f01601f1916010190565b15611ac257565b60405162461bcd60e51b815260206004820152601060248201526f4e6f207375636820666565646261636b60801b6044820152606490fd5b9190811015610b3e5760051b0190565b356001600160a01b038116810361011b5790565b5f1981146100fe5760010190565b6001600160401b038111610b2a5760051b60200190565b90611b4d82611b2c565b611b5a6040519182611a20565b8281528092611b6b601f1991611b2c565b01905f5b828110611b7b57505050565b806060602080938501015201611b6f565b8051821015610b3e5760209160051b01019056fea26469706673582212201e164de92d45b7fe16ed658f06d79339e2dd148237f38e4020a7bf8114fb9b5664736f6c634300081a0033","opcodes":"PUSH1 0xA0 CALLVALUE PUSH1 0x66 JUMPI PUSH1 0x1F PUSH2 0x1C55 CODESIZE DUP2 SWAP1 SUB SWAP2 DUP3 ADD PUSH1 0x1F NOT AND DUP4 ADD SWAP2 PUSH1 0x1 PUSH1 0x1 PUSH1 0x40 SHL SUB DUP4 GT DUP5 DUP5 LT OR PUSH1 0x6A JUMPI DUP1 DUP5 SWAP3 PUSH1 0x20 SWAP5 PUSH1 0x40 MSTORE DUP4 CODECOPY DUP2 ADD SUB SLT PUSH1 0x66 JUMPI MLOAD PUSH1 0x1 PUSH1 0x1 PUSH1 0xA0 SHL SUB DUP2 AND DUP2 SUB PUSH1 0x66 JUMPI PUSH1 0x80 MSTORE PUSH1 0x40 MLOAD PUSH2 0x1BD6 SWAP1 DUP2 PUSH2 0x7F DUP3 CODECOPY PUSH1 0x80 MLOAD DUP2 PUSH2 0x17DE ADD MSTORE RETURN JUMPDEST PUSH0 DUP1 REVERT JUMPDEST PUSH4 0x4E487B71 PUSH1 0xE0 SHL PUSH0 MSTORE PUSH1 0x41 PUSH1 0x4 MSTORE PUSH1 0x24 PUSH0 REVERT INVALID PUSH2 0x2A0 PUSH1 0x40 MSTORE PUSH1 0x4 CALLDATASIZE LT ISZERO PUSH2 0x12 JUMPI PUSH0 DUP1 REVERT JUMPDEST PUSH0 CALLDATALOAD PUSH1 0xE0 SHR DUP1 PUSH4 0x134E18F4 EQ PUSH2 0x17C9 JUMPI DUP1 PUSH4 0x232B0810 EQ PUSH2 0x16FB JUMPI DUP1 PUSH4 0x3C036A7E EQ PUSH2 0xF74 JUMPI DUP1 PUSH4 0x42DD519C EQ PUSH2 0xEEF JUMPI DUP1 PUSH4 0x4AB3CA99 EQ PUSH2 0xE4C JUMPI DUP1 PUSH4 0x6E04CACD EQ PUSH2 0xDC2 JUMPI DUP1 PUSH4 0x81BBBA58 EQ PUSH2 0xB57 JUMPI DUP1 PUSH4 0xBC4D861B EQ PUSH2 0xB52 JUMPI DUP1 PUSH4 0xC2349AB2 EQ PUSH2 0x866 JUMPI DUP1 PUSH4 0xD9D84224 EQ PUSH2 0x11F JUMPI PUSH4 0xF2D81759 EQ PUSH2 0x93 JUMPI PUSH0 DUP1 REVERT JUMPDEST CALLVALUE PUSH2 0x11B JUMPI PUSH1 0x40 CALLDATASIZE PUSH1 0x3 NOT ADD SLT PUSH2 0x11B JUMPI PUSH2 0xAC PUSH2 0x180D JUMP JUMPDEST PUSH1 0x4 CALLDATALOAD PUSH0 SWAP1 DUP2 MSTORE PUSH1 0x20 DUP2 DUP2 MSTORE PUSH1 0x40 DUP1 DUP4 KECCAK256 PUSH1 0x1 PUSH1 0x1 PUSH1 0xA0 SHL SUB SWAP1 SWAP5 AND DUP4 MSTORE SWAP3 SWAP1 MSTORE KECCAK256 SLOAD DUP1 ISZERO PUSH2 0x112 JUMPI PUSH0 NOT DUP2 ADD SWAP1 DUP2 GT PUSH2 0xFE JUMPI PUSH1 0x1 PUSH1 0x1 PUSH1 0x40 SHL SUB PUSH1 0x20 SWAP2 AND JUMPDEST PUSH1 0x1 PUSH1 0x1 PUSH1 0x40 SHL SUB PUSH1 0x40 MLOAD SWAP2 AND DUP2 MSTORE RETURN JUMPDEST PUSH4 0x4E487B71 PUSH1 0xE0 SHL PUSH0 MSTORE PUSH1 0x11 PUSH1 0x4 MSTORE PUSH1 0x24 PUSH0 REVERT JUMPDEST POP PUSH1 0x20 PUSH0 PUSH2 0xED JUMP JUMPDEST PUSH0 DUP1 REVERT JUMPDEST CALLVALUE PUSH2 0x11B JUMPI PUSH1 0xA0 CALLDATASIZE PUSH1 0x3 NOT ADD SLT PUSH2 0x11B JUMPI PUSH1 0x24 CALLDATALOAD PUSH1 0x1 PUSH1 0x1 PUSH1 0x40 SHL SUB DUP2 GT PUSH2 0x11B JUMPI PUSH2 0x14F SWAP1 CALLDATASIZE SWAP1 PUSH1 0x4 ADD PUSH2 0x18C6 JUMP JUMPDEST PUSH1 0xA0 MSTORE PUSH1 0x80 MSTORE PUSH1 0x44 CALLDATALOAD PUSH1 0x1 PUSH1 0x1 PUSH1 0x40 SHL SUB DUP2 GT PUSH2 0x11B JUMPI PUSH2 0x174 SWAP1 CALLDATASIZE SWAP1 PUSH1 0x4 ADD PUSH2 0x185D JUMP JUMPDEST PUSH2 0x120 MSTORE PUSH2 0x140 MSTORE PUSH1 0x64 CALLDATALOAD PUSH1 0x1 PUSH1 0x1 PUSH1 0x40 SHL SUB DUP2 GT PUSH2 0x11B JUMPI PUSH2 0x19B SWAP1 CALLDATASIZE SWAP1 PUSH1 0x4 ADD PUSH2 0x185D JUMP JUMPDEST PUSH1 0xE0 MSTORE PUSH2 0x100 MSTORE PUSH1 0x84 CALLDATALOAD PUSH2 0x180 MSTORE PUSH2 0x180 MLOAD ISZERO ISZERO PUSH2 0x180 MLOAD SUB PUSH2 0x11B JUMPI PUSH1 0x4 CALLDATALOAD PUSH0 MSTORE PUSH1 0x2 PUSH1 0x20 MSTORE PUSH1 0x40 PUSH0 KECCAK256 PUSH0 PUSH2 0x1A0 MSTORE PUSH1 0xA0 MLOAD ISZERO ISZERO PUSH0 EQ PUSH2 0x85B JUMPI PUSH1 0xA0 MLOAD PUSH2 0x1A0 MSTORE JUMPDEST PUSH0 DUP1 JUMPDEST PUSH2 0x1A0 MLOAD DUP2 LT PUSH2 0x70E JUMPI POP DUP1 PUSH2 0x20C PUSH2 0x1FC PUSH2 0x311 SWAP4 PUSH2 0x1B2C JUMP JUMPDEST PUSH1 0x40 MLOAD PUSH2 0x260 MSTORE PUSH2 0x260 MLOAD PUSH2 0x1A20 JUMP JUMPDEST DUP1 PUSH2 0x260 MLOAD MSTORE PUSH1 0x1F NOT PUSH2 0x21E DUP3 PUSH2 0x1B2C JUMP JUMPDEST ADD CALLDATASIZE PUSH1 0x20 PUSH2 0x260 MLOAD ADD CALLDATACOPY PUSH2 0x244 PUSH2 0x234 DUP3 PUSH2 0x1B2C JUMP JUMPDEST PUSH1 0x40 MLOAD PUSH2 0x1C0 MSTORE PUSH2 0x1C0 MLOAD PUSH2 0x1A20 JUMP JUMPDEST DUP1 PUSH2 0x1C0 MLOAD MSTORE PUSH2 0x253 DUP2 PUSH2 0x1B2C JUMP JUMPDEST PUSH1 0x1F NOT ADD CALLDATASIZE PUSH1 0x20 PUSH2 0x1C0 MLOAD ADD CALLDATACOPY PUSH2 0x27C PUSH2 0x26C DUP3 PUSH2 0x1B2C JUMP JUMPDEST PUSH1 0x40 MLOAD PUSH2 0x1E0 MSTORE PUSH2 0x1E0 MLOAD PUSH2 0x1A20 JUMP JUMPDEST DUP1 PUSH2 0x1E0 MLOAD MSTORE PUSH2 0x28B DUP2 PUSH2 0x1B2C JUMP JUMPDEST PUSH1 0x1F NOT ADD CALLDATASIZE PUSH1 0x20 PUSH2 0x1E0 MLOAD ADD CALLDATACOPY PUSH2 0x2B4 PUSH2 0x2A4 DUP3 PUSH2 0x1B2C JUMP JUMPDEST PUSH1 0x40 MLOAD PUSH2 0x280 MSTORE PUSH2 0x280 MLOAD PUSH2 0x1A20 JUMP JUMPDEST DUP1 PUSH2 0x280 MLOAD MSTORE PUSH2 0x2C3 DUP2 PUSH2 0x1B2C JUMP JUMPDEST PUSH1 0x1F NOT ADD CALLDATASIZE PUSH1 0x20 PUSH2 0x280 MLOAD ADD CALLDATACOPY PUSH2 0x2D9 DUP2 PUSH2 0x1B43 JUMP JUMPDEST PUSH2 0x200 MSTORE PUSH2 0x2E6 DUP2 PUSH2 0x1B43 JUMP JUMPDEST PUSH2 0x220 MSTORE PUSH2 0x306 PUSH2 0x2F6 DUP3 PUSH2 0x1B2C JUMP JUMPDEST PUSH1 0x40 MLOAD PUSH2 0x240 MSTORE PUSH2 0x240 MLOAD PUSH2 0x1A20 JUMP JUMPDEST DUP1 PUSH2 0x240 MLOAD MSTORE PUSH2 0x1B2C JUMP JUMPDEST PUSH1 0x1F NOT ADD CALLDATASIZE PUSH1 0x20 PUSH2 0x240 MLOAD ADD CALLDATACOPY PUSH0 PUSH2 0x160 DUP2 SWAP1 MSTORE JUMPDEST PUSH2 0x1A0 MLOAD DUP2 LT PUSH2 0x48E JUMPI PUSH1 0x40 MLOAD PUSH1 0xE0 DUP2 MSTORE DUP1 PUSH2 0x348 PUSH1 0xE0 DUP3 ADD PUSH2 0x260 MLOAD PUSH2 0x188A JUMP JUMPDEST DUP2 DUP2 SUB PUSH1 0x20 DUP4 ADD MSTORE PUSH1 0x20 PUSH2 0x1C0 MLOAD MLOAD SWAP2 DUP3 DUP2 MSTORE ADD SWAP1 PUSH1 0x20 PUSH2 0x1C0 MLOAD ADD SWAP1 PUSH0 JUMPDEST DUP2 DUP2 LT PUSH2 0x46C JUMPI POP POP POP DUP2 DUP2 SUB PUSH1 0x40 DUP4 ADD MSTORE PUSH1 0x20 PUSH2 0x1E0 MLOAD MLOAD SWAP2 DUP3 DUP2 MSTORE ADD SWAP1 PUSH1 0x20 PUSH2 0x1E0 MLOAD ADD SWAP1 PUSH0 JUMPDEST DUP2 DUP2 LT PUSH2 0x450 JUMPI POP POP POP DUP2 DUP2 SUB PUSH1 0x60 DUP4 ADD MSTORE PUSH1 0x20 PUSH2 0x280 MLOAD MLOAD SWAP2 DUP3 DUP2 MSTORE ADD SWAP1 PUSH1 0x20 PUSH2 0x280 MLOAD ADD SWAP1 PUSH0 JUMPDEST DUP2 DUP2 LT PUSH2 0x434 JUMPI POP POP POP PUSH2 0x3DB DUP2 DUP4 PUSH2 0x3EC SWAP4 SUB PUSH1 0x80 DUP6 ADD MSTORE PUSH2 0x200 MLOAD PUSH2 0x18F6 JUMP JUMPDEST DUP3 DUP2 SUB PUSH1 0xA0 DUP5 ADD MSTORE PUSH2 0x220 MLOAD PUSH2 0x18F6 JUMP JUMPDEST DUP2 DUP2 SUB PUSH1 0xC0 DUP4 ADD MSTORE PUSH1 0x20 PUSH2 0x240 MLOAD MLOAD SWAP2 DUP3 DUP2 MSTORE ADD SWAP1 PUSH1 0x20 PUSH2 0x240 MLOAD ADD SWAP1 PUSH0 JUMPDEST DUP2 DUP2 LT PUSH2 0x419 JUMPI POP POP POP SUB SWAP1 RETURN JUMPDEST DUP3 MLOAD ISZERO ISZERO DUP5 MSTORE DUP6 SWAP5 POP PUSH1 0x20 SWAP4 DUP5 ADD SWAP4 SWAP1 SWAP3 ADD SWAP2 PUSH1 0x1 ADD PUSH2 0x40B JUMP JUMPDEST DUP3 MLOAD PUSH1 0xFF AND DUP5 MSTORE DUP6 SWAP5 POP PUSH1 0x20 SWAP4 DUP5 ADD SWAP4 SWAP1 SWAP3 ADD SWAP2 PUSH1 0x1 ADD PUSH2 0x3B9 JUMP JUMPDEST DUP3 MLOAD PUSH1 0xF SIGNEXTEND DUP5 MSTORE DUP6 SWAP5 POP PUSH1 0x20 SWAP4 DUP5 ADD SWAP4 SWAP1 SWAP3 ADD SWAP2 PUSH1 0x1 ADD PUSH2 0x390 JUMP JUMPDEST DUP3 MLOAD PUSH1 0x1 PUSH1 0x1 PUSH1 0x40 SHL SUB AND DUP5 MSTORE DUP6 SWAP5 POP PUSH1 0x20 SWAP4 DUP5 ADD SWAP4 SWAP1 SWAP3 ADD SWAP2 PUSH1 0x1 ADD PUSH2 0x367 JUMP JUMPDEST PUSH1 0xA0 MLOAD ISZERO PUSH2 0x6ED JUMPI PUSH2 0x4AD PUSH2 0x4A8 DUP3 PUSH1 0xA0 MLOAD PUSH1 0x80 MLOAD PUSH2 0x1AFA JUMP JUMPDEST PUSH2 0x1B0A JUMP JUMPDEST PUSH1 0x4 CALLDATALOAD PUSH0 MSTORE PUSH0 PUSH1 0x20 MSTORE PUSH1 0x40 PUSH0 KECCAK256 PUSH1 0x1 DUP1 PUSH1 0xA0 SHL SUB DUP3 AND PUSH0 MSTORE PUSH1 0x20 MSTORE PUSH1 0x40 PUSH0 KECCAK256 PUSH0 PUSH1 0xC0 MSTORE DUP1 SLOAD JUMPDEST DUP1 PUSH1 0xC0 MLOAD LT PUSH2 0x4E7 JUMPI POP POP POP PUSH1 0x1 ADD PUSH2 0x326 JUMP JUMPDEST PUSH2 0x180 MLOAD ISZERO DUP1 PUSH2 0x6D3 JUMPI JUMPDEST PUSH2 0x65F JUMPI PUSH2 0x120 MLOAD ISZERO ISZERO PUSH2 0x120 MLOAD PUSH2 0x69B JUMPI JUMPDEST PUSH2 0x65F JUMPI PUSH1 0xE0 MLOAD ISZERO ISZERO PUSH1 0xE0 MLOAD PUSH2 0x664 JUMPI JUMPDEST PUSH2 0x65F JUMPI PUSH2 0x52A PUSH2 0x160 MLOAD PUSH2 0x260 MLOAD PUSH2 0x1B8C JUMP JUMPDEST PUSH1 0x1 DUP1 PUSH1 0xA0 SHL SUB DUP5 AND SWAP1 MSTORE PUSH1 0x1 PUSH1 0x1 PUSH1 0x40 SHL SUB PUSH1 0xC0 MLOAD AND PUSH2 0x551 PUSH2 0x160 MLOAD PUSH2 0x1C0 MLOAD PUSH2 0x1B8C JUMP JUMPDEST MSTORE PUSH2 0x55E PUSH1 0xC0 MLOAD DUP4 PUSH2 0x194E JUMP JUMPDEST POP SLOAD PUSH1 0xF SIGNEXTEND PUSH2 0x573 PUSH2 0x160 MLOAD PUSH2 0x1E0 MLOAD PUSH2 0x1B8C JUMP JUMPDEST MSTORE PUSH1 0xFF PUSH2 0x582 PUSH1 0xC0 MLOAD DUP5 PUSH2 0x194E JUMP JUMPDEST POP SLOAD PUSH1 0x80 SHR AND PUSH2 0x598 PUSH2 0x160 MLOAD PUSH2 0x280 MLOAD PUSH2 0x1B8C JUMP JUMPDEST MSTORE PUSH1 0x1 PUSH2 0x5C2 PUSH2 0x5AA PUSH1 0xC0 MLOAD DUP6 PUSH2 0x194E JUMP JUMPDEST POP PUSH2 0x5BB PUSH1 0x40 MLOAD DUP1 SWAP5 DUP2 SWAP4 ADD PUSH2 0x199F JUMP JUMPDEST SUB DUP3 PUSH2 0x1A20 JUMP JUMPDEST PUSH2 0x5D2 PUSH2 0x160 MLOAD PUSH2 0x200 MLOAD PUSH2 0x1B8C JUMP JUMPDEST MSTORE PUSH2 0x5E3 PUSH2 0x160 MLOAD PUSH2 0x200 MLOAD PUSH2 0x1B8C JUMP JUMPDEST POP PUSH1 0x2 PUSH2 0x5F5 PUSH2 0x5AA PUSH1 0xC0 MLOAD DUP6 PUSH2 0x194E JUMP JUMPDEST PUSH2 0x605 PUSH2 0x160 MLOAD PUSH2 0x220 MLOAD PUSH2 0x1B8C JUMP JUMPDEST MSTORE PUSH2 0x616 PUSH2 0x160 MLOAD PUSH2 0x220 MLOAD PUSH2 0x1B8C JUMP JUMPDEST POP PUSH1 0xFF PUSH1 0x6 PUSH2 0x627 PUSH1 0xC0 MLOAD DUP6 PUSH2 0x194E JUMP JUMPDEST POP ADD SLOAD AND PUSH2 0x63B PUSH2 0x160 MLOAD PUSH2 0x240 MLOAD PUSH2 0x1B8C JUMP JUMPDEST SWAP1 ISZERO ISZERO SWAP1 MSTORE PUSH2 0x64C PUSH2 0x160 MLOAD PUSH2 0x1B1E JUMP JUMPDEST PUSH2 0x160 MSTORE JUMPDEST PUSH1 0x1 PUSH1 0xC0 MLOAD ADD PUSH1 0xC0 MSTORE PUSH2 0x4D3 JUMP JUMPDEST PUSH2 0x651 JUMP JUMPDEST POP PUSH1 0x2 PUSH2 0x676 PUSH2 0x5AA PUSH1 0xC0 MLOAD DUP6 PUSH2 0x194E JUMP JUMPDEST PUSH1 0x20 DUP2 MLOAD SWAP2 ADD KECCAK256 PUSH2 0x68D CALLDATASIZE PUSH1 0xE0 MLOAD PUSH2 0x100 MLOAD PUSH2 0x1A56 JUMP JUMPDEST PUSH1 0x20 DUP2 MLOAD SWAP2 ADD KECCAK256 EQ ISZERO PUSH2 0x516 JUMP JUMPDEST POP PUSH1 0x1 PUSH2 0x6AD PUSH2 0x5AA PUSH1 0xC0 MLOAD DUP6 PUSH2 0x194E JUMP JUMPDEST PUSH1 0x20 DUP2 MLOAD SWAP2 ADD KECCAK256 PUSH2 0x6C5 CALLDATASIZE PUSH2 0x120 MLOAD PUSH2 0x140 MLOAD PUSH2 0x1A56 JUMP JUMPDEST PUSH1 0x20 DUP2 MLOAD SWAP2 ADD KECCAK256 EQ ISZERO PUSH2 0x505 JUMP JUMPDEST POP PUSH1 0xFF PUSH1 0x6 PUSH2 0x6E4 PUSH1 0xC0 MLOAD DUP6 PUSH2 0x194E JUMP JUMPDEST POP ADD SLOAD AND PUSH2 0x4F2 JUMP JUMPDEST PUSH2 0x6F7 DUP2 DUP4 PUSH2 0x1A41 JUMP JUMPDEST SWAP1 SLOAD PUSH1 0x3 SWAP2 SWAP1 SWAP2 SHL SHR PUSH1 0x1 PUSH1 0x1 PUSH1 0xA0 SHL SUB AND PUSH2 0x4AD JUMP JUMPDEST PUSH1 0xA0 MLOAD ISZERO PUSH2 0x83A JUMPI PUSH2 0x728 PUSH2 0x4A8 DUP3 PUSH1 0xA0 MLOAD PUSH1 0x80 MLOAD PUSH2 0x1AFA JUMP JUMPDEST PUSH1 0x4 CALLDATALOAD PUSH0 MSTORE PUSH0 PUSH1 0x20 MSTORE PUSH1 0x40 PUSH0 KECCAK256 SWAP1 PUSH1 0x1 DUP1 PUSH1 0xA0 SHL SUB AND PUSH0 MSTORE PUSH1 0x20 MSTORE PUSH1 0x40 PUSH0 KECCAK256 PUSH0 SWAP1 DUP1 SLOAD SWAP1 JUMPDEST DUP2 DUP4 LT PUSH2 0x75F JUMPI POP POP POP PUSH1 0x1 ADD PUSH2 0x1E1 JUMP JUMPDEST SWAP1 SWAP2 SWAP4 PUSH2 0x180 MLOAD ISZERO PUSH2 0x180 MLOAD ISZERO PUSH2 0x822 JUMPI JUMPDEST PUSH2 0x7AE JUMPI PUSH2 0x120 MLOAD ISZERO ISZERO PUSH2 0x120 MLOAD PUSH2 0x7EC JUMPI JUMPDEST PUSH2 0x7AE JUMPI PUSH1 0xE0 MLOAD ISZERO ISZERO PUSH1 0xE0 MLOAD PUSH2 0x7B7 JUMPI JUMPDEST PUSH2 0x7AE JUMPI PUSH2 0x7A4 PUSH1 0x1 SWAP2 PUSH2 0x1B1E JUMP JUMPDEST SWAP5 JUMPDEST ADD SWAP2 SWAP1 PUSH2 0x74D JUMP JUMPDEST SWAP4 PUSH1 0x1 SWAP1 PUSH2 0x7A6 JUMP JUMPDEST POP PUSH1 0x2 PUSH2 0x7C7 PUSH2 0x5AA DUP8 DUP6 PUSH2 0x194E JUMP JUMPDEST PUSH1 0x20 DUP2 MLOAD SWAP2 ADD KECCAK256 PUSH2 0x7DE CALLDATASIZE PUSH1 0xE0 MLOAD PUSH2 0x100 MLOAD PUSH2 0x1A56 JUMP JUMPDEST PUSH1 0x20 DUP2 MLOAD SWAP2 ADD KECCAK256 EQ ISZERO PUSH2 0x795 JUMP JUMPDEST POP PUSH1 0x1 PUSH2 0x7FC PUSH2 0x5AA DUP8 DUP6 PUSH2 0x194E JUMP JUMPDEST PUSH1 0x20 DUP2 MLOAD SWAP2 ADD KECCAK256 PUSH2 0x814 CALLDATASIZE PUSH2 0x120 MLOAD PUSH2 0x140 MLOAD PUSH2 0x1A56 JUMP JUMPDEST PUSH1 0x20 DUP2 MLOAD SWAP2 ADD KECCAK256 EQ ISZERO PUSH2 0x784 JUMP JUMPDEST POP PUSH1 0xFF PUSH1 0x6 PUSH2 0x831 DUP8 DUP6 PUSH2 0x194E JUMP JUMPDEST POP ADD SLOAD AND PUSH2 0x771 JUMP JUMPDEST PUSH2 0x844 DUP2 DUP5 PUSH2 0x1A41 JUMP JUMPDEST SWAP1 SLOAD PUSH1 0x3 SWAP2 SWAP1 SWAP2 SHL SHR PUSH1 0x1 PUSH1 0x1 PUSH1 0xA0 SHL SUB AND PUSH2 0x728 JUMP JUMPDEST DUP1 SLOAD PUSH2 0x1A0 MSTORE PUSH2 0x1DE JUMP JUMPDEST CALLVALUE PUSH2 0x11B JUMPI PUSH1 0xA0 CALLDATASIZE PUSH1 0x3 NOT ADD SLT PUSH2 0x11B JUMPI PUSH1 0x4 CALLDATALOAD PUSH2 0x882 PUSH2 0x180D JUMP JUMPDEST SWAP1 PUSH2 0x88B PUSH2 0x1823 JUMP JUMPDEST SWAP1 PUSH1 0x64 CALLDATALOAD PUSH1 0x1 PUSH1 0x1 PUSH1 0x40 SHL SUB DUP2 GT PUSH2 0x11B JUMPI PUSH2 0x8AB SWAP1 CALLDATASIZE SWAP1 PUSH1 0x4 ADD PUSH2 0x185D JUMP JUMPDEST PUSH0 DUP4 DUP2 MSTORE PUSH1 0x20 DUP2 DUP2 MSTORE PUSH1 0x40 DUP1 DUP4 KECCAK256 PUSH1 0x1 PUSH1 0x1 PUSH1 0xA0 SHL SUB DUP10 AND DUP5 MSTORE SWAP1 SWAP2 MSTORE SWAP1 KECCAK256 SLOAD PUSH1 0x84 CALLDATALOAD SWAP5 PUSH1 0x1 PUSH1 0x1 PUSH1 0x40 SHL SUB AND SWAP3 SWAP2 SWAP1 PUSH2 0x8E6 SWAP1 DUP5 LT PUSH2 0x1ABB JUMP JUMPDEST DUP4 PUSH0 MSTORE PUSH1 0x1 PUSH1 0x20 MSTORE PUSH1 0x40 PUSH0 KECCAK256 PUSH1 0x1 DUP1 PUSH1 0xA0 SHL SUB DUP8 AND PUSH0 MSTORE PUSH1 0x20 MSTORE PUSH1 0x40 PUSH0 KECCAK256 DUP4 PUSH0 MSTORE PUSH1 0x20 MSTORE PUSH1 0x40 PUSH0 KECCAK256 PUSH1 0x40 MLOAD SWAP1 PUSH1 0x60 DUP3 ADD DUP3 DUP2 LT PUSH1 0x1 PUSH1 0x1 PUSH1 0x40 SHL SUB DUP3 GT OR PUSH2 0xB2A JUMPI PUSH1 0x40 MSTORE CALLER DUP3 MSTORE PUSH2 0x939 CALLDATASIZE DUP5 DUP7 PUSH2 0x1A56 JUMP JUMPDEST PUSH1 0x20 DUP4 ADD SWAP1 DUP2 MSTORE PUSH1 0x40 DUP4 ADD SWAP2 DUP9 DUP4 MSTORE DUP1 SLOAD SWAP1 PUSH1 0x1 PUSH1 0x40 SHL DUP3 LT ISZERO PUSH2 0xB2A JUMPI PUSH1 0x1 DUP3 ADD DUP1 DUP3 SSTORE DUP3 LT ISZERO PUSH2 0xB3E JUMPI PUSH0 MSTORE PUSH1 0x3 PUSH1 0x20 PUSH0 KECCAK256 SWAP2 MUL ADD SWAP3 PUSH1 0x1 DUP1 PUSH1 0xA0 SHL SUB SWAP1 MLOAD AND PUSH12 0xFFFFFFFFFFFFFFFFFFFFFFFF PUSH1 0xA0 SHL DUP5 SLOAD AND OR DUP4 SSTORE PUSH1 0x1 DUP4 ADD SWAP1 MLOAD DUP1 MLOAD SWAP1 PUSH1 0x1 PUSH1 0x1 PUSH1 0x40 SHL SUB DUP3 GT PUSH2 0xB2A JUMPI PUSH2 0x9B2 DUP4 SLOAD PUSH2 0x1967 JUMP JUMPDEST PUSH1 0x1F DUP2 GT PUSH2 0xAE5 JUMPI JUMPDEST POP PUSH1 0x20 SWAP1 PUSH1 0x1F DUP4 GT PUSH1 0x1 EQ PUSH2 0xA56 JUMPI SWAP3 DUP3 PUSH1 0x2 SWAP4 PUSH2 0xA30 SWAP9 SWAP7 SWAP4 PUSH32 0xB1C6BE0B5B8AEF6539E2FAC0FD131A2FAA7B49EDF8E505B5EB0AD487D56051D4 SWAP12 SWAP11 SWAP9 SWAP7 PUSH0 SWAP3 PUSH2 0xA4B JUMPI JUMPDEST POP POP DUP2 PUSH1 0x1 SHL SWAP2 PUSH0 NOT SWAP1 PUSH1 0x3 SHL SHR NOT AND OR SWAP1 SSTORE JUMPDEST MLOAD SWAP2 ADD SSTORE PUSH1 0x40 MLOAD SWAP4 DUP5 MSTORE PUSH1 0x60 PUSH1 0x20 DUP6 ADD MSTORE PUSH1 0x60 DUP5 ADD SWAP2 PUSH2 0x1A9B JUMP JUMPDEST PUSH1 0x40 DUP3 ADD SWAP5 SWAP1 SWAP5 MSTORE CALLER SWAP5 PUSH1 0x1 PUSH1 0x1 PUSH1 0xA0 SHL SUB AND SWAP4 DUP2 SWAP1 SUB SWAP1 LOG4 STOP JUMPDEST ADD MLOAD SWAP1 POP DUP15 DUP1 PUSH2 0xA01 JUMP JUMPDEST SWAP1 PUSH1 0x1F NOT DUP4 AND SWAP2 DUP5 PUSH0 MSTORE DUP2 PUSH0 KECCAK256 SWAP3 PUSH0 JUMPDEST DUP2 DUP2 LT PUSH2 0xACD JUMPI POP SWAP4 PUSH2 0xA30 SWAP9 SWAP7 SWAP4 PUSH32 0xB1C6BE0B5B8AEF6539E2FAC0FD131A2FAA7B49EDF8E505B5EB0AD487D56051D4 SWAP12 SWAP11 SWAP9 SWAP7 SWAP4 PUSH1 0x1 SWAP4 DUP4 PUSH1 0x2 SWAP9 LT PUSH2 0xAB5 JUMPI JUMPDEST POP POP POP DUP2 SHL ADD SWAP1 SSTORE PUSH2 0xA15 JUMP JUMPDEST ADD MLOAD PUSH0 NOT PUSH1 0xF8 DUP5 PUSH1 0x3 SHL AND SHR NOT AND SWAP1 SSTORE DUP15 DUP1 DUP1 PUSH2 0xAA8 JUMP JUMPDEST SWAP3 SWAP4 PUSH1 0x20 PUSH1 0x1 DUP2 SWAP3 DUP8 DUP7 ADD MLOAD DUP2 SSTORE ADD SWAP6 ADD SWAP4 ADD PUSH2 0xA66 JUMP JUMPDEST DUP4 PUSH0 MSTORE PUSH1 0x20 PUSH0 KECCAK256 PUSH1 0x1F DUP5 ADD PUSH1 0x5 SHR DUP2 ADD SWAP2 PUSH1 0x20 DUP6 LT PUSH2 0xB20 JUMPI JUMPDEST PUSH1 0x1F ADD PUSH1 0x5 SHR ADD SWAP1 JUMPDEST DUP2 DUP2 LT PUSH2 0xB15 JUMPI POP PUSH2 0x9BB JUMP JUMPDEST PUSH0 DUP2 SSTORE PUSH1 0x1 ADD PUSH2 0xB08 JUMP JUMPDEST SWAP1 SWAP2 POP DUP2 SWAP1 PUSH2 0xAFF JUMP JUMPDEST PUSH4 0x4E487B71 PUSH1 0xE0 SHL PUSH0 MSTORE PUSH1 0x41 PUSH1 0x4 MSTORE PUSH1 0x24 PUSH0 REVERT JUMPDEST PUSH4 0x4E487B71 PUSH1 0xE0 SHL PUSH0 MSTORE PUSH1 0x32 PUSH1 0x4 MSTORE PUSH1 0x24 PUSH0 REVERT JUMPDEST PUSH2 0x17C9 JUMP JUMPDEST CALLVALUE PUSH2 0x11B JUMPI PUSH1 0x80 CALLDATASIZE PUSH1 0x3 NOT ADD SLT PUSH2 0x11B JUMPI PUSH1 0x24 CALLDATALOAD PUSH1 0x1 PUSH1 0x1 PUSH1 0x40 SHL SUB DUP2 GT PUSH2 0x11B JUMPI PUSH2 0xB87 SWAP1 CALLDATASIZE SWAP1 PUSH1 0x4 ADD PUSH2 0x18C6 JUMP JUMPDEST PUSH1 0x44 CALLDATALOAD PUSH1 0x1 PUSH1 0x1 PUSH1 0x40 SHL SUB DUP2 GT PUSH2 0x11B JUMPI PUSH2 0xBA6 SWAP1 CALLDATASIZE SWAP1 PUSH1 0x4 ADD PUSH2 0x185D JUMP JUMPDEST SWAP3 PUSH1 0x64 CALLDATALOAD PUSH1 0x1 PUSH1 0x1 PUSH1 0x40 SHL SUB DUP2 GT PUSH2 0x11B JUMPI PUSH2 0xBC6 SWAP1 CALLDATASIZE SWAP1 PUSH1 0x4 ADD PUSH2 0x185D JUMP JUMPDEST SWAP3 SWAP1 PUSH0 SWAP4 PUSH1 0x4 CALLDATALOAD PUSH0 MSTORE PUSH1 0x2 PUSH1 0x20 MSTORE PUSH1 0x40 PUSH0 KECCAK256 SWAP6 DUP1 ISZERO ISZERO PUSH0 EQ PUSH2 0xDBA JUMPI DUP1 SWAP5 JUMPDEST PUSH0 SWAP8 PUSH0 JUMPDEST DUP8 DUP2 LT PUSH2 0xC55 JUMPI DUP10 PUSH1 0x1 PUSH1 0x1 PUSH1 0x40 SHL SUB DUP11 AND DUP1 ISZERO DUP1 PUSH2 0xC4A JUMPI PUSH2 0xC36 JUMPI PUSH1 0x1 PUSH1 0xFF SHL DUP3 EQ PUSH0 NOT DUP3 EQ AND PUSH2 0xFE JUMPI DUP1 PUSH1 0x60 SWAP3 SDIV PUSH1 0xF SIGNEXTEND JUMPDEST PUSH1 0x40 MLOAD SWAP2 DUP3 MSTORE PUSH1 0xF SIGNEXTEND PUSH1 0x20 DUP3 ADD MSTORE PUSH1 0x2 PUSH1 0x40 DUP3 ADD MSTORE RETURN JUMPDEST PUSH4 0x4E487B71 PUSH1 0xE0 SHL PUSH0 MSTORE PUSH1 0x12 PUSH1 0x4 MSTORE PUSH1 0x24 PUSH0 REVERT JUMPDEST POP PUSH1 0x60 SWAP2 POP PUSH0 PUSH2 0xC1F JUMP JUMPDEST DUP4 ISZERO PUSH2 0xD99 JUMPI PUSH2 0xC69 PUSH2 0x4A8 DUP3 DUP7 DUP7 PUSH2 0x1AFA JUMP JUMPDEST PUSH1 0x4 CALLDATALOAD PUSH0 MSTORE PUSH0 PUSH1 0x20 MSTORE PUSH1 0x40 PUSH0 KECCAK256 SWAP1 PUSH1 0x1 DUP1 PUSH1 0xA0 SHL SUB AND PUSH0 MSTORE PUSH1 0x20 MSTORE PUSH1 0x40 PUSH0 KECCAK256 PUSH0 SWAP1 DUP1 SLOAD SWAP1 JUMPDEST DUP2 DUP4 LT PUSH2 0xCA0 JUMPI POP POP POP PUSH1 0x1 ADD PUSH2 0xBE9 JUMP JUMPDEST SWAP1 SWAP2 SWAP11 SWAP12 PUSH1 0xFF PUSH1 0x6 PUSH2 0xCB2 DUP15 DUP6 PUSH2 0x194E JUMP JUMPDEST POP ADD SLOAD AND PUSH2 0xD28 JUMPI DUP14 ISZERO ISZERO DUP15 DUP14 DUP2 PUSH2 0xD64 JUMPI JUMPDEST POP POP PUSH2 0xD28 JUMPI DUP8 ISZERO ISZERO DUP13 DUP10 PUSH2 0xD32 JUMPI JUMPDEST POP PUSH2 0xD28 JUMPI PUSH2 0xCE4 DUP13 DUP4 PUSH2 0x194E JUMP JUMPDEST POP SLOAD PUSH1 0xF SIGNEXTEND SWAP1 PUSH0 DUP3 DUP3 ADD SWAP3 DUP4 SLT SWAP2 SLT SWAP1 DUP1 ISZERO DUP3 AND SWAP2 ISZERO AND OR PUSH2 0xFE JUMPI PUSH1 0x1 PUSH1 0x1 PUSH1 0x40 SHL SUB SWAP1 SWAP13 AND PUSH1 0x1 PUSH1 0x1 PUSH1 0x40 SHL SUB DUP2 EQ PUSH2 0xFE JUMPI PUSH1 0x1 DUP1 SWAP2 ADD SWAP12 JUMPDEST ADD SWAP2 SWAP1 PUSH2 0xC8E JUMP JUMPDEST SWAP12 SWAP11 PUSH1 0x1 SWAP1 PUSH2 0xD20 JUMP JUMPDEST PUSH1 0x2 SWAP2 POP PUSH2 0x5AA PUSH2 0xD43 SWAP2 DUP6 PUSH2 0x194E JUMP JUMPDEST PUSH1 0x20 DUP2 MLOAD SWAP2 ADD KECCAK256 PUSH2 0xD55 CALLDATASIZE DUP11 DUP13 PUSH2 0x1A56 JUMP JUMPDEST PUSH1 0x20 DUP2 MLOAD SWAP2 ADD KECCAK256 EQ ISZERO DUP13 PUSH2 0xCD5 JUMP JUMPDEST PUSH2 0xD89 SWAP2 SWAP3 POP PUSH2 0xD79 PUSH2 0x5AA PUSH1 0x1 SWAP3 DUP8 PUSH2 0x194E JUMP JUMPDEST PUSH1 0x20 DUP2 MLOAD SWAP2 ADD KECCAK256 SWAP2 CALLDATASIZE SWAP1 DUP14 PUSH2 0x1A56 JUMP JUMPDEST PUSH1 0x20 DUP2 MLOAD SWAP2 ADD KECCAK256 EQ ISZERO DUP15 DUP14 PUSH2 0xCC5 JUMP JUMPDEST PUSH2 0xDA3 DUP2 DUP4 PUSH2 0x1A41 JUMP JUMPDEST SWAP1 SLOAD PUSH1 0x3 SWAP2 SWAP1 SWAP2 SHL SHR PUSH1 0x1 PUSH1 0x1 PUSH1 0xA0 SHL SUB AND PUSH2 0xC69 JUMP JUMPDEST DUP7 SLOAD SWAP5 PUSH2 0xBE5 JUMP JUMPDEST CALLVALUE PUSH2 0x11B JUMPI PUSH1 0x80 CALLDATASIZE PUSH1 0x3 NOT ADD SLT PUSH2 0x11B JUMPI PUSH2 0xDDB PUSH2 0x180D JUMP JUMPDEST PUSH2 0xDE3 PUSH2 0x1823 JUMP JUMPDEST SWAP1 PUSH1 0x64 CALLDATALOAD PUSH1 0x1 PUSH1 0x1 PUSH1 0x40 SHL SUB DUP2 GT PUSH2 0x11B JUMPI PUSH2 0xE03 SWAP1 CALLDATASIZE SWAP1 PUSH1 0x4 ADD PUSH2 0x18C6 JUMP JUMPDEST POP POP PUSH1 0x4 CALLDATALOAD PUSH0 MSTORE PUSH1 0x1 PUSH1 0x20 MSTORE PUSH1 0x40 PUSH0 KECCAK256 SWAP1 PUSH1 0x1 DUP1 PUSH1 0xA0 SHL SUB AND PUSH0 MSTORE PUSH1 0x20 MSTORE PUSH1 0x1 PUSH1 0x1 PUSH1 0x40 SHL SUB PUSH1 0x40 PUSH0 KECCAK256 SWAP2 AND PUSH0 MSTORE PUSH1 0x20 MSTORE PUSH1 0x20 PUSH1 0x1 PUSH1 0x1 PUSH1 0x40 SHL SUB PUSH1 0x40 PUSH0 KECCAK256 SLOAD AND PUSH1 0x40 MLOAD SWAP1 DUP2 MSTORE RETURN JUMPDEST CALLVALUE PUSH2 0x11B JUMPI PUSH1 0x40 CALLDATASIZE PUSH1 0x3 NOT ADD SLT PUSH2 0x11B JUMPI PUSH1 0x4 CALLDATALOAD PUSH1 0x24 CALLDATALOAD SWAP1 PUSH1 0x1 PUSH1 0x1 PUSH1 0x40 SHL SUB DUP3 AND SWAP2 DUP3 DUP2 SUB PUSH2 0x11B JUMPI PUSH0 DUP3 DUP2 MSTORE PUSH1 0x20 DUP2 DUP2 MSTORE PUSH1 0x40 DUP1 DUP4 KECCAK256 CALLER DUP5 MSTORE SWAP1 SWAP2 MSTORE SWAP1 KECCAK256 SLOAD PUSH1 0x6 SWAP2 PUSH2 0xEBA SWAP2 PUSH2 0xE9F SWAP1 DUP7 LT PUSH2 0x1ABB JUMP JUMPDEST PUSH0 DUP5 DUP2 MSTORE PUSH1 0x20 DUP2 DUP2 MSTORE PUSH1 0x40 DUP1 DUP4 KECCAK256 CALLER DUP5 MSTORE SWAP1 SWAP2 MSTORE SWAP1 KECCAK256 PUSH2 0x194E JUMP JUMPDEST POP ADD DUP1 SLOAD PUSH1 0xFF NOT AND PUSH1 0x1 OR SWAP1 SSTORE CALLER SWAP1 PUSH32 0x25156FD3288212246D8B008D5921FDE376C71ED14AC2E072A506EB06FDE6D09D PUSH0 DUP1 LOG4 STOP JUMPDEST CALLVALUE PUSH2 0x11B JUMPI PUSH1 0x20 CALLDATASIZE PUSH1 0x3 NOT ADD SLT PUSH2 0x11B JUMPI PUSH1 0x4 CALLDATALOAD PUSH0 MSTORE PUSH1 0x2 PUSH1 0x20 MSTORE PUSH1 0x40 PUSH0 KECCAK256 PUSH1 0x40 MLOAD SWAP1 DUP2 PUSH1 0x20 DUP3 SLOAD SWAP2 DUP3 DUP2 MSTORE ADD SWAP2 PUSH0 MSTORE PUSH1 0x20 PUSH0 KECCAK256 SWAP1 PUSH0 JUMPDEST DUP2 DUP2 LT PUSH2 0xF55 JUMPI PUSH2 0xF51 DUP6 PUSH2 0xF3D DUP2 DUP8 SUB DUP3 PUSH2 0x1A20 JUMP JUMPDEST PUSH1 0x40 MLOAD SWAP2 DUP3 SWAP2 PUSH1 0x20 DUP4 MSTORE PUSH1 0x20 DUP4 ADD SWAP1 PUSH2 0x188A JUMP JUMPDEST SUB SWAP1 RETURN JUMPDEST DUP3 SLOAD PUSH1 0x1 PUSH1 0x1 PUSH1 0xA0 SHL SUB AND DUP5 MSTORE PUSH1 0x20 SWAP1 SWAP4 ADD SWAP3 PUSH1 0x1 SWAP3 DUP4 ADD SWAP3 ADD PUSH2 0xF26 JUMP JUMPDEST CALLVALUE PUSH2 0x11B JUMPI PUSH2 0x100 CALLDATASIZE PUSH1 0x3 NOT ADD SLT PUSH2 0x11B JUMPI PUSH1 0x4 CALLDATALOAD PUSH1 0x24 CALLDATALOAD SWAP1 DUP2 PUSH1 0xF SIGNEXTEND DUP1 SWAP3 SUB PUSH2 0x11B JUMPI PUSH1 0x44 CALLDATALOAD SWAP1 PUSH1 0xFF DUP3 AND DUP1 SWAP3 SUB PUSH2 0x11B JUMPI PUSH1 0x64 CALLDATALOAD PUSH1 0x1 PUSH1 0x1 PUSH1 0x40 SHL SUB DUP2 GT PUSH2 0x11B JUMPI PUSH2 0xFC6 SWAP1 CALLDATASIZE SWAP1 PUSH1 0x4 ADD PUSH2 0x185D JUMP JUMPDEST SWAP3 SWAP1 PUSH1 0x84 CALLDATALOAD PUSH1 0x1 PUSH1 0x1 PUSH1 0x40 SHL SUB DUP2 GT PUSH2 0x11B JUMPI PUSH2 0xFE7 SWAP1 CALLDATASIZE SWAP1 PUSH1 0x4 ADD PUSH2 0x185D JUMP JUMPDEST SWAP1 PUSH1 0xA4 CALLDATALOAD PUSH1 0x1 PUSH1 0x1 PUSH1 0x40 SHL SUB DUP2 GT PUSH2 0x11B JUMPI PUSH2 0x1007 SWAP1 CALLDATASIZE SWAP1 PUSH1 0x4 ADD PUSH2 0x185D JUMP JUMPDEST SWAP1 SWAP2 PUSH1 0xC4 CALLDATALOAD PUSH1 0x1 PUSH1 0x1 PUSH1 0x40 SHL SUB DUP2 GT PUSH2 0x11B JUMPI PUSH2 0x1028 SWAP1 CALLDATASIZE SWAP1 PUSH1 0x4 ADD PUSH2 0x185D JUMP JUMPDEST SWAP5 SWAP1 SWAP6 PUSH1 0xE4 CALLDATALOAD SWAP10 DUP10 PUSH0 MSTORE PUSH1 0x3 PUSH1 0x20 MSTORE PUSH1 0x40 PUSH0 KECCAK256 PUSH1 0x1 DUP1 PUSH1 0xA0 SHL SUB CALLER AND PUSH0 MSTORE PUSH1 0x20 MSTORE PUSH1 0xFF PUSH1 0x40 PUSH0 KECCAK256 SLOAD AND ISZERO PUSH2 0x168D JUMPI JUMPDEST PUSH0 DUP11 DUP2 MSTORE PUSH1 0x20 DUP2 DUP2 MSTORE PUSH1 0x40 DUP1 DUP4 KECCAK256 CALLER DUP5 MSTORE SWAP1 SWAP2 MSTORE SWAP1 DUP2 SWAP1 KECCAK256 DUP1 SLOAD SWAP2 MLOAD PUSH1 0x1 PUSH1 0x1 PUSH1 0x40 SHL SUB SWAP3 DUP4 AND SWAP12 SWAP3 SWAP1 SWAP2 SWAP1 PUSH2 0x120 DUP4 ADD SWAP1 DUP2 GT DUP4 DUP3 LT OR PUSH2 0xB2A JUMPI PUSH1 0x40 MSTORE DUP15 DUP3 MSTORE PUSH1 0x20 DUP3 ADD DUP4 DUP2 MSTORE DUP15 DUP11 DUP13 DUP12 DUP16 PUSH2 0x10B0 CALLDATASIZE DUP12 DUP14 PUSH2 0x1A56 JUMP JUMPDEST SWAP4 PUSH1 0x40 DUP10 ADD SWAP5 DUP6 MSTORE DUP14 DUP14 CALLDATASIZE SWAP1 PUSH2 0x10C5 SWAP3 PUSH2 0x1A56 JUMP JUMPDEST SWAP3 PUSH1 0x60 DUP11 ADD SWAP4 DUP5 MSTORE CALLDATASIZE SWAP1 PUSH2 0x10D8 SWAP3 PUSH2 0x1A56 JUMP JUMPDEST SWAP3 PUSH1 0x80 DUP10 ADD SWAP4 DUP5 MSTORE CALLDATASIZE SWAP1 PUSH2 0x10EB SWAP3 PUSH2 0x1A56 JUMP JUMPDEST SWAP3 PUSH1 0xA0 DUP9 ADD SWAP4 DUP5 MSTORE PUSH1 0xC0 DUP9 ADD SWAP5 DUP6 MSTORE PUSH1 0xE0 DUP9 ADD SWAP6 PUSH0 DUP8 MSTORE PUSH2 0x100 DUP10 ADD SWAP8 TIMESTAMP DUP10 MSTORE DUP1 SLOAD PUSH1 0x1 PUSH1 0x40 SHL DUP2 LT ISZERO PUSH2 0xB2A JUMPI PUSH2 0x1128 SWAP2 PUSH1 0x1 DUP3 ADD DUP2 SSTORE PUSH2 0x194E JUMP JUMPDEST SWAP10 SWAP1 SWAP10 PUSH2 0x167A JUMPI MLOAD DUP10 SLOAD SWAP2 MLOAD PUSH17 0xFFFFFFFFFFFFFFFFFFFFFFFFFFFFFFFFFF NOT SWAP1 SWAP3 AND PUSH16 0xFFFFFFFFFFFFFFFFFFFFFFFFFFFFFFFF SWAP1 SWAP2 AND OR PUSH1 0x80 SWAP2 SWAP1 SWAP2 SHL PUSH1 0xFF PUSH1 0x80 SHL AND OR DUP9 SSTORE MLOAD DUP1 MLOAD PUSH1 0x1 DUP10 ADD SWAP2 PUSH1 0x1 PUSH1 0x1 PUSH1 0x40 SHL SUB DUP3 GT PUSH2 0xB2A JUMPI DUP2 SWAP1 PUSH2 0x1190 DUP5 SLOAD PUSH2 0x1967 JUMP JUMPDEST PUSH1 0x1F DUP2 GT PUSH2 0x162A JUMPI JUMPDEST POP PUSH1 0x20 SWAP1 PUSH1 0x1F DUP4 GT PUSH1 0x1 EQ PUSH2 0x15C7 JUMPI PUSH0 SWAP3 PUSH2 0x15BC JUMPI JUMPDEST POP POP DUP2 PUSH1 0x1 SHL SWAP2 PUSH0 NOT SWAP1 PUSH1 0x3 SHL SHR NOT AND OR SWAP1 SSTORE JUMPDEST MLOAD DUP1 MLOAD PUSH1 0x2 DUP9 ADD SWAP2 PUSH1 0x1 PUSH1 0x1 PUSH1 0x40 SHL SUB DUP3 GT PUSH2 0xB2A JUMPI DUP2 SWAP1 PUSH2 0x11E5 DUP5 SLOAD PUSH2 0x1967 JUMP JUMPDEST PUSH1 0x1F DUP2 GT PUSH2 0x156C JUMPI JUMPDEST POP PUSH1 0x20 SWAP1 PUSH1 0x1F DUP4 GT PUSH1 0x1 EQ PUSH2 0x1509 JUMPI PUSH0 SWAP3 PUSH2 0x14FE JUMPI JUMPDEST POP POP DUP2 PUSH1 0x1 SHL SWAP2 PUSH0 NOT SWAP1 PUSH1 0x3 SHL SHR NOT AND OR SWAP1 SSTORE JUMPDEST MLOAD DUP1 MLOAD PUSH1 0x3 DUP8 ADD SWAP2 PUSH1 0x1 PUSH1 0x1 PUSH1 0x40 SHL SUB DUP3 GT PUSH2 0xB2A JUMPI DUP2 SWAP1 PUSH2 0x123A DUP5 SLOAD PUSH2 0x1967 JUMP JUMPDEST PUSH1 0x1F DUP2 GT PUSH2 0x14AE JUMPI JUMPDEST POP PUSH1 0x20 SWAP1 PUSH1 0x1F DUP4 GT PUSH1 0x1 EQ PUSH2 0x144B JUMPI PUSH0 SWAP3 PUSH2 0x1440 JUMPI JUMPDEST POP POP DUP2 PUSH1 0x1 SHL SWAP2 PUSH0 NOT SWAP1 PUSH1 0x3 SHL SHR NOT AND OR SWAP1 SSTORE JUMPDEST MLOAD DUP1 MLOAD PUSH1 0x4 DUP7 ADD SWAP2 PUSH1 0x1 PUSH1 0x1 PUSH1 0x40 SHL SUB DUP3 GT PUSH2 0xB2A JUMPI DUP2 SWAP1 PUSH2 0x128F DUP5 SLOAD PUSH2 0x1967 JUMP JUMPDEST PUSH1 0x1F DUP2 GT PUSH2 0x13F0 JUMPI JUMPDEST POP PUSH1 0x20 SWAP1 PUSH1 0x1F DUP4 GT PUSH1 0x1 EQ PUSH2 0x138D JUMPI PUSH0 SWAP3 PUSH2 0x1382 JUMPI JUMPDEST POP POP DUP2 PUSH1 0x1 SHL SWAP2 PUSH0 NOT SWAP1 PUSH1 0x3 SHL SHR NOT AND OR SWAP1 SSTORE JUMPDEST MLOAD PUSH1 0x5 DUP5 ADD SSTORE PUSH1 0x6 DUP4 ADD SWAP1 MLOAD ISZERO ISZERO PUSH1 0xFF NOT DUP3 SLOAD AND SWAP1 PUSH1 0xFF AND OR SWAP1 SSTORE MLOAD SWAP1 PUSH1 0x7 ADD SSTORE PUSH1 0x40 MLOAD DUP3 DUP5 DUP3 CALLDATACOPY DUP1 DUP4 DUP2 ADD PUSH0 DUP2 MSTORE SUB SWAP1 KECCAK256 SWAP13 PUSH1 0x40 MLOAD SWAP11 DUP12 MSTORE PUSH1 0x20 DUP12 ADD MSTORE PUSH1 0x40 DUP11 ADD MSTORE PUSH1 0x60 DUP10 ADD PUSH2 0x100 SWAP1 MSTORE PUSH2 0x100 DUP10 ADD SWAP1 PUSH2 0x131D SWAP3 PUSH2 0x1A9B JUMP JUMPDEST SWAP1 DUP8 DUP3 SUB PUSH1 0x80 DUP10 ADD MSTORE PUSH2 0x132F SWAP3 PUSH2 0x1A9B JUMP JUMPDEST SWAP1 DUP6 DUP3 SUB PUSH1 0xA0 DUP8 ADD MSTORE PUSH2 0x1341 SWAP3 PUSH2 0x1A9B JUMP JUMPDEST SWAP1 DUP4 DUP3 SUB PUSH1 0xC0 DUP6 ADD MSTORE PUSH2 0x1353 SWAP3 PUSH2 0x1A9B JUMP JUMPDEST SWAP3 PUSH1 0xE0 DUP3 ADD MSTORE DUP1 CALLER SWAP4 SUB PUSH32 0x6A4A61743519C9D648A14E6493F47DBE3FF1AA29E7785C96C8326A205E58FEBC SWAP2 LOG4 STOP JUMPDEST ADD MLOAD SWAP1 POP PUSH0 DUP1 PUSH2 0x12AE JUMP JUMPDEST PUSH0 DUP6 DUP2 MSTORE DUP3 DUP2 KECCAK256 SWAP4 POP PUSH1 0x1F NOT DUP6 AND SWAP1 JUMPDEST DUP2 DUP2 LT PUSH2 0x13D8 JUMPI POP SWAP1 DUP5 PUSH1 0x1 SWAP6 SWAP5 SWAP4 SWAP3 LT PUSH2 0x13C0 JUMPI JUMPDEST POP POP POP DUP2 SHL ADD SWAP1 SSTORE PUSH2 0x12C2 JUMP JUMPDEST ADD MLOAD PUSH0 NOT PUSH1 0xF8 DUP5 PUSH1 0x3 SHL AND SHR NOT AND SWAP1 SSTORE PUSH0 DUP1 DUP1 PUSH2 0x13B3 JUMP JUMPDEST SWAP3 SWAP4 PUSH1 0x20 PUSH1 0x1 DUP2 SWAP3 DUP8 DUP7 ADD MLOAD DUP2 SSTORE ADD SWAP6 ADD SWAP4 ADD PUSH2 0x139D JUMP JUMPDEST SWAP1 SWAP2 POP DUP4 PUSH0 MSTORE PUSH1 0x20 PUSH0 KECCAK256 PUSH1 0x1F DUP5 ADD PUSH1 0x5 SHR DUP2 ADD SWAP2 PUSH1 0x20 DUP6 LT PUSH2 0x1436 JUMPI JUMPDEST SWAP1 PUSH1 0x1F DUP6 SWAP5 SWAP4 SWAP3 ADD PUSH1 0x5 SHR ADD SWAP1 JUMPDEST DUP2 DUP2 LT PUSH2 0x1428 JUMPI POP PUSH2 0x1298 JUMP JUMPDEST PUSH0 DUP2 SSTORE DUP5 SWAP4 POP PUSH1 0x1 ADD PUSH2 0x141B JUMP JUMPDEST SWAP1 SWAP2 POP DUP2 SWAP1 PUSH2 0x140D JUMP JUMPDEST ADD MLOAD SWAP1 POP PUSH0 DUP1 PUSH2 0x1259 JUMP JUMPDEST PUSH0 DUP6 DUP2 MSTORE DUP3 DUP2 KECCAK256 SWAP4 POP PUSH1 0x1F NOT DUP6 AND SWAP1 JUMPDEST DUP2 DUP2 LT PUSH2 0x1496 JUMPI POP SWAP1 DUP5 PUSH1 0x1 SWAP6 SWAP5 SWAP4 SWAP3 LT PUSH2 0x147E JUMPI JUMPDEST POP POP POP DUP2 SHL ADD SWAP1 SSTORE PUSH2 0x126D JUMP JUMPDEST ADD MLOAD PUSH0 NOT PUSH1 0xF8 DUP5 PUSH1 0x3 SHL AND SHR NOT AND SWAP1 SSTORE PUSH0 DUP1 DUP1 PUSH2 0x1471 JUMP JUMPDEST SWAP3 SWAP4 PUSH1 0x20 PUSH1 0x1 DUP2 SWAP3 DUP8 DUP7 ADD MLOAD DUP2 SSTORE ADD SWAP6 ADD SWAP4 ADD PUSH2 0x145B JUMP JUMPDEST SWAP1 SWAP2 POP DUP4 PUSH0 MSTORE PUSH1 0x20 PUSH0 KECCAK256 PUSH1 0x1F DUP5 ADD PUSH1 0x5 SHR DUP2 ADD SWAP2 PUSH1 0x20 DUP6 LT PUSH2 0x14F4 JUMPI JUMPDEST SWAP1 PUSH1 0x1F DUP6 SWAP5 SWAP4 SWAP3 ADD PUSH1 0x5 SHR ADD SWAP1 JUMPDEST DUP2 DUP2 LT PUSH2 0x14E6 JUMPI POP PUSH2 0x1243 JUMP JUMPDEST PUSH0 DUP2 SSTORE DUP5 SWAP4 POP PUSH1 0x1 ADD PUSH2 0x14D9 JUMP JUMPDEST SWAP1 SWAP2 POP DUP2 SWAP1 PUSH2 0x14CB JUMP JUMPDEST ADD MLOAD SWAP1 POP PUSH0 DUP1 PUSH2 0x1204 JUMP JUMPDEST PUSH0 DUP6 DUP2 MSTORE DUP3 DUP2 KECCAK256 SWAP4 POP PUSH1 0x1F NOT DUP6 AND SWAP1 JUMPDEST DUP2 DUP2 LT PUSH2 0x1554 JUMPI POP SWAP1 DUP5 PUSH1 0x1 SWAP6 SWAP5 SWAP4 SWAP3 LT PUSH2 0x153C JUMPI JUMPDEST POP POP POP DUP2 SHL ADD SWAP1 SSTORE PUSH2 0x1218 JUMP JUMPDEST ADD MLOAD PUSH0 NOT PUSH1 0xF8 DUP5 PUSH1 0x3 SHL AND SHR NOT AND SWAP1 SSTORE PUSH0 DUP1 DUP1 PUSH2 0x152F JUMP JUMPDEST SWAP3 SWAP4 PUSH1 0x20 PUSH1 0x1 DUP2 SWAP3 DUP8 DUP7 ADD MLOAD DUP2 SSTORE ADD SWAP6 ADD SWAP4 ADD PUSH2 0x1519 JUMP JUMPDEST SWAP1 SWAP2 POP DUP4 PUSH0 MSTORE PUSH1 0x20 PUSH0 KECCAK256 PUSH1 0x1F DUP5 ADD PUSH1 0x5 SHR DUP2 ADD SWAP2 PUSH1 0x20 DUP6 LT PUSH2 0x15B2 JUMPI JUMPDEST SWAP1 PUSH1 0x1F DUP6 SWAP5 SWAP4 SWAP3 ADD PUSH1 0x5 SHR ADD SWAP1 JUMPDEST DUP2 DUP2 LT PUSH2 0x15A4 JUMPI POP PUSH2 0x11EE JUMP JUMPDEST PUSH0 DUP2 SSTORE DUP5 SWAP4 POP PUSH1 0x1 ADD PUSH2 0x1597 JUMP JUMPDEST SWAP1 SWAP2 POP DUP2 SWAP1 PUSH2 0x1589 JUMP JUMPDEST ADD MLOAD SWAP1 POP PUSH0 DUP1 PUSH2 0x11AF JUMP JUMPDEST PUSH0 DUP6 DUP2 MSTORE DUP3 DUP2 KECCAK256 SWAP4 POP PUSH1 0x1F NOT DUP6 AND SWAP1 JUMPDEST DUP2 DUP2 LT PUSH2 0x1612 JUMPI POP SWAP1 DUP5 PUSH1 0x1 SWAP6 SWAP5 SWAP4 SWAP3 LT PUSH2 0x15FA JUMPI JUMPDEST POP POP POP DUP2 SHL ADD SWAP1 SSTORE PUSH2 0x11C3 JUMP JUMPDEST ADD MLOAD PUSH0 NOT PUSH1 0xF8 DUP5 PUSH1 0x3 SHL AND SHR NOT AND SWAP1 SSTORE PUSH0 DUP1 DUP1 PUSH2 0x15ED JUMP JUMPDEST SWAP3 SWAP4 PUSH1 0x20 PUSH1 0x1 DUP2 SWAP3 DUP8 DUP7 ADD MLOAD DUP2 SSTORE ADD SWAP6 ADD SWAP4 ADD PUSH2 0x15D7 JUMP JUMPDEST SWAP1 SWAP2 POP DUP4 PUSH0 MSTORE PUSH1 0x20 PUSH0 KECCAK256 PUSH1 0x1F DUP5 ADD PUSH1 0x5 SHR DUP2 ADD SWAP2 PUSH1 0x20 DUP6 LT PUSH2 0x1670 JUMPI JUMPDEST SWAP1 PUSH1 0x1F DUP6 SWAP5 SWAP4 SWAP3 ADD PUSH1 0x5 SHR ADD SWAP1 JUMPDEST DUP2 DUP2 LT PUSH2 0x1662 JUMPI POP PUSH2 0x1199 JUMP JUMPDEST PUSH0 DUP2 SSTORE DUP5 SWAP4 POP PUSH1 0x1 ADD PUSH2 0x1655 JUMP JUMPDEST SWAP1 SWAP2 POP DUP2 SWAP1 PUSH2 0x1647 JUMP JUMPDEST PUSH4 0x4E487B71 PUSH1 0xE0 SHL PUSH0 MSTORE PUSH0 PUSH1 0x4 MSTORE PUSH1 0x24 PUSH0 REVERT JUMPDEST DUP10 PUSH0 MSTORE PUSH1 0x2 PUSH1 0x20 MSTORE PUSH1 0x40 PUSH0 KECCAK256 DUP1 SLOAD PUSH1 0x1 PUSH1 0x40 SHL DUP2 LT ISZERO PUSH2 0xB2A JUMPI PUSH2 0x16B6 SWAP2 PUSH1 0x1 DUP3 ADD DUP2 SSTORE PUSH2 0x1A41 JUMP JUMPDEST DUP2 SLOAD PUSH1 0x1 PUSH1 0x1 PUSH1 0xA0 SHL SUB PUSH1 0x3 SWAP3 DUP4 SHL SWAP1 DUP2 SHL NOT SWAP1 SWAP2 AND CALLER SWAP2 DUP3 SWAP1 SHL OR SWAP1 SWAP3 SSTORE PUSH0 DUP13 DUP2 MSTORE PUSH1 0x20 SWAP2 DUP3 MSTORE PUSH1 0x40 DUP1 DUP3 KECCAK256 SWAP4 DUP3 MSTORE SWAP3 SWAP1 SWAP2 MSTORE KECCAK256 DUP1 SLOAD PUSH1 0xFF NOT AND PUSH1 0x1 OR SWAP1 SSTORE PUSH2 0x1057 JUMP JUMPDEST CALLVALUE PUSH2 0x11B JUMPI PUSH1 0x60 CALLDATASIZE PUSH1 0x3 NOT ADD SLT PUSH2 0x11B JUMPI PUSH1 0xFF PUSH2 0x1746 PUSH2 0x1719 PUSH2 0x180D JUMP JUMPDEST PUSH2 0x1721 PUSH2 0x1823 JUMP JUMPDEST SWAP1 PUSH1 0x4 CALLDATALOAD PUSH0 MSTORE PUSH0 PUSH1 0x20 MSTORE PUSH1 0x40 PUSH0 KECCAK256 SWAP1 PUSH1 0x1 DUP1 PUSH1 0xA0 SHL SUB AND PUSH0 MSTORE PUSH1 0x20 MSTORE PUSH1 0x40 PUSH0 KECCAK256 PUSH2 0x194E JUMP JUMPDEST POP DUP1 SLOAD SWAP1 PUSH2 0x17BD PUSH1 0x2 PUSH2 0x17AF DUP6 PUSH1 0x6 DUP6 ADD SLOAD AND SWAP4 PUSH2 0x1789 PUSH1 0x40 MLOAD SWAP2 PUSH2 0x1779 DUP4 PUSH2 0x1772 DUP2 PUSH1 0x1 DUP6 ADD PUSH2 0x199F JUMP JUMPDEST SUB DUP5 PUSH2 0x1A20 JUMP JUMPDEST PUSH2 0x1772 PUSH1 0x40 MLOAD DUP1 SWAP7 DUP2 SWAP4 ADD PUSH2 0x199F JUMP JUMPDEST PUSH1 0x40 MLOAD SWAP7 DUP7 DUP9 SWAP8 PUSH1 0xF SIGNEXTEND DUP9 MSTORE PUSH1 0x80 SHR AND PUSH1 0x20 DUP8 ADD MSTORE PUSH1 0xA0 PUSH1 0x40 DUP8 ADD MSTORE PUSH1 0xA0 DUP7 ADD SWAP1 PUSH2 0x1839 JUMP JUMPDEST SWAP1 DUP5 DUP3 SUB PUSH1 0x60 DUP7 ADD MSTORE PUSH2 0x1839 JUMP JUMPDEST SWAP1 ISZERO ISZERO PUSH1 0x80 DUP4 ADD MSTORE SUB SWAP1 RETURN JUMPDEST CALLVALUE PUSH2 0x11B JUMPI PUSH0 CALLDATASIZE PUSH1 0x3 NOT ADD SLT PUSH2 0x11B JUMPI PUSH1 0x40 MLOAD PUSH32 0x0 PUSH1 0x1 PUSH1 0x1 PUSH1 0xA0 SHL SUB AND DUP2 MSTORE PUSH1 0x20 SWAP1 RETURN JUMPDEST PUSH1 0x24 CALLDATALOAD SWAP1 PUSH1 0x1 PUSH1 0x1 PUSH1 0xA0 SHL SUB DUP3 AND DUP3 SUB PUSH2 0x11B JUMPI JUMP JUMPDEST PUSH1 0x44 CALLDATALOAD SWAP1 PUSH1 0x1 PUSH1 0x1 PUSH1 0x40 SHL SUB DUP3 AND DUP3 SUB PUSH2 0x11B JUMPI JUMP JUMPDEST DUP1 MLOAD DUP1 DUP4 MSTORE PUSH1 0x20 SWAP3 SWAP2 DUP2 SWAP1 DUP5 ADD DUP5 DUP5 ADD MCOPY PUSH0 DUP3 DUP3 ADD DUP5 ADD MSTORE PUSH1 0x1F ADD PUSH1 0x1F NOT AND ADD ADD SWAP1 JUMP JUMPDEST SWAP2 DUP2 PUSH1 0x1F DUP5 ADD SLT ISZERO PUSH2 0x11B JUMPI DUP3 CALLDATALOAD SWAP2 PUSH1 0x1 PUSH1 0x1 PUSH1 0x40 SHL SUB DUP4 GT PUSH2 0x11B JUMPI PUSH1 0x20 DUP4 DUP2 DUP7 ADD SWAP6 ADD ADD GT PUSH2 0x11B JUMPI JUMP JUMPDEST SWAP1 PUSH1 0x20 DUP1 DUP4 MLOAD SWAP3 DUP4 DUP2 MSTORE ADD SWAP3 ADD SWAP1 PUSH0 JUMPDEST DUP2 DUP2 LT PUSH2 0x18A7 JUMPI POP POP POP SWAP1 JUMP JUMPDEST DUP3 MLOAD PUSH1 0x1 PUSH1 0x1 PUSH1 0xA0 SHL SUB AND DUP5 MSTORE PUSH1 0x20 SWAP4 DUP5 ADD SWAP4 SWAP1 SWAP3 ADD SWAP2 PUSH1 0x1 ADD PUSH2 0x189A JUMP JUMPDEST SWAP2 DUP2 PUSH1 0x1F DUP5 ADD SLT ISZERO PUSH2 0x11B JUMPI DUP3 CALLDATALOAD SWAP2 PUSH1 0x1 PUSH1 0x1 PUSH1 0x40 SHL SUB DUP4 GT PUSH2 0x11B JUMPI PUSH1 0x20 DUP1 DUP6 ADD SWAP5 DUP5 PUSH1 0x5 SHL ADD ADD GT PUSH2 0x11B JUMPI JUMP JUMPDEST SWAP1 DUP1 PUSH1 0x20 DUP4 MLOAD SWAP2 DUP3 DUP2 MSTORE ADD SWAP2 PUSH1 0x20 DUP1 DUP4 PUSH1 0x5 SHL DUP4 ADD ADD SWAP5 ADD SWAP3 PUSH0 SWAP2 JUMPDEST DUP4 DUP4 LT PUSH2 0x1921 JUMPI POP POP POP POP POP SWAP1 JUMP JUMPDEST SWAP1 SWAP2 SWAP3 SWAP4 SWAP5 PUSH1 0x20 DUP1 PUSH2 0x193F PUSH1 0x1 SWAP4 PUSH1 0x1F NOT DUP7 DUP3 SUB ADD DUP8 MSTORE DUP10 MLOAD PUSH2 0x1839 JUMP JUMPDEST SWAP8 ADD SWAP4 ADD SWAP4 ADD SWAP2 SWAP4 SWAP3 SWAP1 PUSH2 0x1912 JUMP JUMPDEST DUP1 SLOAD DUP3 LT ISZERO PUSH2 0xB3E JUMPI PUSH0 MSTORE PUSH1 0x20 PUSH0 KECCAK256 SWAP1 PUSH1 0x3 SHL ADD SWAP1 PUSH0 SWAP1 JUMP JUMPDEST SWAP1 PUSH1 0x1 DUP3 DUP2 SHR SWAP3 AND DUP1 ISZERO PUSH2 0x1995 JUMPI JUMPDEST PUSH1 0x20 DUP4 LT EQ PUSH2 0x1981 JUMPI JUMP JUMPDEST PUSH4 0x4E487B71 PUSH1 0xE0 SHL PUSH0 MSTORE PUSH1 0x22 PUSH1 0x4 MSTORE PUSH1 0x24 PUSH0 REVERT JUMPDEST SWAP2 PUSH1 0x7F AND SWAP2 PUSH2 0x1976 JUMP JUMPDEST PUSH0 SWAP3 SWAP2 DUP2 SLOAD SWAP2 PUSH2 0x19AE DUP4 PUSH2 0x1967 JUMP JUMPDEST DUP1 DUP4 MSTORE SWAP3 PUSH1 0x1 DUP2 AND SWAP1 DUP2 ISZERO PUSH2 0x1A03 JUMPI POP PUSH1 0x1 EQ PUSH2 0x19CA JUMPI POP POP POP JUMP JUMPDEST PUSH0 SWAP1 DUP2 MSTORE PUSH1 0x20 DUP2 KECCAK256 SWAP4 SWAP5 POP SWAP2 SWAP3 JUMPDEST DUP4 DUP4 LT PUSH2 0x19E9 JUMPI POP PUSH1 0x20 SWAP3 POP ADD ADD SWAP1 JUMP JUMPDEST PUSH1 0x1 DUP2 PUSH1 0x20 SWAP3 SWAP5 SWAP4 SWAP5 SLOAD DUP4 DUP6 DUP8 ADD ADD MSTORE ADD SWAP2 ADD SWAP2 SWAP1 PUSH2 0x19D8 JUMP JUMPDEST SWAP2 POP POP PUSH1 0x20 SWAP4 SWAP5 POP PUSH1 0xFF SWAP3 SWAP2 SWAP3 NOT AND DUP4 DUP4 ADD MSTORE ISZERO ISZERO PUSH1 0x5 SHL ADD ADD SWAP1 JUMP JUMPDEST SWAP1 PUSH1 0x1F DUP1 NOT SWAP2 ADD AND DUP2 ADD SWAP1 DUP2 LT PUSH1 0x1 PUSH1 0x1 PUSH1 0x40 SHL SUB DUP3 GT OR PUSH2 0xB2A JUMPI PUSH1 0x40 MSTORE JUMP JUMPDEST DUP1 SLOAD DUP3 LT ISZERO PUSH2 0xB3E JUMPI PUSH0 MSTORE PUSH1 0x20 PUSH0 KECCAK256 ADD SWAP1 PUSH0 SWAP1 JUMP JUMPDEST SWAP3 SWAP2 SWAP3 PUSH1 0x1 PUSH1 0x1 PUSH1 0x40 SHL SUB DUP3 GT PUSH2 0xB2A JUMPI PUSH1 0x40 MLOAD SWAP2 PUSH2 0x1A7F PUSH1 0x1F DUP3 ADD PUSH1 0x1F NOT AND PUSH1 0x20 ADD DUP5 PUSH2 0x1A20 JUMP JUMPDEST DUP3 SWAP5 DUP2 DUP5 MSTORE DUP2 DUP4 ADD GT PUSH2 0x11B JUMPI DUP3 DUP2 PUSH1 0x20 SWAP4 DUP5 PUSH0 SWAP7 ADD CALLDATACOPY ADD ADD MSTORE JUMP JUMPDEST SWAP1 DUP1 PUSH1 0x20 SWAP4 SWAP3 DUP2 DUP5 MSTORE DUP5 DUP5 ADD CALLDATACOPY PUSH0 DUP3 DUP3 ADD DUP5 ADD MSTORE PUSH1 0x1F ADD PUSH1 0x1F NOT AND ADD ADD SWAP1 JUMP JUMPDEST ISZERO PUSH2 0x1AC2 JUMPI JUMP JUMPDEST PUSH1 0x40 MLOAD PUSH3 0x461BCD PUSH1 0xE5 SHL DUP2 MSTORE PUSH1 0x20 PUSH1 0x4 DUP3 ADD MSTORE PUSH1 0x10 PUSH1 0x24 DUP3 ADD MSTORE PUSH16 0x4E6F207375636820666565646261636B PUSH1 0x80 SHL PUSH1 0x44 DUP3 ADD MSTORE PUSH1 0x64 SWAP1 REVERT JUMPDEST SWAP2 SWAP1 DUP2 LT ISZERO PUSH2 0xB3E JUMPI PUSH1 0x5 SHL ADD SWAP1 JUMP JUMPDEST CALLDATALOAD PUSH1 0x1 PUSH1 0x1 PUSH1 0xA0 SHL SUB DUP2 AND DUP2 SUB PUSH2 0x11B JUMPI SWAP1 JUMP JUMPDEST PUSH0 NOT DUP2 EQ PUSH2 0xFE JUMPI PUSH1 0x1 ADD SWAP1 JUMP JUMPDEST PUSH1 0x1 PUSH1 0x1 PUSH1 0x40 SHL SUB DUP2 GT PUSH2 0xB2A JUMPI PUSH1 0x5 SHL PUSH1 0x20 ADD SWAP1 JUMP JUMPDEST SWAP1 PUSH2 0x1B4D DUP3 PUSH2 0x1B2C JUMP JUMPDEST PUSH2 0x1B5A PUSH1 0x40 MLOAD SWAP2 DUP3 PUSH2 0x1A20 JUMP JUMPDEST DUP3 DUP2 MSTORE DUP1 SWAP3 PUSH2 0x1B6B PUSH1 0x1F NOT SWAP2 PUSH2 0x1B2C JUMP JUMPDEST ADD SWAP1 PUSH0 JUMPDEST DUP3 DUP2 LT PUSH2 0x1B7B JUMPI POP POP POP JUMP JUMPDEST DUP1 PUSH1 0x60 PUSH1 0x20 DUP1 SWAP4 DUP6 ADD ADD MSTORE ADD PUSH2 0x1B6F JUMP JUMPDEST DUP1 MLOAD DUP3 LT ISZERO PUSH2 0xB3E JUMPI PUSH1 0x20 SWAP2 PUSH1 0x5 SHL ADD ADD SWAP1 JUMP INVALID LOG2 PUSH5 0x6970667358 0x22 SLT KECCAK256 0x1E AND 0x4D 0xE9 0x2D GASLIMIT 0xB7 INVALID AND 0xED PUSH6 0x8F06D79339E2 0xDD EQ DUP3 CALLDATACOPY RETURN DUP15 BLOCKHASH KECCAK256 0xA7 0xBF DUP2 EQ 0xFB SWAP12 JUMP PUSH5 0x736F6C6343 STOP ADDMOD BYTE STOP CALLER "},"methodIdentifiers":{"appendResponse(uint256,address,uint64,string,bytes32)":"c2349ab2","getClients(uint256)":"42dd519c","getIdentityRegistry()":"bc4d861b","getLastIndex(uint256,address)":"f2d81759","getResponseCount(uint256,address,uint64,address[])":"6e04cacd","getSummary(uint256,address[],string,string)":"81bbba58","giveFeedback(uint256,int128,uint8,string,string,string,string,bytes32)":"3c036a7e","identityRegistry()":"134e18f4","readAllFeedback(uint256,address[],string,string,bool)":"d9d84224","readFeedback(uint256,address,uint64)":"232b0810","revokeFeedback(uint256,uint64)":"4ab3ca99"}}}}}