{"project/contracts/AtlasAchievements.sol":{"AtlasAchievements":{"abi":[{"inputs":[],"stateMutability":"nonpayable","type":"constructor"},{"inputs":[{"internalType":"address","name":"sender","type":"address"},{"internalType":"uint256","name":"tokenId","type":"uint256"},{"internalType":"address","name":"owner","type":"address"}],"name":"ERC721IncorrectOwner","type":"error"},{"inputs":[{"internalType":"address","name":"operator","type":"address"},{"internalType":"uint256","name":"tokenId","type":"uint256"}],"name":"ERC721InsufficientApproval","type":"error"},{"inputs":[{"internalType":"address","name":"approver","type":"address"}],"name":"ERC721InvalidApprover","type":"error"},{"inputs":[{"internalType":"address","name":"operator","type":"address"}],"name":"ERC721InvalidOperator","type":"error"},{"inputs":[{"internalType":"address","name":"owner","type":"address"}],"name":"ERC721InvalidOwner","type":"error"},{"inputs":[{"internalType":"address","name":"receiver","type":"address"}],"name":"ERC721InvalidReceiver","type":"error"},{"inputs":[{"internalType":"address","name":"sender","type":"address"}],"name":"ERC721InvalidSender","type":"error"},{"inputs":[{"internalType":"uint256","name":"tokenId","type":"uint256"}],"name":"ERC721NonexistentToken","type":"error"},{"inputs":[{"internalType":"address","name":"owner","type":"address"}],"name":"OwnableInvalidOwner","type":"error"},{"inputs":[{"internalType":"address","name":"account","type":"address"}],"name":"OwnableUnauthorizedAccount","type":"error"},{"anonymous":false,"inputs":[{"indexed":true,"internalType":"address","name":"recipient","type":"address"},{"indexed":true,"internalType":"uint256","name":"tokenId","type":"uint256"},{"indexed":false,"internalType":"string","name":"achievementId","type":"string"},{"indexed":false,"internalType":"string","name":"name","type":"string"}],"name":"AchievementMinted","type":"event"},{"anonymous":false,"inputs":[{"indexed":true,"internalType":"address","name":"owner","type":"address"},{"indexed":true,"internalType":"address","name":"approved","type":"address"},{"indexed":true,"internalType":"uint256","name":"tokenId","type":"uint256"}],"name":"Approval","type":"event"},{"anonymous":false,"inputs":[{"indexed":true,"internalType":"address","name":"owner","type":"address"},{"indexed":true,"internalType":"address","name":"operator","type":"address"},{"indexed":false,"internalType":"bool","name":"approved","type":"bool"}],"name":"ApprovalForAll","type":"event"},{"anonymous":false,"inputs":[{"indexed":true,"internalType":"address","name":"previousOwner","type":"address"},{"indexed":true,"internalType":"address","name":"newOwner","type":"address"}],"name":"OwnershipTransferred","type":"event"},{"anonymous":false,"inputs":[{"indexed":true,"internalType":"address","name":"from","type":"address"},{"indexed":true,"internalType":"address","name":"to","type":"address"},{"indexed":true,"internalType":"uint256","name":"tokenId","type":"uint256"}],"name":"Transfer","type":"event"},{"inputs":[{"internalType":"uint256","name":"","type":"uint256"}],"name":"achievements","outputs":[{"internalType":"string","name":"id","type":"string"},{"internalType":"string","name":"name","type":"string"},{"internalType":"string","name":"symbol","type":"string"},{"internalType":"address","name":"recipient","type":"address"},{"internalType":"uint256","name":"timestamp","type":"uint256"}],"stateMutability":"view","type":"function"},{"inputs":[{"internalType":"address","name":"to","type":"address"},{"internalType":"uint256","name":"tokenId","type":"uint256"}],"name":"approve","outputs":[],"stateMutability":"nonpayable","type":"function"},{"inputs":[{"internalType":"address","name":"owner","type":"address"}],"name":"balanceOf","outputs":[{"internalType":"uint256","name":"","type":"uint256"}],"stateMutability":"view","type":"function"},{"inputs":[{"internalType":"uint256","name":"tokenId","type":"uint256"}],"name":"getApproved","outputs":[{"internalType":"address","name":"","type":"address"}],"stateMutability":"view","type":"function"},{"inputs":[{"internalType":"address","name":"user","type":"address"}],"name":"getUserAchievements","outputs":[{"components":[{"internalType":"string","name":"id","type":"string"},{"internalType":"string","name":"name","type":"string"},{"internalType":"string","name":"symbol","type":"string"},{"internalType":"address","name":"recipient","type":"address"},{"internalType":"uint256","name":"timestamp","type":"uint256"}],"internalType":"struct AtlasAchievements.Achievement[]","name":"","type":"tuple[]"}],"stateMutability":"view","type":"function"},{"inputs":[{"internalType":"address","name":"","type":"address"},{"internalType":"string","name":"","type":"string"}],"name":"hasAchievement","outputs":[{"internalType":"bool","name":"","type":"bool"}],"stateMutability":"view","type":"function"},{"inputs":[{"internalType":"address","name":"owner","type":"address"},{"internalType":"address","name":"operator","type":"address"}],"name":"isApprovedForAll","outputs":[{"internalType":"bool","name":"","type":"bool"}],"stateMutability":"view","type":"function"},{"inputs":[{"internalType":"address","name":"recipient","type":"address"},{"internalType":"string","name":"achievementId","type":"string"},{"internalType":"string","name":"name","type":"string"},{"internalType":"string","name":"symbol","type":"string"}],"name":"mint","outputs":[{"internalType":"uint256","name":"tokenId","type":"uint256"}],"stateMutability":"nonpayable","type":"function"},{"inputs":[],"name":"name","outputs":[{"internalType":"string","name":"","type":"string"}],"stateMutability":"view","type":"function"},{"inputs":[],"name":"owner","outputs":[{"internalType":"address","name":"","type":"address"}],"stateMutability":"view","type":"function"},{"inputs":[{"internalType":"uint256","name":"tokenId","type":"uint256"}],"name":"ownerOf","outputs":[{"internalType":"address","name":"","type":"address"}],"stateMutability":"view","type":"function"},{"inputs":[],"name":"renounceOwnership","outputs":[],"stateMutability":"nonpayable","type":"function"},{"inputs":[{"internalType":"address","name":"from","type":"address"},{"internalType":"address","name":"to","type":"address"},{"internalType":"uint256","name":"tokenId","type":"uint256"}],"name":"safeTransferFrom","outputs":[],"stateMutability":"nonpayable","type":"function"},{"inputs":[{"internalType":"address","name":"from","type":"address"},{"internalType":"address","name":"to","type":"address"},{"internalType":"uint256","name":"tokenId","type":"uint256"},{"internalType":"bytes","name":"data","type":"bytes"}],"name":"safeTransferFrom","outputs":[],"stateMutability":"nonpayable","type":"function"},{"inputs":[{"internalType":"address","name":"operator","type":"address"},{"internalType":"bool","name":"approved","type":"bool"}],"name":"setApprovalForAll","outputs":[],"stateMutability":"nonpayable","type":"function"},{"inputs":[{"internalType":"bytes4","name":"interfaceId","type":"bytes4"}],"name":"supportsInterface","outputs":[{"internalType":"bool","name":"","type":"bool"}],"stateMutability":"view","type":"function"},{"inputs":[],"name":"symbol","outputs":[{"internalType":"string","name":"","type":"string"}],"stateMutability":"view","type":"function"},{"inputs":[{"internalType":"uint256","name":"tokenId","type":"uint256"}],"name":"tokenURI","outputs":[{"internalType":"string","name":"","type":"string"}],"stateMutability":"view","type":"function"},{"inputs":[{"internalType":"address","name":"","type":"address"},{"internalType":"address","name":"","type":"address"},{"internalType":"uint256","name":"","type":"uint256"}],"name":"transferFrom","outputs":[],"stateMutability":"pure","type":"function"},{"inputs":[{"internalType":"address","name":"newOwner","type":"address"}],"name":"transferOwnership","outputs":[],"stateMutability":"nonpayable","type":"function"},{"inputs":[{"internalType":"address","name":"","type":"address"},{"internalType":"uint256","name":"","type":"uint256"}],"name":"userAchievements","outputs":[{"internalType":"uint256","name":"","type":"uint256"}],"stateMutability":"view","type":"function"}],"evm":{"bytecode":{"linkReferences":{},"object":"60806040523461037e57604080519081016001600160401b03811182821017610294576040908152601282527141746c617320416368696576656d656e747360701b602083015280519081016001600160401b03811182821017610294576040526009815268082a89882a65a8286960bb1b602082015281516001600160401b038111610294575f54600181811c91168015610374575b602082101461027657601f8111610312575b50602092601f82116001146102b357928192935f926102a8575b50508160011b915f199060031b1c1916175f555b80516001600160401b03811161029457600154600181811c9116801561028a575b602082101461027657601f8111610213575b50602091601f82116001146101b3579181925f926101a8575b50508160011b915f199060031b1c1916176001555b33156101955760068054336001600160a01b03198216811790925560405191906001600160a01b03167f8be0079c531659141344cd1fd0a4f28419497f9722a3daafe3b4186f6b6457e05f80a360016007556115ac90816103838239f35b631e4fbdf760e01b5f525f60045260245ffd5b015190505f80610122565b601f1982169260015f52805f20915f5b8581106101fb575083600195106101e3575b505050811b01600155610137565b01515f1960f88460031b161c191690555f80806101d5565b919260206001819286850151815501940192016101c3565b60015f527fb10e2d527612073b26eecdfd717e6a320cf44b4afac2b0732d9fcbe2b7fa0cf6601f830160051c8101916020841061026c575b601f0160051c01905b8181106102615750610109565b5f8155600101610254565b909150819061024b565b634e487b7160e01b5f52602260045260245ffd5b90607f16906100f7565b634e487b7160e01b5f52604160045260245ffd5b015190505f806100c2565b601f198216935f8052805f20915f5b8681106102fa57508360019596106102e2575b505050811b015f556100d6565b01515f1960f88460031b161c191690555f80806102d5565b919260206001819286850151815501940192016102c2565b5f80527f290decd9548b62a8d60345a988386fc84ba6bc95484008f6362f93160ef3e563601f830160051c8101916020841061036a575b601f0160051c01905b81811061035f57506100a8565b5f8155600101610352565b9091508190610349565b90607f1690610096565b5f80fdfe6080806040526004361015610012575f80fd5b5f905f3560e01c90816301ffc9a71461122c5750806306fdde031461118a578063081812fc1461114e578063095ea7b31461106457806323b872dd1461100e57806324548c6014610fb657806327aed72e14610f1a57806342842e0e14610eb45780634a0706be146108235780636352211e146107f357806370a08231146107a2578063715018a6146107475780638da5cb5b1461071f57806395d89b4114610641578063a22cb4651461058d578063b88d4fde146104f4578063b9a626ed1461046e578063c87b56dd14610411578063e985e9c5146103b9578063f09153c4146101905763f2fde38b14610105575f80fd5b3461018d57602036600319011261018d5761011e6112bb565b61012661154f565b6001600160a01b0316801561017957600680546001600160a01b0319811683179091556001600160a01b03167f8be0079c531659141344cd1fd0a4f28419497f9722a3daafe3b4186f6b6457e05f80a380f35b631e4fbdf760e01b82526004829052602482fd5b80fd5b503461018d57602036600319011261018d576001600160a01b036101b26112bb565b168152600a602052604081206040518082602082945493848152019085526020852092855b8181106103a05750506101ec9250038261139d565b80516101f7816114f0565b90610205604051928361139d565b808252610214601f19916114f0565b01835b818110610368575050825b82518110156102b3578061023860019285611507565b51855260086020526040852060046040519161025383611382565b61025c816113be565b83526102698582016113be565b602084015261027a600282016113be565b6040840152848060a01b036003820154166060840152015460808201526102a18285611507565b526102ac8184611507565b5001610222565b81846040519182916020830160208452825180915260408401602060408360051b870101940192905b8282106102eb57505050500390f35b919360019193955060208091603f1989820301855287519060808061034161032f61031f865160a0875260a0870190611297565b8787015186820389880152611297565b60408601518582036040870152611297565b93878060a01b036060820151166060850152015191015296019201920185949391926102dc565b60209060405161037781611382565b606081526060838201526060604082015286606082015286608082015282828601015201610217565b84548352600194850194869450602090930192016101d7565b503461018d57604036600319011261018d5760406103d56112bb565b916103de6112d1565b9260018060a01b031681526005602052209060018060a01b03165f52602052602060ff60405f2054166040519015158152f35b3461046a57602036600319011261046a5761042d60043561151b565b505f60405161043d60208261139d565b5261046660405161044f60208261139d565b5f8152604051918291602083526020830190611297565b0390f35b5f80fd5b3461046a57604036600319011261046a576104876112bb565b6024356001600160401b03811161046a573660238201121561046a5760208080936104be60ff94369060248160040135910161148b565b9060018060a01b03165f526009825260405f20604051938285935191829101845e82019081520301902054166040519015158152f35b3461046a57608036600319011261046a5761050d6112bb565b506105166112d1565b506064356001600160401b03811161046a573660238201121561046a5761054790369060248160040135910161148b565b5060405162461bcd60e51b815260206004820152601b60248201527f536f756c626f756e643a206e6f6e2d7472616e7366657261626c6500000000006044820152606490fd5b3461046a57604036600319011261046a576105a66112bb565b6024359081151580920361046a57331561062e576001600160a01b031690811561061b57335f52600560205260405f20825f5260205260405f2060ff1981541660ff83161790556040519081527f17307eab39ab6107e8899845ad3d59bd9653f200f220920489ca2b5937696c3160203392a3005b50630b61174360e31b5f5260045260245ffd5b63a9fbf51f60e01b5f525f60045260245ffd5b3461046a575f36600319011261046a576040515f6001546106618161134a565b80845290600181169081156106fb575060011461069d575b610466836106898185038261139d565b604051918291602083526020830190611297565b60015f9081527fb10e2d527612073b26eecdfd717e6a320cf44b4afac2b0732d9fcbe2b7fa0cf6939250905b8082106106e157509091508101602001610689610679565b9192600181602092548385880101520191019092916106c9565b60ff191660208086019190915291151560051b840190910191506106899050610679565b3461046a575f36600319011261046a576006546040516001600160a01b039091168152602090f35b3461046a575f36600319011261046a5761075f61154f565b600680546001600160a01b031981169091555f906001600160a01b03167f8be0079c531659141344cd1fd0a4f28419497f9722a3daafe3b4186f6b6457e08280a3005b3461046a57602036600319011261046a576001600160a01b036107c36112bb565b1680156107e0575f526003602052602060405f2054604051908152f35b6322718ad960e21b5f525f60045260245ffd5b3461046a57602036600319011261046a57602061081160043561151b565b6040516001600160a01b039091168152f35b3461046a57608036600319011261046a5761083c6112bb565b6024356001600160401b03811161046a5761085b90369060040161145e565b916044356001600160401b03811161046a5761087b90369060040161145e565b9190936064356001600160401b03811161046a5761089d90369060040161145e565b9490926108a861154f565b60018060a01b031692835f52600960205260ff60405f206020604051809287878337878201908152030190205416610e7e57600754955f198714610e6a57600187016007558415610e57575f878152600260205260409020546001600160a01b03169182151580610e1e575b865f52600360205260405f2060018154019055885f52600260205260405f20876bffffffffffffffffffffffff60a01b8254161790558887604051957fddf252ad1be2c89b69c2b068fc378daa952ba7f163c4a11628f55a4df523b3ef5f80a4610e0b576109ac9061098584611382565b61099036878761148b565b845261099d36898c61148b565b9260208501938452369161148b565b6040830190815260608301908682526080840192428452895f52600860205260405f2094518051906001600160401b038211610bc35781906109ee885461134a565b601f8111610dbb575b50602090601f8311600114610d58575f92610d4d575b50508160011b915f199060031b1c19161785555b51805160018601916001600160401b038211610bc3578190610a43845461134a565b601f8111610cfd575b50602090601f8311600114610c9a575f92610c8f575b50508160011b915f199060031b1c19161790555b51805160028501916001600160401b038211610bc357610a96835461134a565b601f8111610c4a575b50602090601f8311600114610be257600495949392915f9183610bd7575b50508160011b915f199060031b1c19161790555b516003840180546001600160a01b0319166001600160a01b0392909216919091179055519101555f8381526009602090815260409182902091519182908585833785820190815203019020600160ff19825416179055825f52600a60205260405f2091825468010000000000000000811015610bc3576020978796610b80837f1eb7195194eea07b5eeb1e861d4f7450ed79c85635f55fd4be9edc75bbfe3c9f976001610bb896018155611321565b81549060031b908a821b915f19901b1916179055610bab6040519586956040875260408701916114d0565b918483038b8601526114d0565b0390a3604051908152f35b634e487b7160e01b5f52604160045260245ffd5b015190508d80610abd565b90601f19831691845f52815f20925f5b818110610c3257509160019391856004999897969410610c1a575b505050811b019055610ad1565b01515f1960f88460031b161c191690558d8080610c0d565b92936020600181928786015181550195019301610bf2565b835f5260205f20601f840160051c81019160208510610c85575b601f0160051c01905b818110610c7a5750610a9f565b5f8155600101610c6d565b9091508190610c64565b015190508d80610a62565b5f8581528281209350601f198516905b818110610ce55750908460019594939210610ccd575b505050811b019055610a76565b01515f1960f88460031b161c191690558d8080610cc0565b92936020600181928786015181550195019301610caa565b909150835f5260205f20601f840160051c81019160208510610d43575b90601f859493920160051c01905b818110610d355750610a4c565b5f8155849350600101610d28565b9091508190610d1a565b015190508d80610a0d565b5f8981528281209350601f198516905b818110610da35750908460019594939210610d8b575b505050811b018555610a21565b01515f1960f88460031b161c191690558d8080610d7e565b92936020600181928786015181550195019301610d68565b909150875f5260205f20601f840160051c81019160208510610e01575b90601f859493920160051c01905b818110610df357506109f7565b5f8155849350600101610de6565b9091508190610dd8565b6339e3563760e11b5f525f60045260245ffd5b885f52600460205260405f206bffffffffffffffffffffffff60a01b8154169055835f52600360205260405f205f198154019055610914565b633250574960e11b5f525f60045260245ffd5b634e487b7160e01b5f52601160045260245ffd5b60405162461bcd60e51b815260206004820152600e60248201526d105b1c9958591e4819585c9b995960921b6044820152606490fd5b3461046a57610ec2366112e7565b5050505f604051610ed460208261139d565b5260405162461bcd60e51b815260206004820152601b60248201527f536f756c626f756e643a206e6f6e2d7472616e7366657261626c6500000000006044820152606490fd5b3461046a57602036600319011261046a576004355f526008602052610f8b60405f20610f45816113be565b90610f52600182016113be565b610fa7610f61600284016113be565b610f99600460018060a01b036003870154169501549360405197889760a0895260a0890190611297565b908782036020890152611297565b908582036040870152611297565b91606084015260808301520390f35b3461046a57604036600319011261046a57610fcf6112bb565b6001600160a01b03165f908152600a602052604090208054602435919082101561046a57602091610fff91611321565b90549060031b1c604051908152f35b3461046a5761101c366112e7565b505060405162461bcd60e51b815260206004820152601b60248201527f536f756c626f756e643a206e6f6e2d7472616e7366657261626c650000000000604482015260649150fd5b3461046a57604036600319011261046a5761107d6112bb565b6024356110898161151b565b3315158061113b575b8061110e575b6110fb5781906001600160a01b0384811691167f8c5be1e5ebec7d5bd14f71427d1e84f3dd0314c0f7b2291e5b200ac8c7c3b9255f80a45f90815260046020526040902080546001600160a01b0319166001600160a01b03909216919091179055005b63a9fbf51f60e01b5f523360045260245ffd5b506001600160a01b0381165f90815260056020908152604080832033845290915290205460ff1615611098565b506001600160a01b038116331415611092565b3461046a57602036600319011261046a5760043561116b8161151b565b505f526004602052602060018060a01b0360405f205416604051908152f35b3461046a575f36600319011261046a576040515f80546111a98161134a565b80845290600181169081156106fb57506001146111d057610466836106898185038261139d565b5f8080527f290decd9548b62a8d60345a988386fc84ba6bc95484008f6362f93160ef3e563939250905b80821061121257509091508101602001610689610679565b9192600181602092548385880101520191019092916111fa565b3461046a57602036600319011261046a576004359063ffffffff60e01b821680920361046a576020916380ac58cd60e01b8114908115611286575b8115611275575b5015158152f35b6301ffc9a760e01b1490508361126e565b635b5e139f60e01b81149150611267565b805180835260209291819084018484015e5f828201840152601f01601f1916010190565b600435906001600160a01b038216820361046a57565b602435906001600160a01b038216820361046a57565b606090600319011261046a576004356001600160a01b038116810361046a57906024356001600160a01b038116810361046a579060443590565b8054821015611336575f5260205f2001905f90565b634e487b7160e01b5f52603260045260245ffd5b90600182811c92168015611378575b602083101461136457565b634e487b7160e01b5f52602260045260245ffd5b91607f1691611359565b60a081019081106001600160401b03821117610bc357604052565b90601f801991011681019081106001600160401b03821117610bc357604052565b9060405191825f8254926113d18461134a565b808452936001811690811561143c57506001146113f8575b506113f69250038361139d565b565b90505f9291925260205f20905f915b8183106114205750509060206113f6928201015f6113e9565b6020919350806001915483858901015201910190918492611407565b9050602092506113f694915060ff191682840152151560051b8201015f6113e9565b9181601f8401121561046a578235916001600160401b03831161046a576020838186019501011161046a57565b9291926001600160401b038211610bc357604051916114b4601f8201601f19166020018461139d565b82948184528183011161046a578281602093845f960137010152565b908060209392818452848401375f828201840152601f01601f1916010190565b6001600160401b038111610bc35760051b60200190565b80518210156113365760209160051b010190565b5f818152600260205260409020546001600160a01b031690811561153d575090565b637e27328960e01b5f5260045260245ffd5b6006546001600160a01b0316330361156357565b63118cdaa760e01b5f523360045260245ffdfea264697066735822122006b26b295d052d13cdf80d6552bc1ed2d0065f8f8cad59c622e3bb5dee9d97a564736f6c634300081a0033","opcodes":"PUSH1 0x80 PUSH1 0x40 MSTORE CALLVALUE PUSH2 0x37E JUMPI PUSH1 0x40 DUP1 MLOAD SWAP1 DUP2 ADD PUSH1 0x1 PUSH1 0x1 PUSH1 0x40 SHL SUB DUP2 GT DUP3 DUP3 LT OR PUSH2 0x294 JUMPI PUSH1 0x40 SWAP1 DUP2 MSTORE PUSH1 0x12 DUP3 MSTORE PUSH18 0x41746C617320416368696576656D656E7473 PUSH1 0x70 SHL PUSH1 0x20 DUP4 ADD MSTORE DUP1 MLOAD SWAP1 DUP2 ADD PUSH1 0x1 PUSH1 0x1 PUSH1 0x40 SHL SUB DUP2 GT DUP3 DUP3 LT OR PUSH2 0x294 JUMPI PUSH1 0x40 MSTORE PUSH1 0x9 DUP2 MSTORE PUSH9 0x82A89882A65A82869 PUSH1 0xBB SHL PUSH1 0x20 DUP3 ADD MSTORE DUP2 MLOAD PUSH1 0x1 PUSH1 0x1 PUSH1 0x40 SHL SUB DUP2 GT PUSH2 0x294 JUMPI PUSH0 SLOAD PUSH1 0x1 DUP2 DUP2 SHR SWAP2 AND DUP1 ISZERO PUSH2 0x374 JUMPI JUMPDEST PUSH1 0x20 DUP3 LT EQ PUSH2 0x276 JUMPI PUSH1 0x1F DUP2 GT PUSH2 0x312 JUMPI JUMPDEST POP PUSH1 0x20 SWAP3 PUSH1 0x1F DUP3 GT PUSH1 0x1 EQ PUSH2 0x2B3 JUMPI SWAP3 DUP2 SWAP3 SWAP4 PUSH0 SWAP3 PUSH2 0x2A8 JUMPI JUMPDEST POP POP DUP2 PUSH1 0x1 SHL SWAP2 PUSH0 NOT SWAP1 PUSH1 0x3 SHL SHR NOT AND OR PUSH0 SSTORE JUMPDEST DUP1 MLOAD PUSH1 0x1 PUSH1 0x1 PUSH1 0x40 SHL SUB DUP2 GT PUSH2 0x294 JUMPI PUSH1 0x1 SLOAD PUSH1 0x1 DUP2 DUP2 SHR SWAP2 AND DUP1 ISZERO PUSH2 0x28A JUMPI JUMPDEST PUSH1 0x20 DUP3 LT EQ PUSH2 0x276 JUMPI PUSH1 0x1F DUP2 GT PUSH2 0x213 JUMPI JUMPDEST POP PUSH1 0x20 SWAP2 PUSH1 0x1F DUP3 GT PUSH1 0x1 EQ PUSH2 0x1B3 JUMPI SWAP2 DUP2 SWAP3 PUSH0 SWAP3 PUSH2 0x1A8 JUMPI JUMPDEST POP POP DUP2 PUSH1 0x1 SHL SWAP2 PUSH0 NOT SWAP1 PUSH1 0x3 SHL SHR NOT AND OR PUSH1 0x1 SSTORE JUMPDEST CALLER ISZERO PUSH2 0x195 JUMPI PUSH1 0x6 DUP1 SLOAD CALLER PUSH1 0x1 PUSH1 0x1 PUSH1 0xA0 SHL SUB NOT DUP3 AND DUP2 OR SWAP1 SWAP3 SSTORE PUSH1 0x40 MLOAD SWAP2 SWAP1 PUSH1 0x1 PUSH1 0x1 PUSH1 0xA0 SHL SUB AND PUSH32 0x8BE0079C531659141344CD1FD0A4F28419497F9722A3DAAFE3B4186F6B6457E0 PUSH0 DUP1 LOG3 PUSH1 0x1 PUSH1 0x7 SSTORE PUSH2 0x15AC SWAP1 DUP2 PUSH2 0x383 DUP3 CODECOPY RETURN JUMPDEST PUSH4 0x1E4FBDF7 PUSH1 0xE0 SHL PUSH0 MSTORE PUSH0 PUSH1 0x4 MSTORE PUSH1 0x24 PUSH0 REVERT JUMPDEST ADD MLOAD SWAP1 POP PUSH0 DUP1 PUSH2 0x122 JUMP JUMPDEST PUSH1 0x1F NOT DUP3 AND SWAP3 PUSH1 0x1 PUSH0 MSTORE DUP1 PUSH0 KECCAK256 SWAP2 PUSH0 JUMPDEST DUP6 DUP2 LT PUSH2 0x1FB JUMPI POP DUP4 PUSH1 0x1 SWAP6 LT PUSH2 0x1E3 JUMPI JUMPDEST POP POP POP DUP2 SHL ADD PUSH1 0x1 SSTORE PUSH2 0x137 JUMP JUMPDEST ADD MLOAD PUSH0 NOT PUSH1 0xF8 DUP5 PUSH1 0x3 SHL AND SHR NOT AND SWAP1 SSTORE PUSH0 DUP1 DUP1 PUSH2 0x1D5 JUMP JUMPDEST SWAP2 SWAP3 PUSH1 0x20 PUSH1 0x1 DUP2 SWAP3 DUP7 DUP6 ADD MLOAD DUP2 SSTORE ADD SWAP5 ADD SWAP3 ADD PUSH2 0x1C3 JUMP JUMPDEST PUSH1 0x1 PUSH0 MSTORE PUSH32 0xB10E2D527612073B26EECDFD717E6A320CF44B4AFAC2B0732D9FCBE2B7FA0CF6 PUSH1 0x1F DUP4 ADD PUSH1 0x5 SHR DUP2 ADD SWAP2 PUSH1 0x20 DUP5 LT PUSH2 0x26C JUMPI JUMPDEST PUSH1 0x1F ADD PUSH1 0x5 SHR ADD SWAP1 JUMPDEST DUP2 DUP2 LT PUSH2 0x261 JUMPI POP PUSH2 0x109 JUMP JUMPDEST PUSH0 DUP2 SSTORE PUSH1 0x1 ADD PUSH2 0x254 JUMP JUMPDEST SWAP1 SWAP2 POP DUP2 SWAP1 PUSH2 0x24B JUMP JUMPDEST PUSH4 0x4E487B71 PUSH1 0xE0 SHL PUSH0 MSTORE PUSH1 0x22 PUSH1 0x4 MSTORE PUSH1 0x24 PUSH0 REVERT JUMPDEST SWAP1 PUSH1 0x7F AND SWAP1 PUSH2 0xF7 JUMP JUMPDEST PUSH4 0x4E487B71 PUSH1 0xE0 SHL PUSH0 MSTORE PUSH1 0x41 PUSH1 0x4 MSTORE PUSH1 0x24 PUSH0 REVERT JUMPDEST ADD MLOAD SWAP1 POP PUSH0 DUP1 PUSH2 0xC2 JUMP JUMPDEST PUSH1 0x1F NOT DUP3 AND SWAP4 PUSH0 DUP1 MSTORE DUP1 PUSH0 KECCAK256 SWAP2 PUSH0 JUMPDEST DUP7 DUP2 LT PUSH2 0x2FA JUMPI POP DUP4 PUSH1 0x1 SWAP6 SWAP7 LT PUSH2 0x2E2 JUMPI JUMPDEST POP POP POP DUP2 SHL ADD PUSH0 SSTORE PUSH2 0xD6 JUMP JUMPDEST ADD MLOAD PUSH0 NOT PUSH1 0xF8 DUP5 PUSH1 0x3 SHL AND SHR NOT AND SWAP1 SSTORE PUSH0 DUP1 DUP1 PUSH2 0x2D5 JUMP JUMPDEST SWAP2 SWAP3 PUSH1 0x20 PUSH1 0x1 DUP2 SWAP3 DUP7 DUP6 ADD MLOAD DUP2 SSTORE ADD SWAP5 ADD SWAP3 ADD PUSH2 0x2C2 JUMP JUMPDEST PUSH0 DUP1 MSTORE PUSH32 0x290DECD9548B62A8D60345A988386FC84BA6BC95484008F6362F93160EF3E563 PUSH1 0x1F DUP4 ADD PUSH1 0x5 SHR DUP2 ADD SWAP2 PUSH1 0x20 DUP5 LT PUSH2 0x36A JUMPI JUMPDEST PUSH1 0x1F ADD PUSH1 0x5 SHR ADD SWAP1 JUMPDEST DUP2 DUP2 LT PUSH2 0x35F JUMPI POP PUSH2 0xA8 JUMP JUMPDEST PUSH0 DUP2 SSTORE PUSH1 0x1 ADD PUSH2 0x352 JUMP JUMPDEST SWAP1 SWAP2 POP DUP2 SWAP1 PUSH2 0x349 JUMP JUMPDEST SWAP1 PUSH1 0x7F AND SWAP1 PUSH2 0x96 JUMP JUMPDEST PUSH0 DUP1 REVERT INVALID PUSH1 0x80 DUP1 PUSH1 0x40 MSTORE PUSH1 0x4 CALLDATASIZE LT ISZERO PUSH2 0x12 JUMPI PUSH0 DUP1 REVERT JUMPDEST PUSH0 SWAP1 PUSH0 CALLDATALOAD PUSH1 0xE0 SHR SWAP1 DUP2 PUSH4 0x1FFC9A7 EQ PUSH2 0x122C JUMPI POP DUP1 PUSH4 0x6FDDE03 EQ PUSH2 0x118A JUMPI DUP1 PUSH4 0x81812FC EQ PUSH2 0x114E JUMPI DUP1 PUSH4 0x95EA7B3 EQ PUSH2 0x1064 JUMPI DUP1 PUSH4 0x23B872DD EQ PUSH2 0x100E JUMPI DUP1 PUSH4 0x24548C60 EQ PUSH2 0xFB6 JUMPI DUP1 PUSH4 0x27AED72E EQ PUSH2 0xF1A JUMPI DUP1 PUSH4 0x42842E0E EQ PUSH2 0xEB4 JUMPI DUP1 PUSH4 0x4A0706BE EQ PUSH2 0x823 JUMPI DUP1 PUSH4 0x6352211E EQ PUSH2 0x7F3 JUMPI DUP1 PUSH4 0x70A08231 EQ PUSH2 0x7A2 JUMPI DUP1 PUSH4 0x715018A6 EQ PUSH2 0x747 JUMPI DUP1 PUSH4 0x8DA5CB5B EQ PUSH2 0x71F JUMPI DUP1 PUSH4 0x95D89B41 EQ PUSH2 0x641 JUMPI DUP1 PUSH4 0xA22CB465 EQ PUSH2 0x58D JUMPI DUP1 PUSH4 0xB88D4FDE EQ PUSH2 0x4F4 JUMPI DUP1 PUSH4 0xB9A626ED EQ PUSH2 0x46E JUMPI DUP1 PUSH4 0xC87B56DD EQ PUSH2 0x411 JUMPI DUP1 PUSH4 0xE985E9C5 EQ PUSH2 0x3B9 JUMPI DUP1 PUSH4 0xF09153C4 EQ PUSH2 0x190 JUMPI PUSH4 0xF2FDE38B EQ PUSH2 0x105 JUMPI PUSH0 DUP1 REVERT JUMPDEST CALLVALUE PUSH2 0x18D JUMPI PUSH1 0x20 CALLDATASIZE PUSH1 0x3 NOT ADD SLT PUSH2 0x18D JUMPI PUSH2 0x11E PUSH2 0x12BB JUMP JUMPDEST PUSH2 0x126 PUSH2 0x154F JUMP JUMPDEST PUSH1 0x1 PUSH1 0x1 PUSH1 0xA0 SHL SUB AND DUP1 ISZERO PUSH2 0x179 JUMPI PUSH1 0x6 DUP1 SLOAD PUSH1 0x1 PUSH1 0x1 PUSH1 0xA0 SHL SUB NOT DUP2 AND DUP4 OR SWAP1 SWAP2 SSTORE PUSH1 0x1 PUSH1 0x1 PUSH1 0xA0 SHL SUB AND PUSH32 0x8BE0079C531659141344CD1FD0A4F28419497F9722A3DAAFE3B4186F6B6457E0 PUSH0 DUP1 LOG3 DUP1 RETURN JUMPDEST PUSH4 0x1E4FBDF7 PUSH1 0xE0 SHL DUP3 MSTORE PUSH1 0x4 DUP3 SWAP1 MSTORE PUSH1 0x24 DUP3 REVERT JUMPDEST DUP1 REVERT JUMPDEST POP CALLVALUE PUSH2 0x18D JUMPI PUSH1 0x20 CALLDATASIZE PUSH1 0x3 NOT ADD SLT PUSH2 0x18D JUMPI PUSH1 0x1 PUSH1 0x1 PUSH1 0xA0 SHL SUB PUSH2 0x1B2 PUSH2 0x12BB JUMP JUMPDEST AND DUP2 MSTORE PUSH1 0xA PUSH1 0x20 MSTORE PUSH1 0x40 DUP2 KECCAK256 PUSH1 0x40 MLOAD DUP1 DUP3 PUSH1 0x20 DUP3 SWAP5 SLOAD SWAP4 DUP5 DUP2 MSTORE ADD SWAP1 DUP6 MSTORE PUSH1 0x20 DUP6 KECCAK256 SWAP3 DUP6 JUMPDEST DUP2 DUP2 LT PUSH2 0x3A0 JUMPI POP POP PUSH2 0x1EC SWAP3 POP SUB DUP3 PUSH2 0x139D JUMP JUMPDEST DUP1 MLOAD PUSH2 0x1F7 DUP2 PUSH2 0x14F0 JUMP JUMPDEST SWAP1 PUSH2 0x205 PUSH1 0x40 MLOAD SWAP3 DUP4 PUSH2 0x139D JUMP JUMPDEST DUP1 DUP3 MSTORE PUSH2 0x214 PUSH1 0x1F NOT SWAP2 PUSH2 0x14F0 JUMP JUMPDEST ADD DUP4 JUMPDEST DUP2 DUP2 LT PUSH2 0x368 JUMPI POP POP DUP3 JUMPDEST DUP3 MLOAD DUP2 LT ISZERO PUSH2 0x2B3 JUMPI DUP1 PUSH2 0x238 PUSH1 0x1 SWAP3 DUP6 PUSH2 0x1507 JUMP JUMPDEST MLOAD DUP6 MSTORE PUSH1 0x8 PUSH1 0x20 MSTORE PUSH1 0x40 DUP6 KECCAK256 PUSH1 0x4 PUSH1 0x40 MLOAD SWAP2 PUSH2 0x253 DUP4 PUSH2 0x1382 JUMP JUMPDEST PUSH2 0x25C DUP2 PUSH2 0x13BE JUMP JUMPDEST DUP4 MSTORE PUSH2 0x269 DUP6 DUP3 ADD PUSH2 0x13BE JUMP JUMPDEST PUSH1 0x20 DUP5 ADD MSTORE PUSH2 0x27A PUSH1 0x2 DUP3 ADD PUSH2 0x13BE JUMP JUMPDEST PUSH1 0x40 DUP5 ADD MSTORE DUP5 DUP1 PUSH1 0xA0 SHL SUB PUSH1 0x3 DUP3 ADD SLOAD AND PUSH1 0x60 DUP5 ADD MSTORE ADD SLOAD PUSH1 0x80 DUP3 ADD MSTORE PUSH2 0x2A1 DUP3 DUP6 PUSH2 0x1507 JUMP JUMPDEST MSTORE PUSH2 0x2AC DUP2 DUP5 PUSH2 0x1507 JUMP JUMPDEST POP ADD PUSH2 0x222 JUMP JUMPDEST DUP2 DUP5 PUSH1 0x40 MLOAD SWAP2 DUP3 SWAP2 PUSH1 0x20 DUP4 ADD PUSH1 0x20 DUP5 MSTORE DUP3 MLOAD DUP1 SWAP2 MSTORE PUSH1 0x40 DUP5 ADD PUSH1 0x20 PUSH1 0x40 DUP4 PUSH1 0x5 SHL DUP8 ADD ADD SWAP5 ADD SWAP3 SWAP1 JUMPDEST DUP3 DUP3 LT PUSH2 0x2EB JUMPI POP POP POP POP SUB SWAP1 RETURN JUMPDEST SWAP2 SWAP4 PUSH1 0x1 SWAP2 SWAP4 SWAP6 POP PUSH1 0x20 DUP1 SWAP2 PUSH1 0x3F NOT DUP10 DUP3 SUB ADD DUP6 MSTORE DUP8 MLOAD SWAP1 PUSH1 0x80 DUP1 PUSH2 0x341 PUSH2 0x32F PUSH2 0x31F DUP7 MLOAD PUSH1 0xA0 DUP8 MSTORE PUSH1 0xA0 DUP8 ADD SWAP1 PUSH2 0x1297 JUMP JUMPDEST DUP8 DUP8 ADD MLOAD DUP7 DUP3 SUB DUP10 DUP9 ADD MSTORE PUSH2 0x1297 JUMP JUMPDEST PUSH1 0x40 DUP7 ADD MLOAD DUP6 DUP3 SUB PUSH1 0x40 DUP8 ADD MSTORE PUSH2 0x1297 JUMP JUMPDEST SWAP4 DUP8 DUP1 PUSH1 0xA0 SHL SUB PUSH1 0x60 DUP3 ADD MLOAD AND PUSH1 0x60 DUP6 ADD MSTORE ADD MLOAD SWAP2 ADD MSTORE SWAP7 ADD SWAP3 ADD SWAP3 ADD DUP6 SWAP5 SWAP4 SWAP2 SWAP3 PUSH2 0x2DC JUMP JUMPDEST PUSH1 0x20 SWAP1 PUSH1 0x40 MLOAD PUSH2 0x377 DUP2 PUSH2 0x1382 JUMP JUMPDEST PUSH1 0x60 DUP2 MSTORE PUSH1 0x60 DUP4 DUP3 ADD MSTORE PUSH1 0x60 PUSH1 0x40 DUP3 ADD MSTORE DUP7 PUSH1 0x60 DUP3 ADD MSTORE DUP7 PUSH1 0x80 DUP3 ADD MSTORE DUP3 DUP3 DUP7 ADD ADD MSTORE ADD PUSH2 0x217 JUMP JUMPDEST DUP5 SLOAD DUP4 MSTORE PUSH1 0x1 SWAP5 DUP6 ADD SWAP5 DUP7 SWAP5 POP PUSH1 0x20 SWAP1 SWAP4 ADD SWAP3 ADD PUSH2 0x1D7 JUMP JUMPDEST POP CALLVALUE PUSH2 0x18D JUMPI PUSH1 0x40 CALLDATASIZE PUSH1 0x3 NOT ADD SLT PUSH2 0x18D JUMPI PUSH1 0x40 PUSH2 0x3D5 PUSH2 0x12BB JUMP JUMPDEST SWAP2 PUSH2 0x3DE PUSH2 0x12D1 JUMP JUMPDEST SWAP3 PUSH1 0x1 DUP1 PUSH1 0xA0 SHL SUB AND DUP2 MSTORE PUSH1 0x5 PUSH1 0x20 MSTORE KECCAK256 SWAP1 PUSH1 0x1 DUP1 PUSH1 0xA0 SHL SUB AND PUSH0 MSTORE PUSH1 0x20 MSTORE PUSH1 0x20 PUSH1 0xFF PUSH1 0x40 PUSH0 KECCAK256 SLOAD AND PUSH1 0x40 MLOAD SWAP1 ISZERO ISZERO DUP2 MSTORE RETURN JUMPDEST CALLVALUE PUSH2 0x46A JUMPI PUSH1 0x20 CALLDATASIZE PUSH1 0x3 NOT ADD SLT PUSH2 0x46A JUMPI PUSH2 0x42D PUSH1 0x4 CALLDATALOAD PUSH2 0x151B JUMP JUMPDEST POP PUSH0 PUSH1 0x40 MLOAD PUSH2 0x43D PUSH1 0x20 DUP3 PUSH2 0x139D JUMP JUMPDEST MSTORE PUSH2 0x466 PUSH1 0x40 MLOAD PUSH2 0x44F PUSH1 0x20 DUP3 PUSH2 0x139D JUMP JUMPDEST PUSH0 DUP2 MSTORE PUSH1 0x40 MLOAD SWAP2 DUP3 SWAP2 PUSH1 0x20 DUP4 MSTORE PUSH1 0x20 DUP4 ADD SWAP1 PUSH2 0x1297 JUMP JUMPDEST SUB SWAP1 RETURN JUMPDEST PUSH0 DUP1 REVERT JUMPDEST CALLVALUE PUSH2 0x46A JUMPI PUSH1 0x40 CALLDATASIZE PUSH1 0x3 NOT ADD SLT PUSH2 0x46A JUMPI PUSH2 0x487 PUSH2 0x12BB JUMP JUMPDEST PUSH1 0x24 CALLDATALOAD PUSH1 0x1 PUSH1 0x1 PUSH1 0x40 SHL SUB DUP2 GT PUSH2 0x46A JUMPI CALLDATASIZE PUSH1 0x23 DUP3 ADD SLT ISZERO PUSH2 0x46A JUMPI PUSH1 0x20 DUP1 DUP1 SWAP4 PUSH2 0x4BE PUSH1 0xFF SWAP5 CALLDATASIZE SWAP1 PUSH1 0x24 DUP2 PUSH1 0x4 ADD CALLDATALOAD SWAP2 ADD PUSH2 0x148B JUMP JUMPDEST SWAP1 PUSH1 0x1 DUP1 PUSH1 0xA0 SHL SUB AND PUSH0 MSTORE PUSH1 0x9 DUP3 MSTORE PUSH1 0x40 PUSH0 KECCAK256 PUSH1 0x40 MLOAD SWAP4 DUP3 DUP6 SWAP4 MLOAD SWAP2 DUP3 SWAP2 ADD DUP5 MCOPY DUP3 ADD SWAP1 DUP2 MSTORE SUB ADD SWAP1 KECCAK256 SLOAD AND PUSH1 0x40 MLOAD SWAP1 ISZERO ISZERO DUP2 MSTORE RETURN JUMPDEST CALLVALUE PUSH2 0x46A JUMPI PUSH1 0x80 CALLDATASIZE PUSH1 0x3 NOT ADD SLT PUSH2 0x46A JUMPI PUSH2 0x50D PUSH2 0x12BB JUMP JUMPDEST POP PUSH2 0x516 PUSH2 0x12D1 JUMP JUMPDEST POP PUSH1 0x64 CALLDATALOAD PUSH1 0x1 PUSH1 0x1 PUSH1 0x40 SHL SUB DUP2 GT PUSH2 0x46A JUMPI CALLDATASIZE PUSH1 0x23 DUP3 ADD SLT ISZERO PUSH2 0x46A JUMPI PUSH2 0x547 SWAP1 CALLDATASIZE SWAP1 PUSH1 0x24 DUP2 PUSH1 0x4 ADD CALLDATALOAD SWAP2 ADD PUSH2 0x148B JUMP JUMPDEST POP PUSH1 0x40 MLOAD PUSH3 0x461BCD PUSH1 0xE5 SHL DUP2 MSTORE PUSH1 0x20 PUSH1 0x4 DUP3 ADD MSTORE PUSH1 0x1B PUSH1 0x24 DUP3 ADD MSTORE PUSH32 0x536F756C626F756E643A206E6F6E2D7472616E7366657261626C650000000000 PUSH1 0x44 DUP3 ADD MSTORE PUSH1 0x64 SWAP1 REVERT JUMPDEST CALLVALUE PUSH2 0x46A JUMPI PUSH1 0x40 CALLDATASIZE PUSH1 0x3 NOT ADD SLT PUSH2 0x46A JUMPI PUSH2 0x5A6 PUSH2 0x12BB JUMP JUMPDEST PUSH1 0x24 CALLDATALOAD SWAP1 DUP2 ISZERO ISZERO DUP1 SWAP3 SUB PUSH2 0x46A JUMPI CALLER ISZERO PUSH2 0x62E JUMPI PUSH1 0x1 PUSH1 0x1 PUSH1 0xA0 SHL SUB AND SWAP1 DUP2 ISZERO PUSH2 0x61B JUMPI CALLER PUSH0 MSTORE PUSH1 0x5 PUSH1 0x20 MSTORE PUSH1 0x40 PUSH0 KECCAK256 DUP3 PUSH0 MSTORE PUSH1 0x20 MSTORE PUSH1 0x40 PUSH0 KECCAK256 PUSH1 0xFF NOT DUP2 SLOAD AND PUSH1 0xFF DUP4 AND OR SWAP1 SSTORE PUSH1 0x40 MLOAD SWAP1 DUP2 MSTORE PUSH32 0x17307EAB39AB6107E8899845AD3D59BD9653F200F220920489CA2B5937696C31 PUSH1 0x20 CALLER SWAP3 LOG3 STOP JUMPDEST POP PUSH4 0xB611743 PUSH1 0xE3 SHL PUSH0 MSTORE PUSH1 0x4 MSTORE PUSH1 0x24 PUSH0 REVERT JUMPDEST PUSH4 0xA9FBF51F PUSH1 0xE0 SHL PUSH0 MSTORE PUSH0 PUSH1 0x4 MSTORE PUSH1 0x24 PUSH0 REVERT JUMPDEST CALLVALUE PUSH2 0x46A JUMPI PUSH0 CALLDATASIZE PUSH1 0x3 NOT ADD SLT PUSH2 0x46A JUMPI PUSH1 0x40 MLOAD PUSH0 PUSH1 0x1 SLOAD PUSH2 0x661 DUP2 PUSH2 0x134A JUMP JUMPDEST DUP1 DUP5 MSTORE SWAP1 PUSH1 0x1 DUP2 AND SWAP1 DUP2 ISZERO PUSH2 0x6FB JUMPI POP PUSH1 0x1 EQ PUSH2 0x69D JUMPI JUMPDEST PUSH2 0x466 DUP4 PUSH2 0x689 DUP2 DUP6 SUB DUP3 PUSH2 0x139D JUMP JUMPDEST PUSH1 0x40 MLOAD SWAP2 DUP3 SWAP2 PUSH1 0x20 DUP4 MSTORE PUSH1 0x20 DUP4 ADD SWAP1 PUSH2 0x1297 JUMP JUMPDEST PUSH1 0x1 PUSH0 SWAP1 DUP2 MSTORE PUSH32 0xB10E2D527612073B26EECDFD717E6A320CF44B4AFAC2B0732D9FCBE2B7FA0CF6 SWAP4 SWAP3 POP SWAP1 JUMPDEST DUP1 DUP3 LT PUSH2 0x6E1 JUMPI POP SWAP1 SWAP2 POP DUP2 ADD PUSH1 0x20 ADD PUSH2 0x689 PUSH2 0x679 JUMP JUMPDEST SWAP2 SWAP3 PUSH1 0x1 DUP2 PUSH1 0x20 SWAP3 SLOAD DUP4 DUP6 DUP9 ADD ADD MSTORE ADD SWAP2 ADD SWAP1 SWAP3 SWAP2 PUSH2 0x6C9 JUMP JUMPDEST PUSH1 0xFF NOT AND PUSH1 0x20 DUP1 DUP7 ADD SWAP2 SWAP1 SWAP2 MSTORE SWAP2 ISZERO ISZERO PUSH1 0x5 SHL DUP5 ADD SWAP1 SWAP2 ADD SWAP2 POP PUSH2 0x689 SWAP1 POP PUSH2 0x679 JUMP JUMPDEST CALLVALUE PUSH2 0x46A JUMPI PUSH0 CALLDATASIZE PUSH1 0x3 NOT ADD SLT PUSH2 0x46A JUMPI PUSH1 0x6 SLOAD PUSH1 0x40 MLOAD PUSH1 0x1 PUSH1 0x1 PUSH1 0xA0 SHL SUB SWAP1 SWAP2 AND DUP2 MSTORE PUSH1 0x20 SWAP1 RETURN JUMPDEST CALLVALUE PUSH2 0x46A JUMPI PUSH0 CALLDATASIZE PUSH1 0x3 NOT ADD SLT PUSH2 0x46A JUMPI PUSH2 0x75F PUSH2 0x154F JUMP JUMPDEST PUSH1 0x6 DUP1 SLOAD PUSH1 0x1 PUSH1 0x1 PUSH1 0xA0 SHL SUB NOT DUP2 AND SWAP1 SWAP2 SSTORE PUSH0 SWAP1 PUSH1 0x1 PUSH1 0x1 PUSH1 0xA0 SHL SUB AND PUSH32 0x8BE0079C531659141344CD1FD0A4F28419497F9722A3DAAFE3B4186F6B6457E0 DUP3 DUP1 LOG3 STOP JUMPDEST CALLVALUE PUSH2 0x46A JUMPI PUSH1 0x20 CALLDATASIZE PUSH1 0x3 NOT ADD SLT PUSH2 0x46A JUMPI PUSH1 0x1 PUSH1 0x1 PUSH1 0xA0 SHL SUB PUSH2 0x7C3 PUSH2 0x12BB JUMP JUMPDEST AND DUP1 ISZERO PUSH2 0x7E0 JUMPI PUSH0 MSTORE PUSH1 0x3 PUSH1 0x20 MSTORE PUSH1 0x20 PUSH1 0x40 PUSH0 KECCAK256 SLOAD PUSH1 0x40 MLOAD SWAP1 DUP2 MSTORE RETURN JUMPDEST PUSH4 0x22718AD9 PUSH1 0xE2 SHL PUSH0 MSTORE PUSH0 PUSH1 0x4 MSTORE PUSH1 0x24 PUSH0 REVERT JUMPDEST CALLVALUE PUSH2 0x46A JUMPI PUSH1 0x20 CALLDATASIZE PUSH1 0x3 NOT ADD SLT PUSH2 0x46A JUMPI PUSH1 0x20 PUSH2 0x811 PUSH1 0x4 CALLDATALOAD PUSH2 0x151B JUMP JUMPDEST PUSH1 0x40 MLOAD PUSH1 0x1 PUSH1 0x1 PUSH1 0xA0 SHL SUB SWAP1 SWAP2 AND DUP2 MSTORE RETURN JUMPDEST CALLVALUE PUSH2 0x46A JUMPI PUSH1 0x80 CALLDATASIZE PUSH1 0x3 NOT ADD SLT PUSH2 0x46A JUMPI PUSH2 0x83C PUSH2 0x12BB JUMP JUMPDEST PUSH1 0x24 CALLDATALOAD PUSH1 0x1 PUSH1 0x1 PUSH1 0x40 SHL SUB DUP2 GT PUSH2 0x46A JUMPI PUSH2 0x85B SWAP1 CALLDATASIZE SWAP1 PUSH1 0x4 ADD PUSH2 0x145E JUMP JUMPDEST SWAP2 PUSH1 0x44 CALLDATALOAD PUSH1 0x1 PUSH1 0x1 PUSH1 0x40 SHL SUB DUP2 GT PUSH2 0x46A JUMPI PUSH2 0x87B SWAP1 CALLDATASIZE SWAP1 PUSH1 0x4 ADD PUSH2 0x145E JUMP JUMPDEST SWAP2 SWAP1 SWAP4 PUSH1 0x64 CALLDATALOAD PUSH1 0x1 PUSH1 0x1 PUSH1 0x40 SHL SUB DUP2 GT PUSH2 0x46A JUMPI PUSH2 0x89D SWAP1 CALLDATASIZE SWAP1 PUSH1 0x4 ADD PUSH2 0x145E JUMP JUMPDEST SWAP5 SWAP1 SWAP3 PUSH2 0x8A8 PUSH2 0x154F JUMP JUMPDEST PUSH1 0x1 DUP1 PUSH1 0xA0 SHL SUB AND SWAP3 DUP4 PUSH0 MSTORE PUSH1 0x9 PUSH1 0x20 MSTORE PUSH1 0xFF PUSH1 0x40 PUSH0 KECCAK256 PUSH1 0x20 PUSH1 0x40 MLOAD DUP1 SWAP3 DUP8 DUP8 DUP4 CALLDATACOPY DUP8 DUP3 ADD SWAP1 DUP2 MSTORE SUB ADD SWAP1 KECCAK256 SLOAD AND PUSH2 0xE7E JUMPI PUSH1 0x7 SLOAD SWAP6 PUSH0 NOT DUP8 EQ PUSH2 0xE6A JUMPI PUSH1 0x1 DUP8 ADD PUSH1 0x7 SSTORE DUP5 ISZERO PUSH2 0xE57 JUMPI PUSH0 DUP8 DUP2 MSTORE PUSH1 0x2 PUSH1 0x20 MSTORE PUSH1 0x40 SWAP1 KECCAK256 SLOAD PUSH1 0x1 PUSH1 0x1 PUSH1 0xA0 SHL SUB AND SWAP2 DUP3 ISZERO ISZERO DUP1 PUSH2 0xE1E JUMPI JUMPDEST DUP7 PUSH0 MSTORE PUSH1 0x3 PUSH1 0x20 MSTORE PUSH1 0x40 PUSH0 KECCAK256 PUSH1 0x1 DUP2 SLOAD ADD SWAP1 SSTORE DUP9 PUSH0 MSTORE PUSH1 0x2 PUSH1 0x20 MSTORE PUSH1 0x40 PUSH0 KECCAK256 DUP8 PUSH12 0xFFFFFFFFFFFFFFFFFFFFFFFF PUSH1 0xA0 SHL DUP3 SLOAD AND OR SWAP1 SSTORE DUP9 DUP8 PUSH1 0x40 MLOAD SWAP6 PUSH32 0xDDF252AD1BE2C89B69C2B068FC378DAA952BA7F163C4A11628F55A4DF523B3EF PUSH0 DUP1 LOG4 PUSH2 0xE0B JUMPI PUSH2 0x9AC SWAP1 PUSH2 0x985 DUP5 PUSH2 0x1382 JUMP JUMPDEST PUSH2 0x990 CALLDATASIZE DUP8 DUP8 PUSH2 0x148B JUMP JUMPDEST DUP5 MSTORE PUSH2 0x99D CALLDATASIZE DUP10 DUP13 PUSH2 0x148B JUMP JUMPDEST SWAP3 PUSH1 0x20 DUP6 ADD SWAP4 DUP5 MSTORE CALLDATASIZE SWAP2 PUSH2 0x148B JUMP JUMPDEST PUSH1 0x40 DUP4 ADD SWAP1 DUP2 MSTORE PUSH1 0x60 DUP4 ADD SWAP1 DUP7 DUP3 MSTORE PUSH1 0x80 DUP5 ADD SWAP3 TIMESTAMP DUP5 MSTORE DUP10 PUSH0 MSTORE PUSH1 0x8 PUSH1 0x20 MSTORE PUSH1 0x40 PUSH0 KECCAK256 SWAP5 MLOAD DUP1 MLOAD SWAP1 PUSH1 0x1 PUSH1 0x1 PUSH1 0x40 SHL SUB DUP3 GT PUSH2 0xBC3 JUMPI DUP2 SWAP1 PUSH2 0x9EE DUP9 SLOAD PUSH2 0x134A JUMP JUMPDEST PUSH1 0x1F DUP2 GT PUSH2 0xDBB JUMPI JUMPDEST POP PUSH1 0x20 SWAP1 PUSH1 0x1F DUP4 GT PUSH1 0x1 EQ PUSH2 0xD58 JUMPI PUSH0 SWAP3 PUSH2 0xD4D JUMPI JUMPDEST POP POP DUP2 PUSH1 0x1 SHL SWAP2 PUSH0 NOT SWAP1 PUSH1 0x3 SHL SHR NOT AND OR DUP6 SSTORE JUMPDEST MLOAD DUP1 MLOAD PUSH1 0x1 DUP7 ADD SWAP2 PUSH1 0x1 PUSH1 0x1 PUSH1 0x40 SHL SUB DUP3 GT PUSH2 0xBC3 JUMPI DUP2 SWAP1 PUSH2 0xA43 DUP5 SLOAD PUSH2 0x134A JUMP JUMPDEST PUSH1 0x1F DUP2 GT PUSH2 0xCFD JUMPI JUMPDEST POP PUSH1 0x20 SWAP1 PUSH1 0x1F DUP4 GT PUSH1 0x1 EQ PUSH2 0xC9A JUMPI PUSH0 SWAP3 PUSH2 0xC8F JUMPI JUMPDEST POP POP DUP2 PUSH1 0x1 SHL SWAP2 PUSH0 NOT SWAP1 PUSH1 0x3 SHL SHR NOT AND OR SWAP1 SSTORE JUMPDEST MLOAD DUP1 MLOAD PUSH1 0x2 DUP6 ADD SWAP2 PUSH1 0x1 PUSH1 0x1 PUSH1 0x40 SHL SUB DUP3 GT PUSH2 0xBC3 JUMPI PUSH2 0xA96 DUP4 SLOAD PUSH2 0x134A JUMP JUMPDEST PUSH1 0x1F DUP2 GT PUSH2 0xC4A JUMPI JUMPDEST POP PUSH1 0x20 SWAP1 PUSH1 0x1F DUP4 GT PUSH1 0x1 EQ PUSH2 0xBE2 JUMPI PUSH1 0x4 SWAP6 SWAP5 SWAP4 SWAP3 SWAP2 PUSH0 SWAP2 DUP4 PUSH2 0xBD7 JUMPI JUMPDEST POP POP DUP2 PUSH1 0x1 SHL SWAP2 PUSH0 NOT SWAP1 PUSH1 0x3 SHL SHR NOT AND OR SWAP1 SSTORE JUMPDEST MLOAD PUSH1 0x3 DUP5 ADD DUP1 SLOAD PUSH1 0x1 PUSH1 0x1 PUSH1 0xA0 SHL SUB NOT AND PUSH1 0x1 PUSH1 0x1 PUSH1 0xA0 SHL SUB SWAP3 SWAP1 SWAP3 AND SWAP2 SWAP1 SWAP2 OR SWAP1 SSTORE MLOAD SWAP2 ADD SSTORE PUSH0 DUP4 DUP2 MSTORE PUSH1 0x9 PUSH1 0x20 SWAP1 DUP2 MSTORE PUSH1 0x40 SWAP2 DUP3 SWAP1 KECCAK256 SWAP2 MLOAD SWAP2 DUP3 SWAP1 DUP6 DUP6 DUP4 CALLDATACOPY DUP6 DUP3 ADD SWAP1 DUP2 MSTORE SUB ADD SWAP1 KECCAK256 PUSH1 0x1 PUSH1 0xFF NOT DUP3 SLOAD AND OR SWAP1 SSTORE DUP3 PUSH0 MSTORE PUSH1 0xA PUSH1 0x20 MSTORE PUSH1 0x40 PUSH0 KECCAK256 SWAP2 DUP3 SLOAD PUSH9 0x10000000000000000 DUP2 LT ISZERO PUSH2 0xBC3 JUMPI PUSH1 0x20 SWAP8 DUP8 SWAP7 PUSH2 0xB80 DUP4 PUSH32 0x1EB7195194EEA07B5EEB1E861D4F7450ED79C85635F55FD4BE9EDC75BBFE3C9F SWAP8 PUSH1 0x1 PUSH2 0xBB8 SWAP7 ADD DUP2 SSTORE PUSH2 0x1321 JUMP JUMPDEST DUP2 SLOAD SWAP1 PUSH1 0x3 SHL SWAP1 DUP11 DUP3 SHL SWAP2 PUSH0 NOT SWAP1 SHL NOT AND OR SWAP1 SSTORE PUSH2 0xBAB PUSH1 0x40 MLOAD SWAP6 DUP7 SWAP6 PUSH1 0x40 DUP8 MSTORE PUSH1 0x40 DUP8 ADD SWAP2 PUSH2 0x14D0 JUMP JUMPDEST SWAP2 DUP5 DUP4 SUB DUP12 DUP7 ADD MSTORE PUSH2 0x14D0 JUMP JUMPDEST SUB SWAP1 LOG3 PUSH1 0x40 MLOAD SWAP1 DUP2 MSTORE RETURN JUMPDEST PUSH4 0x4E487B71 PUSH1 0xE0 SHL PUSH0 MSTORE PUSH1 0x41 PUSH1 0x4 MSTORE PUSH1 0x24 PUSH0 REVERT JUMPDEST ADD MLOAD SWAP1 POP DUP14 DUP1 PUSH2 0xABD JUMP JUMPDEST SWAP1 PUSH1 0x1F NOT DUP4 AND SWAP2 DUP5 PUSH0 MSTORE DUP2 PUSH0 KECCAK256 SWAP3 PUSH0 JUMPDEST DUP2 DUP2 LT PUSH2 0xC32 JUMPI POP SWAP2 PUSH1 0x1 SWAP4 SWAP2 DUP6 PUSH1 0x4 SWAP10 SWAP9 SWAP8 SWAP7 SWAP5 LT PUSH2 0xC1A JUMPI JUMPDEST POP POP POP DUP2 SHL ADD SWAP1 SSTORE PUSH2 0xAD1 JUMP JUMPDEST ADD MLOAD PUSH0 NOT PUSH1 0xF8 DUP5 PUSH1 0x3 SHL AND SHR NOT AND SWAP1 SSTORE DUP14 DUP1 DUP1 PUSH2 0xC0D JUMP JUMPDEST SWAP3 SWAP4 PUSH1 0x20 PUSH1 0x1 DUP2 SWAP3 DUP8 DUP7 ADD MLOAD DUP2 SSTORE ADD SWAP6 ADD SWAP4 ADD PUSH2 0xBF2 JUMP JUMPDEST DUP4 PUSH0 MSTORE PUSH1 0x20 PUSH0 KECCAK256 PUSH1 0x1F DUP5 ADD PUSH1 0x5 SHR DUP2 ADD SWAP2 PUSH1 0x20 DUP6 LT PUSH2 0xC85 JUMPI JUMPDEST PUSH1 0x1F ADD PUSH1 0x5 SHR ADD SWAP1 JUMPDEST DUP2 DUP2 LT PUSH2 0xC7A JUMPI POP PUSH2 0xA9F JUMP JUMPDEST PUSH0 DUP2 SSTORE PUSH1 0x1 ADD PUSH2 0xC6D JUMP JUMPDEST SWAP1 SWAP2 POP DUP2 SWAP1 PUSH2 0xC64 JUMP JUMPDEST ADD MLOAD SWAP1 POP DUP14 DUP1 PUSH2 0xA62 JUMP JUMPDEST PUSH0 DUP6 DUP2 MSTORE DUP3 DUP2 KECCAK256 SWAP4 POP PUSH1 0x1F NOT DUP6 AND SWAP1 JUMPDEST DUP2 DUP2 LT PUSH2 0xCE5 JUMPI POP SWAP1 DUP5 PUSH1 0x1 SWAP6 SWAP5 SWAP4 SWAP3 LT PUSH2 0xCCD JUMPI JUMPDEST POP POP POP DUP2 SHL ADD SWAP1 SSTORE PUSH2 0xA76 JUMP JUMPDEST ADD MLOAD PUSH0 NOT PUSH1 0xF8 DUP5 PUSH1 0x3 SHL AND SHR NOT AND SWAP1 SSTORE DUP14 DUP1 DUP1 PUSH2 0xCC0 JUMP JUMPDEST SWAP3 SWAP4 PUSH1 0x20 PUSH1 0x1 DUP2 SWAP3 DUP8 DUP7 ADD MLOAD DUP2 SSTORE ADD SWAP6 ADD SWAP4 ADD PUSH2 0xCAA JUMP JUMPDEST SWAP1 SWAP2 POP DUP4 PUSH0 MSTORE PUSH1 0x20 PUSH0 KECCAK256 PUSH1 0x1F DUP5 ADD PUSH1 0x5 SHR DUP2 ADD SWAP2 PUSH1 0x20 DUP6 LT PUSH2 0xD43 JUMPI JUMPDEST SWAP1 PUSH1 0x1F DUP6 SWAP5 SWAP4 SWAP3 ADD PUSH1 0x5 SHR ADD SWAP1 JUMPDEST DUP2 DUP2 LT PUSH2 0xD35 JUMPI POP PUSH2 0xA4C JUMP JUMPDEST PUSH0 DUP2 SSTORE DUP5 SWAP4 POP PUSH1 0x1 ADD PUSH2 0xD28 JUMP JUMPDEST SWAP1 SWAP2 POP DUP2 SWAP1 PUSH2 0xD1A JUMP JUMPDEST ADD MLOAD SWAP1 POP DUP14 DUP1 PUSH2 0xA0D JUMP JUMPDEST PUSH0 DUP10 DUP2 MSTORE DUP3 DUP2 KECCAK256 SWAP4 POP PUSH1 0x1F NOT DUP6 AND SWAP1 JUMPDEST DUP2 DUP2 LT PUSH2 0xDA3 JUMPI POP SWAP1 DUP5 PUSH1 0x1 SWAP6 SWAP5 SWAP4 SWAP3 LT PUSH2 0xD8B JUMPI JUMPDEST POP POP POP DUP2 SHL ADD DUP6 SSTORE PUSH2 0xA21 JUMP JUMPDEST ADD MLOAD PUSH0 NOT PUSH1 0xF8 DUP5 PUSH1 0x3 SHL AND SHR NOT AND SWAP1 SSTORE DUP14 DUP1 DUP1 PUSH2 0xD7E JUMP JUMPDEST SWAP3 SWAP4 PUSH1 0x20 PUSH1 0x1 DUP2 SWAP3 DUP8 DUP7 ADD MLOAD DUP2 SSTORE ADD SWAP6 ADD SWAP4 ADD PUSH2 0xD68 JUMP JUMPDEST SWAP1 SWAP2 POP DUP8 PUSH0 MSTORE PUSH1 0x20 PUSH0 KECCAK256 PUSH1 0x1F DUP5 ADD PUSH1 0x5 SHR DUP2 ADD SWAP2 PUSH1 0x20 DUP6 LT PUSH2 0xE01 JUMPI JUMPDEST SWAP1 PUSH1 0x1F DUP6 SWAP5 SWAP4 SWAP3 ADD PUSH1 0x5 SHR ADD SWAP1 JUMPDEST DUP2 DUP2 LT PUSH2 0xDF3 JUMPI POP PUSH2 0x9F7 JUMP JUMPDEST PUSH0 DUP2 SSTORE DUP5 SWAP4 POP PUSH1 0x1 ADD PUSH2 0xDE6 JUMP JUMPDEST SWAP1 SWAP2 POP DUP2 SWAP1 PUSH2 0xDD8 JUMP JUMPDEST PUSH4 0x39E35637 PUSH1 0xE1 SHL PUSH0 MSTORE PUSH0 PUSH1 0x4 MSTORE PUSH1 0x24 PUSH0 REVERT JUMPDEST DUP9 PUSH0 MSTORE PUSH1 0x4 PUSH1 0x20 MSTORE PUSH1 0x40 PUSH0 KECCAK256 PUSH12 0xFFFFFFFFFFFFFFFFFFFFFFFF PUSH1 0xA0 SHL DUP2 SLOAD AND SWAP1 SSTORE DUP4 PUSH0 MSTORE PUSH1 0x3 PUSH1 0x20 MSTORE PUSH1 0x40 PUSH0 KECCAK256 PUSH0 NOT DUP2 SLOAD ADD SWAP1 SSTORE PUSH2 0x914 JUMP JUMPDEST PUSH4 0x32505749 PUSH1 0xE1 SHL PUSH0 MSTORE PUSH0 PUSH1 0x4 MSTORE PUSH1 0x24 PUSH0 REVERT JUMPDEST PUSH4 0x4E487B71 PUSH1 0xE0 SHL PUSH0 MSTORE PUSH1 0x11 PUSH1 0x4 MSTORE PUSH1 0x24 PUSH0 REVERT JUMPDEST PUSH1 0x40 MLOAD PUSH3 0x461BCD PUSH1 0xE5 SHL DUP2 MSTORE PUSH1 0x20 PUSH1 0x4 DUP3 ADD MSTORE PUSH1 0xE PUSH1 0x24 DUP3 ADD MSTORE PUSH14 0x105B1C9958591E4819585C9B9959 PUSH1 0x92 SHL PUSH1 0x44 DUP3 ADD MSTORE PUSH1 0x64 SWAP1 REVERT JUMPDEST CALLVALUE PUSH2 0x46A JUMPI PUSH2 0xEC2 CALLDATASIZE PUSH2 0x12E7 JUMP JUMPDEST POP POP POP PUSH0 PUSH1 0x40 MLOAD PUSH2 0xED4 PUSH1 0x20 DUP3 PUSH2 0x139D JUMP JUMPDEST MSTORE PUSH1 0x40 MLOAD PUSH3 0x461BCD PUSH1 0xE5 SHL DUP2 MSTORE PUSH1 0x20 PUSH1 0x4 DUP3 ADD MSTORE PUSH1 0x1B PUSH1 0x24 DUP3 ADD MSTORE PUSH32 0x536F756C626F756E643A206E6F6E2D7472616E7366657261626C650000000000 PUSH1 0x44 DUP3 ADD MSTORE PUSH1 0x64 SWAP1 REVERT JUMPDEST CALLVALUE PUSH2 0x46A JUMPI PUSH1 0x20 CALLDATASIZE PUSH1 0x3 NOT ADD SLT PUSH2 0x46A JUMPI PUSH1 0x4 CALLDATALOAD PUSH0 MSTORE PUSH1 0x8 PUSH1 0x20 MSTORE PUSH2 0xF8B PUSH1 0x40 PUSH0 KECCAK256 PUSH2 0xF45 DUP2 PUSH2 0x13BE JUMP JUMPDEST SWAP1 PUSH2 0xF52 PUSH1 0x1 DUP3 ADD PUSH2 0x13BE JUMP JUMPDEST PUSH2 0xFA7 PUSH2 0xF61 PUSH1 0x2 DUP5 ADD PUSH2 0x13BE JUMP JUMPDEST PUSH2 0xF99 PUSH1 0x4 PUSH1 0x1 DUP1 PUSH1 0xA0 SHL SUB PUSH1 0x3 DUP8 ADD SLOAD AND SWAP6 ADD SLOAD SWAP4 PUSH1 0x40 MLOAD SWAP8 DUP9 SWAP8 PUSH1 0xA0 DUP10 MSTORE PUSH1 0xA0 DUP10 ADD SWAP1 PUSH2 0x1297 JUMP JUMPDEST SWAP1 DUP8 DUP3 SUB PUSH1 0x20 DUP10 ADD MSTORE PUSH2 0x1297 JUMP JUMPDEST SWAP1 DUP6 DUP3 SUB PUSH1 0x40 DUP8 ADD MSTORE PUSH2 0x1297 JUMP JUMPDEST SWAP2 PUSH1 0x60 DUP5 ADD MSTORE PUSH1 0x80 DUP4 ADD MSTORE SUB SWAP1 RETURN JUMPDEST CALLVALUE PUSH2 0x46A JUMPI PUSH1 0x40 CALLDATASIZE PUSH1 0x3 NOT ADD SLT PUSH2 0x46A JUMPI PUSH2 0xFCF PUSH2 0x12BB JUMP JUMPDEST PUSH1 0x1 PUSH1 0x1 PUSH1 0xA0 SHL SUB AND PUSH0 SWAP1 DUP2 MSTORE PUSH1 0xA PUSH1 0x20 MSTORE PUSH1 0x40 SWAP1 KECCAK256 DUP1 SLOAD PUSH1 0x24 CALLDATALOAD SWAP2 SWAP1 DUP3 LT ISZERO PUSH2 0x46A JUMPI PUSH1 0x20 SWAP2 PUSH2 0xFFF SWAP2 PUSH2 0x1321 JUMP JUMPDEST SWAP1 SLOAD SWAP1 PUSH1 0x3 SHL SHR PUSH1 0x40 MLOAD SWAP1 DUP2 MSTORE RETURN JUMPDEST CALLVALUE PUSH2 0x46A JUMPI PUSH2 0x101C CALLDATASIZE PUSH2 0x12E7 JUMP JUMPDEST POP POP PUSH1 0x40 MLOAD PUSH3 0x461BCD PUSH1 0xE5 SHL DUP2 MSTORE PUSH1 0x20 PUSH1 0x4 DUP3 ADD MSTORE PUSH1 0x1B PUSH1 0x24 DUP3 ADD MSTORE PUSH32 0x536F756C626F756E643A206E6F6E2D7472616E7366657261626C650000000000 PUSH1 0x44 DUP3 ADD MSTORE PUSH1 0x64 SWAP2 POP REVERT JUMPDEST CALLVALUE PUSH2 0x46A JUMPI PUSH1 0x40 CALLDATASIZE PUSH1 0x3 NOT ADD SLT PUSH2 0x46A JUMPI PUSH2 0x107D PUSH2 0x12BB JUMP JUMPDEST PUSH1 0x24 CALLDATALOAD PUSH2 0x1089 DUP2 PUSH2 0x151B JUMP JUMPDEST CALLER ISZERO ISZERO DUP1 PUSH2 0x113B JUMPI JUMPDEST DUP1 PUSH2 0x110E JUMPI JUMPDEST PUSH2 0x10FB JUMPI DUP2 SWAP1 PUSH1 0x1 PUSH1 0x1 PUSH1 0xA0 SHL SUB DUP5 DUP2 AND SWAP2 AND PUSH32 0x8C5BE1E5EBEC7D5BD14F71427D1E84F3DD0314C0F7B2291E5B200AC8C7C3B925 PUSH0 DUP1 LOG4 PUSH0 SWAP1 DUP2 MSTORE PUSH1 0x4 PUSH1 0x20 MSTORE PUSH1 0x40 SWAP1 KECCAK256 DUP1 SLOAD PUSH1 0x1 PUSH1 0x1 PUSH1 0xA0 SHL SUB NOT AND PUSH1 0x1 PUSH1 0x1 PUSH1 0xA0 SHL SUB SWAP1 SWAP3 AND SWAP2 SWAP1 SWAP2 OR SWAP1 SSTORE STOP JUMPDEST PUSH4 0xA9FBF51F PUSH1 0xE0 SHL PUSH0 MSTORE CALLER PUSH1 0x4 MSTORE PUSH1 0x24 PUSH0 REVERT JUMPDEST POP PUSH1 0x1 PUSH1 0x1 PUSH1 0xA0 SHL SUB DUP2 AND PUSH0 SWAP1 DUP2 MSTORE PUSH1 0x5 PUSH1 0x20 SWAP1 DUP2 MSTORE PUSH1 0x40 DUP1 DUP4 KECCAK256 CALLER DUP5 MSTORE SWAP1 SWAP2 MSTORE SWAP1 KECCAK256 SLOAD PUSH1 0xFF AND ISZERO PUSH2 0x1098 JUMP JUMPDEST POP PUSH1 0x1 PUSH1 0x1 PUSH1 0xA0 SHL SUB DUP2 AND CALLER EQ ISZERO PUSH2 0x1092 JUMP JUMPDEST CALLVALUE PUSH2 0x46A JUMPI PUSH1 0x20 CALLDATASIZE PUSH1 0x3 NOT ADD SLT PUSH2 0x46A JUMPI PUSH1 0x4 CALLDATALOAD PUSH2 0x116B DUP2 PUSH2 0x151B JUMP JUMPDEST POP PUSH0 MSTORE PUSH1 0x4 PUSH1 0x20 MSTORE PUSH1 0x20 PUSH1 0x1 DUP1 PUSH1 0xA0 SHL SUB PUSH1 0x40 PUSH0 KECCAK256 SLOAD AND PUSH1 0x40 MLOAD SWAP1 DUP2 MSTORE RETURN JUMPDEST CALLVALUE PUSH2 0x46A JUMPI PUSH0 CALLDATASIZE PUSH1 0x3 NOT ADD SLT PUSH2 0x46A JUMPI PUSH1 0x40 MLOAD PUSH0 DUP1 SLOAD PUSH2 0x11A9 DUP2 PUSH2 0x134A JUMP JUMPDEST DUP1 DUP5 MSTORE SWAP1 PUSH1 0x1 DUP2 AND SWAP1 DUP2 ISZERO PUSH2 0x6FB JUMPI POP PUSH1 0x1 EQ PUSH2 0x11D0 JUMPI PUSH2 0x466 DUP4 PUSH2 0x689 DUP2 DUP6 SUB DUP3 PUSH2 0x139D JUMP JUMPDEST PUSH0 DUP1 DUP1 MSTORE PUSH32 0x290DECD9548B62A8D60345A988386FC84BA6BC95484008F6362F93160EF3E563 SWAP4 SWAP3 POP SWAP1 JUMPDEST DUP1 DUP3 LT PUSH2 0x1212 JUMPI POP SWAP1 SWAP2 POP DUP2 ADD PUSH1 0x20 ADD PUSH2 0x689 PUSH2 0x679 JUMP JUMPDEST SWAP2 SWAP3 PUSH1 0x1 DUP2 PUSH1 0x20 SWAP3 SLOAD DUP4 DUP6 DUP9 ADD ADD MSTORE ADD SWAP2 ADD SWAP1 SWAP3 SWAP2 PUSH2 0x11FA JUMP JUMPDEST CALLVALUE PUSH2 0x46A JUMPI PUSH1 0x20 CALLDATASIZE PUSH1 0x3 NOT ADD SLT PUSH2 0x46A JUMPI PUSH1 0x4 CALLDATALOAD SWAP1 PUSH4 0xFFFFFFFF PUSH1 0xE0 SHL DUP3 AND DUP1 SWAP3 SUB PUSH2 0x46A JUMPI PUSH1 0x20 SWAP2 PUSH4 0x80AC58CD PUSH1 0xE0 SHL DUP2 EQ SWAP1 DUP2 ISZERO PUSH2 0x1286 JUMPI JUMPDEST DUP2 ISZERO PUSH2 0x1275 JUMPI JUMPDEST POP ISZERO ISZERO DUP2 MSTORE RETURN JUMPDEST PUSH4 0x1FFC9A7 PUSH1 0xE0 SHL EQ SWAP1 POP DUP4 PUSH2 0x126E JUMP JUMPDEST PUSH4 0x5B5E139F PUSH1 0xE0 SHL DUP2 EQ SWAP2 POP PUSH2 0x1267 JUMP JUMPDEST DUP1 MLOAD DUP1 DUP4 MSTORE PUSH1 0x20 SWAP3 SWAP2 DUP2 SWAP1 DUP5 ADD DUP5 DUP5 ADD MCOPY PUSH0 DUP3 DUP3 ADD DUP5 ADD MSTORE PUSH1 0x1F ADD PUSH1 0x1F NOT AND ADD ADD SWAP1 JUMP JUMPDEST PUSH1 0x4 CALLDATALOAD SWAP1 PUSH1 0x1 PUSH1 0x1 PUSH1 0xA0 SHL SUB DUP3 AND DUP3 SUB PUSH2 0x46A JUMPI JUMP JUMPDEST PUSH1 0x24 CALLDATALOAD SWAP1 PUSH1 0x1 PUSH1 0x1 PUSH1 0xA0 SHL SUB DUP3 AND DUP3 SUB PUSH2 0x46A JUMPI JUMP JUMPDEST PUSH1 0x60 SWAP1 PUSH1 0x3 NOT ADD SLT PUSH2 0x46A JUMPI PUSH1 0x4 CALLDATALOAD PUSH1 0x1 PUSH1 0x1 PUSH1 0xA0 SHL SUB DUP2 AND DUP2 SUB PUSH2 0x46A JUMPI SWAP1 PUSH1 0x24 CALLDATALOAD PUSH1 0x1 PUSH1 0x1 PUSH1 0xA0 SHL SUB DUP2 AND DUP2 SUB PUSH2 0x46A JUMPI SWAP1 PUSH1 0x44 CALLDATALOAD SWAP1 JUMP JUMPDEST DUP1 SLOAD DUP3 LT ISZERO PUSH2 0x1336 JUMPI PUSH0 MSTORE PUSH1 0x20 PUSH0 KECCAK256 ADD SWAP1 PUSH0 SWAP1 JUMP JUMPDEST PUSH4 0x4E487B71 PUSH1 0xE0 SHL PUSH0 MSTORE PUSH1 0x32 PUSH1 0x4 MSTORE PUSH1 0x24 PUSH0 REVERT JUMPDEST SWAP1 PUSH1 0x1 DUP3 DUP2 SHR SWAP3 AND DUP1 ISZERO PUSH2 0x1378 JUMPI JUMPDEST PUSH1 0x20 DUP4 LT EQ PUSH2 0x1364 JUMPI JUMP JUMPDEST PUSH4 0x4E487B71 PUSH1 0xE0 SHL PUSH0 MSTORE PUSH1 0x22 PUSH1 0x4 MSTORE PUSH1 0x24 PUSH0 REVERT JUMPDEST SWAP2 PUSH1 0x7F AND SWAP2 PUSH2 0x1359 JUMP JUMPDEST PUSH1 0xA0 DUP2 ADD SWAP1 DUP2 LT PUSH1 0x1 PUSH1 0x1 PUSH1 0x40 SHL SUB DUP3 GT OR PUSH2 0xBC3 JUMPI PUSH1 0x40 MSTORE JUMP JUMPDEST SWAP1 PUSH1 0x1F DUP1 NOT SWAP2 ADD AND DUP2 ADD SWAP1 DUP2 LT PUSH1 0x1 PUSH1 0x1 PUSH1 0x40 SHL SUB DUP3 GT OR PUSH2 0xBC3 JUMPI PUSH1 0x40 MSTORE JUMP JUMPDEST SWAP1 PUSH1 0x40 MLOAD SWAP2 DUP3 PUSH0 DUP3 SLOAD SWAP3 PUSH2 0x13D1 DUP5 PUSH2 0x134A JUMP JUMPDEST DUP1 DUP5 MSTORE SWAP4 PUSH1 0x1 DUP2 AND SWAP1 DUP2 ISZERO PUSH2 0x143C JUMPI POP PUSH1 0x1 EQ PUSH2 0x13F8 JUMPI JUMPDEST POP PUSH2 0x13F6 SWAP3 POP SUB DUP4 PUSH2 0x139D JUMP JUMPDEST JUMP JUMPDEST SWAP1 POP PUSH0 SWAP3 SWAP2 SWAP3 MSTORE PUSH1 0x20 PUSH0 KECCAK256 SWAP1 PUSH0 SWAP2 JUMPDEST DUP2 DUP4 LT PUSH2 0x1420 JUMPI POP POP SWAP1 PUSH1 0x20 PUSH2 0x13F6 SWAP3 DUP3 ADD ADD PUSH0 PUSH2 0x13E9 JUMP JUMPDEST PUSH1 0x20 SWAP2 SWAP4 POP DUP1 PUSH1 0x1 SWAP2 SLOAD DUP4 DUP6 DUP10 ADD ADD MSTORE ADD SWAP2 ADD SWAP1 SWAP2 DUP5 SWAP3 PUSH2 0x1407 JUMP JUMPDEST SWAP1 POP PUSH1 0x20 SWAP3 POP PUSH2 0x13F6 SWAP5 SWAP2 POP PUSH1 0xFF NOT AND DUP3 DUP5 ADD MSTORE ISZERO ISZERO PUSH1 0x5 SHL DUP3 ADD ADD PUSH0 PUSH2 0x13E9 JUMP JUMPDEST SWAP2 DUP2 PUSH1 0x1F DUP5 ADD SLT ISZERO PUSH2 0x46A JUMPI DUP3 CALLDATALOAD SWAP2 PUSH1 0x1 PUSH1 0x1 PUSH1 0x40 SHL SUB DUP4 GT PUSH2 0x46A JUMPI PUSH1 0x20 DUP4 DUP2 DUP7 ADD SWAP6 ADD ADD GT PUSH2 0x46A JUMPI JUMP JUMPDEST SWAP3 SWAP2 SWAP3 PUSH1 0x1 PUSH1 0x1 PUSH1 0x40 SHL SUB DUP3 GT PUSH2 0xBC3 JUMPI PUSH1 0x40 MLOAD SWAP2 PUSH2 0x14B4 PUSH1 0x1F DUP3 ADD PUSH1 0x1F NOT AND PUSH1 0x20 ADD DUP5 PUSH2 0x139D JUMP JUMPDEST DUP3 SWAP5 DUP2 DUP5 MSTORE DUP2 DUP4 ADD GT PUSH2 0x46A JUMPI DUP3 DUP2 PUSH1 0x20 SWAP4 DUP5 PUSH0 SWAP7 ADD CALLDATACOPY ADD ADD MSTORE JUMP JUMPDEST SWAP1 DUP1 PUSH1 0x20 SWAP4 SWAP3 DUP2 DUP5 MSTORE DUP5 DUP5 ADD CALLDATACOPY PUSH0 DUP3 DUP3 ADD DUP5 ADD MSTORE PUSH1 0x1F ADD PUSH1 0x1F NOT AND ADD ADD SWAP1 JUMP JUMPDEST PUSH1 0x1 PUSH1 0x1 PUSH1 0x40 SHL SUB DUP2 GT PUSH2 0xBC3 JUMPI PUSH1 0x5 SHL PUSH1 0x20 ADD SWAP1 JUMP JUMPDEST DUP1 MLOAD DUP3 LT ISZERO PUSH2 0x1336 JUMPI PUSH1 0x20 SWAP2 PUSH1 0x5 SHL ADD ADD SWAP1 JUMP JUMPDEST PUSH0 DUP2 DUP2 MSTORE PUSH1 0x2 PUSH1 0x20 MSTORE PUSH1 0x40 SWAP1 KECCAK256 SLOAD PUSH1 0x1 PUSH1 0x1 PUSH1 0xA0 SHL SUB AND SWAP1 DUP2 ISZERO PUSH2 0x153D JUMPI POP SWAP1 JUMP JUMPDEST PUSH4 0x7E273289 PUSH1 0xE0 SHL PUSH0 MSTORE PUSH1 0x4 MSTORE PUSH1 0x24 PUSH0 REVERT JUMPDEST PUSH1 0x6 SLOAD PUSH1 0x1 PUSH1 0x1 PUSH1 0xA0 SHL SUB AND CALLER SUB PUSH2 0x1563 JUMPI JUMP JUMPDEST PUSH4 0x118CDAA7 PUSH1 0xE0 SHL PUSH0 MSTORE CALLER PUSH1 0x4 MSTORE PUSH1 0x24 PUSH0 REVERT INVALID LOG2 PUSH5 0x6970667358 0x22 SLT KECCAK256 MOD 0xB2 PUSH12 0x295D052D13CDF80D6552BC1E 0xD2 0xD0 MOD PUSH0 DUP16 DUP13 0xAD MSIZE 0xC6 0x22 0xE3 0xBB TSTORE 0xEE SWAP14 SWAP8 0xA5 PUSH5 0x736F6C6343 STOP ADDMOD BYTE STOP CALLER "},"methodIdentifiers":{"achievements(uint256)":"27aed72e","approve(address,uint256)":"095ea7b3","balanceOf(address)":"70a08231","getApproved(uint256)":"081812fc","getUserAchievements(address)":"f09153c4","hasAchievement(address,string)":"b9a626ed","isApprovedForAll(address,address)":"e985e9c5","mint(address,string,string,string)":"4a0706be","name()":"06fdde03","owner()":"8da5cb5b","ownerOf(uint256)":"6352211e","renounceOwnership()":"715018a6","safeTransferFrom(address,address,uint256)":"42842e0e","safeTransferFrom(address,address,uint256,bytes)":"b88d4fde","setApprovalForAll(address,bool)":"a22cb465","supportsInterface(bytes4)":"01ffc9a7","symbol()":"95d89b41","tokenURI(uint256)":"c87b56dd","transferFrom(address,address,uint256)":"23b872dd","transferOwnership(address)":"f2fde38b","userAchievements(address,uint256)":"24548c60"}}}}}