{"project/contracts/AtlasIdentityRegistry.sol":{"AtlasIdentityRegistry":{"abi":[{"inputs":[],"stateMutability":"nonpayable","type":"constructor"},{"inputs":[],"name":"ECDSAInvalidSignature","type":"error"},{"inputs":[{"internalType":"uint256","name":"length","type":"uint256"}],"name":"ECDSAInvalidSignatureLength","type":"error"},{"inputs":[{"internalType":"bytes32","name":"s","type":"bytes32"}],"name":"ECDSAInvalidSignatureS","type":"error"},{"inputs":[{"internalType":"address","name":"sender","type":"address"},{"internalType":"uint256","name":"tokenId","type":"uint256"},{"internalType":"address","name":"owner","type":"address"}],"name":"ERC721IncorrectOwner","type":"error"},{"inputs":[{"internalType":"address","name":"operator","type":"address"},{"internalType":"uint256","name":"tokenId","type":"uint256"}],"name":"ERC721InsufficientApproval","type":"error"},{"inputs":[{"internalType":"address","name":"approver","type":"address"}],"name":"ERC721InvalidApprover","type":"error"},{"inputs":[{"internalType":"address","name":"operator","type":"address"}],"name":"ERC721InvalidOperator","type":"error"},{"inputs":[{"internalType":"address","name":"owner","type":"address"}],"name":"ERC721InvalidOwner","type":"error"},{"inputs":[{"internalType":"address","name":"receiver","type":"address"}],"name":"ERC721InvalidReceiver","type":"error"},{"inputs":[{"internalType":"address","name":"sender","type":"address"}],"name":"ERC721InvalidSender","type":"error"},{"inputs":[{"internalType":"uint256","name":"tokenId","type":"uint256"}],"name":"ERC721NonexistentToken","type":"error"},{"inputs":[{"internalType":"address","name":"owner","type":"address"}],"name":"OwnableInvalidOwner","type":"error"},{"inputs":[{"internalType":"address","name":"account","type":"address"}],"name":"OwnableUnauthorizedAccount","type":"error"},{"anonymous":false,"inputs":[{"indexed":true,"internalType":"address","name":"owner","type":"address"},{"indexed":true,"internalType":"address","name":"approved","type":"address"},{"indexed":true,"internalType":"uint256","name":"tokenId","type":"uint256"}],"name":"Approval","type":"event"},{"anonymous":false,"inputs":[{"indexed":true,"internalType":"address","name":"owner","type":"address"},{"indexed":true,"internalType":"address","name":"operator","type":"address"},{"indexed":false,"internalType":"bool","name":"approved","type":"bool"}],"name":"ApprovalForAll","type":"event"},{"anonymous":false,"inputs":[{"indexed":true,"internalType":"uint256","name":"agentId","type":"uint256"},{"indexed":false,"internalType":"string","name":"decisionType","type":"string"},{"indexed":false,"internalType":"bytes32","name":"payloadHash","type":"bytes32"},{"indexed":true,"internalType":"uint256","name":"decisionIndex","type":"uint256"}],"name":"DecisionRecorded","type":"event"},{"anonymous":false,"inputs":[{"indexed":true,"internalType":"uint256","name":"agentId","type":"uint256"},{"indexed":true,"internalType":"string","name":"indexedMetadataKey","type":"string"},{"indexed":false,"internalType":"string","name":"metadataKey","type":"string"},{"indexed":false,"internalType":"bytes","name":"metadataValue","type":"bytes"}],"name":"MetadataSet","type":"event"},{"anonymous":false,"inputs":[{"indexed":true,"internalType":"address","name":"previousOwner","type":"address"},{"indexed":true,"internalType":"address","name":"newOwner","type":"address"}],"name":"OwnershipTransferred","type":"event"},{"anonymous":false,"inputs":[{"indexed":true,"internalType":"uint256","name":"agentId","type":"uint256"},{"indexed":false,"internalType":"string","name":"agentURI","type":"string"},{"indexed":true,"internalType":"address","name":"owner","type":"address"}],"name":"Registered","type":"event"},{"anonymous":false,"inputs":[{"indexed":true,"internalType":"address","name":"from","type":"address"},{"indexed":true,"internalType":"address","name":"to","type":"address"},{"indexed":true,"internalType":"uint256","name":"tokenId","type":"uint256"}],"name":"Transfer","type":"event"},{"anonymous":false,"inputs":[{"indexed":true,"internalType":"uint256","name":"agentId","type":"uint256"},{"indexed":false,"internalType":"string","name":"newURI","type":"string"},{"indexed":true,"internalType":"address","name":"updatedBy","type":"address"}],"name":"URIUpdated","type":"event"},{"inputs":[{"internalType":"address","name":"to","type":"address"},{"internalType":"uint256","name":"tokenId","type":"uint256"}],"name":"approve","outputs":[],"stateMutability":"nonpayable","type":"function"},{"inputs":[{"internalType":"address","name":"owner","type":"address"}],"name":"balanceOf","outputs":[{"internalType":"uint256","name":"","type":"uint256"}],"stateMutability":"view","type":"function"},{"inputs":[{"internalType":"uint256","name":"agentId","type":"uint256"}],"name":"getAgentWallet","outputs":[{"internalType":"address","name":"","type":"address"}],"stateMutability":"view","type":"function"},{"inputs":[{"internalType":"uint256","name":"tokenId","type":"uint256"}],"name":"getApproved","outputs":[{"internalType":"address","name":"","type":"address"}],"stateMutability":"view","type":"function"},{"inputs":[{"internalType":"uint256","name":"agentId","type":"uint256"},{"internalType":"uint256","name":"index","type":"uint256"}],"name":"getDecision","outputs":[{"components":[{"internalType":"uint256","name":"agentId","type":"uint256"},{"internalType":"string","name":"decisionType","type":"string"},{"internalType":"string","name":"payload","type":"string"},{"internalType":"bytes32","name":"payloadHash","type":"bytes32"},{"internalType":"uint256","name":"timestamp","type":"uint256"},{"internalType":"address","name":"recorder","type":"address"}],"internalType":"struct AtlasIdentityRegistry.Decision","name":"","type":"tuple"}],"stateMutability":"view","type":"function"},{"inputs":[{"internalType":"uint256","name":"agentId","type":"uint256"}],"name":"getDecisionCount","outputs":[{"internalType":"uint256","name":"","type":"uint256"}],"stateMutability":"view","type":"function"},{"inputs":[{"internalType":"uint256","name":"agentId","type":"uint256"},{"internalType":"string","name":"metadataKey","type":"string"}],"name":"getMetadata","outputs":[{"internalType":"bytes","name":"","type":"bytes"}],"stateMutability":"view","type":"function"},{"inputs":[{"internalType":"uint256","name":"agentId","type":"uint256"},{"internalType":"uint256","name":"count","type":"uint256"}],"name":"getRecentDecisions","outputs":[{"components":[{"internalType":"uint256","name":"agentId","type":"uint256"},{"internalType":"string","name":"decisionType","type":"string"},{"internalType":"string","name":"payload","type":"string"},{"internalType":"bytes32","name":"payloadHash","type":"bytes32"},{"internalType":"uint256","name":"timestamp","type":"uint256"},{"internalType":"address","name":"recorder","type":"address"}],"internalType":"struct AtlasIdentityRegistry.Decision[]","name":"","type":"tuple[]"}],"stateMutability":"view","type":"function"},{"inputs":[{"internalType":"address","name":"owner","type":"address"},{"internalType":"address","name":"operator","type":"address"}],"name":"isApprovedForAll","outputs":[{"internalType":"bool","name":"","type":"bool"}],"stateMutability":"view","type":"function"},{"inputs":[],"name":"name","outputs":[{"internalType":"string","name":"","type":"string"}],"stateMutability":"view","type":"function"},{"inputs":[],"name":"owner","outputs":[{"internalType":"address","name":"","type":"address"}],"stateMutability":"view","type":"function"},{"inputs":[{"internalType":"uint256","name":"tokenId","type":"uint256"}],"name":"ownerOf","outputs":[{"internalType":"address","name":"","type":"address"}],"stateMutability":"view","type":"function"},{"inputs":[{"internalType":"uint256","name":"agentId","type":"uint256"},{"internalType":"string","name":"decisionType","type":"string"},{"internalType":"string","name":"payload","type":"string"}],"name":"recordDecision","outputs":[{"internalType":"uint256","name":"decisionIndex","type":"uint256"}],"stateMutability":"nonpayable","type":"function"},{"inputs":[],"name":"register","outputs":[{"internalType":"uint256","name":"agentId","type":"uint256"}],"stateMutability":"nonpayable","type":"function"},{"inputs":[{"internalType":"string","name":"agentURI","type":"string"},{"components":[{"internalType":"string","name":"metadataKey","type":"string"},{"internalType":"bytes","name":"metadataValue","type":"bytes"}],"internalType":"struct AtlasIdentityRegistry.MetadataEntry[]","name":"metadata","type":"tuple[]"}],"name":"register","outputs":[{"internalType":"uint256","name":"agentId","type":"uint256"}],"stateMutability":"nonpayable","type":"function"},{"inputs":[{"internalType":"string","name":"agentURI","type":"string"}],"name":"register","outputs":[{"internalType":"uint256","name":"agentId","type":"uint256"}],"stateMutability":"nonpayable","type":"function"},{"inputs":[],"name":"renounceOwnership","outputs":[],"stateMutability":"nonpayable","type":"function"},{"inputs":[{"internalType":"address","name":"from","type":"address"},{"internalType":"address","name":"to","type":"address"},{"internalType":"uint256","name":"tokenId","type":"uint256"}],"name":"safeTransferFrom","outputs":[],"stateMutability":"nonpayable","type":"function"},{"inputs":[{"internalType":"address","name":"from","type":"address"},{"internalType":"address","name":"to","type":"address"},{"internalType":"uint256","name":"tokenId","type":"uint256"},{"internalType":"bytes","name":"data","type":"bytes"}],"name":"safeTransferFrom","outputs":[],"stateMutability":"nonpayable","type":"function"},{"inputs":[{"internalType":"uint256","name":"agentId","type":"uint256"},{"internalType":"string","name":"newURI","type":"string"}],"name":"setAgentURI","outputs":[],"stateMutability":"nonpayable","type":"function"},{"inputs":[{"internalType":"uint256","name":"agentId","type":"uint256"},{"internalType":"address","name":"newWallet","type":"address"},{"internalType":"uint256","name":"deadline","type":"uint256"},{"internalType":"bytes","name":"signature","type":"bytes"}],"name":"setAgentWallet","outputs":[],"stateMutability":"nonpayable","type":"function"},{"inputs":[{"internalType":"address","name":"operator","type":"address"},{"internalType":"bool","name":"approved","type":"bool"}],"name":"setApprovalForAll","outputs":[],"stateMutability":"nonpayable","type":"function"},{"inputs":[{"internalType":"uint256","name":"agentId","type":"uint256"},{"internalType":"string","name":"metadataKey","type":"string"},{"internalType":"bytes","name":"metadataValue","type":"bytes"}],"name":"setMetadata","outputs":[],"stateMutability":"nonpayable","type":"function"},{"inputs":[{"internalType":"bytes4","name":"interfaceId","type":"bytes4"}],"name":"supportsInterface","outputs":[{"internalType":"bool","name":"","type":"bool"}],"stateMutability":"view","type":"function"},{"inputs":[],"name":"symbol","outputs":[{"internalType":"string","name":"","type":"string"}],"stateMutability":"view","type":"function"},{"inputs":[{"internalType":"uint256","name":"agentId","type":"uint256"}],"name":"tokenURI","outputs":[{"internalType":"string","name":"","type":"string"}],"stateMutability":"view","type":"function"},{"inputs":[],"name":"totalDecisions","outputs":[{"internalType":"uint256","name":"","type":"uint256"}],"stateMutability":"view","type":"function"},{"inputs":[{"internalType":"address","name":"from","type":"address"},{"internalType":"address","name":"to","type":"address"},{"internalType":"uint256","name":"tokenId","type":"uint256"}],"name":"transferFrom","outputs":[],"stateMutability":"nonpayable","type":"function"},{"inputs":[{"internalType":"address","name":"newOwner","type":"address"}],"name":"transferOwnership","outputs":[],"stateMutability":"nonpayable","type":"function"},{"inputs":[{"internalType":"uint256","name":"agentId","type":"uint256"}],"name":"unsetAgentWallet","outputs":[],"stateMutability":"nonpayable","type":"function"}],"evm":{"bytecode":{"linkReferences":{},"object":"60806040523461038b57604080519081016001600160401b038111828210176102a1576040908152601482527f41746c6173204167656e74204964656e74697479000000000000000000000000602083015280519081016001600160401b038111828210176102a157604052600b81526a1055131054cb5051d1539560aa1b602082015281516001600160401b0381116102a1575f54600181811c91168015610381575b602082101461028357601f811161031f575b50602092601f82116001146102c057928192935f926102b5575b50508160011b915f199060031b1c1916175f555b80516001600160401b0381116102a157600154600181811c91168015610297575b602082101461028357601f8111610220575b50602091601f82116001146101c0579181925f926101b5575b50508160011b915f199060031b1c1916176001555b33156101a25760068054336001600160a01b03198216811790925560405191906001600160a01b03167f8be0079c531659141344cd1fd0a4f28419497f9722a3daafe3b4186f6b6457e05f80a3600160075561228a90816103908239f35b631e4fbdf760e01b5f525f60045260245ffd5b015190505f8061012f565b601f1982169260015f52805f20915f5b858110610208575083600195106101f0575b505050811b01600155610144565b01515f1960f88460031b161c191690555f80806101e2565b919260206001819286850151815501940192016101d0565b60015f527fb10e2d527612073b26eecdfd717e6a320cf44b4afac2b0732d9fcbe2b7fa0cf6601f830160051c81019160208410610279575b601f0160051c01905b81811061026e5750610116565b5f8155600101610261565b9091508190610258565b634e487b7160e01b5f52602260045260245ffd5b90607f1690610104565b634e487b7160e01b5f52604160045260245ffd5b015190505f806100cf565b601f198216935f8052805f20915f5b86811061030757508360019596106102ef575b505050811b015f556100e3565b01515f1960f88460031b161c191690555f80806102e2565b919260206001819286850151815501940192016102cf565b5f80527f290decd9548b62a8d60345a988386fc84ba6bc95484008f6362f93160ef3e563601f830160051c81019160208410610377575b601f0160051c01905b81811061036c57506100b5565b5f815560010161035f565b9091508190610356565b90607f16906100a3565b5f80fdfe6080806040526004361015610012575f80fd5b5f3560e01c9081623395091461182d5750806301ffc9a7146117bf578063036aa50b1461177a57806306fdde03146116d8578063081812fc1461169c578063095ea7b3146115b25780630af28bd3146114455780630c96a61a1461142857806312593b82146113fe5780631aa3a008146113ac57806323b872dd146113955780632d1ef5ae146112065780633c3a012414610e2d5780633fddcf1914610df057806342842e0e14610dc7578063466648da14610be45780636352211e14610bb457806370a0823114610b63578063715018a614610b08578063839c317c146109ba5780638da5cb5b146109925780638ea422861461065b57806395d89b4114610591578063a22cb465146104dd578063b88d4fde1461048d578063c87b56dd1461044f578063cb4799f2146103c4578063e985e9c51461036d578063f2c298be146101ef5763f2fde38b14610165575f80fd5b346101eb5760203660031901126101eb5761017e6118f0565b6101866120d2565b6001600160a01b031680156101d857600680546001600160a01b0319811683179091556001600160a01b03167f8be0079c531659141344cd1fd0a4f28419497f9722a3daafe3b4186f6b6457e05f80a3005b631e4fbdf760e01b5f525f60045260245ffd5b5f80fd5b346101eb5760203660031901126101eb576004356001600160401b0381116101eb5761021f90369060040161191c565b6007549061022c82611c5f565b6007556102398233611ffb565b815f52600860205260405f206001600160401b038211610359576020938161026c84610266879554611a8d565b83611bf0565b835f601f82116001146102d957916102ac825f8051602061223583398151915295936102c3955f916102ce575b508160011b915f199060031b1c19161790565b90555b604051918291888352339689840191611c3f565b0390a3604051908152f35b90508401358b610299565b9392919050601f19851693815f52875f2090865f5b87811061033c5750906102c3949392915f80516020612235833981519152969710610323575b5050600186811b0190556102af565b8301355f19600389901b60f8161c191690558880610314565b858301358455899650600190930192918a01918891508a016102ee565b634e487b7160e01b5f52604160045260245ffd5b346101eb5760403660031901126101eb576103866118f0565b61038e611906565b9060018060a01b03165f52600560205260405f209060018060a01b03165f52602052602060ff60405f2054166040519015158152f35b346101eb5760403660031901126101eb576024356001600160401b0381116101eb5761043061043760208061040061044b953690600401611a10565b6004355f526009825260405f20604051938285935191829101845e82019081520301902060405192838092611ac5565b038261199e565b604051918291602083526020830190611871565b0390f35b346101eb5760203660031901126101eb5760043561046c81611fc7565b505f52600860205261044b61043061043760405f2060405192838092611ac5565b346101eb5760803660031901126101eb576104a66118f0565b6104ae611906565b606435916001600160401b0383116101eb576104d16104db933690600401611a10565b9160443591611e87565b005b346101eb5760403660031901126101eb576104f66118f0565b602435908115158092036101eb57331561057e576001600160a01b031690811561056b57335f52600560205260405f20825f5260205260405f2060ff1981541660ff83161790556040519081527f17307eab39ab6107e8899845ad3d59bd9653f200f220920489ca2b5937696c3160203392a3005b50630b61174360e31b5f5260045260245ffd5b63a9fbf51f60e01b5f525f60045260245ffd5b346101eb575f3660031901126101eb576040515f6001546105b181611a8d565b808452906001811690811561063757506001146105d9575b61044b836104378185038261199e565b60015f9081527fb10e2d527612073b26eecdfd717e6a320cf44b4afac2b0732d9fcbe2b7fa0cf6939250905b80821061061d575090915081016020016104376105c9565b919260018160209254838588010152019101909291610605565b60ff191660208086019190915291151560051b8401909101915061043790506105c9565b346101eb5760403660031901126101eb576004356001600160401b0381116101eb5761068b90369060040161191c565b602435906001600160401b0382116101eb57366023830112156101eb5781600401356001600160401b0381116101eb576024830192602436918360051b0101116101eb57600754926106dc84611c5f565b6007556106e98433611ffb565b835f52600860205260405f206001600160401b03841161035957610711846102668354611a8d565b5f84601f811160011461092f578061073c925f9161092457508160011b915f199060031b1c19161790565b90555b5f5b82811061077457505050815f805160206122358339815191526102c3602095604051918291888352339689840191611c3f565b61078c610782828585611e33565b6020810190611e55565b865f52600960205260405f2060206107ae6107a8868989611e33565b80611e55565b92836040519485938437820190815203019020916001600160401b038211610359576107e4826107de8554611a8d565b85611bf0565b5f90601f83116001146108bc5791806108179260019695945f926108b1575b50508160011b915f199060031b1c19161790565b90555b7f2c149ed548c6d2993cd73efe187df6eccabe4538091b33adbd25fafdb8a1468b8661084a6107a8848888611e33565b92906108a861085d6107a8878b8b611e33565b91909261086e610782898d8d611e33565b97909181604051928392833781015f81520390209661089a604051958695604087526040870191611c3f565b918483036020860152611c3f565b0390a301610741565b013590508b80610803565b601f19831691845f5260205f20925f5b81811061090c5750916001969594929183889593106108f3575b505050811b01905561081a565b01355f19600384901b60f8161c191690558a80806108e6565b919360206001819287870135815501950192016108cc565b905088013589610299565b50601f19851690825f528560205f20925f5b81811061097757501061095e575b5050600184811b01905561073f565b8701355f19600387901b60f8161c19169055868061094f565b8a840135855560019094019360209384019389935001610941565b346101eb575f3660031901126101eb576006546040516001600160a01b039091168152602090f35b346101eb576109c83661185b565b90805f52600c60205260405f2054918281115f14610b025750815b6109ec83611e08565b926109fa604051948561199e565b808452601f19610a0982611e08565b015f5b818110610aeb5750505f5b818110610a8557846040518091602082016020835281518091526040830190602060408260051b8601019301915f905b828210610a5657505050500390f35b91936001919395506020610a758192603f198a82030186528851611895565b9601920192018594939192610a47565b835f52600c60205260405f2090828403848111610ad757818101809111610ad757610ab5610abb91600194611a60565b50611b46565b610ac58288611e1f565b52610ad08187611e1f565b5001610a17565b634e487b7160e01b5f52601160045260245ffd5b602090610af6611a2e565b82828901015201610a0c565b916109e3565b346101eb575f3660031901126101eb57610b206120d2565b600680546001600160a01b031981169091555f906001600160a01b03167f8be0079c531659141344cd1fd0a4f28419497f9722a3daafe3b4186f6b6457e08280a3005b346101eb5760203660031901126101eb576001600160a01b03610b846118f0565b168015610ba1575f526003602052602060405f2054604051908152f35b6322718ad960e21b5f525f60045260245ffd5b346101eb5760203660031901126101eb576020610bd2600435611fc7565b6040516001600160a01b039091168152f35b346101eb5760603660031901126101eb576004356024356001600160401b0381116101eb57610c17903690600401611a10565b906044356001600160401b0381116101eb57610c37903690600401611a10565b91610c54610c4483611fc7565b6001600160a01b03163314611bb2565b815f52600960205260405f20604051602081845193828601948086845e82019081520301902084516001600160401b03811161035957610c9e81610c988454611a8d565b84611bf0565b6020601f8211600114610d3d57927f2c149ed548c6d2993cd73efe187df6eccabe4538091b33adbd25fafdb8a1468b9492610cf483610d2d94610d1f975f91610d3257508160011b915f199060031b1c19161790565b90555b604051809184518091835e81015f815203902095604051938493604085526040850190611871565b908382036020850152611871565b0390a3005b90508a01518b610299565b601f19821690835f52805f20915f5b818110610daf575083610d1f96937f2c149ed548c6d2993cd73efe187df6eccabe4538091b33adbd25fafdb8a1468b989693610d2d9660019410610d97575b5050811b019055610cf7565b8b01515f1960f88460031b161c191690558a80610d8b565b9192602060018192868d015181550194019201610d4c565b346101eb576104db610dd836611949565b9060405192610de860208561199e565b5f8452611e87565b346101eb5760203660031901126101eb57600435610e10610c4482611fc7565b5f908152600a6020526040902080546001600160a01b0319169055005b346101eb5760603660031901126101eb576004356024356001600160401b0381116101eb57610e6090369060040161191c565b6044356001600160401b0381116101eb57610e7f90369060040161191c565b939091610e8b82611fc7565b6001600160a01b0316331480156111e7575b156111b157604051602081019086858337610ecb6020828981015f838201520301601f19810183528261199e565b5190205f838152600c602052604090819020805491519195610f0d90610ef084611983565b868452610efe36878b6119da565b99602085019a8b5236916119da565b976040830198895260608301848152608084019142835260a085019333855280546801000000000000000081101561035957610f4e91600182018155611a60565b95909561119e5751855551805160018601916001600160401b03821161035957610f7c826107de8554611a8d565b602090601f831160011461113b57610faa92915f91836111305750508160011b915f199060031b1c19161790565b90555b600284019951998a516001600160401b0381116103595760209b610fd5826107de8554611a8d565b8c90601f83116001146110a15792611030837fc4494e6fc35818db2dda3e978f155382fb3e997aecc9ef19696722e239e763999b9997948e9f9b999694600598955f926110965750508160011b915f199060031b1c19161790565b90555b51600385015551600484015551910180546001600160a01b0319166001600160a01b0392909216919091179055600d5461106c90611c5f565b600d55611086604051938493604085526040850191611c3f565b90888301520390a3604051908152f35b015190505f80610803565b90601f19831691845f52815f20925f5b818110611118575093600596938e9f9b999693600193837fc4494e6fc35818db2dda3e978f155382fb3e997aecc9ef19696722e239e763999f9d9b9810611100575b505050811b019055611033565b01515f1960f88460031b161c191690555f80806110f3565b929360206001819287860151815501950193016110b1565b015190508e80610803565b90601f19831691845f52815f20925f5b818110611186575090846001959493921061116e575b505050811b019055610fad565b01515f1960f88460031b161c191690558d8080611161565b9293602060018192878601518155019501930161114b565b634e487b7160e01b5f525f60045260245ffd5b60405162461bcd60e51b815260206004820152600e60248201526d139bdd08185d5d1a1bdc9a5e995960921b6044820152606490fd5b505f828152600a60205260409020546001600160a01b03163314610e9d565b346101eb5760803660031901126101eb57600435611222611906565b906044356064356001600160401b0381116101eb5761124590369060040161191c565b611251610c4485611fc7565b82421161135c576112ca6112d0926112d99460405160208101918883526001600160601b03198a60601b16604083015260548201526054815261129560748261199e565b5190207f19457468657265756d205369676e6564204d6573736167653a0a3332000000005f52601c52603c5f209236916119da565b906120f9565b90929192612133565b6001600160a01b03838116911603611317575f908152600a6020526040902080546001600160a01b0319166001600160a01b03909216919091179055005b60405162461bcd60e51b815260206004820152601860248201527f496e76616c69642077616c6c6574207369676e617475726500000000000000006044820152606490fd5b60405162461bcd60e51b815260206004820152601160248201527014da59db985d1d5c9948195e1c1a5c9959607a1b6044820152606490fd5b346101eb576104db6113a636611949565b91611c6d565b346101eb575f3660031901126101eb5760206007546113ca81611c5f565b6007556113d78133611ffb565b6040518281525f83820152815f8051602061223583398151915260403393a3604051908152f35b346101eb5760203660031901126101eb576004355f52600c602052602060405f2054604051908152f35b346101eb575f3660031901126101eb576020600d54604051908152f35b346101eb5760403660031901126101eb576004356024356001600160401b0381116101eb5761147890369060040161191c565b9190611486610c4483611fc7565b815f52600860205260405f206001600160401b038411610359576114ae846102668354611a8d565b835f601f82116001146115245791611500827f3a2c7fffc2cba7582c690e3b82c453ea02a308326a98a3ad7576c606336409fb9593610d2d955f9161151957508160011b915f199060031b1c19161790565b90555b6040519182916020835233966020840191611c3f565b905084013589610299565b5f8381526020812092508690601f198216905b8181106115975750917f3a2c7fffc2cba7582c690e3b82c453ea02a308326a98a3ad7576c606336409fb959391610d2d95931061157e575b5050600186811b019055611503565b8301355f19600389901b60f8161c19169055868061156f565b86840135855560019094019360209384019389935001611537565b346101eb5760403660031901126101eb576115cb6118f0565b6024356115d781611fc7565b33151580611689575b8061165c575b6116495781906001600160a01b0384811691167f8c5be1e5ebec7d5bd14f71427d1e84f3dd0314c0f7b2291e5b200ac8c7c3b9255f80a45f90815260046020526040902080546001600160a01b0319166001600160a01b03909216919091179055005b63a9fbf51f60e01b5f523360045260245ffd5b506001600160a01b0381165f90815260056020908152604080832033845290915290205460ff16156115e6565b506001600160a01b0381163314156115e0565b346101eb5760203660031901126101eb576004356116b981611fc7565b505f526004602052602060018060a01b0360405f205416604051908152f35b346101eb575f3660031901126101eb576040515f80546116f781611a8d565b8084529060018116908115610637575060011461171e5761044b836104378185038261199e565b5f8080527f290decd9548b62a8d60345a988386fc84ba6bc95484008f6362f93160ef3e563939250905b808210611760575090915081016020016104376105c9565b919260018160209254838588010152019101909291611748565b346101eb5761044b6117ab610ab56117913661185b565b9061179a611a2e565b505f52600c60205260405f20611a60565b604051918291602083526020830190611895565b346101eb5760203660031901126101eb5760043563ffffffff60e01b81168091036101eb576020906380ac58cd60e01b811490811561181c575b811561180b575b506040519015158152f35b6301ffc9a760e01b14905082611800565b635b5e139f60e01b811491506117f9565b346101eb5760203660031901126101eb576020906004355f52600a825260018060a01b0360405f2054168152f35b60409060031901126101eb576004359060243590565b805180835260209291819084018484015e5f828201840152601f01601f1916010190565b908151815260a06118ca6118b8602085015160c0602086015260c0850190611871565b60408501518482036040860152611871565b92606081015160608401526080810151608084015281600180821b039101511691015290565b600435906001600160a01b03821682036101eb57565b602435906001600160a01b03821682036101eb57565b9181601f840112156101eb578235916001600160401b0383116101eb57602083818601950101116101eb57565b60609060031901126101eb576004356001600160a01b03811681036101eb57906024356001600160a01b03811681036101eb579060443590565b60c081019081106001600160401b0382111761035957604052565b90601f801991011681019081106001600160401b0382111761035957604052565b6001600160401b03811161035957601f01601f191660200190565b9291926119e6826119bf565b916119f4604051938461199e565b8294818452818301116101eb578281602093845f960137010152565b9080601f830112156101eb57816020611a2b933591016119da565b90565b60405190611a3b82611983565b5f60a08382815260606020820152606060408201528260608201528260808201520152565b8054821015611a79575f52600660205f20910201905f90565b634e487b7160e01b5f52603260045260245ffd5b90600182811c92168015611abb575b6020831014611aa757565b634e487b7160e01b5f52602260045260245ffd5b91607f1691611a9c565b5f9291815491611ad483611a8d565b8083529260018116908115611b295750600114611af057505050565b5f9081526020812093945091925b838310611b0f575060209250010190565b600181602092949394548385870101520191019190611afe565b915050602093945060ff929192191683830152151560051b010190565b90604051611b5381611983565b60a0819380548352604051611b6f816104308160018601611ac5565b6020840152604051611b88816104308160028601611ac5565b60408401526003810154606084015260048101546080840152600501545f196001831b0116910152565b15611bb957565b60405162461bcd60e51b815260206004820152600f60248201526e2737ba1030b3b2b73a1037bbb732b960891b6044820152606490fd5b601f8211611bfd57505050565b5f5260205f20906020601f840160051c83019310611c35575b601f0160051c01905b818110611c2a575050565b5f8155600101611c1f565b9091508190611c16565b908060209392818452848401375f828201840152601f01601f1916010190565b5f198114610ad75760010190565b6001600160a01b0390911691908215611df5575f828152600260205260409020546001600160a01b031692829033151580611d60575b5084611d2d575b805f52600360205260405f2060018154019055815f52600260205260405f20816001600160601b0360a01b825416179055847fddf252ad1be2c89b69c2b068fc378daa952ba7f163c4a11628f55a4df523b3ef5f80a46001600160a01b0316808303611d1557505050565b6364283d7b60e01b5f5260045260245260445260645ffd5b5f82815260046020526040902080546001600160a01b0319169055845f52600360205260405f205f198154019055611caa565b90915080611da4575b15611d765782905f611ca3565b8284611d8e57637e27328960e01b5f5260045260245ffd5b63177e802f60e01b5f523360045260245260445ffd5b503384148015611dd3575b80611d6957505f838152600460205260409020546001600160a01b03163314611d69565b505f84815260056020908152604080832033845290915290205460ff16611daf565b633250574960e11b5f525f60045260245ffd5b6001600160401b0381116103595760051b60200190565b8051821015611a795760209160051b010190565b9190811015611a795760051b81013590603e19813603018212156101eb570190565b903590601e19813603018212156101eb57018035906001600160401b0382116101eb576020019181360383136101eb57565b9291611e94818386611c6d565b813b611ea1575b50505050565b604051630a85bd0160e11b81523360048201526001600160a01b0394851660248201526044810191909152608060648201529216919060209082908190611eec906084830190611871565b03815f865af15f9181611f82575b50611f4f57503d15611f48573d611f10816119bf565b90611f1e604051928361199e565b81523d5f602083013e5b80519081611f435782633250574960e11b5f5260045260245ffd5b602001fd5b6060611f28565b6001600160e01b03191663757a42ff60e11b01611f7057505f808080611e9b565b633250574960e11b5f5260045260245ffd5b9091506020813d602011611fbf575b81611f9e6020938361199e565b810103126101eb57516001600160e01b0319811681036101eb57905f611efa565b3d9150611f91565b5f818152600260205260409020546001600160a01b0316908115611fe9575090565b637e27328960e01b5f5260045260245ffd5b6001600160a01b0316908115611df5575f818152600260205260409020546001600160a01b0316801515929091908361209f575b805f52600360205260405f2060018154019055815f52600260205260405f20816001600160601b0360a01b825416179055827fddf252ad1be2c89b69c2b068fc378daa952ba7f163c4a11628f55a4df523b3ef5f80a45061208c57565b6339e3563760e11b5f525f60045260245ffd5b5f82815260046020526040902080546001600160a01b0319169055825f52600360205260405f205f19815401905561202f565b6006546001600160a01b031633036120e657565b63118cdaa760e01b5f523360045260245ffd5b8151919060418303612129576121229250602082015190606060408401519301515f1a906121a7565b9192909190565b50505f9160029190565b60048110156121935780612145575050565b6001810361215c5763f645eedf60e01b5f5260045ffd5b60028103612177575063fce698f760e01b5f5260045260245ffd5b6003146121815750565b6335e2f38360e21b5f5260045260245ffd5b634e487b7160e01b5f52602160045260245ffd5b91907f7fffffffffffffffffffffffffffffff5d576e7357a4501ddfe92f46681b20a08411612229579160209360809260ff5f9560405194855216868401526040830152606082015282805260015afa1561221e575f516001600160a01b0381161561221457905f905f90565b505f906001905f90565b6040513d5f823e3d90fd5b5050505f916003919056feca52e62c367d81bb2e328eb795f7c7ba24afb478408a26c0e201d155c449bc4aa2646970667358221220a7636783b0d8625cca9989d8ce093877f508a1f33986f0f0fa2236270d02f98464736f6c634300081a0033","opcodes":"PUSH1 0x80 PUSH1 0x40 MSTORE CALLVALUE PUSH2 0x38B JUMPI PUSH1 0x40 DUP1 MLOAD SWAP1 DUP2 ADD PUSH1 0x1 PUSH1 0x1 PUSH1 0x40 SHL SUB DUP2 GT DUP3 DUP3 LT OR PUSH2 0x2A1 JUMPI PUSH1 0x40 SWAP1 DUP2 MSTORE PUSH1 0x14 DUP3 MSTORE PUSH32 0x41746C6173204167656E74204964656E74697479000000000000000000000000 PUSH1 0x20 DUP4 ADD MSTORE DUP1 MLOAD SWAP1 DUP2 ADD PUSH1 0x1 PUSH1 0x1 PUSH1 0x40 SHL SUB DUP2 GT DUP3 DUP3 LT OR PUSH2 0x2A1 JUMPI PUSH1 0x40 MSTORE PUSH1 0xB DUP2 MSTORE PUSH11 0x1055131054CB5051D15395 PUSH1 0xAA SHL PUSH1 0x20 DUP3 ADD MSTORE DUP2 MLOAD PUSH1 0x1 PUSH1 0x1 PUSH1 0x40 SHL SUB DUP2 GT PUSH2 0x2A1 JUMPI PUSH0 SLOAD PUSH1 0x1 DUP2 DUP2 SHR SWAP2 AND DUP1 ISZERO PUSH2 0x381 JUMPI JUMPDEST PUSH1 0x20 DUP3 LT EQ PUSH2 0x283 JUMPI PUSH1 0x1F DUP2 GT PUSH2 0x31F JUMPI JUMPDEST POP PUSH1 0x20 SWAP3 PUSH1 0x1F DUP3 GT PUSH1 0x1 EQ PUSH2 0x2C0 JUMPI SWAP3 DUP2 SWAP3 SWAP4 PUSH0 SWAP3 PUSH2 0x2B5 JUMPI JUMPDEST POP POP DUP2 PUSH1 0x1 SHL SWAP2 PUSH0 NOT SWAP1 PUSH1 0x3 SHL SHR NOT AND OR PUSH0 SSTORE JUMPDEST DUP1 MLOAD PUSH1 0x1 PUSH1 0x1 PUSH1 0x40 SHL SUB DUP2 GT PUSH2 0x2A1 JUMPI PUSH1 0x1 SLOAD PUSH1 0x1 DUP2 DUP2 SHR SWAP2 AND DUP1 ISZERO PUSH2 0x297 JUMPI JUMPDEST PUSH1 0x20 DUP3 LT EQ PUSH2 0x283 JUMPI PUSH1 0x1F DUP2 GT PUSH2 0x220 JUMPI JUMPDEST POP PUSH1 0x20 SWAP2 PUSH1 0x1F DUP3 GT PUSH1 0x1 EQ PUSH2 0x1C0 JUMPI SWAP2 DUP2 SWAP3 PUSH0 SWAP3 PUSH2 0x1B5 JUMPI JUMPDEST POP POP DUP2 PUSH1 0x1 SHL SWAP2 PUSH0 NOT SWAP1 PUSH1 0x3 SHL SHR NOT AND OR PUSH1 0x1 SSTORE JUMPDEST CALLER ISZERO PUSH2 0x1A2 JUMPI PUSH1 0x6 DUP1 SLOAD CALLER PUSH1 0x1 PUSH1 0x1 PUSH1 0xA0 SHL SUB NOT DUP3 AND DUP2 OR SWAP1 SWAP3 SSTORE PUSH1 0x40 MLOAD SWAP2 SWAP1 PUSH1 0x1 PUSH1 0x1 PUSH1 0xA0 SHL SUB AND PUSH32 0x8BE0079C531659141344CD1FD0A4F28419497F9722A3DAAFE3B4186F6B6457E0 PUSH0 DUP1 LOG3 PUSH1 0x1 PUSH1 0x7 SSTORE PUSH2 0x228A SWAP1 DUP2 PUSH2 0x390 DUP3 CODECOPY RETURN JUMPDEST PUSH4 0x1E4FBDF7 PUSH1 0xE0 SHL PUSH0 MSTORE PUSH0 PUSH1 0x4 MSTORE PUSH1 0x24 PUSH0 REVERT JUMPDEST ADD MLOAD SWAP1 POP PUSH0 DUP1 PUSH2 0x12F JUMP JUMPDEST PUSH1 0x1F NOT DUP3 AND SWAP3 PUSH1 0x1 PUSH0 MSTORE DUP1 PUSH0 KECCAK256 SWAP2 PUSH0 JUMPDEST DUP6 DUP2 LT PUSH2 0x208 JUMPI POP DUP4 PUSH1 0x1 SWAP6 LT PUSH2 0x1F0 JUMPI JUMPDEST POP POP POP DUP2 SHL ADD PUSH1 0x1 SSTORE PUSH2 0x144 JUMP JUMPDEST ADD MLOAD PUSH0 NOT PUSH1 0xF8 DUP5 PUSH1 0x3 SHL AND SHR NOT AND SWAP1 SSTORE PUSH0 DUP1 DUP1 PUSH2 0x1E2 JUMP JUMPDEST SWAP2 SWAP3 PUSH1 0x20 PUSH1 0x1 DUP2 SWAP3 DUP7 DUP6 ADD MLOAD DUP2 SSTORE ADD SWAP5 ADD SWAP3 ADD PUSH2 0x1D0 JUMP JUMPDEST PUSH1 0x1 PUSH0 MSTORE PUSH32 0xB10E2D527612073B26EECDFD717E6A320CF44B4AFAC2B0732D9FCBE2B7FA0CF6 PUSH1 0x1F DUP4 ADD PUSH1 0x5 SHR DUP2 ADD SWAP2 PUSH1 0x20 DUP5 LT PUSH2 0x279 JUMPI JUMPDEST PUSH1 0x1F ADD PUSH1 0x5 SHR ADD SWAP1 JUMPDEST DUP2 DUP2 LT PUSH2 0x26E JUMPI POP PUSH2 0x116 JUMP JUMPDEST PUSH0 DUP2 SSTORE PUSH1 0x1 ADD PUSH2 0x261 JUMP JUMPDEST SWAP1 SWAP2 POP DUP2 SWAP1 PUSH2 0x258 JUMP JUMPDEST PUSH4 0x4E487B71 PUSH1 0xE0 SHL PUSH0 MSTORE PUSH1 0x22 PUSH1 0x4 MSTORE PUSH1 0x24 PUSH0 REVERT JUMPDEST SWAP1 PUSH1 0x7F AND SWAP1 PUSH2 0x104 JUMP JUMPDEST PUSH4 0x4E487B71 PUSH1 0xE0 SHL PUSH0 MSTORE PUSH1 0x41 PUSH1 0x4 MSTORE PUSH1 0x24 PUSH0 REVERT JUMPDEST ADD MLOAD SWAP1 POP PUSH0 DUP1 PUSH2 0xCF JUMP JUMPDEST PUSH1 0x1F NOT DUP3 AND SWAP4 PUSH0 DUP1 MSTORE DUP1 PUSH0 KECCAK256 SWAP2 PUSH0 JUMPDEST DUP7 DUP2 LT PUSH2 0x307 JUMPI POP DUP4 PUSH1 0x1 SWAP6 SWAP7 LT PUSH2 0x2EF JUMPI JUMPDEST POP POP POP DUP2 SHL ADD PUSH0 SSTORE PUSH2 0xE3 JUMP JUMPDEST ADD MLOAD PUSH0 NOT PUSH1 0xF8 DUP5 PUSH1 0x3 SHL AND SHR NOT AND SWAP1 SSTORE PUSH0 DUP1 DUP1 PUSH2 0x2E2 JUMP JUMPDEST SWAP2 SWAP3 PUSH1 0x20 PUSH1 0x1 DUP2 SWAP3 DUP7 DUP6 ADD MLOAD DUP2 SSTORE ADD SWAP5 ADD SWAP3 ADD PUSH2 0x2CF JUMP JUMPDEST PUSH0 DUP1 MSTORE PUSH32 0x290DECD9548B62A8D60345A988386FC84BA6BC95484008F6362F93160EF3E563 PUSH1 0x1F DUP4 ADD PUSH1 0x5 SHR DUP2 ADD SWAP2 PUSH1 0x20 DUP5 LT PUSH2 0x377 JUMPI JUMPDEST PUSH1 0x1F ADD PUSH1 0x5 SHR ADD SWAP1 JUMPDEST DUP2 DUP2 LT PUSH2 0x36C JUMPI POP PUSH2 0xB5 JUMP JUMPDEST PUSH0 DUP2 SSTORE PUSH1 0x1 ADD PUSH2 0x35F JUMP JUMPDEST SWAP1 SWAP2 POP DUP2 SWAP1 PUSH2 0x356 JUMP JUMPDEST SWAP1 PUSH1 0x7F AND SWAP1 PUSH2 0xA3 JUMP JUMPDEST PUSH0 DUP1 REVERT INVALID PUSH1 0x80 DUP1 PUSH1 0x40 MSTORE PUSH1 0x4 CALLDATASIZE LT ISZERO PUSH2 0x12 JUMPI PUSH0 DUP1 REVERT JUMPDEST PUSH0 CALLDATALOAD PUSH1 0xE0 SHR SWAP1 DUP2 PUSH3 0x339509 EQ PUSH2 0x182D JUMPI POP DUP1 PUSH4 0x1FFC9A7 EQ PUSH2 0x17BF JUMPI DUP1 PUSH4 0x36AA50B EQ PUSH2 0x177A JUMPI DUP1 PUSH4 0x6FDDE03 EQ PUSH2 0x16D8 JUMPI DUP1 PUSH4 0x81812FC EQ PUSH2 0x169C JUMPI DUP1 PUSH4 0x95EA7B3 EQ PUSH2 0x15B2 JUMPI DUP1 PUSH4 0xAF28BD3 EQ PUSH2 0x1445 JUMPI DUP1 PUSH4 0xC96A61A EQ PUSH2 0x1428 JUMPI DUP1 PUSH4 0x12593B82 EQ PUSH2 0x13FE JUMPI DUP1 PUSH4 0x1AA3A008 EQ PUSH2 0x13AC JUMPI DUP1 PUSH4 0x23B872DD EQ PUSH2 0x1395 JUMPI DUP1 PUSH4 0x2D1EF5AE EQ PUSH2 0x1206 JUMPI DUP1 PUSH4 0x3C3A0124 EQ PUSH2 0xE2D JUMPI DUP1 PUSH4 0x3FDDCF19 EQ PUSH2 0xDF0 JUMPI DUP1 PUSH4 0x42842E0E EQ PUSH2 0xDC7 JUMPI DUP1 PUSH4 0x466648DA EQ PUSH2 0xBE4 JUMPI DUP1 PUSH4 0x6352211E EQ PUSH2 0xBB4 JUMPI DUP1 PUSH4 0x70A08231 EQ PUSH2 0xB63 JUMPI DUP1 PUSH4 0x715018A6 EQ PUSH2 0xB08 JUMPI DUP1 PUSH4 0x839C317C EQ PUSH2 0x9BA JUMPI DUP1 PUSH4 0x8DA5CB5B EQ PUSH2 0x992 JUMPI DUP1 PUSH4 0x8EA42286 EQ PUSH2 0x65B JUMPI DUP1 PUSH4 0x95D89B41 EQ PUSH2 0x591 JUMPI DUP1 PUSH4 0xA22CB465 EQ PUSH2 0x4DD JUMPI DUP1 PUSH4 0xB88D4FDE EQ PUSH2 0x48D JUMPI DUP1 PUSH4 0xC87B56DD EQ PUSH2 0x44F JUMPI DUP1 PUSH4 0xCB4799F2 EQ PUSH2 0x3C4 JUMPI DUP1 PUSH4 0xE985E9C5 EQ PUSH2 0x36D JUMPI DUP1 PUSH4 0xF2C298BE EQ PUSH2 0x1EF JUMPI PUSH4 0xF2FDE38B EQ PUSH2 0x165 JUMPI PUSH0 DUP1 REVERT JUMPDEST CALLVALUE PUSH2 0x1EB JUMPI PUSH1 0x20 CALLDATASIZE PUSH1 0x3 NOT ADD SLT PUSH2 0x1EB JUMPI PUSH2 0x17E PUSH2 0x18F0 JUMP JUMPDEST PUSH2 0x186 PUSH2 0x20D2 JUMP JUMPDEST PUSH1 0x1 PUSH1 0x1 PUSH1 0xA0 SHL SUB AND DUP1 ISZERO PUSH2 0x1D8 JUMPI PUSH1 0x6 DUP1 SLOAD PUSH1 0x1 PUSH1 0x1 PUSH1 0xA0 SHL SUB NOT DUP2 AND DUP4 OR SWAP1 SWAP2 SSTORE PUSH1 0x1 PUSH1 0x1 PUSH1 0xA0 SHL SUB AND PUSH32 0x8BE0079C531659141344CD1FD0A4F28419497F9722A3DAAFE3B4186F6B6457E0 PUSH0 DUP1 LOG3 STOP JUMPDEST PUSH4 0x1E4FBDF7 PUSH1 0xE0 SHL PUSH0 MSTORE PUSH0 PUSH1 0x4 MSTORE PUSH1 0x24 PUSH0 REVERT JUMPDEST PUSH0 DUP1 REVERT JUMPDEST CALLVALUE PUSH2 0x1EB JUMPI PUSH1 0x20 CALLDATASIZE PUSH1 0x3 NOT ADD SLT PUSH2 0x1EB JUMPI PUSH1 0x4 CALLDATALOAD PUSH1 0x1 PUSH1 0x1 PUSH1 0x40 SHL SUB DUP2 GT PUSH2 0x1EB JUMPI PUSH2 0x21F SWAP1 CALLDATASIZE SWAP1 PUSH1 0x4 ADD PUSH2 0x191C JUMP JUMPDEST PUSH1 0x7 SLOAD SWAP1 PUSH2 0x22C DUP3 PUSH2 0x1C5F JUMP JUMPDEST PUSH1 0x7 SSTORE PUSH2 0x239 DUP3 CALLER PUSH2 0x1FFB JUMP JUMPDEST DUP2 PUSH0 MSTORE PUSH1 0x8 PUSH1 0x20 MSTORE PUSH1 0x40 PUSH0 KECCAK256 PUSH1 0x1 PUSH1 0x1 PUSH1 0x40 SHL SUB DUP3 GT PUSH2 0x359 JUMPI PUSH1 0x20 SWAP4 DUP2 PUSH2 0x26C DUP5 PUSH2 0x266 DUP8 SWAP6 SLOAD PUSH2 0x1A8D JUMP JUMPDEST DUP4 PUSH2 0x1BF0 JUMP JUMPDEST DUP4 PUSH0 PUSH1 0x1F DUP3 GT PUSH1 0x1 EQ PUSH2 0x2D9 JUMPI SWAP2 PUSH2 0x2AC DUP3 PUSH0 DUP1 MLOAD PUSH1 0x20 PUSH2 0x2235 DUP4 CODECOPY DUP2 MLOAD SWAP2 MSTORE SWAP6 SWAP4 PUSH2 0x2C3 SWAP6 PUSH0 SWAP2 PUSH2 0x2CE JUMPI JUMPDEST POP DUP2 PUSH1 0x1 SHL SWAP2 PUSH0 NOT SWAP1 PUSH1 0x3 SHL SHR NOT AND OR SWAP1 JUMP JUMPDEST SWAP1 SSTORE JUMPDEST PUSH1 0x40 MLOAD SWAP2 DUP3 SWAP2 DUP9 DUP4 MSTORE CALLER SWAP7 DUP10 DUP5 ADD SWAP2 PUSH2 0x1C3F JUMP JUMPDEST SUB SWAP1 LOG3 PUSH1 0x40 MLOAD SWAP1 DUP2 MSTORE RETURN JUMPDEST SWAP1 POP DUP5 ADD CALLDATALOAD DUP12 PUSH2 0x299 JUMP JUMPDEST SWAP4 SWAP3 SWAP2 SWAP1 POP PUSH1 0x1F NOT DUP6 AND SWAP4 DUP2 PUSH0 MSTORE DUP8 PUSH0 KECCAK256 SWAP1 DUP7 PUSH0 JUMPDEST DUP8 DUP2 LT PUSH2 0x33C JUMPI POP SWAP1 PUSH2 0x2C3 SWAP5 SWAP4 SWAP3 SWAP2 PUSH0 DUP1 MLOAD PUSH1 0x20 PUSH2 0x2235 DUP4 CODECOPY DUP2 MLOAD SWAP2 MSTORE SWAP7 SWAP8 LT PUSH2 0x323 JUMPI JUMPDEST POP POP PUSH1 0x1 DUP7 DUP2 SHL ADD SWAP1 SSTORE PUSH2 0x2AF JUMP JUMPDEST DUP4 ADD CALLDATALOAD PUSH0 NOT PUSH1 0x3 DUP10 SWAP1 SHL PUSH1 0xF8 AND SHR NOT AND SWAP1 SSTORE DUP9 DUP1 PUSH2 0x314 JUMP JUMPDEST DUP6 DUP4 ADD CALLDATALOAD DUP5 SSTORE DUP10 SWAP7 POP PUSH1 0x1 SWAP1 SWAP4 ADD SWAP3 SWAP2 DUP11 ADD SWAP2 DUP9 SWAP2 POP DUP11 ADD PUSH2 0x2EE JUMP JUMPDEST PUSH4 0x4E487B71 PUSH1 0xE0 SHL PUSH0 MSTORE PUSH1 0x41 PUSH1 0x4 MSTORE PUSH1 0x24 PUSH0 REVERT JUMPDEST CALLVALUE PUSH2 0x1EB JUMPI PUSH1 0x40 CALLDATASIZE PUSH1 0x3 NOT ADD SLT PUSH2 0x1EB JUMPI PUSH2 0x386 PUSH2 0x18F0 JUMP JUMPDEST PUSH2 0x38E PUSH2 0x1906 JUMP JUMPDEST SWAP1 PUSH1 0x1 DUP1 PUSH1 0xA0 SHL SUB AND PUSH0 MSTORE PUSH1 0x5 PUSH1 0x20 MSTORE PUSH1 0x40 PUSH0 KECCAK256 SWAP1 PUSH1 0x1 DUP1 PUSH1 0xA0 SHL SUB AND PUSH0 MSTORE PUSH1 0x20 MSTORE PUSH1 0x20 PUSH1 0xFF PUSH1 0x40 PUSH0 KECCAK256 SLOAD AND PUSH1 0x40 MLOAD SWAP1 ISZERO ISZERO DUP2 MSTORE RETURN JUMPDEST CALLVALUE PUSH2 0x1EB JUMPI PUSH1 0x40 CALLDATASIZE PUSH1 0x3 NOT ADD SLT PUSH2 0x1EB JUMPI PUSH1 0x24 CALLDATALOAD PUSH1 0x1 PUSH1 0x1 PUSH1 0x40 SHL SUB DUP2 GT PUSH2 0x1EB JUMPI PUSH2 0x430 PUSH2 0x437 PUSH1 0x20 DUP1 PUSH2 0x400 PUSH2 0x44B SWAP6 CALLDATASIZE SWAP1 PUSH1 0x4 ADD PUSH2 0x1A10 JUMP JUMPDEST PUSH1 0x4 CALLDATALOAD PUSH0 MSTORE PUSH1 0x9 DUP3 MSTORE PUSH1 0x40 PUSH0 KECCAK256 PUSH1 0x40 MLOAD SWAP4 DUP3 DUP6 SWAP4 MLOAD SWAP2 DUP3 SWAP2 ADD DUP5 MCOPY DUP3 ADD SWAP1 DUP2 MSTORE SUB ADD SWAP1 KECCAK256 PUSH1 0x40 MLOAD SWAP3 DUP4 DUP1 SWAP3 PUSH2 0x1AC5 JUMP JUMPDEST SUB DUP3 PUSH2 0x199E JUMP JUMPDEST PUSH1 0x40 MLOAD SWAP2 DUP3 SWAP2 PUSH1 0x20 DUP4 MSTORE PUSH1 0x20 DUP4 ADD SWAP1 PUSH2 0x1871 JUMP JUMPDEST SUB SWAP1 RETURN JUMPDEST CALLVALUE PUSH2 0x1EB JUMPI PUSH1 0x20 CALLDATASIZE PUSH1 0x3 NOT ADD SLT PUSH2 0x1EB JUMPI PUSH1 0x4 CALLDATALOAD PUSH2 0x46C DUP2 PUSH2 0x1FC7 JUMP JUMPDEST POP PUSH0 MSTORE PUSH1 0x8 PUSH1 0x20 MSTORE PUSH2 0x44B PUSH2 0x430 PUSH2 0x437 PUSH1 0x40 PUSH0 KECCAK256 PUSH1 0x40 MLOAD SWAP3 DUP4 DUP1 SWAP3 PUSH2 0x1AC5 JUMP JUMPDEST CALLVALUE PUSH2 0x1EB JUMPI PUSH1 0x80 CALLDATASIZE PUSH1 0x3 NOT ADD SLT PUSH2 0x1EB JUMPI PUSH2 0x4A6 PUSH2 0x18F0 JUMP JUMPDEST PUSH2 0x4AE PUSH2 0x1906 JUMP JUMPDEST PUSH1 0x64 CALLDATALOAD SWAP2 PUSH1 0x1 PUSH1 0x1 PUSH1 0x40 SHL SUB DUP4 GT PUSH2 0x1EB JUMPI PUSH2 0x4D1 PUSH2 0x4DB SWAP4 CALLDATASIZE SWAP1 PUSH1 0x4 ADD PUSH2 0x1A10 JUMP JUMPDEST SWAP2 PUSH1 0x44 CALLDATALOAD SWAP2 PUSH2 0x1E87 JUMP JUMPDEST STOP JUMPDEST CALLVALUE PUSH2 0x1EB JUMPI PUSH1 0x40 CALLDATASIZE PUSH1 0x3 NOT ADD SLT PUSH2 0x1EB JUMPI PUSH2 0x4F6 PUSH2 0x18F0 JUMP JUMPDEST PUSH1 0x24 CALLDATALOAD SWAP1 DUP2 ISZERO ISZERO DUP1 SWAP3 SUB PUSH2 0x1EB JUMPI CALLER ISZERO PUSH2 0x57E JUMPI PUSH1 0x1 PUSH1 0x1 PUSH1 0xA0 SHL SUB AND SWAP1 DUP2 ISZERO PUSH2 0x56B JUMPI CALLER PUSH0 MSTORE PUSH1 0x5 PUSH1 0x20 MSTORE PUSH1 0x40 PUSH0 KECCAK256 DUP3 PUSH0 MSTORE PUSH1 0x20 MSTORE PUSH1 0x40 PUSH0 KECCAK256 PUSH1 0xFF NOT DUP2 SLOAD AND PUSH1 0xFF DUP4 AND OR SWAP1 SSTORE PUSH1 0x40 MLOAD SWAP1 DUP2 MSTORE PUSH32 0x17307EAB39AB6107E8899845AD3D59BD9653F200F220920489CA2B5937696C31 PUSH1 0x20 CALLER SWAP3 LOG3 STOP JUMPDEST POP PUSH4 0xB611743 PUSH1 0xE3 SHL PUSH0 MSTORE PUSH1 0x4 MSTORE PUSH1 0x24 PUSH0 REVERT JUMPDEST PUSH4 0xA9FBF51F PUSH1 0xE0 SHL PUSH0 MSTORE PUSH0 PUSH1 0x4 MSTORE PUSH1 0x24 PUSH0 REVERT JUMPDEST CALLVALUE PUSH2 0x1EB JUMPI PUSH0 CALLDATASIZE PUSH1 0x3 NOT ADD SLT PUSH2 0x1EB JUMPI PUSH1 0x40 MLOAD PUSH0 PUSH1 0x1 SLOAD PUSH2 0x5B1 DUP2 PUSH2 0x1A8D JUMP JUMPDEST DUP1 DUP5 MSTORE SWAP1 PUSH1 0x1 DUP2 AND SWAP1 DUP2 ISZERO PUSH2 0x637 JUMPI POP PUSH1 0x1 EQ PUSH2 0x5D9 JUMPI JUMPDEST PUSH2 0x44B DUP4 PUSH2 0x437 DUP2 DUP6 SUB DUP3 PUSH2 0x199E JUMP JUMPDEST PUSH1 0x1 PUSH0 SWAP1 DUP2 MSTORE PUSH32 0xB10E2D527612073B26EECDFD717E6A320CF44B4AFAC2B0732D9FCBE2B7FA0CF6 SWAP4 SWAP3 POP SWAP1 JUMPDEST DUP1 DUP3 LT PUSH2 0x61D JUMPI POP SWAP1 SWAP2 POP DUP2 ADD PUSH1 0x20 ADD PUSH2 0x437 PUSH2 0x5C9 JUMP JUMPDEST SWAP2 SWAP3 PUSH1 0x1 DUP2 PUSH1 0x20 SWAP3 SLOAD DUP4 DUP6 DUP9 ADD ADD MSTORE ADD SWAP2 ADD SWAP1 SWAP3 SWAP2 PUSH2 0x605 JUMP JUMPDEST PUSH1 0xFF NOT AND PUSH1 0x20 DUP1 DUP7 ADD SWAP2 SWAP1 SWAP2 MSTORE SWAP2 ISZERO ISZERO PUSH1 0x5 SHL DUP5 ADD SWAP1 SWAP2 ADD SWAP2 POP PUSH2 0x437 SWAP1 POP PUSH2 0x5C9 JUMP JUMPDEST CALLVALUE PUSH2 0x1EB JUMPI PUSH1 0x40 CALLDATASIZE PUSH1 0x3 NOT ADD SLT PUSH2 0x1EB JUMPI PUSH1 0x4 CALLDATALOAD PUSH1 0x1 PUSH1 0x1 PUSH1 0x40 SHL SUB DUP2 GT PUSH2 0x1EB JUMPI PUSH2 0x68B SWAP1 CALLDATASIZE SWAP1 PUSH1 0x4 ADD PUSH2 0x191C JUMP JUMPDEST PUSH1 0x24 CALLDATALOAD SWAP1 PUSH1 0x1 PUSH1 0x1 PUSH1 0x40 SHL SUB DUP3 GT PUSH2 0x1EB JUMPI CALLDATASIZE PUSH1 0x23 DUP4 ADD SLT ISZERO PUSH2 0x1EB JUMPI DUP2 PUSH1 0x4 ADD CALLDATALOAD PUSH1 0x1 PUSH1 0x1 PUSH1 0x40 SHL SUB DUP2 GT PUSH2 0x1EB JUMPI PUSH1 0x24 DUP4 ADD SWAP3 PUSH1 0x24 CALLDATASIZE SWAP2 DUP4 PUSH1 0x5 SHL ADD ADD GT PUSH2 0x1EB JUMPI PUSH1 0x7 SLOAD SWAP3 PUSH2 0x6DC DUP5 PUSH2 0x1C5F JUMP JUMPDEST PUSH1 0x7 SSTORE PUSH2 0x6E9 DUP5 CALLER PUSH2 0x1FFB JUMP JUMPDEST DUP4 PUSH0 MSTORE PUSH1 0x8 PUSH1 0x20 MSTORE PUSH1 0x40 PUSH0 KECCAK256 PUSH1 0x1 PUSH1 0x1 PUSH1 0x40 SHL SUB DUP5 GT PUSH2 0x359 JUMPI PUSH2 0x711 DUP5 PUSH2 0x266 DUP4 SLOAD PUSH2 0x1A8D JUMP JUMPDEST PUSH0 DUP5 PUSH1 0x1F DUP2 GT PUSH1 0x1 EQ PUSH2 0x92F JUMPI DUP1 PUSH2 0x73C SWAP3 PUSH0 SWAP2 PUSH2 0x924 JUMPI POP DUP2 PUSH1 0x1 SHL SWAP2 PUSH0 NOT SWAP1 PUSH1 0x3 SHL SHR NOT AND OR SWAP1 JUMP JUMPDEST SWAP1 SSTORE JUMPDEST PUSH0 JUMPDEST DUP3 DUP2 LT PUSH2 0x774 JUMPI POP POP POP DUP2 PUSH0 DUP1 MLOAD PUSH1 0x20 PUSH2 0x2235 DUP4 CODECOPY DUP2 MLOAD SWAP2 MSTORE PUSH2 0x2C3 PUSH1 0x20 SWAP6 PUSH1 0x40 MLOAD SWAP2 DUP3 SWAP2 DUP9 DUP4 MSTORE CALLER SWAP7 DUP10 DUP5 ADD SWAP2 PUSH2 0x1C3F JUMP JUMPDEST PUSH2 0x78C PUSH2 0x782 DUP3 DUP6 DUP6 PUSH2 0x1E33 JUMP JUMPDEST PUSH1 0x20 DUP2 ADD SWAP1 PUSH2 0x1E55 JUMP JUMPDEST DUP7 PUSH0 MSTORE PUSH1 0x9 PUSH1 0x20 MSTORE PUSH1 0x40 PUSH0 KECCAK256 PUSH1 0x20 PUSH2 0x7AE PUSH2 0x7A8 DUP7 DUP10 DUP10 PUSH2 0x1E33 JUMP JUMPDEST DUP1 PUSH2 0x1E55 JUMP JUMPDEST SWAP3 DUP4 PUSH1 0x40 MLOAD SWAP5 DUP6 SWAP4 DUP5 CALLDATACOPY DUP3 ADD SWAP1 DUP2 MSTORE SUB ADD SWAP1 KECCAK256 SWAP2 PUSH1 0x1 PUSH1 0x1 PUSH1 0x40 SHL SUB DUP3 GT PUSH2 0x359 JUMPI PUSH2 0x7E4 DUP3 PUSH2 0x7DE DUP6 SLOAD PUSH2 0x1A8D JUMP JUMPDEST DUP6 PUSH2 0x1BF0 JUMP JUMPDEST PUSH0 SWAP1 PUSH1 0x1F DUP4 GT PUSH1 0x1 EQ PUSH2 0x8BC JUMPI SWAP2 DUP1 PUSH2 0x817 SWAP3 PUSH1 0x1 SWAP7 SWAP6 SWAP5 PUSH0 SWAP3 PUSH2 0x8B1 JUMPI JUMPDEST POP POP DUP2 PUSH1 0x1 SHL SWAP2 PUSH0 NOT SWAP1 PUSH1 0x3 SHL SHR NOT AND OR SWAP1 JUMP JUMPDEST SWAP1 SSTORE JUMPDEST PUSH32 0x2C149ED548C6D2993CD73EFE187DF6ECCABE4538091B33ADBD25FAFDB8A1468B DUP7 PUSH2 0x84A PUSH2 0x7A8 DUP5 DUP9 DUP9 PUSH2 0x1E33 JUMP JUMPDEST SWAP3 SWAP1 PUSH2 0x8A8 PUSH2 0x85D PUSH2 0x7A8 DUP8 DUP12 DUP12 PUSH2 0x1E33 JUMP JUMPDEST SWAP2 SWAP1 SWAP3 PUSH2 0x86E PUSH2 0x782 DUP10 DUP14 DUP14 PUSH2 0x1E33 JUMP JUMPDEST SWAP8 SWAP1 SWAP2 DUP2 PUSH1 0x40 MLOAD SWAP3 DUP4 SWAP3 DUP4 CALLDATACOPY DUP2 ADD PUSH0 DUP2 MSTORE SUB SWAP1 KECCAK256 SWAP7 PUSH2 0x89A PUSH1 0x40 MLOAD SWAP6 DUP7 SWAP6 PUSH1 0x40 DUP8 MSTORE PUSH1 0x40 DUP8 ADD SWAP2 PUSH2 0x1C3F JUMP JUMPDEST SWAP2 DUP5 DUP4 SUB PUSH1 0x20 DUP7 ADD MSTORE PUSH2 0x1C3F JUMP JUMPDEST SUB SWAP1 LOG3 ADD PUSH2 0x741 JUMP JUMPDEST ADD CALLDATALOAD SWAP1 POP DUP12 DUP1 PUSH2 0x803 JUMP JUMPDEST PUSH1 0x1F NOT DUP4 AND SWAP2 DUP5 PUSH0 MSTORE PUSH1 0x20 PUSH0 KECCAK256 SWAP3 PUSH0 JUMPDEST DUP2 DUP2 LT PUSH2 0x90C JUMPI POP SWAP2 PUSH1 0x1 SWAP7 SWAP6 SWAP5 SWAP3 SWAP2 DUP4 DUP9 SWAP6 SWAP4 LT PUSH2 0x8F3 JUMPI JUMPDEST POP POP POP DUP2 SHL ADD SWAP1 SSTORE PUSH2 0x81A JUMP JUMPDEST ADD CALLDATALOAD PUSH0 NOT PUSH1 0x3 DUP5 SWAP1 SHL PUSH1 0xF8 AND SHR NOT AND SWAP1 SSTORE DUP11 DUP1 DUP1 PUSH2 0x8E6 JUMP JUMPDEST SWAP2 SWAP4 PUSH1 0x20 PUSH1 0x1 DUP2 SWAP3 DUP8 DUP8 ADD CALLDATALOAD DUP2 SSTORE ADD SWAP6 ADD SWAP3 ADD PUSH2 0x8CC JUMP JUMPDEST SWAP1 POP DUP9 ADD CALLDATALOAD DUP10 PUSH2 0x299 JUMP JUMPDEST POP PUSH1 0x1F NOT DUP6 AND SWAP1 DUP3 PUSH0 MSTORE DUP6 PUSH1 0x20 PUSH0 KECCAK256 SWAP3 PUSH0 JUMPDEST DUP2 DUP2 LT PUSH2 0x977 JUMPI POP LT PUSH2 0x95E JUMPI JUMPDEST POP POP PUSH1 0x1 DUP5 DUP2 SHL ADD SWAP1 SSTORE PUSH2 0x73F JUMP JUMPDEST DUP8 ADD CALLDATALOAD PUSH0 NOT PUSH1 0x3 DUP8 SWAP1 SHL PUSH1 0xF8 AND SHR NOT AND SWAP1 SSTORE DUP7 DUP1 PUSH2 0x94F JUMP JUMPDEST DUP11 DUP5 ADD CALLDATALOAD DUP6 SSTORE PUSH1 0x1 SWAP1 SWAP5 ADD SWAP4 PUSH1 0x20 SWAP4 DUP5 ADD SWAP4 DUP10 SWAP4 POP ADD PUSH2 0x941 JUMP JUMPDEST CALLVALUE PUSH2 0x1EB JUMPI PUSH0 CALLDATASIZE PUSH1 0x3 NOT ADD SLT PUSH2 0x1EB JUMPI PUSH1 0x6 SLOAD PUSH1 0x40 MLOAD PUSH1 0x1 PUSH1 0x1 PUSH1 0xA0 SHL SUB SWAP1 SWAP2 AND DUP2 MSTORE PUSH1 0x20 SWAP1 RETURN JUMPDEST CALLVALUE PUSH2 0x1EB JUMPI PUSH2 0x9C8 CALLDATASIZE PUSH2 0x185B JUMP JUMPDEST SWAP1 DUP1 PUSH0 MSTORE PUSH1 0xC PUSH1 0x20 MSTORE PUSH1 0x40 PUSH0 KECCAK256 SLOAD SWAP2 DUP3 DUP2 GT PUSH0 EQ PUSH2 0xB02 JUMPI POP DUP2 JUMPDEST PUSH2 0x9EC DUP4 PUSH2 0x1E08 JUMP JUMPDEST SWAP3 PUSH2 0x9FA PUSH1 0x40 MLOAD SWAP5 DUP6 PUSH2 0x199E JUMP JUMPDEST DUP1 DUP5 MSTORE PUSH1 0x1F NOT PUSH2 0xA09 DUP3 PUSH2 0x1E08 JUMP JUMPDEST ADD PUSH0 JUMPDEST DUP2 DUP2 LT PUSH2 0xAEB JUMPI POP POP PUSH0 JUMPDEST DUP2 DUP2 LT PUSH2 0xA85 JUMPI DUP5 PUSH1 0x40 MLOAD DUP1 SWAP2 PUSH1 0x20 DUP3 ADD PUSH1 0x20 DUP4 MSTORE DUP2 MLOAD DUP1 SWAP2 MSTORE PUSH1 0x40 DUP4 ADD SWAP1 PUSH1 0x20 PUSH1 0x40 DUP3 PUSH1 0x5 SHL DUP7 ADD ADD SWAP4 ADD SWAP2 PUSH0 SWAP1 JUMPDEST DUP3 DUP3 LT PUSH2 0xA56 JUMPI POP POP POP POP SUB SWAP1 RETURN JUMPDEST SWAP2 SWAP4 PUSH1 0x1 SWAP2 SWAP4 SWAP6 POP PUSH1 0x20 PUSH2 0xA75 DUP2 SWAP3 PUSH1 0x3F NOT DUP11 DUP3 SUB ADD DUP7 MSTORE DUP9 MLOAD PUSH2 0x1895 JUMP JUMPDEST SWAP7 ADD SWAP3 ADD SWAP3 ADD DUP6 SWAP5 SWAP4 SWAP2 SWAP3 PUSH2 0xA47 JUMP JUMPDEST DUP4 PUSH0 MSTORE PUSH1 0xC PUSH1 0x20 MSTORE PUSH1 0x40 PUSH0 KECCAK256 SWAP1 DUP3 DUP5 SUB DUP5 DUP2 GT PUSH2 0xAD7 JUMPI DUP2 DUP2 ADD DUP1 SWAP2 GT PUSH2 0xAD7 JUMPI PUSH2 0xAB5 PUSH2 0xABB SWAP2 PUSH1 0x1 SWAP5 PUSH2 0x1A60 JUMP JUMPDEST POP PUSH2 0x1B46 JUMP JUMPDEST PUSH2 0xAC5 DUP3 DUP9 PUSH2 0x1E1F JUMP JUMPDEST MSTORE PUSH2 0xAD0 DUP2 DUP8 PUSH2 0x1E1F JUMP JUMPDEST POP ADD PUSH2 0xA17 JUMP JUMPDEST PUSH4 0x4E487B71 PUSH1 0xE0 SHL PUSH0 MSTORE PUSH1 0x11 PUSH1 0x4 MSTORE PUSH1 0x24 PUSH0 REVERT JUMPDEST PUSH1 0x20 SWAP1 PUSH2 0xAF6 PUSH2 0x1A2E JUMP JUMPDEST DUP3 DUP3 DUP10 ADD ADD MSTORE ADD PUSH2 0xA0C JUMP JUMPDEST SWAP2 PUSH2 0x9E3 JUMP JUMPDEST CALLVALUE PUSH2 0x1EB JUMPI PUSH0 CALLDATASIZE PUSH1 0x3 NOT ADD SLT PUSH2 0x1EB JUMPI PUSH2 0xB20 PUSH2 0x20D2 JUMP JUMPDEST PUSH1 0x6 DUP1 SLOAD PUSH1 0x1 PUSH1 0x1 PUSH1 0xA0 SHL SUB NOT DUP2 AND SWAP1 SWAP2 SSTORE PUSH0 SWAP1 PUSH1 0x1 PUSH1 0x1 PUSH1 0xA0 SHL SUB AND PUSH32 0x8BE0079C531659141344CD1FD0A4F28419497F9722A3DAAFE3B4186F6B6457E0 DUP3 DUP1 LOG3 STOP JUMPDEST CALLVALUE PUSH2 0x1EB JUMPI PUSH1 0x20 CALLDATASIZE PUSH1 0x3 NOT ADD SLT PUSH2 0x1EB JUMPI PUSH1 0x1 PUSH1 0x1 PUSH1 0xA0 SHL SUB PUSH2 0xB84 PUSH2 0x18F0 JUMP JUMPDEST AND DUP1 ISZERO PUSH2 0xBA1 JUMPI PUSH0 MSTORE PUSH1 0x3 PUSH1 0x20 MSTORE PUSH1 0x20 PUSH1 0x40 PUSH0 KECCAK256 SLOAD PUSH1 0x40 MLOAD SWAP1 DUP2 MSTORE RETURN JUMPDEST PUSH4 0x22718AD9 PUSH1 0xE2 SHL PUSH0 MSTORE PUSH0 PUSH1 0x4 MSTORE PUSH1 0x24 PUSH0 REVERT JUMPDEST CALLVALUE PUSH2 0x1EB JUMPI PUSH1 0x20 CALLDATASIZE PUSH1 0x3 NOT ADD SLT PUSH2 0x1EB JUMPI PUSH1 0x20 PUSH2 0xBD2 PUSH1 0x4 CALLDATALOAD PUSH2 0x1FC7 JUMP JUMPDEST PUSH1 0x40 MLOAD PUSH1 0x1 PUSH1 0x1 PUSH1 0xA0 SHL SUB SWAP1 SWAP2 AND DUP2 MSTORE RETURN JUMPDEST CALLVALUE PUSH2 0x1EB JUMPI PUSH1 0x60 CALLDATASIZE PUSH1 0x3 NOT ADD SLT PUSH2 0x1EB JUMPI PUSH1 0x4 CALLDATALOAD PUSH1 0x24 CALLDATALOAD PUSH1 0x1 PUSH1 0x1 PUSH1 0x40 SHL SUB DUP2 GT PUSH2 0x1EB JUMPI PUSH2 0xC17 SWAP1 CALLDATASIZE SWAP1 PUSH1 0x4 ADD PUSH2 0x1A10 JUMP JUMPDEST SWAP1 PUSH1 0x44 CALLDATALOAD PUSH1 0x1 PUSH1 0x1 PUSH1 0x40 SHL SUB DUP2 GT PUSH2 0x1EB JUMPI PUSH2 0xC37 SWAP1 CALLDATASIZE SWAP1 PUSH1 0x4 ADD PUSH2 0x1A10 JUMP JUMPDEST SWAP2 PUSH2 0xC54 PUSH2 0xC44 DUP4 PUSH2 0x1FC7 JUMP JUMPDEST PUSH1 0x1 PUSH1 0x1 PUSH1 0xA0 SHL SUB AND CALLER EQ PUSH2 0x1BB2 JUMP JUMPDEST DUP2 PUSH0 MSTORE PUSH1 0x9 PUSH1 0x20 MSTORE PUSH1 0x40 PUSH0 KECCAK256 PUSH1 0x40 MLOAD PUSH1 0x20 DUP2 DUP5 MLOAD SWAP4 DUP3 DUP7 ADD SWAP5 DUP1 DUP7 DUP5 MCOPY DUP3 ADD SWAP1 DUP2 MSTORE SUB ADD SWAP1 KECCAK256 DUP5 MLOAD PUSH1 0x1 PUSH1 0x1 PUSH1 0x40 SHL SUB DUP2 GT PUSH2 0x359 JUMPI PUSH2 0xC9E DUP2 PUSH2 0xC98 DUP5 SLOAD PUSH2 0x1A8D JUMP JUMPDEST DUP5 PUSH2 0x1BF0 JUMP JUMPDEST PUSH1 0x20 PUSH1 0x1F DUP3 GT PUSH1 0x1 EQ PUSH2 0xD3D JUMPI SWAP3 PUSH32 0x2C149ED548C6D2993CD73EFE187DF6ECCABE4538091B33ADBD25FAFDB8A1468B SWAP5 SWAP3 PUSH2 0xCF4 DUP4 PUSH2 0xD2D SWAP5 PUSH2 0xD1F SWAP8 PUSH0 SWAP2 PUSH2 0xD32 JUMPI POP DUP2 PUSH1 0x1 SHL SWAP2 PUSH0 NOT SWAP1 PUSH1 0x3 SHL SHR NOT AND OR SWAP1 JUMP JUMPDEST SWAP1 SSTORE JUMPDEST PUSH1 0x40 MLOAD DUP1 SWAP2 DUP5 MLOAD DUP1 SWAP2 DUP4 MCOPY DUP2 ADD PUSH0 DUP2 MSTORE SUB SWAP1 KECCAK256 SWAP6 PUSH1 0x40 MLOAD SWAP4 DUP5 SWAP4 PUSH1 0x40 DUP6 MSTORE PUSH1 0x40 DUP6 ADD SWAP1 PUSH2 0x1871 JUMP JUMPDEST SWAP1 DUP4 DUP3 SUB PUSH1 0x20 DUP6 ADD MSTORE PUSH2 0x1871 JUMP JUMPDEST SUB SWAP1 LOG3 STOP JUMPDEST SWAP1 POP DUP11 ADD MLOAD DUP12 PUSH2 0x299 JUMP JUMPDEST PUSH1 0x1F NOT DUP3 AND SWAP1 DUP4 PUSH0 MSTORE DUP1 PUSH0 KECCAK256 SWAP2 PUSH0 JUMPDEST DUP2 DUP2 LT PUSH2 0xDAF JUMPI POP DUP4 PUSH2 0xD1F SWAP7 SWAP4 PUSH32 0x2C149ED548C6D2993CD73EFE187DF6ECCABE4538091B33ADBD25FAFDB8A1468B SWAP9 SWAP7 SWAP4 PUSH2 0xD2D SWAP7 PUSH1 0x1 SWAP5 LT PUSH2 0xD97 JUMPI JUMPDEST POP POP DUP2 SHL ADD SWAP1 SSTORE PUSH2 0xCF7 JUMP JUMPDEST DUP12 ADD MLOAD PUSH0 NOT PUSH1 0xF8 DUP5 PUSH1 0x3 SHL AND SHR NOT AND SWAP1 SSTORE DUP11 DUP1 PUSH2 0xD8B JUMP JUMPDEST SWAP2 SWAP3 PUSH1 0x20 PUSH1 0x1 DUP2 SWAP3 DUP7 DUP14 ADD MLOAD DUP2 SSTORE ADD SWAP5 ADD SWAP3 ADD PUSH2 0xD4C JUMP JUMPDEST CALLVALUE PUSH2 0x1EB JUMPI PUSH2 0x4DB PUSH2 0xDD8 CALLDATASIZE PUSH2 0x1949 JUMP JUMPDEST SWAP1 PUSH1 0x40 MLOAD SWAP3 PUSH2 0xDE8 PUSH1 0x20 DUP6 PUSH2 0x199E JUMP JUMPDEST PUSH0 DUP5 MSTORE PUSH2 0x1E87 JUMP JUMPDEST CALLVALUE PUSH2 0x1EB JUMPI PUSH1 0x20 CALLDATASIZE PUSH1 0x3 NOT ADD SLT PUSH2 0x1EB JUMPI PUSH1 0x4 CALLDATALOAD PUSH2 0xE10 PUSH2 0xC44 DUP3 PUSH2 0x1FC7 JUMP JUMPDEST PUSH0 SWAP1 DUP2 MSTORE PUSH1 0xA PUSH1 0x20 MSTORE PUSH1 0x40 SWAP1 KECCAK256 DUP1 SLOAD PUSH1 0x1 PUSH1 0x1 PUSH1 0xA0 SHL SUB NOT AND SWAP1 SSTORE STOP JUMPDEST CALLVALUE PUSH2 0x1EB JUMPI PUSH1 0x60 CALLDATASIZE PUSH1 0x3 NOT ADD SLT PUSH2 0x1EB JUMPI PUSH1 0x4 CALLDATALOAD PUSH1 0x24 CALLDATALOAD PUSH1 0x1 PUSH1 0x1 PUSH1 0x40 SHL SUB DUP2 GT PUSH2 0x1EB JUMPI PUSH2 0xE60 SWAP1 CALLDATASIZE SWAP1 PUSH1 0x4 ADD PUSH2 0x191C JUMP JUMPDEST PUSH1 0x44 CALLDATALOAD PUSH1 0x1 PUSH1 0x1 PUSH1 0x40 SHL SUB DUP2 GT PUSH2 0x1EB JUMPI PUSH2 0xE7F SWAP1 CALLDATASIZE SWAP1 PUSH1 0x4 ADD PUSH2 0x191C JUMP JUMPDEST SWAP4 SWAP1 SWAP2 PUSH2 0xE8B DUP3 PUSH2 0x1FC7 JUMP JUMPDEST PUSH1 0x1 PUSH1 0x1 PUSH1 0xA0 SHL SUB AND CALLER EQ DUP1 ISZERO PUSH2 0x11E7 JUMPI JUMPDEST ISZERO PUSH2 0x11B1 JUMPI PUSH1 0x40 MLOAD PUSH1 0x20 DUP2 ADD SWAP1 DUP7 DUP6 DUP4 CALLDATACOPY PUSH2 0xECB PUSH1 0x20 DUP3 DUP10 DUP2 ADD PUSH0 DUP4 DUP3 ADD MSTORE SUB ADD PUSH1 0x1F NOT DUP2 ADD DUP4 MSTORE DUP3 PUSH2 0x199E JUMP JUMPDEST MLOAD SWAP1 KECCAK256 PUSH0 DUP4 DUP2 MSTORE PUSH1 0xC PUSH1 0x20 MSTORE PUSH1 0x40 SWAP1 DUP2 SWAP1 KECCAK256 DUP1 SLOAD SWAP2 MLOAD SWAP2 SWAP6 PUSH2 0xF0D SWAP1 PUSH2 0xEF0 DUP5 PUSH2 0x1983 JUMP JUMPDEST DUP7 DUP5 MSTORE PUSH2 0xEFE CALLDATASIZE DUP8 DUP12 PUSH2 0x19DA JUMP JUMPDEST SWAP10 PUSH1 0x20 DUP6 ADD SWAP11 DUP12 MSTORE CALLDATASIZE SWAP2 PUSH2 0x19DA JUMP JUMPDEST SWAP8 PUSH1 0x40 DUP4 ADD SWAP9 DUP10 MSTORE PUSH1 0x60 DUP4 ADD DUP5 DUP2 MSTORE PUSH1 0x80 DUP5 ADD SWAP2 TIMESTAMP DUP4 MSTORE PUSH1 0xA0 DUP6 ADD SWAP4 CALLER DUP6 MSTORE DUP1 SLOAD PUSH9 0x10000000000000000 DUP2 LT ISZERO PUSH2 0x359 JUMPI PUSH2 0xF4E SWAP2 PUSH1 0x1 DUP3 ADD DUP2 SSTORE PUSH2 0x1A60 JUMP JUMPDEST SWAP6 SWAP1 SWAP6 PUSH2 0x119E JUMPI MLOAD DUP6 SSTORE MLOAD DUP1 MLOAD PUSH1 0x1 DUP7 ADD SWAP2 PUSH1 0x1 PUSH1 0x1 PUSH1 0x40 SHL SUB DUP3 GT PUSH2 0x359 JUMPI PUSH2 0xF7C DUP3 PUSH2 0x7DE DUP6 SLOAD PUSH2 0x1A8D JUMP JUMPDEST PUSH1 0x20 SWAP1 PUSH1 0x1F DUP4 GT PUSH1 0x1 EQ PUSH2 0x113B JUMPI PUSH2 0xFAA SWAP3 SWAP2 PUSH0 SWAP2 DUP4 PUSH2 0x1130 JUMPI POP POP DUP2 PUSH1 0x1 SHL SWAP2 PUSH0 NOT SWAP1 PUSH1 0x3 SHL SHR NOT AND OR SWAP1 JUMP JUMPDEST SWAP1 SSTORE JUMPDEST PUSH1 0x2 DUP5 ADD SWAP10 MLOAD SWAP10 DUP11 MLOAD PUSH1 0x1 PUSH1 0x1 PUSH1 0x40 SHL SUB DUP2 GT PUSH2 0x359 JUMPI PUSH1 0x20 SWAP12 PUSH2 0xFD5 DUP3 PUSH2 0x7DE DUP6 SLOAD PUSH2 0x1A8D JUMP JUMPDEST DUP13 SWAP1 PUSH1 0x1F DUP4 GT PUSH1 0x1 EQ PUSH2 0x10A1 JUMPI SWAP3 PUSH2 0x1030 DUP4 PUSH32 0xC4494E6FC35818DB2DDA3E978F155382FB3E997AECC9EF19696722E239E76399 SWAP12 SWAP10 SWAP8 SWAP5 DUP15 SWAP16 SWAP12 SWAP10 SWAP7 SWAP5 PUSH1 0x5 SWAP9 SWAP6 PUSH0 SWAP3 PUSH2 0x1096 JUMPI POP POP DUP2 PUSH1 0x1 SHL SWAP2 PUSH0 NOT SWAP1 PUSH1 0x3 SHL SHR NOT AND OR SWAP1 JUMP JUMPDEST SWAP1 SSTORE JUMPDEST MLOAD PUSH1 0x3 DUP6 ADD SSTORE MLOAD PUSH1 0x4 DUP5 ADD SSTORE MLOAD SWAP2 ADD DUP1 SLOAD PUSH1 0x1 PUSH1 0x1 PUSH1 0xA0 SHL SUB NOT AND PUSH1 0x1 PUSH1 0x1 PUSH1 0xA0 SHL SUB SWAP3 SWAP1 SWAP3 AND SWAP2 SWAP1 SWAP2 OR SWAP1 SSTORE PUSH1 0xD SLOAD PUSH2 0x106C SWAP1 PUSH2 0x1C5F JUMP JUMPDEST PUSH1 0xD SSTORE PUSH2 0x1086 PUSH1 0x40 MLOAD SWAP4 DUP5 SWAP4 PUSH1 0x40 DUP6 MSTORE PUSH1 0x40 DUP6 ADD SWAP2 PUSH2 0x1C3F JUMP JUMPDEST SWAP1 DUP9 DUP4 ADD MSTORE SUB SWAP1 LOG3 PUSH1 0x40 MLOAD SWAP1 DUP2 MSTORE RETURN JUMPDEST ADD MLOAD SWAP1 POP PUSH0 DUP1 PUSH2 0x803 JUMP JUMPDEST SWAP1 PUSH1 0x1F NOT DUP4 AND SWAP2 DUP5 PUSH0 MSTORE DUP2 PUSH0 KECCAK256 SWAP3 PUSH0 JUMPDEST DUP2 DUP2 LT PUSH2 0x1118 JUMPI POP SWAP4 PUSH1 0x5 SWAP7 SWAP4 DUP15 SWAP16 SWAP12 SWAP10 SWAP7 SWAP4 PUSH1 0x1 SWAP4 DUP4 PUSH32 0xC4494E6FC35818DB2DDA3E978F155382FB3E997AECC9EF19696722E239E76399 SWAP16 SWAP14 SWAP12 SWAP9 LT PUSH2 0x1100 JUMPI JUMPDEST POP POP POP DUP2 SHL ADD SWAP1 SSTORE PUSH2 0x1033 JUMP JUMPDEST ADD MLOAD PUSH0 NOT PUSH1 0xF8 DUP5 PUSH1 0x3 SHL AND SHR NOT AND SWAP1 SSTORE PUSH0 DUP1 DUP1 PUSH2 0x10F3 JUMP JUMPDEST SWAP3 SWAP4 PUSH1 0x20 PUSH1 0x1 DUP2 SWAP3 DUP8 DUP7 ADD MLOAD DUP2 SSTORE ADD SWAP6 ADD SWAP4 ADD PUSH2 0x10B1 JUMP JUMPDEST ADD MLOAD SWAP1 POP DUP15 DUP1 PUSH2 0x803 JUMP JUMPDEST SWAP1 PUSH1 0x1F NOT DUP4 AND SWAP2 DUP5 PUSH0 MSTORE DUP2 PUSH0 KECCAK256 SWAP3 PUSH0 JUMPDEST DUP2 DUP2 LT PUSH2 0x1186 JUMPI POP SWAP1 DUP5 PUSH1 0x1 SWAP6 SWAP5 SWAP4 SWAP3 LT PUSH2 0x116E JUMPI JUMPDEST POP POP POP DUP2 SHL ADD SWAP1 SSTORE PUSH2 0xFAD JUMP JUMPDEST ADD MLOAD PUSH0 NOT PUSH1 0xF8 DUP5 PUSH1 0x3 SHL AND SHR NOT AND SWAP1 SSTORE DUP14 DUP1 DUP1 PUSH2 0x1161 JUMP JUMPDEST SWAP3 SWAP4 PUSH1 0x20 PUSH1 0x1 DUP2 SWAP3 DUP8 DUP7 ADD MLOAD DUP2 SSTORE ADD SWAP6 ADD SWAP4 ADD PUSH2 0x114B JUMP JUMPDEST PUSH4 0x4E487B71 PUSH1 0xE0 SHL PUSH0 MSTORE PUSH0 PUSH1 0x4 MSTORE PUSH1 0x24 PUSH0 REVERT JUMPDEST PUSH1 0x40 MLOAD PUSH3 0x461BCD PUSH1 0xE5 SHL DUP2 MSTORE PUSH1 0x20 PUSH1 0x4 DUP3 ADD MSTORE PUSH1 0xE PUSH1 0x24 DUP3 ADD MSTORE PUSH14 0x139BDD08185D5D1A1BDC9A5E9959 PUSH1 0x92 SHL PUSH1 0x44 DUP3 ADD MSTORE PUSH1 0x64 SWAP1 REVERT JUMPDEST POP PUSH0 DUP3 DUP2 MSTORE PUSH1 0xA PUSH1 0x20 MSTORE PUSH1 0x40 SWAP1 KECCAK256 SLOAD PUSH1 0x1 PUSH1 0x1 PUSH1 0xA0 SHL SUB AND CALLER EQ PUSH2 0xE9D JUMP JUMPDEST CALLVALUE PUSH2 0x1EB JUMPI PUSH1 0x80 CALLDATASIZE PUSH1 0x3 NOT ADD SLT PUSH2 0x1EB JUMPI PUSH1 0x4 CALLDATALOAD PUSH2 0x1222 PUSH2 0x1906 JUMP JUMPDEST SWAP1 PUSH1 0x44 CALLDATALOAD PUSH1 0x64 CALLDATALOAD PUSH1 0x1 PUSH1 0x1 PUSH1 0x40 SHL SUB DUP2 GT PUSH2 0x1EB JUMPI PUSH2 0x1245 SWAP1 CALLDATASIZE SWAP1 PUSH1 0x4 ADD PUSH2 0x191C JUMP JUMPDEST PUSH2 0x1251 PUSH2 0xC44 DUP6 PUSH2 0x1FC7 JUMP JUMPDEST DUP3 TIMESTAMP GT PUSH2 0x135C JUMPI PUSH2 0x12CA PUSH2 0x12D0 SWAP3 PUSH2 0x12D9 SWAP5 PUSH1 0x40 MLOAD PUSH1 0x20 DUP2 ADD SWAP2 DUP9 DUP4 MSTORE PUSH1 0x1 PUSH1 0x1 PUSH1 0x60 SHL SUB NOT DUP11 PUSH1 0x60 SHL AND PUSH1 0x40 DUP4 ADD MSTORE PUSH1 0x54 DUP3 ADD MSTORE PUSH1 0x54 DUP2 MSTORE PUSH2 0x1295 PUSH1 0x74 DUP3 PUSH2 0x199E JUMP JUMPDEST MLOAD SWAP1 KECCAK256 PUSH32 0x19457468657265756D205369676E6564204D6573736167653A0A333200000000 PUSH0 MSTORE PUSH1 0x1C MSTORE PUSH1 0x3C PUSH0 KECCAK256 SWAP3 CALLDATASIZE SWAP2 PUSH2 0x19DA JUMP JUMPDEST SWAP1 PUSH2 0x20F9 JUMP JUMPDEST SWAP1 SWAP3 SWAP2 SWAP3 PUSH2 0x2133 JUMP JUMPDEST PUSH1 0x1 PUSH1 0x1 PUSH1 0xA0 SHL SUB DUP4 DUP2 AND SWAP2 AND SUB PUSH2 0x1317 JUMPI PUSH0 SWAP1 DUP2 MSTORE PUSH1 0xA PUSH1 0x20 MSTORE PUSH1 0x40 SWAP1 KECCAK256 DUP1 SLOAD PUSH1 0x1 PUSH1 0x1 PUSH1 0xA0 SHL SUB NOT AND PUSH1 0x1 PUSH1 0x1 PUSH1 0xA0 SHL SUB SWAP1 SWAP3 AND SWAP2 SWAP1 SWAP2 OR SWAP1 SSTORE STOP JUMPDEST PUSH1 0x40 MLOAD PUSH3 0x461BCD PUSH1 0xE5 SHL DUP2 MSTORE PUSH1 0x20 PUSH1 0x4 DUP3 ADD MSTORE PUSH1 0x18 PUSH1 0x24 DUP3 ADD MSTORE PUSH32 0x496E76616C69642077616C6C6574207369676E61747572650000000000000000 PUSH1 0x44 DUP3 ADD MSTORE PUSH1 0x64 SWAP1 REVERT JUMPDEST PUSH1 0x40 MLOAD PUSH3 0x461BCD PUSH1 0xE5 SHL DUP2 MSTORE PUSH1 0x20 PUSH1 0x4 DUP3 ADD MSTORE PUSH1 0x11 PUSH1 0x24 DUP3 ADD MSTORE PUSH17 0x14DA59DB985D1D5C9948195E1C1A5C9959 PUSH1 0x7A SHL PUSH1 0x44 DUP3 ADD MSTORE PUSH1 0x64 SWAP1 REVERT JUMPDEST CALLVALUE PUSH2 0x1EB JUMPI PUSH2 0x4DB PUSH2 0x13A6 CALLDATASIZE PUSH2 0x1949 JUMP JUMPDEST SWAP2 PUSH2 0x1C6D JUMP JUMPDEST CALLVALUE PUSH2 0x1EB JUMPI PUSH0 CALLDATASIZE PUSH1 0x3 NOT ADD SLT PUSH2 0x1EB JUMPI PUSH1 0x20 PUSH1 0x7 SLOAD PUSH2 0x13CA DUP2 PUSH2 0x1C5F JUMP JUMPDEST PUSH1 0x7 SSTORE PUSH2 0x13D7 DUP2 CALLER PUSH2 0x1FFB JUMP JUMPDEST PUSH1 0x40 MLOAD DUP3 DUP2 MSTORE PUSH0 DUP4 DUP3 ADD MSTORE DUP2 PUSH0 DUP1 MLOAD PUSH1 0x20 PUSH2 0x2235 DUP4 CODECOPY DUP2 MLOAD SWAP2 MSTORE PUSH1 0x40 CALLER SWAP4 LOG3 PUSH1 0x40 MLOAD SWAP1 DUP2 MSTORE RETURN JUMPDEST CALLVALUE PUSH2 0x1EB JUMPI PUSH1 0x20 CALLDATASIZE PUSH1 0x3 NOT ADD SLT PUSH2 0x1EB JUMPI PUSH1 0x4 CALLDATALOAD PUSH0 MSTORE PUSH1 0xC PUSH1 0x20 MSTORE PUSH1 0x20 PUSH1 0x40 PUSH0 KECCAK256 SLOAD PUSH1 0x40 MLOAD SWAP1 DUP2 MSTORE RETURN JUMPDEST CALLVALUE PUSH2 0x1EB JUMPI PUSH0 CALLDATASIZE PUSH1 0x3 NOT ADD SLT PUSH2 0x1EB JUMPI PUSH1 0x20 PUSH1 0xD SLOAD PUSH1 0x40 MLOAD SWAP1 DUP2 MSTORE RETURN JUMPDEST CALLVALUE PUSH2 0x1EB JUMPI PUSH1 0x40 CALLDATASIZE PUSH1 0x3 NOT ADD SLT PUSH2 0x1EB JUMPI PUSH1 0x4 CALLDATALOAD PUSH1 0x24 CALLDATALOAD PUSH1 0x1 PUSH1 0x1 PUSH1 0x40 SHL SUB DUP2 GT PUSH2 0x1EB JUMPI PUSH2 0x1478 SWAP1 CALLDATASIZE SWAP1 PUSH1 0x4 ADD PUSH2 0x191C JUMP JUMPDEST SWAP2 SWAP1 PUSH2 0x1486 PUSH2 0xC44 DUP4 PUSH2 0x1FC7 JUMP JUMPDEST DUP2 PUSH0 MSTORE PUSH1 0x8 PUSH1 0x20 MSTORE PUSH1 0x40 PUSH0 KECCAK256 PUSH1 0x1 PUSH1 0x1 PUSH1 0x40 SHL SUB DUP5 GT PUSH2 0x359 JUMPI PUSH2 0x14AE DUP5 PUSH2 0x266 DUP4 SLOAD PUSH2 0x1A8D JUMP JUMPDEST DUP4 PUSH0 PUSH1 0x1F DUP3 GT PUSH1 0x1 EQ PUSH2 0x1524 JUMPI SWAP2 PUSH2 0x1500 DUP3 PUSH32 0x3A2C7FFFC2CBA7582C690E3B82C453EA02A308326A98A3AD7576C606336409FB SWAP6 SWAP4 PUSH2 0xD2D SWAP6 PUSH0 SWAP2 PUSH2 0x1519 JUMPI POP DUP2 PUSH1 0x1 SHL SWAP2 PUSH0 NOT SWAP1 PUSH1 0x3 SHL SHR NOT AND OR SWAP1 JUMP JUMPDEST SWAP1 SSTORE JUMPDEST PUSH1 0x40 MLOAD SWAP2 DUP3 SWAP2 PUSH1 0x20 DUP4 MSTORE CALLER SWAP7 PUSH1 0x20 DUP5 ADD SWAP2 PUSH2 0x1C3F JUMP JUMPDEST SWAP1 POP DUP5 ADD CALLDATALOAD DUP10 PUSH2 0x299 JUMP JUMPDEST PUSH0 DUP4 DUP2 MSTORE PUSH1 0x20 DUP2 KECCAK256 SWAP3 POP DUP7 SWAP1 PUSH1 0x1F NOT DUP3 AND SWAP1 JUMPDEST DUP2 DUP2 LT PUSH2 0x1597 JUMPI POP SWAP2 PUSH32 0x3A2C7FFFC2CBA7582C690E3B82C453EA02A308326A98A3AD7576C606336409FB SWAP6 SWAP4 SWAP2 PUSH2 0xD2D SWAP6 SWAP4 LT PUSH2 0x157E JUMPI JUMPDEST POP POP PUSH1 0x1 DUP7 DUP2 SHL ADD SWAP1 SSTORE PUSH2 0x1503 JUMP JUMPDEST DUP4 ADD CALLDATALOAD PUSH0 NOT PUSH1 0x3 DUP10 SWAP1 SHL PUSH1 0xF8 AND SHR NOT AND SWAP1 SSTORE DUP7 DUP1 PUSH2 0x156F JUMP JUMPDEST DUP7 DUP5 ADD CALLDATALOAD DUP6 SSTORE PUSH1 0x1 SWAP1 SWAP5 ADD SWAP4 PUSH1 0x20 SWAP4 DUP5 ADD SWAP4 DUP10 SWAP4 POP ADD PUSH2 0x1537 JUMP JUMPDEST CALLVALUE PUSH2 0x1EB JUMPI PUSH1 0x40 CALLDATASIZE PUSH1 0x3 NOT ADD SLT PUSH2 0x1EB JUMPI PUSH2 0x15CB PUSH2 0x18F0 JUMP JUMPDEST PUSH1 0x24 CALLDATALOAD PUSH2 0x15D7 DUP2 PUSH2 0x1FC7 JUMP JUMPDEST CALLER ISZERO ISZERO DUP1 PUSH2 0x1689 JUMPI JUMPDEST DUP1 PUSH2 0x165C JUMPI JUMPDEST PUSH2 0x1649 JUMPI DUP2 SWAP1 PUSH1 0x1 PUSH1 0x1 PUSH1 0xA0 SHL SUB DUP5 DUP2 AND SWAP2 AND PUSH32 0x8C5BE1E5EBEC7D5BD14F71427D1E84F3DD0314C0F7B2291E5B200AC8C7C3B925 PUSH0 DUP1 LOG4 PUSH0 SWAP1 DUP2 MSTORE PUSH1 0x4 PUSH1 0x20 MSTORE PUSH1 0x40 SWAP1 KECCAK256 DUP1 SLOAD PUSH1 0x1 PUSH1 0x1 PUSH1 0xA0 SHL SUB NOT AND PUSH1 0x1 PUSH1 0x1 PUSH1 0xA0 SHL SUB SWAP1 SWAP3 AND SWAP2 SWAP1 SWAP2 OR SWAP1 SSTORE STOP JUMPDEST PUSH4 0xA9FBF51F PUSH1 0xE0 SHL PUSH0 MSTORE CALLER PUSH1 0x4 MSTORE PUSH1 0x24 PUSH0 REVERT JUMPDEST POP PUSH1 0x1 PUSH1 0x1 PUSH1 0xA0 SHL SUB DUP2 AND PUSH0 SWAP1 DUP2 MSTORE PUSH1 0x5 PUSH1 0x20 SWAP1 DUP2 MSTORE PUSH1 0x40 DUP1 DUP4 KECCAK256 CALLER DUP5 MSTORE SWAP1 SWAP2 MSTORE SWAP1 KECCAK256 SLOAD PUSH1 0xFF AND ISZERO PUSH2 0x15E6 JUMP JUMPDEST POP PUSH1 0x1 PUSH1 0x1 PUSH1 0xA0 SHL SUB DUP2 AND CALLER EQ ISZERO PUSH2 0x15E0 JUMP JUMPDEST CALLVALUE PUSH2 0x1EB JUMPI PUSH1 0x20 CALLDATASIZE PUSH1 0x3 NOT ADD SLT PUSH2 0x1EB JUMPI PUSH1 0x4 CALLDATALOAD PUSH2 0x16B9 DUP2 PUSH2 0x1FC7 JUMP JUMPDEST POP PUSH0 MSTORE PUSH1 0x4 PUSH1 0x20 MSTORE PUSH1 0x20 PUSH1 0x1 DUP1 PUSH1 0xA0 SHL SUB PUSH1 0x40 PUSH0 KECCAK256 SLOAD AND PUSH1 0x40 MLOAD SWAP1 DUP2 MSTORE RETURN JUMPDEST CALLVALUE PUSH2 0x1EB JUMPI PUSH0 CALLDATASIZE PUSH1 0x3 NOT ADD SLT PUSH2 0x1EB JUMPI PUSH1 0x40 MLOAD PUSH0 DUP1 SLOAD PUSH2 0x16F7 DUP2 PUSH2 0x1A8D JUMP JUMPDEST DUP1 DUP5 MSTORE SWAP1 PUSH1 0x1 DUP2 AND SWAP1 DUP2 ISZERO PUSH2 0x637 JUMPI POP PUSH1 0x1 EQ PUSH2 0x171E JUMPI PUSH2 0x44B DUP4 PUSH2 0x437 DUP2 DUP6 SUB DUP3 PUSH2 0x199E JUMP JUMPDEST PUSH0 DUP1 DUP1 MSTORE PUSH32 0x290DECD9548B62A8D60345A988386FC84BA6BC95484008F6362F93160EF3E563 SWAP4 SWAP3 POP SWAP1 JUMPDEST DUP1 DUP3 LT PUSH2 0x1760 JUMPI POP SWAP1 SWAP2 POP DUP2 ADD PUSH1 0x20 ADD PUSH2 0x437 PUSH2 0x5C9 JUMP JUMPDEST SWAP2 SWAP3 PUSH1 0x1 DUP2 PUSH1 0x20 SWAP3 SLOAD DUP4 DUP6 DUP9 ADD ADD MSTORE ADD SWAP2 ADD SWAP1 SWAP3 SWAP2 PUSH2 0x1748 JUMP JUMPDEST CALLVALUE PUSH2 0x1EB JUMPI PUSH2 0x44B PUSH2 0x17AB PUSH2 0xAB5 PUSH2 0x1791 CALLDATASIZE PUSH2 0x185B JUMP JUMPDEST SWAP1 PUSH2 0x179A PUSH2 0x1A2E JUMP JUMPDEST POP PUSH0 MSTORE PUSH1 0xC PUSH1 0x20 MSTORE PUSH1 0x40 PUSH0 KECCAK256 PUSH2 0x1A60 JUMP JUMPDEST PUSH1 0x40 MLOAD SWAP2 DUP3 SWAP2 PUSH1 0x20 DUP4 MSTORE PUSH1 0x20 DUP4 ADD SWAP1 PUSH2 0x1895 JUMP JUMPDEST CALLVALUE PUSH2 0x1EB JUMPI PUSH1 0x20 CALLDATASIZE PUSH1 0x3 NOT ADD SLT PUSH2 0x1EB JUMPI PUSH1 0x4 CALLDATALOAD PUSH4 0xFFFFFFFF PUSH1 0xE0 SHL DUP2 AND DUP1 SWAP2 SUB PUSH2 0x1EB JUMPI PUSH1 0x20 SWAP1 PUSH4 0x80AC58CD PUSH1 0xE0 SHL DUP2 EQ SWAP1 DUP2 ISZERO PUSH2 0x181C JUMPI JUMPDEST DUP2 ISZERO PUSH2 0x180B JUMPI JUMPDEST POP PUSH1 0x40 MLOAD SWAP1 ISZERO ISZERO DUP2 MSTORE RETURN JUMPDEST PUSH4 0x1FFC9A7 PUSH1 0xE0 SHL EQ SWAP1 POP DUP3 PUSH2 0x1800 JUMP JUMPDEST PUSH4 0x5B5E139F PUSH1 0xE0 SHL DUP2 EQ SWAP2 POP PUSH2 0x17F9 JUMP JUMPDEST CALLVALUE PUSH2 0x1EB JUMPI PUSH1 0x20 CALLDATASIZE PUSH1 0x3 NOT ADD SLT PUSH2 0x1EB JUMPI PUSH1 0x20 SWAP1 PUSH1 0x4 CALLDATALOAD PUSH0 MSTORE PUSH1 0xA DUP3 MSTORE PUSH1 0x1 DUP1 PUSH1 0xA0 SHL SUB PUSH1 0x40 PUSH0 KECCAK256 SLOAD AND DUP2 MSTORE RETURN JUMPDEST PUSH1 0x40 SWAP1 PUSH1 0x3 NOT ADD SLT PUSH2 0x1EB JUMPI PUSH1 0x4 CALLDATALOAD SWAP1 PUSH1 0x24 CALLDATALOAD SWAP1 JUMP JUMPDEST DUP1 MLOAD DUP1 DUP4 MSTORE PUSH1 0x20 SWAP3 SWAP2 DUP2 SWAP1 DUP5 ADD DUP5 DUP5 ADD MCOPY PUSH0 DUP3 DUP3 ADD DUP5 ADD MSTORE PUSH1 0x1F ADD PUSH1 0x1F NOT AND ADD ADD SWAP1 JUMP JUMPDEST SWAP1 DUP2 MLOAD DUP2 MSTORE PUSH1 0xA0 PUSH2 0x18CA PUSH2 0x18B8 PUSH1 0x20 DUP6 ADD MLOAD PUSH1 0xC0 PUSH1 0x20 DUP7 ADD MSTORE PUSH1 0xC0 DUP6 ADD SWAP1 PUSH2 0x1871 JUMP JUMPDEST PUSH1 0x40 DUP6 ADD MLOAD DUP5 DUP3 SUB PUSH1 0x40 DUP7 ADD MSTORE PUSH2 0x1871 JUMP JUMPDEST SWAP3 PUSH1 0x60 DUP2 ADD MLOAD PUSH1 0x60 DUP5 ADD MSTORE PUSH1 0x80 DUP2 ADD MLOAD PUSH1 0x80 DUP5 ADD MSTORE DUP2 PUSH1 0x1 DUP1 DUP3 SHL SUB SWAP2 ADD MLOAD AND SWAP2 ADD MSTORE SWAP1 JUMP JUMPDEST PUSH1 0x4 CALLDATALOAD SWAP1 PUSH1 0x1 PUSH1 0x1 PUSH1 0xA0 SHL SUB DUP3 AND DUP3 SUB PUSH2 0x1EB JUMPI JUMP JUMPDEST PUSH1 0x24 CALLDATALOAD SWAP1 PUSH1 0x1 PUSH1 0x1 PUSH1 0xA0 SHL SUB DUP3 AND DUP3 SUB PUSH2 0x1EB JUMPI JUMP JUMPDEST SWAP2 DUP2 PUSH1 0x1F DUP5 ADD SLT ISZERO PUSH2 0x1EB JUMPI DUP3 CALLDATALOAD SWAP2 PUSH1 0x1 PUSH1 0x1 PUSH1 0x40 SHL SUB DUP4 GT PUSH2 0x1EB JUMPI PUSH1 0x20 DUP4 DUP2 DUP7 ADD SWAP6 ADD ADD GT PUSH2 0x1EB JUMPI JUMP JUMPDEST PUSH1 0x60 SWAP1 PUSH1 0x3 NOT ADD SLT PUSH2 0x1EB JUMPI PUSH1 0x4 CALLDATALOAD PUSH1 0x1 PUSH1 0x1 PUSH1 0xA0 SHL SUB DUP2 AND DUP2 SUB PUSH2 0x1EB JUMPI SWAP1 PUSH1 0x24 CALLDATALOAD PUSH1 0x1 PUSH1 0x1 PUSH1 0xA0 SHL SUB DUP2 AND DUP2 SUB PUSH2 0x1EB JUMPI SWAP1 PUSH1 0x44 CALLDATALOAD SWAP1 JUMP JUMPDEST PUSH1 0xC0 DUP2 ADD SWAP1 DUP2 LT PUSH1 0x1 PUSH1 0x1 PUSH1 0x40 SHL SUB DUP3 GT OR PUSH2 0x359 JUMPI PUSH1 0x40 MSTORE JUMP JUMPDEST SWAP1 PUSH1 0x1F DUP1 NOT SWAP2 ADD AND DUP2 ADD SWAP1 DUP2 LT PUSH1 0x1 PUSH1 0x1 PUSH1 0x40 SHL SUB DUP3 GT OR PUSH2 0x359 JUMPI PUSH1 0x40 MSTORE JUMP JUMPDEST PUSH1 0x1 PUSH1 0x1 PUSH1 0x40 SHL SUB DUP2 GT PUSH2 0x359 JUMPI PUSH1 0x1F ADD PUSH1 0x1F NOT AND PUSH1 0x20 ADD SWAP1 JUMP JUMPDEST SWAP3 SWAP2 SWAP3 PUSH2 0x19E6 DUP3 PUSH2 0x19BF JUMP JUMPDEST SWAP2 PUSH2 0x19F4 PUSH1 0x40 MLOAD SWAP4 DUP5 PUSH2 0x199E JUMP JUMPDEST DUP3 SWAP5 DUP2 DUP5 MSTORE DUP2 DUP4 ADD GT PUSH2 0x1EB JUMPI DUP3 DUP2 PUSH1 0x20 SWAP4 DUP5 PUSH0 SWAP7 ADD CALLDATACOPY ADD ADD MSTORE JUMP JUMPDEST SWAP1 DUP1 PUSH1 0x1F DUP4 ADD SLT ISZERO PUSH2 0x1EB JUMPI DUP2 PUSH1 0x20 PUSH2 0x1A2B SWAP4 CALLDATALOAD SWAP2 ADD PUSH2 0x19DA JUMP JUMPDEST SWAP1 JUMP JUMPDEST PUSH1 0x40 MLOAD SWAP1 PUSH2 0x1A3B DUP3 PUSH2 0x1983 JUMP JUMPDEST PUSH0 PUSH1 0xA0 DUP4 DUP3 DUP2 MSTORE PUSH1 0x60 PUSH1 0x20 DUP3 ADD MSTORE PUSH1 0x60 PUSH1 0x40 DUP3 ADD MSTORE DUP3 PUSH1 0x60 DUP3 ADD MSTORE DUP3 PUSH1 0x80 DUP3 ADD MSTORE ADD MSTORE JUMP JUMPDEST DUP1 SLOAD DUP3 LT ISZERO PUSH2 0x1A79 JUMPI PUSH0 MSTORE PUSH1 0x6 PUSH1 0x20 PUSH0 KECCAK256 SWAP2 MUL ADD SWAP1 PUSH0 SWAP1 JUMP JUMPDEST PUSH4 0x4E487B71 PUSH1 0xE0 SHL PUSH0 MSTORE PUSH1 0x32 PUSH1 0x4 MSTORE PUSH1 0x24 PUSH0 REVERT JUMPDEST SWAP1 PUSH1 0x1 DUP3 DUP2 SHR SWAP3 AND DUP1 ISZERO PUSH2 0x1ABB JUMPI JUMPDEST PUSH1 0x20 DUP4 LT EQ PUSH2 0x1AA7 JUMPI JUMP JUMPDEST PUSH4 0x4E487B71 PUSH1 0xE0 SHL PUSH0 MSTORE PUSH1 0x22 PUSH1 0x4 MSTORE PUSH1 0x24 PUSH0 REVERT JUMPDEST SWAP2 PUSH1 0x7F AND SWAP2 PUSH2 0x1A9C JUMP JUMPDEST PUSH0 SWAP3 SWAP2 DUP2 SLOAD SWAP2 PUSH2 0x1AD4 DUP4 PUSH2 0x1A8D JUMP JUMPDEST DUP1 DUP4 MSTORE SWAP3 PUSH1 0x1 DUP2 AND SWAP1 DUP2 ISZERO PUSH2 0x1B29 JUMPI POP PUSH1 0x1 EQ PUSH2 0x1AF0 JUMPI POP POP POP JUMP JUMPDEST PUSH0 SWAP1 DUP2 MSTORE PUSH1 0x20 DUP2 KECCAK256 SWAP4 SWAP5 POP SWAP2 SWAP3 JUMPDEST DUP4 DUP4 LT PUSH2 0x1B0F JUMPI POP PUSH1 0x20 SWAP3 POP ADD ADD SWAP1 JUMP JUMPDEST PUSH1 0x1 DUP2 PUSH1 0x20 SWAP3 SWAP5 SWAP4 SWAP5 SLOAD DUP4 DUP6 DUP8 ADD ADD MSTORE ADD SWAP2 ADD SWAP2 SWAP1 PUSH2 0x1AFE JUMP JUMPDEST SWAP2 POP POP PUSH1 0x20 SWAP4 SWAP5 POP PUSH1 0xFF SWAP3 SWAP2 SWAP3 NOT AND DUP4 DUP4 ADD MSTORE ISZERO ISZERO PUSH1 0x5 SHL ADD ADD SWAP1 JUMP JUMPDEST SWAP1 PUSH1 0x40 MLOAD PUSH2 0x1B53 DUP2 PUSH2 0x1983 JUMP JUMPDEST PUSH1 0xA0 DUP2 SWAP4 DUP1 SLOAD DUP4 MSTORE PUSH1 0x40 MLOAD PUSH2 0x1B6F DUP2 PUSH2 0x430 DUP2 PUSH1 0x1 DUP7 ADD PUSH2 0x1AC5 JUMP JUMPDEST PUSH1 0x20 DUP5 ADD MSTORE PUSH1 0x40 MLOAD PUSH2 0x1B88 DUP2 PUSH2 0x430 DUP2 PUSH1 0x2 DUP7 ADD PUSH2 0x1AC5 JUMP JUMPDEST PUSH1 0x40 DUP5 ADD MSTORE PUSH1 0x3 DUP2 ADD SLOAD PUSH1 0x60 DUP5 ADD MSTORE PUSH1 0x4 DUP2 ADD SLOAD PUSH1 0x80 DUP5 ADD MSTORE PUSH1 0x5 ADD SLOAD PUSH0 NOT PUSH1 0x1 DUP4 SHL ADD AND SWAP2 ADD MSTORE JUMP JUMPDEST ISZERO PUSH2 0x1BB9 JUMPI JUMP JUMPDEST PUSH1 0x40 MLOAD PUSH3 0x461BCD PUSH1 0xE5 SHL DUP2 MSTORE PUSH1 0x20 PUSH1 0x4 DUP3 ADD MSTORE PUSH1 0xF PUSH1 0x24 DUP3 ADD MSTORE PUSH15 0x2737BA1030B3B2B73A1037BBB732B9 PUSH1 0x89 SHL PUSH1 0x44 DUP3 ADD MSTORE PUSH1 0x64 SWAP1 REVERT JUMPDEST PUSH1 0x1F DUP3 GT PUSH2 0x1BFD JUMPI POP POP POP JUMP JUMPDEST PUSH0 MSTORE PUSH1 0x20 PUSH0 KECCAK256 SWAP1 PUSH1 0x20 PUSH1 0x1F DUP5 ADD PUSH1 0x5 SHR DUP4 ADD SWAP4 LT PUSH2 0x1C35 JUMPI JUMPDEST PUSH1 0x1F ADD PUSH1 0x5 SHR ADD SWAP1 JUMPDEST DUP2 DUP2 LT PUSH2 0x1C2A JUMPI POP POP JUMP JUMPDEST PUSH0 DUP2 SSTORE PUSH1 0x1 ADD PUSH2 0x1C1F JUMP JUMPDEST SWAP1 SWAP2 POP DUP2 SWAP1 PUSH2 0x1C16 JUMP JUMPDEST SWAP1 DUP1 PUSH1 0x20 SWAP4 SWAP3 DUP2 DUP5 MSTORE DUP5 DUP5 ADD CALLDATACOPY PUSH0 DUP3 DUP3 ADD DUP5 ADD MSTORE PUSH1 0x1F ADD PUSH1 0x1F NOT AND ADD ADD SWAP1 JUMP JUMPDEST PUSH0 NOT DUP2 EQ PUSH2 0xAD7 JUMPI PUSH1 0x1 ADD SWAP1 JUMP JUMPDEST PUSH1 0x1 PUSH1 0x1 PUSH1 0xA0 SHL SUB SWAP1 SWAP2 AND SWAP2 SWAP1 DUP3 ISZERO PUSH2 0x1DF5 JUMPI PUSH0 DUP3 DUP2 MSTORE PUSH1 0x2 PUSH1 0x20 MSTORE PUSH1 0x40 SWAP1 KECCAK256 SLOAD PUSH1 0x1 PUSH1 0x1 PUSH1 0xA0 SHL SUB AND SWAP3 DUP3 SWAP1 CALLER ISZERO ISZERO DUP1 PUSH2 0x1D60 JUMPI JUMPDEST POP DUP5 PUSH2 0x1D2D JUMPI JUMPDEST DUP1 PUSH0 MSTORE PUSH1 0x3 PUSH1 0x20 MSTORE PUSH1 0x40 PUSH0 KECCAK256 PUSH1 0x1 DUP2 SLOAD ADD SWAP1 SSTORE DUP2 PUSH0 MSTORE PUSH1 0x2 PUSH1 0x20 MSTORE PUSH1 0x40 PUSH0 KECCAK256 DUP2 PUSH1 0x1 PUSH1 0x1 PUSH1 0x60 SHL SUB PUSH1 0xA0 SHL DUP3 SLOAD AND OR SWAP1 SSTORE DUP5 PUSH32 0xDDF252AD1BE2C89B69C2B068FC378DAA952BA7F163C4A11628F55A4DF523B3EF PUSH0 DUP1 LOG4 PUSH1 0x1 PUSH1 0x1 PUSH1 0xA0 SHL SUB AND DUP1 DUP4 SUB PUSH2 0x1D15 JUMPI POP POP POP JUMP JUMPDEST PUSH4 0x64283D7B PUSH1 0xE0 SHL PUSH0 MSTORE PUSH1 0x4 MSTORE PUSH1 0x24 MSTORE PUSH1 0x44 MSTORE PUSH1 0x64 PUSH0 REVERT JUMPDEST PUSH0 DUP3 DUP2 MSTORE PUSH1 0x4 PUSH1 0x20 MSTORE PUSH1 0x40 SWAP1 KECCAK256 DUP1 SLOAD PUSH1 0x1 PUSH1 0x1 PUSH1 0xA0 SHL SUB NOT AND SWAP1 SSTORE DUP5 PUSH0 MSTORE PUSH1 0x3 PUSH1 0x20 MSTORE PUSH1 0x40 PUSH0 KECCAK256 PUSH0 NOT DUP2 SLOAD ADD SWAP1 SSTORE PUSH2 0x1CAA JUMP JUMPDEST SWAP1 SWAP2 POP DUP1 PUSH2 0x1DA4 JUMPI JUMPDEST ISZERO PUSH2 0x1D76 JUMPI DUP3 SWAP1 PUSH0 PUSH2 0x1CA3 JUMP JUMPDEST DUP3 DUP5 PUSH2 0x1D8E JUMPI PUSH4 0x7E273289 PUSH1 0xE0 SHL PUSH0 MSTORE PUSH1 0x4 MSTORE PUSH1 0x24 PUSH0 REVERT JUMPDEST PUSH4 0x177E802F PUSH1 0xE0 SHL PUSH0 MSTORE CALLER PUSH1 0x4 MSTORE PUSH1 0x24 MSTORE PUSH1 0x44 PUSH0 REVERT JUMPDEST POP CALLER DUP5 EQ DUP1 ISZERO PUSH2 0x1DD3 JUMPI JUMPDEST DUP1 PUSH2 0x1D69 JUMPI POP PUSH0 DUP4 DUP2 MSTORE PUSH1 0x4 PUSH1 0x20 MSTORE PUSH1 0x40 SWAP1 KECCAK256 SLOAD PUSH1 0x1 PUSH1 0x1 PUSH1 0xA0 SHL SUB AND CALLER EQ PUSH2 0x1D69 JUMP JUMPDEST POP PUSH0 DUP5 DUP2 MSTORE PUSH1 0x5 PUSH1 0x20 SWAP1 DUP2 MSTORE PUSH1 0x40 DUP1 DUP4 KECCAK256 CALLER DUP5 MSTORE SWAP1 SWAP2 MSTORE SWAP1 KECCAK256 SLOAD PUSH1 0xFF AND PUSH2 0x1DAF JUMP JUMPDEST PUSH4 0x32505749 PUSH1 0xE1 SHL PUSH0 MSTORE PUSH0 PUSH1 0x4 MSTORE PUSH1 0x24 PUSH0 REVERT JUMPDEST PUSH1 0x1 PUSH1 0x1 PUSH1 0x40 SHL SUB DUP2 GT PUSH2 0x359 JUMPI PUSH1 0x5 SHL PUSH1 0x20 ADD SWAP1 JUMP JUMPDEST DUP1 MLOAD DUP3 LT ISZERO PUSH2 0x1A79 JUMPI PUSH1 0x20 SWAP2 PUSH1 0x5 SHL ADD ADD SWAP1 JUMP JUMPDEST SWAP2 SWAP1 DUP2 LT ISZERO PUSH2 0x1A79 JUMPI PUSH1 0x5 SHL DUP2 ADD CALLDATALOAD SWAP1 PUSH1 0x3E NOT DUP2 CALLDATASIZE SUB ADD DUP3 SLT ISZERO PUSH2 0x1EB JUMPI ADD SWAP1 JUMP JUMPDEST SWAP1 CALLDATALOAD SWAP1 PUSH1 0x1E NOT DUP2 CALLDATASIZE SUB ADD DUP3 SLT ISZERO PUSH2 0x1EB JUMPI ADD DUP1 CALLDATALOAD SWAP1 PUSH1 0x1 PUSH1 0x1 PUSH1 0x40 SHL SUB DUP3 GT PUSH2 0x1EB JUMPI PUSH1 0x20 ADD SWAP2 DUP2 CALLDATASIZE SUB DUP4 SGT PUSH2 0x1EB JUMPI JUMP JUMPDEST SWAP3 SWAP2 PUSH2 0x1E94 DUP2 DUP4 DUP7 PUSH2 0x1C6D JUMP JUMPDEST DUP2 EXTCODESIZE PUSH2 0x1EA1 JUMPI JUMPDEST POP POP POP POP JUMP JUMPDEST PUSH1 0x40 MLOAD PUSH4 0xA85BD01 PUSH1 0xE1 SHL DUP2 MSTORE CALLER PUSH1 0x4 DUP3 ADD MSTORE PUSH1 0x1 PUSH1 0x1 PUSH1 0xA0 SHL SUB SWAP5 DUP6 AND PUSH1 0x24 DUP3 ADD MSTORE PUSH1 0x44 DUP2 ADD SWAP2 SWAP1 SWAP2 MSTORE PUSH1 0x80 PUSH1 0x64 DUP3 ADD MSTORE SWAP3 AND SWAP2 SWAP1 PUSH1 0x20 SWAP1 DUP3 SWAP1 DUP2 SWAP1 PUSH2 0x1EEC SWAP1 PUSH1 0x84 DUP4 ADD SWAP1 PUSH2 0x1871 JUMP JUMPDEST SUB DUP2 PUSH0 DUP7 GAS CALL PUSH0 SWAP2 DUP2 PUSH2 0x1F82 JUMPI JUMPDEST POP PUSH2 0x1F4F JUMPI POP RETURNDATASIZE ISZERO PUSH2 0x1F48 JUMPI RETURNDATASIZE PUSH2 0x1F10 DUP2 PUSH2 0x19BF JUMP JUMPDEST SWAP1 PUSH2 0x1F1E PUSH1 0x40 MLOAD SWAP3 DUP4 PUSH2 0x199E JUMP JUMPDEST DUP2 MSTORE RETURNDATASIZE PUSH0 PUSH1 0x20 DUP4 ADD RETURNDATACOPY JUMPDEST DUP1 MLOAD SWAP1 DUP2 PUSH2 0x1F43 JUMPI DUP3 PUSH4 0x32505749 PUSH1 0xE1 SHL PUSH0 MSTORE PUSH1 0x4 MSTORE PUSH1 0x24 PUSH0 REVERT JUMPDEST PUSH1 0x20 ADD REVERT JUMPDEST PUSH1 0x60 PUSH2 0x1F28 JUMP JUMPDEST PUSH1 0x1 PUSH1 0x1 PUSH1 0xE0 SHL SUB NOT AND PUSH4 0x757A42FF PUSH1 0xE1 SHL ADD PUSH2 0x1F70 JUMPI POP PUSH0 DUP1 DUP1 DUP1 PUSH2 0x1E9B JUMP JUMPDEST PUSH4 0x32505749 PUSH1 0xE1 SHL PUSH0 MSTORE PUSH1 0x4 MSTORE PUSH1 0x24 PUSH0 REVERT JUMPDEST SWAP1 SWAP2 POP PUSH1 0x20 DUP2 RETURNDATASIZE PUSH1 0x20 GT PUSH2 0x1FBF JUMPI JUMPDEST DUP2 PUSH2 0x1F9E PUSH1 0x20 SWAP4 DUP4 PUSH2 0x199E JUMP JUMPDEST DUP2 ADD SUB SLT PUSH2 0x1EB JUMPI MLOAD PUSH1 0x1 PUSH1 0x1 PUSH1 0xE0 SHL SUB NOT DUP2 AND DUP2 SUB PUSH2 0x1EB JUMPI SWAP1 PUSH0 PUSH2 0x1EFA JUMP JUMPDEST RETURNDATASIZE SWAP2 POP PUSH2 0x1F91 JUMP JUMPDEST PUSH0 DUP2 DUP2 MSTORE PUSH1 0x2 PUSH1 0x20 MSTORE PUSH1 0x40 SWAP1 KECCAK256 SLOAD PUSH1 0x1 PUSH1 0x1 PUSH1 0xA0 SHL SUB AND SWAP1 DUP2 ISZERO PUSH2 0x1FE9 JUMPI POP SWAP1 JUMP JUMPDEST PUSH4 0x7E273289 PUSH1 0xE0 SHL PUSH0 MSTORE PUSH1 0x4 MSTORE PUSH1 0x24 PUSH0 REVERT JUMPDEST PUSH1 0x1 PUSH1 0x1 PUSH1 0xA0 SHL SUB AND SWAP1 DUP2 ISZERO PUSH2 0x1DF5 JUMPI PUSH0 DUP2 DUP2 MSTORE PUSH1 0x2 PUSH1 0x20 MSTORE PUSH1 0x40 SWAP1 KECCAK256 SLOAD PUSH1 0x1 PUSH1 0x1 PUSH1 0xA0 SHL SUB AND DUP1 ISZERO ISZERO SWAP3 SWAP1 SWAP2 SWAP1 DUP4 PUSH2 0x209F JUMPI JUMPDEST DUP1 PUSH0 MSTORE PUSH1 0x3 PUSH1 0x20 MSTORE PUSH1 0x40 PUSH0 KECCAK256 PUSH1 0x1 DUP2 SLOAD ADD SWAP1 SSTORE DUP2 PUSH0 MSTORE PUSH1 0x2 PUSH1 0x20 MSTORE PUSH1 0x40 PUSH0 KECCAK256 DUP2 PUSH1 0x1 PUSH1 0x1 PUSH1 0x60 SHL SUB PUSH1 0xA0 SHL DUP3 SLOAD AND OR SWAP1 SSTORE DUP3 PUSH32 0xDDF252AD1BE2C89B69C2B068FC378DAA952BA7F163C4A11628F55A4DF523B3EF PUSH0 DUP1 LOG4 POP PUSH2 0x208C JUMPI JUMP JUMPDEST PUSH4 0x39E35637 PUSH1 0xE1 SHL PUSH0 MSTORE PUSH0 PUSH1 0x4 MSTORE PUSH1 0x24 PUSH0 REVERT JUMPDEST PUSH0 DUP3 DUP2 MSTORE PUSH1 0x4 PUSH1 0x20 MSTORE PUSH1 0x40 SWAP1 KECCAK256 DUP1 SLOAD PUSH1 0x1 PUSH1 0x1 PUSH1 0xA0 SHL SUB NOT AND SWAP1 SSTORE DUP3 PUSH0 MSTORE PUSH1 0x3 PUSH1 0x20 MSTORE PUSH1 0x40 PUSH0 KECCAK256 PUSH0 NOT DUP2 SLOAD ADD SWAP1 SSTORE PUSH2 0x202F JUMP JUMPDEST PUSH1 0x6 SLOAD PUSH1 0x1 PUSH1 0x1 PUSH1 0xA0 SHL SUB AND CALLER SUB PUSH2 0x20E6 JUMPI JUMP JUMPDEST PUSH4 0x118CDAA7 PUSH1 0xE0 SHL PUSH0 MSTORE CALLER PUSH1 0x4 MSTORE PUSH1 0x24 PUSH0 REVERT JUMPDEST DUP2 MLOAD SWAP2 SWAP1 PUSH1 0x41 DUP4 SUB PUSH2 0x2129 JUMPI PUSH2 0x2122 SWAP3 POP PUSH1 0x20 DUP3 ADD MLOAD SWAP1 PUSH1 0x60 PUSH1 0x40 DUP5 ADD MLOAD SWAP4 ADD MLOAD PUSH0 BYTE SWAP1 PUSH2 0x21A7 JUMP JUMPDEST SWAP2 SWAP3 SWAP1 SWAP2 SWAP1 JUMP JUMPDEST POP POP PUSH0 SWAP2 PUSH1 0x2 SWAP2 SWAP1 JUMP JUMPDEST PUSH1 0x4 DUP2 LT ISZERO PUSH2 0x2193 JUMPI DUP1 PUSH2 0x2145 JUMPI POP POP JUMP JUMPDEST PUSH1 0x1 DUP2 SUB PUSH2 0x215C JUMPI PUSH4 0xF645EEDF PUSH1 0xE0 SHL PUSH0 MSTORE PUSH1 0x4 PUSH0 REVERT JUMPDEST PUSH1 0x2 DUP2 SUB PUSH2 0x2177 JUMPI POP PUSH4 0xFCE698F7 PUSH1 0xE0 SHL PUSH0 MSTORE PUSH1 0x4 MSTORE PUSH1 0x24 PUSH0 REVERT JUMPDEST PUSH1 0x3 EQ PUSH2 0x2181 JUMPI POP JUMP JUMPDEST PUSH4 0x35E2F383 PUSH1 0xE2 SHL PUSH0 MSTORE PUSH1 0x4 MSTORE PUSH1 0x24 PUSH0 REVERT JUMPDEST PUSH4 0x4E487B71 PUSH1 0xE0 SHL PUSH0 MSTORE PUSH1 0x21 PUSH1 0x4 MSTORE PUSH1 0x24 PUSH0 REVERT JUMPDEST SWAP2 SWAP1 PUSH32 0x7FFFFFFFFFFFFFFFFFFFFFFFFFFFFFFF5D576E7357A4501DDFE92F46681B20A0 DUP5 GT PUSH2 0x2229 JUMPI SWAP2 PUSH1 0x20 SWAP4 PUSH1 0x80 SWAP3 PUSH1 0xFF PUSH0 SWAP6 PUSH1 0x40 MLOAD SWAP5 DUP6 MSTORE AND DUP7 DUP5 ADD MSTORE PUSH1 0x40 DUP4 ADD MSTORE PUSH1 0x60 DUP3 ADD MSTORE DUP3 DUP1 MSTORE PUSH1 0x1 GAS STATICCALL ISZERO PUSH2 0x221E JUMPI PUSH0 MLOAD PUSH1 0x1 PUSH1 0x1 PUSH1 0xA0 SHL SUB DUP2 AND ISZERO PUSH2 0x2214 JUMPI SWAP1 PUSH0 SWAP1 PUSH0 SWAP1 JUMP JUMPDEST POP PUSH0 SWAP1 PUSH1 0x1 SWAP1 PUSH0 SWAP1 JUMP JUMPDEST PUSH1 0x40 MLOAD RETURNDATASIZE PUSH0 DUP3 RETURNDATACOPY RETURNDATASIZE SWAP1 REVERT JUMPDEST POP POP POP PUSH0 SWAP2 PUSH1 0x3 SWAP2 SWAP1 JUMP INVALID 0xCA MSTORE 0xE6 0x2C CALLDATASIZE PUSH30 0x81BB2E328EB795F7C7BA24AFB478408A26C0E201D155C449BC4AA2646970 PUSH7 0x7358221220A763 PUSH8 0x83B0D8625CCA9989 0xD8 0xCE MULMOD CODESIZE PUSH24 0xF508A1F33986F0F0FA2236270D02F98464736F6C63430008 BYTE STOP CALLER "},"methodIdentifiers":{"approve(address,uint256)":"095ea7b3","balanceOf(address)":"70a08231","getAgentWallet(uint256)":"00339509","getApproved(uint256)":"081812fc","getDecision(uint256,uint256)":"036aa50b","getDecisionCount(uint256)":"12593b82","getMetadata(uint256,string)":"cb4799f2","getRecentDecisions(uint256,uint256)":"839c317c","isApprovedForAll(address,address)":"e985e9c5","name()":"06fdde03","owner()":"8da5cb5b","ownerOf(uint256)":"6352211e","recordDecision(uint256,string,string)":"3c3a0124","register()":"1aa3a008","register(string)":"f2c298be","register(string,(string,bytes)[])":"8ea42286","renounceOwnership()":"715018a6","safeTransferFrom(address,address,uint256)":"42842e0e","safeTransferFrom(address,address,uint256,bytes)":"b88d4fde","setAgentURI(uint256,string)":"0af28bd3","setAgentWallet(uint256,address,uint256,bytes)":"2d1ef5ae","setApprovalForAll(address,bool)":"a22cb465","setMetadata(uint256,string,bytes)":"466648da","supportsInterface(bytes4)":"01ffc9a7","symbol()":"95d89b41","tokenURI(uint256)":"c87b56dd","totalDecisions()":"0c96a61a","transferFrom(address,address,uint256)":"23b872dd","transferOwnership(address)":"f2fde38b","unsetAgentWallet(uint256)":"3fddcf19"}}}}}