{"project/contracts/AtlasValidationRegistry.sol":{"AtlasValidationRegistry":{"abi":[{"inputs":[{"internalType":"address","name":"_identityRegistry","type":"address"}],"stateMutability":"nonpayable","type":"constructor"},{"anonymous":false,"inputs":[{"indexed":true,"internalType":"address","name":"validatorAddress","type":"address"},{"indexed":true,"internalType":"uint256","name":"agentId","type":"uint256"},{"indexed":false,"internalType":"string","name":"requestURI","type":"string"},{"indexed":true,"internalType":"bytes32","name":"requestHash","type":"bytes32"}],"name":"ValidationRequest","type":"event"},{"anonymous":false,"inputs":[{"indexed":true,"internalType":"address","name":"validatorAddress","type":"address"},{"indexed":true,"internalType":"uint256","name":"agentId","type":"uint256"},{"indexed":true,"internalType":"bytes32","name":"requestHash","type":"bytes32"},{"indexed":false,"internalType":"uint8","name":"response","type":"uint8"},{"indexed":false,"internalType":"string","name":"responseURI","type":"string"},{"indexed":false,"internalType":"bytes32","name":"responseHash","type":"bytes32"},{"indexed":false,"internalType":"string","name":"tag","type":"string"}],"name":"ValidationResponse","type":"event"},{"inputs":[{"internalType":"uint256","name":"agentId","type":"uint256"}],"name":"getAgentValidations","outputs":[{"internalType":"bytes32[]","name":"","type":"bytes32[]"}],"stateMutability":"view","type":"function"},{"inputs":[],"name":"getIdentityRegistry","outputs":[{"internalType":"address","name":"","type":"address"}],"stateMutability":"view","type":"function"},{"inputs":[{"internalType":"uint256","name":"agentId","type":"uint256"},{"internalType":"address[]","name":"validatorAddresses","type":"address[]"},{"internalType":"string","name":"tag","type":"string"}],"name":"getSummary","outputs":[{"internalType":"uint64","name":"count","type":"uint64"},{"internalType":"uint8","name":"averageResponse","type":"uint8"}],"stateMutability":"view","type":"function"},{"inputs":[{"internalType":"bytes32","name":"requestHash","type":"bytes32"}],"name":"getValidationStatus","outputs":[{"internalType":"address","name":"validatorAddress","type":"address"},{"internalType":"uint256","name":"agentId","type":"uint256"},{"internalType":"uint8","name":"response","type":"uint8"},{"internalType":"bytes32","name":"responseHash","type":"bytes32"},{"internalType":"string","name":"tag","type":"string"},{"internalType":"uint256","name":"lastUpdate","type":"uint256"}],"stateMutability":"view","type":"function"},{"inputs":[{"internalType":"address","name":"validatorAddress","type":"address"}],"name":"getValidatorRequests","outputs":[{"internalType":"bytes32[]","name":"","type":"bytes32[]"}],"stateMutability":"view","type":"function"},{"inputs":[],"name":"identityRegistry","outputs":[{"internalType":"address","name":"","type":"address"}],"stateMutability":"view","type":"function"},{"inputs":[{"internalType":"address","name":"validatorAddress","type":"address"},{"internalType":"uint256","name":"agentId","type":"uint256"},{"internalType":"string","name":"requestURI","type":"string"},{"internalType":"bytes32","name":"requestHash","type":"bytes32"}],"name":"validationRequest","outputs":[],"stateMutability":"nonpayable","type":"function"},{"inputs":[{"internalType":"bytes32","name":"requestHash","type":"bytes32"},{"internalType":"uint8","name":"response","type":"uint8"},{"internalType":"string","name":"responseURI","type":"string"},{"internalType":"bytes32","name":"responseHash","type":"bytes32"},{"internalType":"string","name":"tag","type":"string"}],"name":"validationResponse","outputs":[],"stateMutability":"nonpayable","type":"function"}],"evm":{"bytecode":{"linkReferences":{},"object":"60a034606657601f610fd038819003918201601f19168301916001600160401b03831184841017606a57808492602094604052833981010312606657516001600160a01b0381168103606657608052604051610f51908161007f823960805181610c800152f35b5f80fd5b634e487b7160e01b5f52604160045260245ffdfe60806040526004361015610011575f80fd5b5f3560e01c8063134e18f414610c6b5780631b7cabd614610a1e5780633d659a961461068c5780634bf3158c1461061a5780638d5d0c2d146105a6578063aaf400c414610123578063bc4d861b1461011e5763ff2febfc14610071575f80fd5b3461011a57602036600319011261011a576004355f525f60205260405f2060e060018060a01b038254166020600184015493600760ff6004830154166006830154906100d36008850154946100cc6040518096819301610d8c565b0384610e0d565b6040519788968752858701526040860152606085015260c0608085015280519283918260c0870152018585015e5f83830185015260a0830152601f01601f19168101030190f35b5f80fd5b610c6b565b3461011a57608036600319011261011a5761013c610cdc565b6024356044356001600160401b03811161011a5761015e903690600401610caf565b60643593845f525f602052600360405f200154610568576040519061012082018281106001600160401b03821117610471576040526001600160a01b03168082526020820185815290939091866101b6368685610e2e565b9360408301948552606083019482865260808401955f8752602096604051916101df8984610e0d565b5f835260a0870192835260c08701935f8552604051956101ff8b88610e0d565b5f80885260e08a01978852426101008b01908152988152808c5260409020985189546001600160a01b0319166001600160a01b039190911617895551600189015551805160028901916001600160401b0382116104715761026a826102648554610d54565b85610e73565b8b90601f83116001146104fe57918061029e9260ff979695945f926104f3575b50508160011b915f199060031b1c19161790565b90555b516003880155511660ff60048701911660ff198254161790556005850190518051906001600160401b038211610471576102df826102648554610d54565b8890601f83116001146104905761030c92915f91836104855750508160011b915f199060031b1c19161790565b90555b51600684015551805160078401916001600160401b03821161047157610339826102648554610d54565b8690601f83116001146103e35792610393836008947f530436c3634a98e1e626b0898be2f1e9980cc1bd2a78c07a0aba52d0a48a50599b9a9997946103d399975f926103d85750508160011b915f199060031b1c19161790565b90555b51910155865f52600183526103ae8860405f20610ee2565b855f52600283526103c28860405f20610ee2565b604051938385948552840191610ec2565b0390a4005b015190508f8061028a565b90601f19831691845f52885f20925f5b81811061045a5750937f530436c3634a98e1e626b0898be2f1e9980cc1bd2a78c07a0aba52d0a48a50599a999896936103d39896936001938360089810610442575b505050811b019055610396565b01515f1960f88460031b161c191690558e8080610435565b92938a6001819287860151815501950193016103f3565b634e487b7160e01b5f52604160045260245ffd5b015190508e8061028a565b90601f19831691845f528a5f20925f5b8c8282106104dd5750509084600195949392106104c5575b505050811b01905561030f565b01515f1960f88460031b161c191690558d80806104b8565b60018596829396860151815501950193016104a0565b015190505f8061028a565b5f8481528d8120929190601f198516908f5b82821061055157505091600193918560ff999897969410610539575b505050811b0190556102a1565b01515f1960f88460031b161c191690555f808061052c565b60018596829396860151815501950193018f610510565b60405162461bcd60e51b81526020600482015260166024820152755265717565737420616c72656164792065786973747360501b6044820152606490fd5b3461011a57602036600319011261011a576004355f52600160205260405f206040519081602082549182815201915f5260205f20905f5b81811061060457610600856105f481870382610e0d565b60405191829182610cf2565b0390f35b82548452602090930192600192830192016105dd565b3461011a57602036600319011261011a576001600160a01b0361063b610cdc565b165f52600260205260405f206040519081602082549182815201915f5260205f20905f5b81811061067657610600856105f481870382610e0d565b825484526020909301926001928301920161065f565b3461011a5760a036600319011261011a5760043560243560ff811680910361011a576044356001600160401b03811161011a576106cd903690600401610caf565b606492919235916084356001600160401b03811161011a576106f3903690600401610caf565b865f959295525f60205260405f20946003860154156109e55785546001600160a01b031633036109a057600184101580610995575b156109585760048601805460ff191685179055600586016001600160401b038611610471576107618661075b8354610d54565b83610e73565b5f86601f81116001146108f4578061078d925f916108e9575b508160011b915f199060031b1c19161790565b90555b826006870155600786016001600160401b038311610471576107b68361075b8354610d54565b5f601f841160011461085d5791839161080b836103d3967fafddf629e874ccc3963b6a888c477bd464a6c8525024fc88759ea3b2326349ae9a9998965f9161085257508160011b915f199060031b1c19161790565b90555b42600889015561083f6001808060a01b038a5416990154996040519788978852608060208901526080880191610ec2565b9260408601528483036060860152610ec2565b90508401358e61077a565b601f19841690825f5260205f20915f5b8181106108d15750918593916103d3967fafddf629e874ccc3963b6a888c477bd464a6c8525024fc88759ea3b2326349ae9a99989694106108b8575b5050600183811b01905561080e565b8301355f19600386901b60f8161c191690558b806108a9565b9192602060018192868901358155019401920161086d565b90508a01358c61077a565b50601f19871690825f528760205f20925f5b8c82821061093e57505010610925575b5050600186811b019055610790565b8901355f19600389901b60f8161c191690558980610916565b84013585556001909401936020938401938b935001610906565b60405162461bcd60e51b8152602060048201526015602482015274496e76616c696420726573706f6e736520636f646560581b6044820152606490fd5b506003841115610728565b60405162461bcd60e51b815260206004820152601c60248201527f4e6f74207468652064657369676e617465642076616c696461746f72000000006044820152606490fd5b60405162461bcd60e51b815260206004820152601160248201527014995c5d595cdd081b9bdd08199bdd5b99607a1b6044820152606490fd5b3461011a57606036600319011261011a576024356001600160401b03811161011a573660238201121561011a578060040135906001600160401b03821161011a573660248360051b8301011161011a576044356001600160401b03811161011a57610a8d903690600401610caf565b9190925f9281151594811515926004355f52600160205260405f20945f975f958754975b888810610b06578a6001600160401b038b16801580610af957610ae55760ff808260409404165b8351928352166020820152f35b634e487b7160e01b5f52601260045260245ffd5b506040915060ff5f610ad8565b909192939495969799610b198983610d2b565b90549060031b1c5f525f60205260405f2060ff600482015416908115610c23578480610c2f575b610c235785610b99575b508101809111610b85576001600160401b039099166001600160401b038114610b85576001809101985b019695949392919099979899610ab1565b634e487b7160e01b5f52601160045260245ffd5b969a9891999b9293945f989198505f955f9860018060a01b03905416985b8d811015610c10576024600582901b8a0101356001600160a01b0381169081900361011a578a14610bea57600101610bb7565b5094939c9a92999b975094509660015b15610c05578c610b4a565b509897600190610b74565b5094939c9a92999b975094979097610bfa565b50509897600190610b74565b50604051610c4b81610c448160078601610d8c565b0382610e0d565b60208151910120610c5d368c8c610e2e565b602081519101201415610b40565b3461011a575f36600319011261011a576040517f00000000000000000000000000000000000000000000000000000000000000006001600160a01b03168152602090f35b9181601f8401121561011a578235916001600160401b03831161011a576020838186019501011161011a57565b600435906001600160a01b038216820361011a57565b60206040818301928281528451809452019201905f5b818110610d155750505090565b8251845260209384019390920191600101610d08565b8054821015610d40575f5260205f2001905f90565b634e487b7160e01b5f52603260045260245ffd5b90600182811c92168015610d82575b6020831014610d6e57565b634e487b7160e01b5f52602260045260245ffd5b91607f1691610d63565b5f9291815491610d9b83610d54565b8083529260018116908115610df05750600114610db757505050565b5f9081526020812093945091925b838310610dd6575060209250010190565b600181602092949394548385870101520191019190610dc5565b915050602093945060ff929192191683830152151560051b010190565b90601f801991011681019081106001600160401b0382111761047157604052565b9291926001600160401b0382116104715760405191610e57601f8201601f191660200184610e0d565b82948184528183011161011a578281602093845f960137010152565b601f8211610e8057505050565b5f5260205f20906020601f840160051c83019310610eb8575b601f0160051c01905b818110610ead575050565b5f8155600101610ea2565b9091508190610e99565b908060209392818452848401375f828201840152601f01601f1916010190565b80546801000000000000000081101561047157610f0491600182018155610d2b565b819291549060031b91821b915f19901b191617905556fea26469706673582212208cc4a8c2cc90ccf96de99714ccf9eb1afc1793a928c8f41ed98213f0df3c577764736f6c634300081a0033","opcodes":"PUSH1 0xA0 CALLVALUE PUSH1 0x66 JUMPI PUSH1 0x1F PUSH2 0xFD0 CODESIZE DUP2 SWAP1 SUB SWAP2 DUP3 ADD PUSH1 0x1F NOT AND DUP4 ADD SWAP2 PUSH1 0x1 PUSH1 0x1 PUSH1 0x40 SHL SUB DUP4 GT DUP5 DUP5 LT OR PUSH1 0x6A JUMPI DUP1 DUP5 SWAP3 PUSH1 0x20 SWAP5 PUSH1 0x40 MSTORE DUP4 CODECOPY DUP2 ADD SUB SLT PUSH1 0x66 JUMPI MLOAD PUSH1 0x1 PUSH1 0x1 PUSH1 0xA0 SHL SUB DUP2 AND DUP2 SUB PUSH1 0x66 JUMPI PUSH1 0x80 MSTORE PUSH1 0x40 MLOAD PUSH2 0xF51 SWAP1 DUP2 PUSH2 0x7F DUP3 CODECOPY PUSH1 0x80 MLOAD DUP2 PUSH2 0xC80 ADD MSTORE RETURN JUMPDEST PUSH0 DUP1 REVERT JUMPDEST PUSH4 0x4E487B71 PUSH1 0xE0 SHL PUSH0 MSTORE PUSH1 0x41 PUSH1 0x4 MSTORE PUSH1 0x24 PUSH0 REVERT INVALID PUSH1 0x80 PUSH1 0x40 MSTORE PUSH1 0x4 CALLDATASIZE LT ISZERO PUSH2 0x11 JUMPI PUSH0 DUP1 REVERT JUMPDEST PUSH0 CALLDATALOAD PUSH1 0xE0 SHR DUP1 PUSH4 0x134E18F4 EQ PUSH2 0xC6B JUMPI DUP1 PUSH4 0x1B7CABD6 EQ PUSH2 0xA1E JUMPI DUP1 PUSH4 0x3D659A96 EQ PUSH2 0x68C JUMPI DUP1 PUSH4 0x4BF3158C EQ PUSH2 0x61A JUMPI DUP1 PUSH4 0x8D5D0C2D EQ PUSH2 0x5A6 JUMPI DUP1 PUSH4 0xAAF400C4 EQ PUSH2 0x123 JUMPI DUP1 PUSH4 0xBC4D861B EQ PUSH2 0x11E JUMPI PUSH4 0xFF2FEBFC EQ PUSH2 0x71 JUMPI PUSH0 DUP1 REVERT JUMPDEST CALLVALUE PUSH2 0x11A JUMPI PUSH1 0x20 CALLDATASIZE PUSH1 0x3 NOT ADD SLT PUSH2 0x11A JUMPI PUSH1 0x4 CALLDATALOAD PUSH0 MSTORE PUSH0 PUSH1 0x20 MSTORE PUSH1 0x40 PUSH0 KECCAK256 PUSH1 0xE0 PUSH1 0x1 DUP1 PUSH1 0xA0 SHL SUB DUP3 SLOAD AND PUSH1 0x20 PUSH1 0x1 DUP5 ADD SLOAD SWAP4 PUSH1 0x7 PUSH1 0xFF PUSH1 0x4 DUP4 ADD SLOAD AND PUSH1 0x6 DUP4 ADD SLOAD SWAP1 PUSH2 0xD3 PUSH1 0x8 DUP6 ADD SLOAD SWAP5 PUSH2 0xCC PUSH1 0x40 MLOAD DUP1 SWAP7 DUP2 SWAP4 ADD PUSH2 0xD8C JUMP JUMPDEST SUB DUP5 PUSH2 0xE0D JUMP JUMPDEST PUSH1 0x40 MLOAD SWAP8 DUP9 SWAP7 DUP8 MSTORE DUP6 DUP8 ADD MSTORE PUSH1 0x40 DUP7 ADD MSTORE PUSH1 0x60 DUP6 ADD MSTORE PUSH1 0xC0 PUSH1 0x80 DUP6 ADD MSTORE DUP1 MLOAD SWAP3 DUP4 SWAP2 DUP3 PUSH1 0xC0 DUP8 ADD MSTORE ADD DUP6 DUP6 ADD MCOPY PUSH0 DUP4 DUP4 ADD DUP6 ADD MSTORE PUSH1 0xA0 DUP4 ADD MSTORE PUSH1 0x1F ADD PUSH1 0x1F NOT AND DUP2 ADD SUB ADD SWAP1 RETURN JUMPDEST PUSH0 DUP1 REVERT JUMPDEST PUSH2 0xC6B JUMP JUMPDEST CALLVALUE PUSH2 0x11A JUMPI PUSH1 0x80 CALLDATASIZE PUSH1 0x3 NOT ADD SLT PUSH2 0x11A JUMPI PUSH2 0x13C PUSH2 0xCDC JUMP JUMPDEST PUSH1 0x24 CALLDATALOAD PUSH1 0x44 CALLDATALOAD PUSH1 0x1 PUSH1 0x1 PUSH1 0x40 SHL SUB DUP2 GT PUSH2 0x11A JUMPI PUSH2 0x15E SWAP1 CALLDATASIZE SWAP1 PUSH1 0x4 ADD PUSH2 0xCAF JUMP JUMPDEST PUSH1 0x64 CALLDATALOAD SWAP4 DUP5 PUSH0 MSTORE PUSH0 PUSH1 0x20 MSTORE PUSH1 0x3 PUSH1 0x40 PUSH0 KECCAK256 ADD SLOAD PUSH2 0x568 JUMPI PUSH1 0x40 MLOAD SWAP1 PUSH2 0x120 DUP3 ADD DUP3 DUP2 LT PUSH1 0x1 PUSH1 0x1 PUSH1 0x40 SHL SUB DUP3 GT OR PUSH2 0x471 JUMPI PUSH1 0x40 MSTORE PUSH1 0x1 PUSH1 0x1 PUSH1 0xA0 SHL SUB AND DUP1 DUP3 MSTORE PUSH1 0x20 DUP3 ADD DUP6 DUP2 MSTORE SWAP1 SWAP4 SWAP1 SWAP2 DUP7 PUSH2 0x1B6 CALLDATASIZE DUP7 DUP6 PUSH2 0xE2E JUMP JUMPDEST SWAP4 PUSH1 0x40 DUP4 ADD SWAP5 DUP6 MSTORE PUSH1 0x60 DUP4 ADD SWAP5 DUP3 DUP7 MSTORE PUSH1 0x80 DUP5 ADD SWAP6 PUSH0 DUP8 MSTORE PUSH1 0x20 SWAP7 PUSH1 0x40 MLOAD SWAP2 PUSH2 0x1DF DUP10 DUP5 PUSH2 0xE0D JUMP JUMPDEST PUSH0 DUP4 MSTORE PUSH1 0xA0 DUP8 ADD SWAP3 DUP4 MSTORE PUSH1 0xC0 DUP8 ADD SWAP4 PUSH0 DUP6 MSTORE PUSH1 0x40 MLOAD SWAP6 PUSH2 0x1FF DUP12 DUP9 PUSH2 0xE0D JUMP JUMPDEST PUSH0 DUP1 DUP9 MSTORE PUSH1 0xE0 DUP11 ADD SWAP8 DUP9 MSTORE TIMESTAMP PUSH2 0x100 DUP12 ADD SWAP1 DUP2 MSTORE SWAP9 DUP2 MSTORE DUP1 DUP13 MSTORE PUSH1 0x40 SWAP1 KECCAK256 SWAP9 MLOAD DUP10 SLOAD PUSH1 0x1 PUSH1 0x1 PUSH1 0xA0 SHL SUB NOT AND PUSH1 0x1 PUSH1 0x1 PUSH1 0xA0 SHL SUB SWAP2 SWAP1 SWAP2 AND OR DUP10 SSTORE MLOAD PUSH1 0x1 DUP10 ADD SSTORE MLOAD DUP1 MLOAD PUSH1 0x2 DUP10 ADD SWAP2 PUSH1 0x1 PUSH1 0x1 PUSH1 0x40 SHL SUB DUP3 GT PUSH2 0x471 JUMPI PUSH2 0x26A DUP3 PUSH2 0x264 DUP6 SLOAD PUSH2 0xD54 JUMP JUMPDEST DUP6 PUSH2 0xE73 JUMP JUMPDEST DUP12 SWAP1 PUSH1 0x1F DUP4 GT PUSH1 0x1 EQ PUSH2 0x4FE JUMPI SWAP2 DUP1 PUSH2 0x29E SWAP3 PUSH1 0xFF SWAP8 SWAP7 SWAP6 SWAP5 PUSH0 SWAP3 PUSH2 0x4F3 JUMPI JUMPDEST POP POP DUP2 PUSH1 0x1 SHL SWAP2 PUSH0 NOT SWAP1 PUSH1 0x3 SHL SHR NOT AND OR SWAP1 JUMP JUMPDEST SWAP1 SSTORE JUMPDEST MLOAD PUSH1 0x3 DUP9 ADD SSTORE MLOAD AND PUSH1 0xFF PUSH1 0x4 DUP8 ADD SWAP2 AND PUSH1 0xFF NOT DUP3 SLOAD AND OR SWAP1 SSTORE PUSH1 0x5 DUP6 ADD SWAP1 MLOAD DUP1 MLOAD SWAP1 PUSH1 0x1 PUSH1 0x1 PUSH1 0x40 SHL SUB DUP3 GT PUSH2 0x471 JUMPI PUSH2 0x2DF DUP3 PUSH2 0x264 DUP6 SLOAD PUSH2 0xD54 JUMP JUMPDEST DUP9 SWAP1 PUSH1 0x1F DUP4 GT PUSH1 0x1 EQ PUSH2 0x490 JUMPI PUSH2 0x30C SWAP3 SWAP2 PUSH0 SWAP2 DUP4 PUSH2 0x485 JUMPI POP POP DUP2 PUSH1 0x1 SHL SWAP2 PUSH0 NOT SWAP1 PUSH1 0x3 SHL SHR NOT AND OR SWAP1 JUMP JUMPDEST SWAP1 SSTORE JUMPDEST MLOAD PUSH1 0x6 DUP5 ADD SSTORE MLOAD DUP1 MLOAD PUSH1 0x7 DUP5 ADD SWAP2 PUSH1 0x1 PUSH1 0x1 PUSH1 0x40 SHL SUB DUP3 GT PUSH2 0x471 JUMPI PUSH2 0x339 DUP3 PUSH2 0x264 DUP6 SLOAD PUSH2 0xD54 JUMP JUMPDEST DUP7 SWAP1 PUSH1 0x1F DUP4 GT PUSH1 0x1 EQ PUSH2 0x3E3 JUMPI SWAP3 PUSH2 0x393 DUP4 PUSH1 0x8 SWAP5 PUSH32 0x530436C3634A98E1E626B0898BE2F1E9980CC1BD2A78C07A0ABA52D0A48A5059 SWAP12 SWAP11 SWAP10 SWAP8 SWAP5 PUSH2 0x3D3 SWAP10 SWAP8 PUSH0 SWAP3 PUSH2 0x3D8 JUMPI POP POP DUP2 PUSH1 0x1 SHL SWAP2 PUSH0 NOT SWAP1 PUSH1 0x3 SHL SHR NOT AND OR SWAP1 JUMP JUMPDEST SWAP1 SSTORE JUMPDEST MLOAD SWAP2 ADD SSTORE DUP7 PUSH0 MSTORE PUSH1 0x1 DUP4 MSTORE PUSH2 0x3AE DUP9 PUSH1 0x40 PUSH0 KECCAK256 PUSH2 0xEE2 JUMP JUMPDEST DUP6 PUSH0 MSTORE PUSH1 0x2 DUP4 MSTORE PUSH2 0x3C2 DUP9 PUSH1 0x40 PUSH0 KECCAK256 PUSH2 0xEE2 JUMP JUMPDEST PUSH1 0x40 MLOAD SWAP4 DUP4 DUP6 SWAP5 DUP6 MSTORE DUP5 ADD SWAP2 PUSH2 0xEC2 JUMP JUMPDEST SUB SWAP1 LOG4 STOP JUMPDEST ADD MLOAD SWAP1 POP DUP16 DUP1 PUSH2 0x28A JUMP JUMPDEST SWAP1 PUSH1 0x1F NOT DUP4 AND SWAP2 DUP5 PUSH0 MSTORE DUP9 PUSH0 KECCAK256 SWAP3 PUSH0 JUMPDEST DUP2 DUP2 LT PUSH2 0x45A JUMPI POP SWAP4 PUSH32 0x530436C3634A98E1E626B0898BE2F1E9980CC1BD2A78C07A0ABA52D0A48A5059 SWAP11 SWAP10 SWAP9 SWAP7 SWAP4 PUSH2 0x3D3 SWAP9 SWAP7 SWAP4 PUSH1 0x1 SWAP4 DUP4 PUSH1 0x8 SWAP9 LT PUSH2 0x442 JUMPI JUMPDEST POP POP POP DUP2 SHL ADD SWAP1 SSTORE PUSH2 0x396 JUMP JUMPDEST ADD MLOAD PUSH0 NOT PUSH1 0xF8 DUP5 PUSH1 0x3 SHL AND SHR NOT AND SWAP1 SSTORE DUP15 DUP1 DUP1 PUSH2 0x435 JUMP JUMPDEST SWAP3 SWAP4 DUP11 PUSH1 0x1 DUP2 SWAP3 DUP8 DUP7 ADD MLOAD DUP2 SSTORE ADD SWAP6 ADD SWAP4 ADD PUSH2 0x3F3 JUMP JUMPDEST PUSH4 0x4E487B71 PUSH1 0xE0 SHL PUSH0 MSTORE PUSH1 0x41 PUSH1 0x4 MSTORE PUSH1 0x24 PUSH0 REVERT JUMPDEST ADD MLOAD SWAP1 POP DUP15 DUP1 PUSH2 0x28A JUMP JUMPDEST SWAP1 PUSH1 0x1F NOT DUP4 AND SWAP2 DUP5 PUSH0 MSTORE DUP11 PUSH0 KECCAK256 SWAP3 PUSH0 JUMPDEST DUP13 DUP3 DUP3 LT PUSH2 0x4DD JUMPI POP POP SWAP1 DUP5 PUSH1 0x1 SWAP6 SWAP5 SWAP4 SWAP3 LT PUSH2 0x4C5 JUMPI JUMPDEST POP POP POP DUP2 SHL ADD SWAP1 SSTORE PUSH2 0x30F JUMP JUMPDEST ADD MLOAD PUSH0 NOT PUSH1 0xF8 DUP5 PUSH1 0x3 SHL AND SHR NOT AND SWAP1 SSTORE DUP14 DUP1 DUP1 PUSH2 0x4B8 JUMP JUMPDEST PUSH1 0x1 DUP6 SWAP7 DUP3 SWAP4 SWAP7 DUP7 ADD MLOAD DUP2 SSTORE ADD SWAP6 ADD SWAP4 ADD PUSH2 0x4A0 JUMP JUMPDEST ADD MLOAD SWAP1 POP PUSH0 DUP1 PUSH2 0x28A JUMP JUMPDEST PUSH0 DUP5 DUP2 MSTORE DUP14 DUP2 KECCAK256 SWAP3 SWAP2 SWAP1 PUSH1 0x1F NOT DUP6 AND SWAP1 DUP16 JUMPDEST DUP3 DUP3 LT PUSH2 0x551 JUMPI POP POP SWAP2 PUSH1 0x1 SWAP4 SWAP2 DUP6 PUSH1 0xFF SWAP10 SWAP9 SWAP8 SWAP7 SWAP5 LT PUSH2 0x539 JUMPI JUMPDEST POP POP POP DUP2 SHL ADD SWAP1 SSTORE PUSH2 0x2A1 JUMP JUMPDEST ADD MLOAD PUSH0 NOT PUSH1 0xF8 DUP5 PUSH1 0x3 SHL AND SHR NOT AND SWAP1 SSTORE PUSH0 DUP1 DUP1 PUSH2 0x52C JUMP JUMPDEST PUSH1 0x1 DUP6 SWAP7 DUP3 SWAP4 SWAP7 DUP7 ADD MLOAD DUP2 SSTORE ADD SWAP6 ADD SWAP4 ADD DUP16 PUSH2 0x510 JUMP JUMPDEST PUSH1 0x40 MLOAD PUSH3 0x461BCD PUSH1 0xE5 SHL DUP2 MSTORE PUSH1 0x20 PUSH1 0x4 DUP3 ADD MSTORE PUSH1 0x16 PUSH1 0x24 DUP3 ADD MSTORE PUSH22 0x5265717565737420616C726561647920657869737473 PUSH1 0x50 SHL PUSH1 0x44 DUP3 ADD MSTORE PUSH1 0x64 SWAP1 REVERT JUMPDEST CALLVALUE PUSH2 0x11A JUMPI PUSH1 0x20 CALLDATASIZE PUSH1 0x3 NOT ADD SLT PUSH2 0x11A JUMPI PUSH1 0x4 CALLDATALOAD PUSH0 MSTORE PUSH1 0x1 PUSH1 0x20 MSTORE PUSH1 0x40 PUSH0 KECCAK256 PUSH1 0x40 MLOAD SWAP1 DUP2 PUSH1 0x20 DUP3 SLOAD SWAP2 DUP3 DUP2 MSTORE ADD SWAP2 PUSH0 MSTORE PUSH1 0x20 PUSH0 KECCAK256 SWAP1 PUSH0 JUMPDEST DUP2 DUP2 LT PUSH2 0x604 JUMPI PUSH2 0x600 DUP6 PUSH2 0x5F4 DUP2 DUP8 SUB DUP3 PUSH2 0xE0D JUMP JUMPDEST PUSH1 0x40 MLOAD SWAP2 DUP3 SWAP2 DUP3 PUSH2 0xCF2 JUMP JUMPDEST SUB SWAP1 RETURN JUMPDEST DUP3 SLOAD DUP5 MSTORE PUSH1 0x20 SWAP1 SWAP4 ADD SWAP3 PUSH1 0x1 SWAP3 DUP4 ADD SWAP3 ADD PUSH2 0x5DD JUMP JUMPDEST CALLVALUE PUSH2 0x11A JUMPI PUSH1 0x20 CALLDATASIZE PUSH1 0x3 NOT ADD SLT PUSH2 0x11A JUMPI PUSH1 0x1 PUSH1 0x1 PUSH1 0xA0 SHL SUB PUSH2 0x63B PUSH2 0xCDC JUMP JUMPDEST AND PUSH0 MSTORE PUSH1 0x2 PUSH1 0x20 MSTORE PUSH1 0x40 PUSH0 KECCAK256 PUSH1 0x40 MLOAD SWAP1 DUP2 PUSH1 0x20 DUP3 SLOAD SWAP2 DUP3 DUP2 MSTORE ADD SWAP2 PUSH0 MSTORE PUSH1 0x20 PUSH0 KECCAK256 SWAP1 PUSH0 JUMPDEST DUP2 DUP2 LT PUSH2 0x676 JUMPI PUSH2 0x600 DUP6 PUSH2 0x5F4 DUP2 DUP8 SUB DUP3 PUSH2 0xE0D JUMP JUMPDEST DUP3 SLOAD DUP5 MSTORE PUSH1 0x20 SWAP1 SWAP4 ADD SWAP3 PUSH1 0x1 SWAP3 DUP4 ADD SWAP3 ADD PUSH2 0x65F JUMP JUMPDEST CALLVALUE PUSH2 0x11A JUMPI PUSH1 0xA0 CALLDATASIZE PUSH1 0x3 NOT ADD SLT PUSH2 0x11A JUMPI PUSH1 0x4 CALLDATALOAD PUSH1 0x24 CALLDATALOAD PUSH1 0xFF DUP2 AND DUP1 SWAP2 SUB PUSH2 0x11A JUMPI PUSH1 0x44 CALLDATALOAD PUSH1 0x1 PUSH1 0x1 PUSH1 0x40 SHL SUB DUP2 GT PUSH2 0x11A JUMPI PUSH2 0x6CD SWAP1 CALLDATASIZE SWAP1 PUSH1 0x4 ADD PUSH2 0xCAF JUMP JUMPDEST PUSH1 0x64 SWAP3 SWAP2 SWAP3 CALLDATALOAD SWAP2 PUSH1 0x84 CALLDATALOAD PUSH1 0x1 PUSH1 0x1 PUSH1 0x40 SHL SUB DUP2 GT PUSH2 0x11A JUMPI PUSH2 0x6F3 SWAP1 CALLDATASIZE SWAP1 PUSH1 0x4 ADD PUSH2 0xCAF JUMP JUMPDEST DUP7 PUSH0 SWAP6 SWAP3 SWAP6 MSTORE PUSH0 PUSH1 0x20 MSTORE PUSH1 0x40 PUSH0 KECCAK256 SWAP5 PUSH1 0x3 DUP7 ADD SLOAD ISZERO PUSH2 0x9E5 JUMPI DUP6 SLOAD PUSH1 0x1 PUSH1 0x1 PUSH1 0xA0 SHL SUB AND CALLER SUB PUSH2 0x9A0 JUMPI PUSH1 0x1 DUP5 LT ISZERO DUP1 PUSH2 0x995 JUMPI JUMPDEST ISZERO PUSH2 0x958 JUMPI PUSH1 0x4 DUP7 ADD DUP1 SLOAD PUSH1 0xFF NOT AND DUP6 OR SWAP1 SSTORE PUSH1 0x5 DUP7 ADD PUSH1 0x1 PUSH1 0x1 PUSH1 0x40 SHL SUB DUP7 GT PUSH2 0x471 JUMPI PUSH2 0x761 DUP7 PUSH2 0x75B DUP4 SLOAD PUSH2 0xD54 JUMP JUMPDEST DUP4 PUSH2 0xE73 JUMP JUMPDEST PUSH0 DUP7 PUSH1 0x1F DUP2 GT PUSH1 0x1 EQ PUSH2 0x8F4 JUMPI DUP1 PUSH2 0x78D SWAP3 PUSH0 SWAP2 PUSH2 0x8E9 JUMPI JUMPDEST POP DUP2 PUSH1 0x1 SHL SWAP2 PUSH0 NOT SWAP1 PUSH1 0x3 SHL SHR NOT AND OR SWAP1 JUMP JUMPDEST SWAP1 SSTORE JUMPDEST DUP3 PUSH1 0x6 DUP8 ADD SSTORE PUSH1 0x7 DUP7 ADD PUSH1 0x1 PUSH1 0x1 PUSH1 0x40 SHL SUB DUP4 GT PUSH2 0x471 JUMPI PUSH2 0x7B6 DUP4 PUSH2 0x75B DUP4 SLOAD PUSH2 0xD54 JUMP JUMPDEST PUSH0 PUSH1 0x1F DUP5 GT PUSH1 0x1 EQ PUSH2 0x85D JUMPI SWAP2 DUP4 SWAP2 PUSH2 0x80B DUP4 PUSH2 0x3D3 SWAP7 PUSH32 0xAFDDF629E874CCC3963B6A888C477BD464A6C8525024FC88759EA3B2326349AE SWAP11 SWAP10 SWAP9 SWAP7 PUSH0 SWAP2 PUSH2 0x852 JUMPI POP DUP2 PUSH1 0x1 SHL SWAP2 PUSH0 NOT SWAP1 PUSH1 0x3 SHL SHR NOT AND OR SWAP1 JUMP JUMPDEST SWAP1 SSTORE JUMPDEST TIMESTAMP PUSH1 0x8 DUP10 ADD SSTORE PUSH2 0x83F PUSH1 0x1 DUP1 DUP1 PUSH1 0xA0 SHL SUB DUP11 SLOAD AND SWAP10 ADD SLOAD SWAP10 PUSH1 0x40 MLOAD SWAP8 DUP9 SWAP8 DUP9 MSTORE PUSH1 0x80 PUSH1 0x20 DUP10 ADD MSTORE PUSH1 0x80 DUP9 ADD SWAP2 PUSH2 0xEC2 JUMP JUMPDEST SWAP3 PUSH1 0x40 DUP7 ADD MSTORE DUP5 DUP4 SUB PUSH1 0x60 DUP7 ADD MSTORE PUSH2 0xEC2 JUMP JUMPDEST SWAP1 POP DUP5 ADD CALLDATALOAD DUP15 PUSH2 0x77A JUMP JUMPDEST PUSH1 0x1F NOT DUP5 AND SWAP1 DUP3 PUSH0 MSTORE PUSH1 0x20 PUSH0 KECCAK256 SWAP2 PUSH0 JUMPDEST DUP2 DUP2 LT PUSH2 0x8D1 JUMPI POP SWAP2 DUP6 SWAP4 SWAP2 PUSH2 0x3D3 SWAP7 PUSH32 0xAFDDF629E874CCC3963B6A888C477BD464A6C8525024FC88759EA3B2326349AE SWAP11 SWAP10 SWAP9 SWAP7 SWAP5 LT PUSH2 0x8B8 JUMPI JUMPDEST POP POP PUSH1 0x1 DUP4 DUP2 SHL ADD SWAP1 SSTORE PUSH2 0x80E JUMP JUMPDEST DUP4 ADD CALLDATALOAD PUSH0 NOT PUSH1 0x3 DUP7 SWAP1 SHL PUSH1 0xF8 AND SHR NOT AND SWAP1 SSTORE DUP12 DUP1 PUSH2 0x8A9 JUMP JUMPDEST SWAP2 SWAP3 PUSH1 0x20 PUSH1 0x1 DUP2 SWAP3 DUP7 DUP10 ADD CALLDATALOAD DUP2 SSTORE ADD SWAP5 ADD SWAP3 ADD PUSH2 0x86D JUMP JUMPDEST SWAP1 POP DUP11 ADD CALLDATALOAD DUP13 PUSH2 0x77A JUMP JUMPDEST POP PUSH1 0x1F NOT DUP8 AND SWAP1 DUP3 PUSH0 MSTORE DUP8 PUSH1 0x20 PUSH0 KECCAK256 SWAP3 PUSH0 JUMPDEST DUP13 DUP3 DUP3 LT PUSH2 0x93E JUMPI POP POP LT PUSH2 0x925 JUMPI JUMPDEST POP POP PUSH1 0x1 DUP7 DUP2 SHL ADD SWAP1 SSTORE PUSH2 0x790 JUMP JUMPDEST DUP10 ADD CALLDATALOAD PUSH0 NOT PUSH1 0x3 DUP10 SWAP1 SHL PUSH1 0xF8 AND SHR NOT AND SWAP1 SSTORE DUP10 DUP1 PUSH2 0x916 JUMP JUMPDEST DUP5 ADD CALLDATALOAD DUP6 SSTORE PUSH1 0x1 SWAP1 SWAP5 ADD SWAP4 PUSH1 0x20 SWAP4 DUP5 ADD SWAP4 DUP12 SWAP4 POP ADD PUSH2 0x906 JUMP JUMPDEST PUSH1 0x40 MLOAD PUSH3 0x461BCD PUSH1 0xE5 SHL DUP2 MSTORE PUSH1 0x20 PUSH1 0x4 DUP3 ADD MSTORE PUSH1 0x15 PUSH1 0x24 DUP3 ADD MSTORE PUSH21 0x496E76616C696420726573706F6E736520636F6465 PUSH1 0x58 SHL PUSH1 0x44 DUP3 ADD MSTORE PUSH1 0x64 SWAP1 REVERT JUMPDEST POP PUSH1 0x3 DUP5 GT ISZERO PUSH2 0x728 JUMP JUMPDEST PUSH1 0x40 MLOAD PUSH3 0x461BCD PUSH1 0xE5 SHL DUP2 MSTORE PUSH1 0x20 PUSH1 0x4 DUP3 ADD MSTORE PUSH1 0x1C PUSH1 0x24 DUP3 ADD MSTORE PUSH32 0x4E6F74207468652064657369676E617465642076616C696461746F7200000000 PUSH1 0x44 DUP3 ADD MSTORE PUSH1 0x64 SWAP1 REVERT JUMPDEST PUSH1 0x40 MLOAD PUSH3 0x461BCD PUSH1 0xE5 SHL DUP2 MSTORE PUSH1 0x20 PUSH1 0x4 DUP3 ADD MSTORE PUSH1 0x11 PUSH1 0x24 DUP3 ADD MSTORE PUSH17 0x14995C5D595CDD081B9BDD08199BDD5B99 PUSH1 0x7A SHL PUSH1 0x44 DUP3 ADD MSTORE PUSH1 0x64 SWAP1 REVERT JUMPDEST CALLVALUE PUSH2 0x11A JUMPI PUSH1 0x60 CALLDATASIZE PUSH1 0x3 NOT ADD SLT PUSH2 0x11A JUMPI PUSH1 0x24 CALLDATALOAD PUSH1 0x1 PUSH1 0x1 PUSH1 0x40 SHL SUB DUP2 GT PUSH2 0x11A JUMPI CALLDATASIZE PUSH1 0x23 DUP3 ADD SLT ISZERO PUSH2 0x11A JUMPI DUP1 PUSH1 0x4 ADD CALLDATALOAD SWAP1 PUSH1 0x1 PUSH1 0x1 PUSH1 0x40 SHL SUB DUP3 GT PUSH2 0x11A JUMPI CALLDATASIZE PUSH1 0x24 DUP4 PUSH1 0x5 SHL DUP4 ADD ADD GT PUSH2 0x11A JUMPI PUSH1 0x44 CALLDATALOAD PUSH1 0x1 PUSH1 0x1 PUSH1 0x40 SHL SUB DUP2 GT PUSH2 0x11A JUMPI PUSH2 0xA8D SWAP1 CALLDATASIZE SWAP1 PUSH1 0x4 ADD PUSH2 0xCAF JUMP JUMPDEST SWAP2 SWAP1 SWAP3 PUSH0 SWAP3 DUP2 ISZERO ISZERO SWAP5 DUP2 ISZERO ISZERO SWAP3 PUSH1 0x4 CALLDATALOAD PUSH0 MSTORE PUSH1 0x1 PUSH1 0x20 MSTORE PUSH1 0x40 PUSH0 KECCAK256 SWAP5 PUSH0 SWAP8 PUSH0 SWAP6 DUP8 SLOAD SWAP8 JUMPDEST DUP9 DUP9 LT PUSH2 0xB06 JUMPI DUP11 PUSH1 0x1 PUSH1 0x1 PUSH1 0x40 SHL SUB DUP12 AND DUP1 ISZERO DUP1 PUSH2 0xAF9 JUMPI PUSH2 0xAE5 JUMPI PUSH1 0xFF DUP1 DUP3 PUSH1 0x40 SWAP5 DIV AND JUMPDEST DUP4 MLOAD SWAP3 DUP4 MSTORE AND PUSH1 0x20 DUP3 ADD MSTORE RETURN JUMPDEST PUSH4 0x4E487B71 PUSH1 0xE0 SHL PUSH0 MSTORE PUSH1 0x12 PUSH1 0x4 MSTORE PUSH1 0x24 PUSH0 REVERT JUMPDEST POP PUSH1 0x40 SWAP2 POP PUSH1 0xFF PUSH0 PUSH2 0xAD8 JUMP JUMPDEST SWAP1 SWAP2 SWAP3 SWAP4 SWAP5 SWAP6 SWAP7 SWAP8 SWAP10 PUSH2 0xB19 DUP10 DUP4 PUSH2 0xD2B JUMP JUMPDEST SWAP1 SLOAD SWAP1 PUSH1 0x3 SHL SHR PUSH0 MSTORE PUSH0 PUSH1 0x20 MSTORE PUSH1 0x40 PUSH0 KECCAK256 PUSH1 0xFF PUSH1 0x4 DUP3 ADD SLOAD AND SWAP1 DUP2 ISZERO PUSH2 0xC23 JUMPI DUP5 DUP1 PUSH2 0xC2F JUMPI JUMPDEST PUSH2 0xC23 JUMPI DUP6 PUSH2 0xB99 JUMPI JUMPDEST POP DUP2 ADD DUP1 SWAP2 GT PUSH2 0xB85 JUMPI PUSH1 0x1 PUSH1 0x1 PUSH1 0x40 SHL SUB SWAP1 SWAP10 AND PUSH1 0x1 PUSH1 0x1 PUSH1 0x40 SHL SUB DUP2 EQ PUSH2 0xB85 JUMPI PUSH1 0x1 DUP1 SWAP2 ADD SWAP9 JUMPDEST ADD SWAP7 SWAP6 SWAP5 SWAP4 SWAP3 SWAP2 SWAP1 SWAP10 SWAP8 SWAP9 SWAP10 PUSH2 0xAB1 JUMP JUMPDEST PUSH4 0x4E487B71 PUSH1 0xE0 SHL PUSH0 MSTORE PUSH1 0x11 PUSH1 0x4 MSTORE PUSH1 0x24 PUSH0 REVERT JUMPDEST SWAP7 SWAP11 SWAP9 SWAP2 SWAP10 SWAP12 SWAP3 SWAP4 SWAP5 PUSH0 SWAP9 SWAP2 SWAP9 POP PUSH0 SWAP6 PUSH0 SWAP9 PUSH1 0x1 DUP1 PUSH1 0xA0 SHL SUB SWAP1 SLOAD AND SWAP9 JUMPDEST DUP14 DUP2 LT ISZERO PUSH2 0xC10 JUMPI PUSH1 0x24 PUSH1 0x5 DUP3 SWAP1 SHL DUP11 ADD ADD CALLDATALOAD PUSH1 0x1 PUSH1 0x1 PUSH1 0xA0 SHL SUB DUP2 AND SWAP1 DUP2 SWAP1 SUB PUSH2 0x11A JUMPI DUP11 EQ PUSH2 0xBEA JUMPI PUSH1 0x1 ADD PUSH2 0xBB7 JUMP JUMPDEST POP SWAP5 SWAP4 SWAP13 SWAP11 SWAP3 SWAP10 SWAP12 SWAP8 POP SWAP5 POP SWAP7 PUSH1 0x1 JUMPDEST ISZERO PUSH2 0xC05 JUMPI DUP13 PUSH2 0xB4A JUMP JUMPDEST POP SWAP9 SWAP8 PUSH1 0x1 SWAP1 PUSH2 0xB74 JUMP JUMPDEST POP SWAP5 SWAP4 SWAP13 SWAP11 SWAP3 SWAP10 SWAP12 SWAP8 POP SWAP5 SWAP8 SWAP1 SWAP8 PUSH2 0xBFA JUMP JUMPDEST POP POP SWAP9 SWAP8 PUSH1 0x1 SWAP1 PUSH2 0xB74 JUMP JUMPDEST POP PUSH1 0x40 MLOAD PUSH2 0xC4B DUP2 PUSH2 0xC44 DUP2 PUSH1 0x7 DUP7 ADD PUSH2 0xD8C JUMP JUMPDEST SUB DUP3 PUSH2 0xE0D JUMP JUMPDEST PUSH1 0x20 DUP2 MLOAD SWAP2 ADD KECCAK256 PUSH2 0xC5D CALLDATASIZE DUP13 DUP13 PUSH2 0xE2E JUMP JUMPDEST PUSH1 0x20 DUP2 MLOAD SWAP2 ADD KECCAK256 EQ ISZERO PUSH2 0xB40 JUMP JUMPDEST CALLVALUE PUSH2 0x11A JUMPI PUSH0 CALLDATASIZE PUSH1 0x3 NOT ADD SLT PUSH2 0x11A JUMPI PUSH1 0x40 MLOAD PUSH32 0x0 PUSH1 0x1 PUSH1 0x1 PUSH1 0xA0 SHL SUB AND DUP2 MSTORE PUSH1 0x20 SWAP1 RETURN JUMPDEST SWAP2 DUP2 PUSH1 0x1F DUP5 ADD SLT ISZERO PUSH2 0x11A JUMPI DUP3 CALLDATALOAD SWAP2 PUSH1 0x1 PUSH1 0x1 PUSH1 0x40 SHL SUB DUP4 GT PUSH2 0x11A JUMPI PUSH1 0x20 DUP4 DUP2 DUP7 ADD SWAP6 ADD ADD GT PUSH2 0x11A JUMPI JUMP JUMPDEST PUSH1 0x4 CALLDATALOAD SWAP1 PUSH1 0x1 PUSH1 0x1 PUSH1 0xA0 SHL SUB DUP3 AND DUP3 SUB PUSH2 0x11A JUMPI JUMP JUMPDEST PUSH1 0x20 PUSH1 0x40 DUP2 DUP4 ADD SWAP3 DUP3 DUP2 MSTORE DUP5 MLOAD DUP1 SWAP5 MSTORE ADD SWAP3 ADD SWAP1 PUSH0 JUMPDEST DUP2 DUP2 LT PUSH2 0xD15 JUMPI POP POP POP SWAP1 JUMP JUMPDEST DUP3 MLOAD DUP5 MSTORE PUSH1 0x20 SWAP4 DUP5 ADD SWAP4 SWAP1 SWAP3 ADD SWAP2 PUSH1 0x1 ADD PUSH2 0xD08 JUMP JUMPDEST DUP1 SLOAD DUP3 LT ISZERO PUSH2 0xD40 JUMPI PUSH0 MSTORE PUSH1 0x20 PUSH0 KECCAK256 ADD SWAP1 PUSH0 SWAP1 JUMP JUMPDEST PUSH4 0x4E487B71 PUSH1 0xE0 SHL PUSH0 MSTORE PUSH1 0x32 PUSH1 0x4 MSTORE PUSH1 0x24 PUSH0 REVERT JUMPDEST SWAP1 PUSH1 0x1 DUP3 DUP2 SHR SWAP3 AND DUP1 ISZERO PUSH2 0xD82 JUMPI JUMPDEST PUSH1 0x20 DUP4 LT EQ PUSH2 0xD6E JUMPI JUMP JUMPDEST PUSH4 0x4E487B71 PUSH1 0xE0 SHL PUSH0 MSTORE PUSH1 0x22 PUSH1 0x4 MSTORE PUSH1 0x24 PUSH0 REVERT JUMPDEST SWAP2 PUSH1 0x7F AND SWAP2 PUSH2 0xD63 JUMP JUMPDEST PUSH0 SWAP3 SWAP2 DUP2 SLOAD SWAP2 PUSH2 0xD9B DUP4 PUSH2 0xD54 JUMP JUMPDEST DUP1 DUP4 MSTORE SWAP3 PUSH1 0x1 DUP2 AND SWAP1 DUP2 ISZERO PUSH2 0xDF0 JUMPI POP PUSH1 0x1 EQ PUSH2 0xDB7 JUMPI POP POP POP JUMP JUMPDEST PUSH0 SWAP1 DUP2 MSTORE PUSH1 0x20 DUP2 KECCAK256 SWAP4 SWAP5 POP SWAP2 SWAP3 JUMPDEST DUP4 DUP4 LT PUSH2 0xDD6 JUMPI POP PUSH1 0x20 SWAP3 POP ADD ADD SWAP1 JUMP JUMPDEST PUSH1 0x1 DUP2 PUSH1 0x20 SWAP3 SWAP5 SWAP4 SWAP5 SLOAD DUP4 DUP6 DUP8 ADD ADD MSTORE ADD SWAP2 ADD SWAP2 SWAP1 PUSH2 0xDC5 JUMP JUMPDEST SWAP2 POP POP PUSH1 0x20 SWAP4 SWAP5 POP PUSH1 0xFF SWAP3 SWAP2 SWAP3 NOT AND DUP4 DUP4 ADD MSTORE ISZERO ISZERO PUSH1 0x5 SHL ADD ADD SWAP1 JUMP JUMPDEST SWAP1 PUSH1 0x1F DUP1 NOT SWAP2 ADD AND DUP2 ADD SWAP1 DUP2 LT PUSH1 0x1 PUSH1 0x1 PUSH1 0x40 SHL SUB DUP3 GT OR PUSH2 0x471 JUMPI PUSH1 0x40 MSTORE JUMP JUMPDEST SWAP3 SWAP2 SWAP3 PUSH1 0x1 PUSH1 0x1 PUSH1 0x40 SHL SUB DUP3 GT PUSH2 0x471 JUMPI PUSH1 0x40 MLOAD SWAP2 PUSH2 0xE57 PUSH1 0x1F DUP3 ADD PUSH1 0x1F NOT AND PUSH1 0x20 ADD DUP5 PUSH2 0xE0D JUMP JUMPDEST DUP3 SWAP5 DUP2 DUP5 MSTORE DUP2 DUP4 ADD GT PUSH2 0x11A JUMPI DUP3 DUP2 PUSH1 0x20 SWAP4 DUP5 PUSH0 SWAP7 ADD CALLDATACOPY ADD ADD MSTORE JUMP JUMPDEST PUSH1 0x1F DUP3 GT PUSH2 0xE80 JUMPI POP POP POP JUMP JUMPDEST PUSH0 MSTORE PUSH1 0x20 PUSH0 KECCAK256 SWAP1 PUSH1 0x20 PUSH1 0x1F DUP5 ADD PUSH1 0x5 SHR DUP4 ADD SWAP4 LT PUSH2 0xEB8 JUMPI JUMPDEST PUSH1 0x1F ADD PUSH1 0x5 SHR ADD SWAP1 JUMPDEST DUP2 DUP2 LT PUSH2 0xEAD JUMPI POP POP JUMP JUMPDEST PUSH0 DUP2 SSTORE PUSH1 0x1 ADD PUSH2 0xEA2 JUMP JUMPDEST SWAP1 SWAP2 POP DUP2 SWAP1 PUSH2 0xE99 JUMP JUMPDEST SWAP1 DUP1 PUSH1 0x20 SWAP4 SWAP3 DUP2 DUP5 MSTORE DUP5 DUP5 ADD CALLDATACOPY PUSH0 DUP3 DUP3 ADD DUP5 ADD MSTORE PUSH1 0x1F ADD PUSH1 0x1F NOT AND ADD ADD SWAP1 JUMP JUMPDEST DUP1 SLOAD PUSH9 0x10000000000000000 DUP2 LT ISZERO PUSH2 0x471 JUMPI PUSH2 0xF04 SWAP2 PUSH1 0x1 DUP3 ADD DUP2 SSTORE PUSH2 0xD2B JUMP JUMPDEST DUP2 SWAP3 SWAP2 SLOAD SWAP1 PUSH1 0x3 SHL SWAP2 DUP3 SHL SWAP2 PUSH0 NOT SWAP1 SHL NOT AND OR SWAP1 SSTORE JUMP INVALID LOG2 PUSH5 0x6970667358 0x22 SLT KECCAK256 DUP13 0xC4 0xA8 0xC2 0xCC SWAP1 0xCC 0xF9 PUSH14 0xE99714CCF9EB1AFC1793A928C8F4 0x1E 0xD9 DUP3 SGT CREATE 0xDF EXTCODECOPY JUMPI PUSH24 0x64736F6C634300081A003300000000000000000000000000 "},"methodIdentifiers":{"getAgentValidations(uint256)":"8d5d0c2d","getIdentityRegistry()":"bc4d861b","getSummary(uint256,address[],string)":"1b7cabd6","getValidationStatus(bytes32)":"ff2febfc","getValidatorRequests(address)":"4bf3158c","identityRegistry()":"134e18f4","validationRequest(address,uint256,string,bytes32)":"aaf400c4","validationResponse(bytes32,uint8,string,bytes32,string)":"3d659a96"}}}}}