{
  "_format": "hh3-artifact-1",
  "contractName": "AtlasReputationRegistry",
  "sourceName": "contracts/AtlasReputationRegistry.sol",
  "abi": [
    {
      "inputs": [
        {
          "internalType": "address",
          "name": "_identityRegistry",
          "type": "address"
        }
      ],
      "stateMutability": "nonpayable",
      "type": "constructor"
    },
    {
      "anonymous": false,
      "inputs": [
        {
          "indexed": true,
          "internalType": "uint256",
          "name": "agentId",
          "type": "uint256"
        },
        {
          "indexed": true,
          "internalType": "address",
          "name": "clientAddress",
          "type": "address"
        },
        {
          "indexed": true,
          "internalType": "uint64",
          "name": "feedbackIndex",
          "type": "uint64"
        }
      ],
      "name": "FeedbackRevoked",
      "type": "event"
    },
    {
      "anonymous": false,
      "inputs": [
        {
          "indexed": true,
          "internalType": "uint256",
          "name": "agentId",
          "type": "uint256"
        },
        {
          "indexed": true,
          "internalType": "address",
          "name": "clientAddress",
          "type": "address"
        },
        {
          "indexed": false,
          "internalType": "uint64",
          "name": "feedbackIndex",
          "type": "uint64"
        },
        {
          "indexed": false,
          "internalType": "int128",
          "name": "value",
          "type": "int128"
        },
        {
          "indexed": false,
          "internalType": "uint8",
          "name": "valueDecimals",
          "type": "uint8"
        },
        {
          "indexed": true,
          "internalType": "string",
          "name": "indexedTag1",
          "type": "string"
        },
        {
          "indexed": false,
          "internalType": "string",
          "name": "tag1",
          "type": "string"
        },
        {
          "indexed": false,
          "internalType": "string",
          "name": "tag2",
          "type": "string"
        },
        {
          "indexed": false,
          "internalType": "string",
          "name": "endpoint",
          "type": "string"
        },
        {
          "indexed": false,
          "internalType": "string",
          "name": "feedbackURI",
          "type": "string"
        },
        {
          "indexed": false,
          "internalType": "bytes32",
          "name": "feedbackHash",
          "type": "bytes32"
        }
      ],
      "name": "NewFeedback",
      "type": "event"
    },
    {
      "anonymous": false,
      "inputs": [
        {
          "indexed": true,
          "internalType": "uint256",
          "name": "agentId",
          "type": "uint256"
        },
        {
          "indexed": true,
          "internalType": "address",
          "name": "clientAddress",
          "type": "address"
        },
        {
          "indexed": false,
          "internalType": "uint64",
          "name": "feedbackIndex",
          "type": "uint64"
        },
        {
          "indexed": true,
          "internalType": "address",
          "name": "responder",
          "type": "address"
        },
        {
          "indexed": false,
          "internalType": "string",
          "name": "responseURI",
          "type": "string"
        },
        {
          "indexed": false,
          "internalType": "bytes32",
          "name": "responseHash",
          "type": "bytes32"
        }
      ],
      "name": "ResponseAppended",
      "type": "event"
    },
    {
      "inputs": [
        {
          "internalType": "uint256",
          "name": "agentId",
          "type": "uint256"
        },
        {
          "internalType": "address",
          "name": "clientAddress",
          "type": "address"
        },
        {
          "internalType": "uint64",
          "name": "feedbackIndex",
          "type": "uint64"
        },
        {
          "internalType": "string",
          "name": "responseURI",
          "type": "string"
        },
        {
          "internalType": "bytes32",
          "name": "responseHash",
          "type": "bytes32"
        }
      ],
      "name": "appendResponse",
      "outputs": [],
      "stateMutability": "nonpayable",
      "type": "function"
    },
    {
      "inputs": [
        {
          "internalType": "uint256",
          "name": "agentId",
          "type": "uint256"
        }
      ],
      "name": "getClients",
      "outputs": [
        {
          "internalType": "address[]",
          "name": "",
          "type": "address[]"
        }
      ],
      "stateMutability": "view",
      "type": "function"
    },
    {
      "inputs": [],
      "name": "getIdentityRegistry",
      "outputs": [
        {
          "internalType": "address",
          "name": "",
          "type": "address"
        }
      ],
      "stateMutability": "view",
      "type": "function"
    },
    {
      "inputs": [
        {
          "internalType": "uint256",
          "name": "agentId",
          "type": "uint256"
        },
        {
          "internalType": "address",
          "name": "clientAddress",
          "type": "address"
        }
      ],
      "name": "getLastIndex",
      "outputs": [
        {
          "internalType": "uint64",
          "name": "",
          "type": "uint64"
        }
      ],
      "stateMutability": "view",
      "type": "function"
    },
    {
      "inputs": [
        {
          "internalType": "uint256",
          "name": "agentId",
          "type": "uint256"
        },
        {
          "internalType": "address",
          "name": "clientAddress",
          "type": "address"
        },
        {
          "internalType": "uint64",
          "name": "feedbackIndex",
          "type": "uint64"
        },
        {
          "internalType": "address[]",
          "name": "",
          "type": "address[]"
        }
      ],
      "name": "getResponseCount",
      "outputs": [
        {
          "internalType": "uint64",
          "name": "",
          "type": "uint64"
        }
      ],
      "stateMutability": "view",
      "type": "function"
    },
    {
      "inputs": [
        {
          "internalType": "uint256",
          "name": "agentId",
          "type": "uint256"
        },
        {
          "internalType": "address[]",
          "name": "clientAddresses",
          "type": "address[]"
        },
        {
          "internalType": "string",
          "name": "tag1",
          "type": "string"
        },
        {
          "internalType": "string",
          "name": "tag2",
          "type": "string"
        }
      ],
      "name": "getSummary",
      "outputs": [
        {
          "internalType": "uint64",
          "name": "count",
          "type": "uint64"
        },
        {
          "internalType": "int128",
          "name": "summaryValue",
          "type": "int128"
        },
        {
          "internalType": "uint8",
          "name": "summaryValueDecimals",
          "type": "uint8"
        }
      ],
      "stateMutability": "view",
      "type": "function"
    },
    {
      "inputs": [
        {
          "internalType": "uint256",
          "name": "agentId",
          "type": "uint256"
        },
        {
          "internalType": "int128",
          "name": "value",
          "type": "int128"
        },
        {
          "internalType": "uint8",
          "name": "valueDecimals",
          "type": "uint8"
        },
        {
          "internalType": "string",
          "name": "tag1",
          "type": "string"
        },
        {
          "internalType": "string",
          "name": "tag2",
          "type": "string"
        },
        {
          "internalType": "string",
          "name": "endpoint",
          "type": "string"
        },
        {
          "internalType": "string",
          "name": "feedbackURI",
          "type": "string"
        },
        {
          "internalType": "bytes32",
          "name": "feedbackHash",
          "type": "bytes32"
        }
      ],
      "name": "giveFeedback",
      "outputs": [],
      "stateMutability": "nonpayable",
      "type": "function"
    },
    {
      "inputs": [],
      "name": "identityRegistry",
      "outputs": [
        {
          "internalType": "address",
          "name": "",
          "type": "address"
        }
      ],
      "stateMutability": "view",
      "type": "function"
    },
    {
      "inputs": [
        {
          "internalType": "uint256",
          "name": "agentId",
          "type": "uint256"
        },
        {
          "internalType": "address[]",
          "name": "clientAddresses",
          "type": "address[]"
        },
        {
          "internalType": "string",
          "name": "tag1",
          "type": "string"
        },
        {
          "internalType": "string",
          "name": "tag2",
          "type": "string"
        },
        {
          "internalType": "bool",
          "name": "includeRevoked",
          "type": "bool"
        }
      ],
      "name": "readAllFeedback",
      "outputs": [
        {
          "internalType": "address[]",
          "name": "clients",
          "type": "address[]"
        },
        {
          "internalType": "uint64[]",
          "name": "feedbackIndexes",
          "type": "uint64[]"
        },
        {
          "internalType": "int128[]",
          "name": "values",
          "type": "int128[]"
        },
        {
          "internalType": "uint8[]",
          "name": "valueDecimals",
          "type": "uint8[]"
        },
        {
          "internalType": "string[]",
          "name": "tag1s",
          "type": "string[]"
        },
        {
          "internalType": "string[]",
          "name": "tag2s",
          "type": "string[]"
        },
        {
          "internalType": "bool[]",
          "name": "revokedStatuses",
          "type": "bool[]"
        }
      ],
      "stateMutability": "view",
      "type": "function"
    },
    {
      "inputs": [
        {
          "internalType": "uint256",
          "name": "agentId",
          "type": "uint256"
        },
        {
          "internalType": "address",
          "name": "clientAddress",
          "type": "address"
        },
        {
          "internalType": "uint64",
          "name": "feedbackIndex",
          "type": "uint64"
        }
      ],
      "name": "readFeedback",
      "outputs": [
        {
          "internalType": "int128",
          "name": "value",
          "type": "int128"
        },
        {
          "internalType": "uint8",
          "name": "valueDecimals",
          "type": "uint8"
        },
        {
          "internalType": "string",
          "name": "tag1",
          "type": "string"
        },
        {
          "internalType": "string",
          "name": "tag2",
          "type": "string"
        },
        {
          "internalType": "bool",
          "name": "isRevoked",
          "type": "bool"
        }
      ],
      "stateMutability": "view",
      "type": "function"
    },
    {
      "inputs": [
        {
          "internalType": "uint256",
          "name": "agentId",
          "type": "uint256"
        },
        {
          "internalType": "uint64",
          "name": "feedbackIndex",
          "type": "uint64"
        }
      ],
      "name": "revokeFeedback",
      "outputs": [],
      "stateMutability": "nonpayable",
      "type": "function"
    }
  ],
  "bytecode": "0x60a034606657601f611c5538819003918201601f19168301916001600160401b03831184841017606a57808492602094604052833981010312606657516001600160a01b0381168103606657608052604051611bd6908161007f8239608051816117de0152f35b5f80fd5b634e487b7160e01b5f52604160045260245ffdfe6102a06040526004361015610012575f80fd5b5f3560e01c8063134e18f4146117c9578063232b0810146116fb5780633c036a7e14610f7457806342dd519c14610eef5780634ab3ca9914610e4c5780636e04cacd14610dc257806381bbba5814610b57578063bc4d861b14610b52578063c2349ab214610866578063d9d842241461011f5763f2d8175914610093575f80fd5b3461011b57604036600319011261011b576100ac61180d565b6004355f908152602081815260408083206001600160a01b03909416835292905220548015610112575f1981019081116100fe576001600160401b03602091165b6001600160401b0360405191168152f35b634e487b7160e01b5f52601160045260245ffd5b5060205f6100ed565b5f80fd5b3461011b5760a036600319011261011b576024356001600160401b03811161011b5761014f9036906004016118c6565b60a0526080526044356001600160401b03811161011b5761017490369060040161185d565b61012052610140526064356001600160401b03811161011b5761019b90369060040161185d565b60e0526101005260843561018052610180511515610180510361011b576004355f52600260205260405f205f6101a05260a05115155f1461085b5760a0516101a0525b5f805b6101a051811061070e57508061020c6101fc61031193611b2c565b6040516102605261026051611a20565b806102605152601f1961021e82611b2c565b0136602061026051013761024461023482611b2c565b6040516101c0526101c051611a20565b806101c0515261025381611b2c565b601f19013660206101c051013761027c61026c82611b2c565b6040516101e0526101e051611a20565b806101e0515261028b81611b2c565b601f19013660206101e05101376102b46102a482611b2c565b6040516102805261028051611a20565b8061028051526102c381611b2c565b601f19013660206102805101376102d981611b43565b610200526102e681611b43565b610220526103066102f682611b2c565b6040516102405261024051611a20565b806102405152611b2c565b601f19013660206102405101375f6101608190525b6101a051811061048e5760405160e081528061034860e082016102605161188a565b818103602083015260206101c0515191828152019060206101c05101905f5b81811061046c57505050818103604083015260206101e0515191828152019060206101e05101905f5b8181106104505750505081810360608301526020610280515191828152019060206102805101905f5b818110610434575050506103db81836103ec93036080850152610200516118f6565b82810360a0840152610220516118f6565b81810360c08301526020610240515191828152019060206102405101905f5b818110610419575050500390f35b8251151584528594506020938401939092019160010161040b565b825160ff168452859450602093840193909201916001016103b9565b8251600f0b845285945060209384019390920191600101610390565b82516001600160401b0316845285945060209384019390920191600101610367565b60a051156106ed576104ad6104a88260a051608051611afa565b611b0a565b6004355f525f60205260405f2060018060a01b0382165f5260205260405f205f60c05280545b8060c051106104e757505050600101610326565b6101805115806106d3575b61065f576101205115156101205161069b575b61065f5760e051151560e051610664575b61065f5761052a6101605161026051611b8c565b60018060a01b03841690526001600160401b0360c05116610551610160516101c051611b8c565b5261055e60c0518361194e565b5054600f0b610573610160516101e051611b8c565b5260ff61058260c0518461194e565b505460801c166105986101605161028051611b8c565b5260016105c26105aa60c0518561194e565b506105bb604051809481930161199f565b0382611a20565b6105d26101605161020051611b8c565b526105e36101605161020051611b8c565b5060026105f56105aa60c0518561194e565b6106056101605161022051611b8c565b526106166101605161022051611b8c565b5060ff600661062760c0518561194e565b5001541661063b6101605161024051611b8c565b901515905261064c61016051611b1e565b610160525b600160c0510160c0526104d3565b610651565b5060026106766105aa60c0518561194e565b6020815191012061068d3660e05161010051611a56565b602081519101201415610516565b5060016106ad6105aa60c0518561194e565b602081519101206106c5366101205161014051611a56565b602081519101201415610505565b5060ff60066106e460c0518561194e565b500154166104f2565b6106f78183611a41565b905460039190911b1c6001600160a01b03166104ad565b60a0511561083a576107286104a88260a051608051611afa565b6004355f525f60205260405f209060018060a01b03165f5260205260405f205f908054905b81831061075f575050506001016101e1565b90919361018051156101805115610822575b6107ae57610120511515610120516107ec575b6107ae5760e051151560e0516107b7575b6107ae576107a4600191611b1e565b945b01919061074d565b936001906107a6565b5060026107c76105aa878561194e565b602081519101206107de3660e05161010051611a56565b602081519101201415610795565b5060016107fc6105aa878561194e565b60208151910120610814366101205161014051611a56565b602081519101201415610784565b5060ff6006610831878561194e565b50015416610771565b6108448184611a41565b905460039190911b1c6001600160a01b0316610728565b80546101a0526101de565b3461011b5760a036600319011261011b5760043561088261180d565b9061088b611823565b906064356001600160401b03811161011b576108ab90369060040161185d565b5f838152602081815260408083206001600160a01b0389168452909152902054608435946001600160401b03169291906108e6908410611abb565b835f52600160205260405f2060018060a01b0387165f5260205260405f20835f5260205260405f2060405190606082018281106001600160401b03821117610b2a57604052338252610939368486611a56565b602083019081526040830191888352805490600160401b821015610b2a5760018201808255821015610b3e575f52600360205f209102019260018060a01b039051166bffffffffffffffffffffffff60a01b8454161783556001830190518051906001600160401b038211610b2a576109b28354611967565b601f8111610ae5575b50602090601f8311600114610a56579282600293610a309896937fb1c6be0b5b8aef6539e2fac0fd131a2faa7b49edf8e505b5eb0ad487d56051d49b9a98965f92610a4b575b50508160011b915f199060031b1c19161790555b51910155604051938452606060208501526060840191611a9b565b604082019490945233946001600160a01b03169381900390a4005b015190508e80610a01565b90601f19831691845f52815f20925f5b818110610acd575093610a309896937fb1c6be0b5b8aef6539e2fac0fd131a2faa7b49edf8e505b5eb0ad487d56051d49b9a9896936001938360029810610ab5575b505050811b019055610a15565b01515f1960f88460031b161c191690558e8080610aa8565b92936020600181928786015181550195019301610a66565b835f5260205f20601f840160051c81019160208510610b20575b601f0160051c01905b818110610b1557506109bb565b5f8155600101610b08565b9091508190610aff565b634e487b7160e01b5f52604160045260245ffd5b634e487b7160e01b5f52603260045260245ffd5b6117c9565b3461011b57608036600319011261011b576024356001600160401b03811161011b57610b879036906004016118c6565b6044356001600160401b03811161011b57610ba690369060040161185d565b926064356001600160401b03811161011b57610bc690369060040161185d565b92905f936004355f52600260205260405f20958015155f14610dba5780945b5f975f5b878110610c5557896001600160401b038a16801580610c4a57610c3657600160ff1b82145f198214166100fe578060609205600f0b5b604051918252600f0b602082015260026040820152f35b634e487b7160e01b5f52601260045260245ffd5b50606091505f610c1f565b8315610d9957610c696104a8828686611afa565b6004355f525f60205260405f209060018060a01b03165f5260205260405f205f908054905b818310610ca057505050600101610be9565b90919a9b60ff6006610cb28e8561194e565b50015416610d28578d15158e8d81610d64575b5050610d28578715158c89610d32575b50610d2857610ce48c8361194e565b5054600f0b905f82820192831291129080158216911516176100fe576001600160401b03909c166001600160401b0381146100fe5760018091019b5b019190610c8e565b9b9a600190610d20565b600291506105aa610d43918561194e565b60208151910120610d55368a8c611a56565b6020815191012014158c610cd5565b610d89919250610d796105aa6001928761194e565b602081519101209136908d611a56565b6020815191012014158e8d610cc5565b610da38183611a41565b905460039190911b1c6001600160a01b0316610c69565b865494610be5565b3461011b57608036600319011261011b57610ddb61180d565b610de3611823565b906064356001600160401b03811161011b57610e039036906004016118c6565b50506004355f52600160205260405f209060018060a01b03165f526020526001600160401b0360405f2091165f5260205260206001600160401b0360405f205416604051908152f35b3461011b57604036600319011261011b57600435602435906001600160401b0382169182810361011b575f82815260208181526040808320338452909152902054600691610eba91610e9f908610611abb565b5f84815260208181526040808320338452909152902061194e565b5001805460ff1916600117905533907f25156fd3288212246d8b008d5921fde376c71ed14ac2e072a506eb06fde6d09d5f80a4005b3461011b57602036600319011261011b576004355f52600260205260405f206040519081602082549182815201915f5260205f20905f5b818110610f5557610f5185610f3d81870382611a20565b60405191829160208352602083019061188a565b0390f35b82546001600160a01b0316845260209093019260019283019201610f26565b3461011b5761010036600319011261011b576004356024359081600f0b80920361011b576044359060ff821680920361011b576064356001600160401b03811161011b57610fc690369060040161185d565b92906084356001600160401b03811161011b57610fe790369060040161185d565b9060a4356001600160401b03811161011b5761100790369060040161185d565b909160c4356001600160401b03811161011b5761102890369060040161185d565b94909560e43599895f52600360205260405f2060018060a01b0333165f5260205260ff60405f2054161561168d575b5f8a81526020818152604080832033845290915290819020805491516001600160401b039283169b92909190610120830190811183821017610b2a576040528e8252602082018381528e8a8c8b8f6110b0368b8d611a56565b93604089019485528d8d36906110c592611a56565b9260608a0193845236906110d892611a56565b926080890193845236906110eb92611a56565b9260a0880193845260c0880194855260e08801955f87526101008901974289528054600160401b811015610b2a576111289160018201815561194e565b99909961167a57518954915170ffffffffffffffffffffffffffffffffff199092166fffffffffffffffffffffffffffffffff9091161760809190911b60ff60801b1617885551805160018901916001600160401b038211610b2a5781906111908454611967565b601f811161162a575b50602090601f83116001146115c7575f926115bc575b50508160011b915f199060031b1c19161790555b51805160028801916001600160401b038211610b2a5781906111e58454611967565b601f811161156c575b50602090601f8311600114611509575f926114fe575b50508160011b915f199060031b1c19161790555b51805160038701916001600160401b038211610b2a57819061123a8454611967565b601f81116114ae575b50602090601f831160011461144b575f92611440575b50508160011b915f199060031b1c19161790555b51805160048601916001600160401b038211610b2a57819061128f8454611967565b601f81116113f0575b50602090601f831160011461138d575f92611382575b50508160011b915f199060031b1c19161790555b516005840155600683019051151560ff198254169060ff1617905551906007015560405182848237808381015f81520390209c6040519a8b5260208b015260408a015260608901610100905261010089019061131d92611a9b565b90878203608089015261132f92611a9b565b9085820360a087015261134192611a9b565b9083820360c085015261135392611a9b565b9260e0820152803393037f6a4a61743519c9d648a14e6493f47dbe3ff1aa29e7785c96c8326a205e58febc91a4005b015190505f806112ae565b5f8581528281209350601f198516905b8181106113d857509084600195949392106113c0575b505050811b0190556112c2565b01515f1960f88460031b161c191690555f80806113b3565b9293602060018192878601518155019501930161139d565b909150835f5260205f20601f840160051c81019160208510611436575b90601f859493920160051c01905b8181106114285750611298565b5f815584935060010161141b565b909150819061140d565b015190505f80611259565b5f8581528281209350601f198516905b818110611496575090846001959493921061147e575b505050811b01905561126d565b01515f1960f88460031b161c191690555f8080611471565b9293602060018192878601518155019501930161145b565b909150835f5260205f20601f840160051c810191602085106114f4575b90601f859493920160051c01905b8181106114e65750611243565b5f81558493506001016114d9565b90915081906114cb565b015190505f80611204565b5f8581528281209350601f198516905b818110611554575090846001959493921061153c575b505050811b019055611218565b01515f1960f88460031b161c191690555f808061152f565b92936020600181928786015181550195019301611519565b909150835f5260205f20601f840160051c810191602085106115b2575b90601f859493920160051c01905b8181106115a457506111ee565b5f8155849350600101611597565b9091508190611589565b015190505f806111af565b5f8581528281209350601f198516905b81811061161257509084600195949392106115fa575b505050811b0190556111c3565b01515f1960f88460031b161c191690555f80806115ed565b929360206001819287860151815501950193016115d7565b909150835f5260205f20601f840160051c81019160208510611670575b90601f859493920160051c01905b8181106116625750611199565b5f8155849350600101611655565b9091508190611647565b634e487b7160e01b5f525f60045260245ffd5b895f52600260205260405f208054600160401b811015610b2a576116b691600182018155611a41565b81546001600160a01b03600392831b90811b19909116339182901b179092555f8c8152602091825260408082209382529290915220805460ff19166001179055611057565b3461011b57606036600319011261011b5760ff61174661171961180d565b611721611823565b906004355f525f60205260405f209060018060a01b03165f5260205260405f2061194e565b508054906117bd60026117af85600685015416936117896040519161177983611772816001850161199f565b0384611a20565b611772604051809681930161199f565b60405196868897600f0b885260801c16602087015260a0604087015260a0860190611839565b908482036060860152611839565b90151560808301520390f35b3461011b575f36600319011261011b576040517f00000000000000000000000000000000000000000000000000000000000000006001600160a01b03168152602090f35b602435906001600160a01b038216820361011b57565b604435906001600160401b038216820361011b57565b805180835260209291819084018484015e5f828201840152601f01601f1916010190565b9181601f8401121561011b578235916001600160401b03831161011b576020838186019501011161011b57565b90602080835192838152019201905f5b8181106118a75750505090565b82516001600160a01b031684526020938401939092019160010161189a565b9181601f8401121561011b578235916001600160401b03831161011b576020808501948460051b01011161011b57565b9080602083519182815201916020808360051b8301019401925f915b83831061192157505050505090565b909192939460208061193f600193601f198682030187528951611839565b97019301930191939290611912565b8054821015610b3e575f5260205f209060031b01905f90565b90600182811c92168015611995575b602083101461198157565b634e487b7160e01b5f52602260045260245ffd5b91607f1691611976565b5f92918154916119ae83611967565b8083529260018116908115611a0357506001146119ca57505050565b5f9081526020812093945091925b8383106119e9575060209250010190565b6001816020929493945483858701015201910191906119d8565b915050602093945060ff929192191683830152151560051b010190565b90601f801991011681019081106001600160401b03821117610b2a57604052565b8054821015610b3e575f5260205f2001905f90565b9291926001600160401b038211610b2a5760405191611a7f601f8201601f191660200184611a20565b82948184528183011161011b578281602093845f960137010152565b908060209392818452848401375f828201840152601f01601f1916010190565b15611ac257565b60405162461bcd60e51b815260206004820152601060248201526f4e6f207375636820666565646261636b60801b6044820152606490fd5b9190811015610b3e5760051b0190565b356001600160a01b038116810361011b5790565b5f1981146100fe5760010190565b6001600160401b038111610b2a5760051b60200190565b90611b4d82611b2c565b611b5a6040519182611a20565b8281528092611b6b601f1991611b2c565b01905f5b828110611b7b57505050565b806060602080938501015201611b6f565b8051821015610b3e5760209160051b01019056fea26469706673582212201e164de92d45b7fe16ed658f06d79339e2dd148237f38e4020a7bf8114fb9b5664736f6c634300081a0033",
  "linkReferences": {},
  "deployedLinkReferences": {},
  "immutableReferences": {
    "9892": [
      {
        "length": 32,
        "start": 6110
      }
    ]
  },
  "inputSourceName": "project/contracts/AtlasReputationRegistry.sol",
  "buildInfoId": "solc-0_8_26-ac8e8f7ae0d4a58a2b57c295ef04d0cc44ed4303"
}