{
  "_format": "hh3-artifact-1",
  "contractName": "AtlasAchievements",
  "sourceName": "contracts/AtlasAchievements.sol",
  "abi": [
    {
      "inputs": [],
      "stateMutability": "nonpayable",
      "type": "constructor"
    },
    {
      "inputs": [
        {
          "internalType": "address",
          "name": "sender",
          "type": "address"
        },
        {
          "internalType": "uint256",
          "name": "tokenId",
          "type": "uint256"
        },
        {
          "internalType": "address",
          "name": "owner",
          "type": "address"
        }
      ],
      "name": "ERC721IncorrectOwner",
      "type": "error"
    },
    {
      "inputs": [
        {
          "internalType": "address",
          "name": "operator",
          "type": "address"
        },
        {
          "internalType": "uint256",
          "name": "tokenId",
          "type": "uint256"
        }
      ],
      "name": "ERC721InsufficientApproval",
      "type": "error"
    },
    {
      "inputs": [
        {
          "internalType": "address",
          "name": "approver",
          "type": "address"
        }
      ],
      "name": "ERC721InvalidApprover",
      "type": "error"
    },
    {
      "inputs": [
        {
          "internalType": "address",
          "name": "operator",
          "type": "address"
        }
      ],
      "name": "ERC721InvalidOperator",
      "type": "error"
    },
    {
      "inputs": [
        {
          "internalType": "address",
          "name": "owner",
          "type": "address"
        }
      ],
      "name": "ERC721InvalidOwner",
      "type": "error"
    },
    {
      "inputs": [
        {
          "internalType": "address",
          "name": "receiver",
          "type": "address"
        }
      ],
      "name": "ERC721InvalidReceiver",
      "type": "error"
    },
    {
      "inputs": [
        {
          "internalType": "address",
          "name": "sender",
          "type": "address"
        }
      ],
      "name": "ERC721InvalidSender",
      "type": "error"
    },
    {
      "inputs": [
        {
          "internalType": "uint256",
          "name": "tokenId",
          "type": "uint256"
        }
      ],
      "name": "ERC721NonexistentToken",
      "type": "error"
    },
    {
      "inputs": [
        {
          "internalType": "address",
          "name": "owner",
          "type": "address"
        }
      ],
      "name": "OwnableInvalidOwner",
      "type": "error"
    },
    {
      "inputs": [
        {
          "internalType": "address",
          "name": "account",
          "type": "address"
        }
      ],
      "name": "OwnableUnauthorizedAccount",
      "type": "error"
    },
    {
      "anonymous": false,
      "inputs": [
        {
          "indexed": true,
          "internalType": "address",
          "name": "recipient",
          "type": "address"
        },
        {
          "indexed": true,
          "internalType": "uint256",
          "name": "tokenId",
          "type": "uint256"
        },
        {
          "indexed": false,
          "internalType": "string",
          "name": "achievementId",
          "type": "string"
        },
        {
          "indexed": false,
          "internalType": "string",
          "name": "name",
          "type": "string"
        }
      ],
      "name": "AchievementMinted",
      "type": "event"
    },
    {
      "anonymous": false,
      "inputs": [
        {
          "indexed": true,
          "internalType": "address",
          "name": "owner",
          "type": "address"
        },
        {
          "indexed": true,
          "internalType": "address",
          "name": "approved",
          "type": "address"
        },
        {
          "indexed": true,
          "internalType": "uint256",
          "name": "tokenId",
          "type": "uint256"
        }
      ],
      "name": "Approval",
      "type": "event"
    },
    {
      "anonymous": false,
      "inputs": [
        {
          "indexed": true,
          "internalType": "address",
          "name": "owner",
          "type": "address"
        },
        {
          "indexed": true,
          "internalType": "address",
          "name": "operator",
          "type": "address"
        },
        {
          "indexed": false,
          "internalType": "bool",
          "name": "approved",
          "type": "bool"
        }
      ],
      "name": "ApprovalForAll",
      "type": "event"
    },
    {
      "anonymous": false,
      "inputs": [
        {
          "indexed": true,
          "internalType": "address",
          "name": "previousOwner",
          "type": "address"
        },
        {
          "indexed": true,
          "internalType": "address",
          "name": "newOwner",
          "type": "address"
        }
      ],
      "name": "OwnershipTransferred",
      "type": "event"
    },
    {
      "anonymous": false,
      "inputs": [
        {
          "indexed": true,
          "internalType": "address",
          "name": "from",
          "type": "address"
        },
        {
          "indexed": true,
          "internalType": "address",
          "name": "to",
          "type": "address"
        },
        {
          "indexed": true,
          "internalType": "uint256",
          "name": "tokenId",
          "type": "uint256"
        }
      ],
      "name": "Transfer",
      "type": "event"
    },
    {
      "inputs": [
        {
          "internalType": "uint256",
          "name": "",
          "type": "uint256"
        }
      ],
      "name": "achievements",
      "outputs": [
        {
          "internalType": "string",
          "name": "id",
          "type": "string"
        },
        {
          "internalType": "string",
          "name": "name",
          "type": "string"
        },
        {
          "internalType": "string",
          "name": "symbol",
          "type": "string"
        },
        {
          "internalType": "address",
          "name": "recipient",
          "type": "address"
        },
        {
          "internalType": "uint256",
          "name": "timestamp",
          "type": "uint256"
        }
      ],
      "stateMutability": "view",
      "type": "function"
    },
    {
      "inputs": [
        {
          "internalType": "address",
          "name": "to",
          "type": "address"
        },
        {
          "internalType": "uint256",
          "name": "tokenId",
          "type": "uint256"
        }
      ],
      "name": "approve",
      "outputs": [],
      "stateMutability": "nonpayable",
      "type": "function"
    },
    {
      "inputs": [
        {
          "internalType": "address",
          "name": "owner",
          "type": "address"
        }
      ],
      "name": "balanceOf",
      "outputs": [
        {
          "internalType": "uint256",
          "name": "",
          "type": "uint256"
        }
      ],
      "stateMutability": "view",
      "type": "function"
    },
    {
      "inputs": [
        {
          "internalType": "uint256",
          "name": "tokenId",
          "type": "uint256"
        }
      ],
      "name": "getApproved",
      "outputs": [
        {
          "internalType": "address",
          "name": "",
          "type": "address"
        }
      ],
      "stateMutability": "view",
      "type": "function"
    },
    {
      "inputs": [
        {
          "internalType": "address",
          "name": "user",
          "type": "address"
        }
      ],
      "name": "getUserAchievements",
      "outputs": [
        {
          "components": [
            {
              "internalType": "string",
              "name": "id",
              "type": "string"
            },
            {
              "internalType": "string",
              "name": "name",
              "type": "string"
            },
            {
              "internalType": "string",
              "name": "symbol",
              "type": "string"
            },
            {
              "internalType": "address",
              "name": "recipient",
              "type": "address"
            },
            {
              "internalType": "uint256",
              "name": "timestamp",
              "type": "uint256"
            }
          ],
          "internalType": "struct AtlasAchievements.Achievement[]",
          "name": "",
          "type": "tuple[]"
        }
      ],
      "stateMutability": "view",
      "type": "function"
    },
    {
      "inputs": [
        {
          "internalType": "address",
          "name": "",
          "type": "address"
        },
        {
          "internalType": "string",
          "name": "",
          "type": "string"
        }
      ],
      "name": "hasAchievement",
      "outputs": [
        {
          "internalType": "bool",
          "name": "",
          "type": "bool"
        }
      ],
      "stateMutability": "view",
      "type": "function"
    },
    {
      "inputs": [
        {
          "internalType": "address",
          "name": "owner",
          "type": "address"
        },
        {
          "internalType": "address",
          "name": "operator",
          "type": "address"
        }
      ],
      "name": "isApprovedForAll",
      "outputs": [
        {
          "internalType": "bool",
          "name": "",
          "type": "bool"
        }
      ],
      "stateMutability": "view",
      "type": "function"
    },
    {
      "inputs": [
        {
          "internalType": "address",
          "name": "recipient",
          "type": "address"
        },
        {
          "internalType": "string",
          "name": "achievementId",
          "type": "string"
        },
        {
          "internalType": "string",
          "name": "name",
          "type": "string"
        },
        {
          "internalType": "string",
          "name": "symbol",
          "type": "string"
        }
      ],
      "name": "mint",
      "outputs": [
        {
          "internalType": "uint256",
          "name": "tokenId",
          "type": "uint256"
        }
      ],
      "stateMutability": "nonpayable",
      "type": "function"
    },
    {
      "inputs": [],
      "name": "name",
      "outputs": [
        {
          "internalType": "string",
          "name": "",
          "type": "string"
        }
      ],
      "stateMutability": "view",
      "type": "function"
    },
    {
      "inputs": [],
      "name": "owner",
      "outputs": [
        {
          "internalType": "address",
          "name": "",
          "type": "address"
        }
      ],
      "stateMutability": "view",
      "type": "function"
    },
    {
      "inputs": [
        {
          "internalType": "uint256",
          "name": "tokenId",
          "type": "uint256"
        }
      ],
      "name": "ownerOf",
      "outputs": [
        {
          "internalType": "address",
          "name": "",
          "type": "address"
        }
      ],
      "stateMutability": "view",
      "type": "function"
    },
    {
      "inputs": [],
      "name": "renounceOwnership",
      "outputs": [],
      "stateMutability": "nonpayable",
      "type": "function"
    },
    {
      "inputs": [
        {
          "internalType": "address",
          "name": "from",
          "type": "address"
        },
        {
          "internalType": "address",
          "name": "to",
          "type": "address"
        },
        {
          "internalType": "uint256",
          "name": "tokenId",
          "type": "uint256"
        }
      ],
      "name": "safeTransferFrom",
      "outputs": [],
      "stateMutability": "nonpayable",
      "type": "function"
    },
    {
      "inputs": [
        {
          "internalType": "address",
          "name": "from",
          "type": "address"
        },
        {
          "internalType": "address",
          "name": "to",
          "type": "address"
        },
        {
          "internalType": "uint256",
          "name": "tokenId",
          "type": "uint256"
        },
        {
          "internalType": "bytes",
          "name": "data",
          "type": "bytes"
        }
      ],
      "name": "safeTransferFrom",
      "outputs": [],
      "stateMutability": "nonpayable",
      "type": "function"
    },
    {
      "inputs": [
        {
          "internalType": "address",
          "name": "operator",
          "type": "address"
        },
        {
          "internalType": "bool",
          "name": "approved",
          "type": "bool"
        }
      ],
      "name": "setApprovalForAll",
      "outputs": [],
      "stateMutability": "nonpayable",
      "type": "function"
    },
    {
      "inputs": [
        {
          "internalType": "bytes4",
          "name": "interfaceId",
          "type": "bytes4"
        }
      ],
      "name": "supportsInterface",
      "outputs": [
        {
          "internalType": "bool",
          "name": "",
          "type": "bool"
        }
      ],
      "stateMutability": "view",
      "type": "function"
    },
    {
      "inputs": [],
      "name": "symbol",
      "outputs": [
        {
          "internalType": "string",
          "name": "",
          "type": "string"
        }
      ],
      "stateMutability": "view",
      "type": "function"
    },
    {
      "inputs": [
        {
          "internalType": "uint256",
          "name": "tokenId",
          "type": "uint256"
        }
      ],
      "name": "tokenURI",
      "outputs": [
        {
          "internalType": "string",
          "name": "",
          "type": "string"
        }
      ],
      "stateMutability": "view",
      "type": "function"
    },
    {
      "inputs": [
        {
          "internalType": "address",
          "name": "",
          "type": "address"
        },
        {
          "internalType": "address",
          "name": "",
          "type": "address"
        },
        {
          "internalType": "uint256",
          "name": "",
          "type": "uint256"
        }
      ],
      "name": "transferFrom",
      "outputs": [],
      "stateMutability": "pure",
      "type": "function"
    },
    {
      "inputs": [
        {
          "internalType": "address",
          "name": "newOwner",
          "type": "address"
        }
      ],
      "name": "transferOwnership",
      "outputs": [],
      "stateMutability": "nonpayable",
      "type": "function"
    },
    {
      "inputs": [
        {
          "internalType": "address",
          "name": "",
          "type": "address"
        },
        {
          "internalType": "uint256",
          "name": "",
          "type": "uint256"
        }
      ],
      "name": "userAchievements",
      "outputs": [
        {
          "internalType": "uint256",
          "name": "",
          "type": "uint256"
        }
      ],
      "stateMutability": "view",
      "type": "function"
    }
  ],
  "bytecode": "0x60806040523461037e57604080519081016001600160401b03811182821017610294576040908152601282527141746c617320416368696576656d656e747360701b602083015280519081016001600160401b03811182821017610294576040526009815268082a89882a65a8286960bb1b602082015281516001600160401b038111610294575f54600181811c91168015610374575b602082101461027657601f8111610312575b50602092601f82116001146102b357928192935f926102a8575b50508160011b915f199060031b1c1916175f555b80516001600160401b03811161029457600154600181811c9116801561028a575b602082101461027657601f8111610213575b50602091601f82116001146101b3579181925f926101a8575b50508160011b915f199060031b1c1916176001555b33156101955760068054336001600160a01b03198216811790925560405191906001600160a01b03167f8be0079c531659141344cd1fd0a4f28419497f9722a3daafe3b4186f6b6457e05f80a360016007556115ac90816103838239f35b631e4fbdf760e01b5f525f60045260245ffd5b015190505f80610122565b601f1982169260015f52805f20915f5b8581106101fb575083600195106101e3575b505050811b01600155610137565b01515f1960f88460031b161c191690555f80806101d5565b919260206001819286850151815501940192016101c3565b60015f527fb10e2d527612073b26eecdfd717e6a320cf44b4afac2b0732d9fcbe2b7fa0cf6601f830160051c8101916020841061026c575b601f0160051c01905b8181106102615750610109565b5f8155600101610254565b909150819061024b565b634e487b7160e01b5f52602260045260245ffd5b90607f16906100f7565b634e487b7160e01b5f52604160045260245ffd5b015190505f806100c2565b601f198216935f8052805f20915f5b8681106102fa57508360019596106102e2575b505050811b015f556100d6565b01515f1960f88460031b161c191690555f80806102d5565b919260206001819286850151815501940192016102c2565b5f80527f290decd9548b62a8d60345a988386fc84ba6bc95484008f6362f93160ef3e563601f830160051c8101916020841061036a575b601f0160051c01905b81811061035f57506100a8565b5f8155600101610352565b9091508190610349565b90607f1690610096565b5f80fdfe6080806040526004361015610012575f80fd5b5f905f3560e01c90816301ffc9a71461122c5750806306fdde031461118a578063081812fc1461114e578063095ea7b31461106457806323b872dd1461100e57806324548c6014610fb657806327aed72e14610f1a57806342842e0e14610eb45780634a0706be146108235780636352211e146107f357806370a08231146107a2578063715018a6146107475780638da5cb5b1461071f57806395d89b4114610641578063a22cb4651461058d578063b88d4fde146104f4578063b9a626ed1461046e578063c87b56dd14610411578063e985e9c5146103b9578063f09153c4146101905763f2fde38b14610105575f80fd5b3461018d57602036600319011261018d5761011e6112bb565b61012661154f565b6001600160a01b0316801561017957600680546001600160a01b0319811683179091556001600160a01b03167f8be0079c531659141344cd1fd0a4f28419497f9722a3daafe3b4186f6b6457e05f80a380f35b631e4fbdf760e01b82526004829052602482fd5b80fd5b503461018d57602036600319011261018d576001600160a01b036101b26112bb565b168152600a602052604081206040518082602082945493848152019085526020852092855b8181106103a05750506101ec9250038261139d565b80516101f7816114f0565b90610205604051928361139d565b808252610214601f19916114f0565b01835b818110610368575050825b82518110156102b3578061023860019285611507565b51855260086020526040852060046040519161025383611382565b61025c816113be565b83526102698582016113be565b602084015261027a600282016113be565b6040840152848060a01b036003820154166060840152015460808201526102a18285611507565b526102ac8184611507565b5001610222565b81846040519182916020830160208452825180915260408401602060408360051b870101940192905b8282106102eb57505050500390f35b919360019193955060208091603f1989820301855287519060808061034161032f61031f865160a0875260a0870190611297565b8787015186820389880152611297565b60408601518582036040870152611297565b93878060a01b036060820151166060850152015191015296019201920185949391926102dc565b60209060405161037781611382565b606081526060838201526060604082015286606082015286608082015282828601015201610217565b84548352600194850194869450602090930192016101d7565b503461018d57604036600319011261018d5760406103d56112bb565b916103de6112d1565b9260018060a01b031681526005602052209060018060a01b03165f52602052602060ff60405f2054166040519015158152f35b3461046a57602036600319011261046a5761042d60043561151b565b505f60405161043d60208261139d565b5261046660405161044f60208261139d565b5f8152604051918291602083526020830190611297565b0390f35b5f80fd5b3461046a57604036600319011261046a576104876112bb565b6024356001600160401b03811161046a573660238201121561046a5760208080936104be60ff94369060248160040135910161148b565b9060018060a01b03165f526009825260405f20604051938285935191829101845e82019081520301902054166040519015158152f35b3461046a57608036600319011261046a5761050d6112bb565b506105166112d1565b506064356001600160401b03811161046a573660238201121561046a5761054790369060248160040135910161148b565b5060405162461bcd60e51b815260206004820152601b60248201527f536f756c626f756e643a206e6f6e2d7472616e7366657261626c6500000000006044820152606490fd5b3461046a57604036600319011261046a576105a66112bb565b6024359081151580920361046a57331561062e576001600160a01b031690811561061b57335f52600560205260405f20825f5260205260405f2060ff1981541660ff83161790556040519081527f17307eab39ab6107e8899845ad3d59bd9653f200f220920489ca2b5937696c3160203392a3005b50630b61174360e31b5f5260045260245ffd5b63a9fbf51f60e01b5f525f60045260245ffd5b3461046a575f36600319011261046a576040515f6001546106618161134a565b80845290600181169081156106fb575060011461069d575b610466836106898185038261139d565b604051918291602083526020830190611297565b60015f9081527fb10e2d527612073b26eecdfd717e6a320cf44b4afac2b0732d9fcbe2b7fa0cf6939250905b8082106106e157509091508101602001610689610679565b9192600181602092548385880101520191019092916106c9565b60ff191660208086019190915291151560051b840190910191506106899050610679565b3461046a575f36600319011261046a576006546040516001600160a01b039091168152602090f35b3461046a575f36600319011261046a5761075f61154f565b600680546001600160a01b031981169091555f906001600160a01b03167f8be0079c531659141344cd1fd0a4f28419497f9722a3daafe3b4186f6b6457e08280a3005b3461046a57602036600319011261046a576001600160a01b036107c36112bb565b1680156107e0575f526003602052602060405f2054604051908152f35b6322718ad960e21b5f525f60045260245ffd5b3461046a57602036600319011261046a57602061081160043561151b565b6040516001600160a01b039091168152f35b3461046a57608036600319011261046a5761083c6112bb565b6024356001600160401b03811161046a5761085b90369060040161145e565b916044356001600160401b03811161046a5761087b90369060040161145e565b9190936064356001600160401b03811161046a5761089d90369060040161145e565b9490926108a861154f565b60018060a01b031692835f52600960205260ff60405f206020604051809287878337878201908152030190205416610e7e57600754955f198714610e6a57600187016007558415610e57575f878152600260205260409020546001600160a01b03169182151580610e1e575b865f52600360205260405f2060018154019055885f52600260205260405f20876bffffffffffffffffffffffff60a01b8254161790558887604051957fddf252ad1be2c89b69c2b068fc378daa952ba7f163c4a11628f55a4df523b3ef5f80a4610e0b576109ac9061098584611382565b61099036878761148b565b845261099d36898c61148b565b9260208501938452369161148b565b6040830190815260608301908682526080840192428452895f52600860205260405f2094518051906001600160401b038211610bc35781906109ee885461134a565b601f8111610dbb575b50602090601f8311600114610d58575f92610d4d575b50508160011b915f199060031b1c19161785555b51805160018601916001600160401b038211610bc3578190610a43845461134a565b601f8111610cfd575b50602090601f8311600114610c9a575f92610c8f575b50508160011b915f199060031b1c19161790555b51805160028501916001600160401b038211610bc357610a96835461134a565b601f8111610c4a575b50602090601f8311600114610be257600495949392915f9183610bd7575b50508160011b915f199060031b1c19161790555b516003840180546001600160a01b0319166001600160a01b0392909216919091179055519101555f8381526009602090815260409182902091519182908585833785820190815203019020600160ff19825416179055825f52600a60205260405f2091825468010000000000000000811015610bc3576020978796610b80837f1eb7195194eea07b5eeb1e861d4f7450ed79c85635f55fd4be9edc75bbfe3c9f976001610bb896018155611321565b81549060031b908a821b915f19901b1916179055610bab6040519586956040875260408701916114d0565b918483038b8601526114d0565b0390a3604051908152f35b634e487b7160e01b5f52604160045260245ffd5b015190508d80610abd565b90601f19831691845f52815f20925f5b818110610c3257509160019391856004999897969410610c1a575b505050811b019055610ad1565b01515f1960f88460031b161c191690558d8080610c0d565b92936020600181928786015181550195019301610bf2565b835f5260205f20601f840160051c81019160208510610c85575b601f0160051c01905b818110610c7a5750610a9f565b5f8155600101610c6d565b9091508190610c64565b015190508d80610a62565b5f8581528281209350601f198516905b818110610ce55750908460019594939210610ccd575b505050811b019055610a76565b01515f1960f88460031b161c191690558d8080610cc0565b92936020600181928786015181550195019301610caa565b909150835f5260205f20601f840160051c81019160208510610d43575b90601f859493920160051c01905b818110610d355750610a4c565b5f8155849350600101610d28565b9091508190610d1a565b015190508d80610a0d565b5f8981528281209350601f198516905b818110610da35750908460019594939210610d8b575b505050811b018555610a21565b01515f1960f88460031b161c191690558d8080610d7e565b92936020600181928786015181550195019301610d68565b909150875f5260205f20601f840160051c81019160208510610e01575b90601f859493920160051c01905b818110610df357506109f7565b5f8155849350600101610de6565b9091508190610dd8565b6339e3563760e11b5f525f60045260245ffd5b885f52600460205260405f206bffffffffffffffffffffffff60a01b8154169055835f52600360205260405f205f198154019055610914565b633250574960e11b5f525f60045260245ffd5b634e487b7160e01b5f52601160045260245ffd5b60405162461bcd60e51b815260206004820152600e60248201526d105b1c9958591e4819585c9b995960921b6044820152606490fd5b3461046a57610ec2366112e7565b5050505f604051610ed460208261139d565b5260405162461bcd60e51b815260206004820152601b60248201527f536f756c626f756e643a206e6f6e2d7472616e7366657261626c6500000000006044820152606490fd5b3461046a57602036600319011261046a576004355f526008602052610f8b60405f20610f45816113be565b90610f52600182016113be565b610fa7610f61600284016113be565b610f99600460018060a01b036003870154169501549360405197889760a0895260a0890190611297565b908782036020890152611297565b908582036040870152611297565b91606084015260808301520390f35b3461046a57604036600319011261046a57610fcf6112bb565b6001600160a01b03165f908152600a602052604090208054602435919082101561046a57602091610fff91611321565b90549060031b1c604051908152f35b3461046a5761101c366112e7565b505060405162461bcd60e51b815260206004820152601b60248201527f536f756c626f756e643a206e6f6e2d7472616e7366657261626c650000000000604482015260649150fd5b3461046a57604036600319011261046a5761107d6112bb565b6024356110898161151b565b3315158061113b575b8061110e575b6110fb5781906001600160a01b0384811691167f8c5be1e5ebec7d5bd14f71427d1e84f3dd0314c0f7b2291e5b200ac8c7c3b9255f80a45f90815260046020526040902080546001600160a01b0319166001600160a01b03909216919091179055005b63a9fbf51f60e01b5f523360045260245ffd5b506001600160a01b0381165f90815260056020908152604080832033845290915290205460ff1615611098565b506001600160a01b038116331415611092565b3461046a57602036600319011261046a5760043561116b8161151b565b505f526004602052602060018060a01b0360405f205416604051908152f35b3461046a575f36600319011261046a576040515f80546111a98161134a565b80845290600181169081156106fb57506001146111d057610466836106898185038261139d565b5f8080527f290decd9548b62a8d60345a988386fc84ba6bc95484008f6362f93160ef3e563939250905b80821061121257509091508101602001610689610679565b9192600181602092548385880101520191019092916111fa565b3461046a57602036600319011261046a576004359063ffffffff60e01b821680920361046a576020916380ac58cd60e01b8114908115611286575b8115611275575b5015158152f35b6301ffc9a760e01b1490508361126e565b635b5e139f60e01b81149150611267565b805180835260209291819084018484015e5f828201840152601f01601f1916010190565b600435906001600160a01b038216820361046a57565b602435906001600160a01b038216820361046a57565b606090600319011261046a576004356001600160a01b038116810361046a57906024356001600160a01b038116810361046a579060443590565b8054821015611336575f5260205f2001905f90565b634e487b7160e01b5f52603260045260245ffd5b90600182811c92168015611378575b602083101461136457565b634e487b7160e01b5f52602260045260245ffd5b91607f1691611359565b60a081019081106001600160401b03821117610bc357604052565b90601f801991011681019081106001600160401b03821117610bc357604052565b9060405191825f8254926113d18461134a565b808452936001811690811561143c57506001146113f8575b506113f69250038361139d565b565b90505f9291925260205f20905f915b8183106114205750509060206113f6928201015f6113e9565b6020919350806001915483858901015201910190918492611407565b9050602092506113f694915060ff191682840152151560051b8201015f6113e9565b9181601f8401121561046a578235916001600160401b03831161046a576020838186019501011161046a57565b9291926001600160401b038211610bc357604051916114b4601f8201601f19166020018461139d565b82948184528183011161046a578281602093845f960137010152565b908060209392818452848401375f828201840152601f01601f1916010190565b6001600160401b038111610bc35760051b60200190565b80518210156113365760209160051b010190565b5f818152600260205260409020546001600160a01b031690811561153d575090565b637e27328960e01b5f5260045260245ffd5b6006546001600160a01b0316330361156357565b63118cdaa760e01b5f523360045260245ffdfea264697066735822122006b26b295d052d13cdf80d6552bc1ed2d0065f8f8cad59c622e3bb5dee9d97a564736f6c634300081a0033",
  "linkReferences": {},
  "deployedLinkReferences": {},
  "immutableReferences": {},
  "inputSourceName": "project/contracts/AtlasAchievements.sol",
  "buildInfoId": "solc-0_8_26-ac8e8f7ae0d4a58a2b57c295ef04d0cc44ed4303"
}