{
  "_format": "hh3-artifact-1",
  "contractName": "AtlasIslandNFT",
  "sourceName": "contracts/AtlasIslandNFT.sol",
  "abi": [
    {
      "inputs": [],
      "stateMutability": "nonpayable",
      "type": "constructor"
    },
    {
      "inputs": [
        {
          "internalType": "address",
          "name": "sender",
          "type": "address"
        },
        {
          "internalType": "uint256",
          "name": "tokenId",
          "type": "uint256"
        },
        {
          "internalType": "address",
          "name": "owner",
          "type": "address"
        }
      ],
      "name": "ERC721IncorrectOwner",
      "type": "error"
    },
    {
      "inputs": [
        {
          "internalType": "address",
          "name": "operator",
          "type": "address"
        },
        {
          "internalType": "uint256",
          "name": "tokenId",
          "type": "uint256"
        }
      ],
      "name": "ERC721InsufficientApproval",
      "type": "error"
    },
    {
      "inputs": [
        {
          "internalType": "address",
          "name": "approver",
          "type": "address"
        }
      ],
      "name": "ERC721InvalidApprover",
      "type": "error"
    },
    {
      "inputs": [
        {
          "internalType": "address",
          "name": "operator",
          "type": "address"
        }
      ],
      "name": "ERC721InvalidOperator",
      "type": "error"
    },
    {
      "inputs": [
        {
          "internalType": "address",
          "name": "owner",
          "type": "address"
        }
      ],
      "name": "ERC721InvalidOwner",
      "type": "error"
    },
    {
      "inputs": [
        {
          "internalType": "address",
          "name": "receiver",
          "type": "address"
        }
      ],
      "name": "ERC721InvalidReceiver",
      "type": "error"
    },
    {
      "inputs": [
        {
          "internalType": "address",
          "name": "sender",
          "type": "address"
        }
      ],
      "name": "ERC721InvalidSender",
      "type": "error"
    },
    {
      "inputs": [
        {
          "internalType": "uint256",
          "name": "tokenId",
          "type": "uint256"
        }
      ],
      "name": "ERC721NonexistentToken",
      "type": "error"
    },
    {
      "inputs": [
        {
          "internalType": "address",
          "name": "owner",
          "type": "address"
        }
      ],
      "name": "OwnableInvalidOwner",
      "type": "error"
    },
    {
      "inputs": [
        {
          "internalType": "address",
          "name": "account",
          "type": "address"
        }
      ],
      "name": "OwnableUnauthorizedAccount",
      "type": "error"
    },
    {
      "anonymous": false,
      "inputs": [
        {
          "indexed": true,
          "internalType": "address",
          "name": "owner",
          "type": "address"
        },
        {
          "indexed": true,
          "internalType": "address",
          "name": "approved",
          "type": "address"
        },
        {
          "indexed": true,
          "internalType": "uint256",
          "name": "tokenId",
          "type": "uint256"
        }
      ],
      "name": "Approval",
      "type": "event"
    },
    {
      "anonymous": false,
      "inputs": [
        {
          "indexed": true,
          "internalType": "address",
          "name": "owner",
          "type": "address"
        },
        {
          "indexed": true,
          "internalType": "address",
          "name": "operator",
          "type": "address"
        },
        {
          "indexed": false,
          "internalType": "bool",
          "name": "approved",
          "type": "bool"
        }
      ],
      "name": "ApprovalForAll",
      "type": "event"
    },
    {
      "anonymous": false,
      "inputs": [
        {
          "indexed": true,
          "internalType": "uint256",
          "name": "tokenId",
          "type": "uint256"
        }
      ],
      "name": "IslandDelisted",
      "type": "event"
    },
    {
      "anonymous": false,
      "inputs": [
        {
          "indexed": true,
          "internalType": "uint256",
          "name": "tokenId",
          "type": "uint256"
        },
        {
          "indexed": false,
          "internalType": "uint256",
          "name": "priceUsdCents",
          "type": "uint256"
        }
      ],
      "name": "IslandListed",
      "type": "event"
    },
    {
      "anonymous": false,
      "inputs": [
        {
          "indexed": true,
          "internalType": "address",
          "name": "owner",
          "type": "address"
        },
        {
          "indexed": true,
          "internalType": "uint256",
          "name": "tokenId",
          "type": "uint256"
        },
        {
          "indexed": false,
          "internalType": "uint8",
          "name": "tier",
          "type": "uint8"
        },
        {
          "indexed": false,
          "internalType": "string",
          "name": "tierName",
          "type": "string"
        },
        {
          "indexed": false,
          "internalType": "uint256",
          "name": "tvlUsdCents",
          "type": "uint256"
        },
        {
          "indexed": false,
          "internalType": "uint8",
          "name": "milestonesCount",
          "type": "uint8"
        }
      ],
      "name": "IslandMinted",
      "type": "event"
    },
    {
      "anonymous": false,
      "inputs": [
        {
          "indexed": true,
          "internalType": "address",
          "name": "previousOwner",
          "type": "address"
        },
        {
          "indexed": true,
          "internalType": "address",
          "name": "newOwner",
          "type": "address"
        }
      ],
      "name": "OwnershipTransferred",
      "type": "event"
    },
    {
      "anonymous": false,
      "inputs": [
        {
          "indexed": true,
          "internalType": "address",
          "name": "from",
          "type": "address"
        },
        {
          "indexed": true,
          "internalType": "address",
          "name": "to",
          "type": "address"
        },
        {
          "indexed": true,
          "internalType": "uint256",
          "name": "tokenId",
          "type": "uint256"
        }
      ],
      "name": "Transfer",
      "type": "event"
    },
    {
      "inputs": [],
      "name": "MIN_TVL_USD_CENTS",
      "outputs": [
        {
          "internalType": "uint256",
          "name": "",
          "type": "uint256"
        }
      ],
      "stateMutability": "view",
      "type": "function"
    },
    {
      "inputs": [
        {
          "internalType": "address",
          "name": "to",
          "type": "address"
        },
        {
          "internalType": "uint256",
          "name": "tokenId",
          "type": "uint256"
        }
      ],
      "name": "approve",
      "outputs": [],
      "stateMutability": "nonpayable",
      "type": "function"
    },
    {
      "inputs": [
        {
          "internalType": "address",
          "name": "owner",
          "type": "address"
        }
      ],
      "name": "balanceOf",
      "outputs": [
        {
          "internalType": "uint256",
          "name": "",
          "type": "uint256"
        }
      ],
      "stateMutability": "view",
      "type": "function"
    },
    {
      "inputs": [
        {
          "internalType": "uint256",
          "name": "tokenId",
          "type": "uint256"
        }
      ],
      "name": "delistIsland",
      "outputs": [],
      "stateMutability": "nonpayable",
      "type": "function"
    },
    {
      "inputs": [
        {
          "internalType": "uint256",
          "name": "tokenId",
          "type": "uint256"
        }
      ],
      "name": "getApproved",
      "outputs": [
        {
          "internalType": "address",
          "name": "",
          "type": "address"
        }
      ],
      "stateMutability": "view",
      "type": "function"
    },
    {
      "inputs": [],
      "name": "getListedIslands",
      "outputs": [
        {
          "internalType": "uint256[]",
          "name": "tokenIds",
          "type": "uint256[]"
        }
      ],
      "stateMutability": "view",
      "type": "function"
    },
    {
      "inputs": [
        {
          "internalType": "address",
          "name": "",
          "type": "address"
        }
      ],
      "name": "hasMinted",
      "outputs": [
        {
          "internalType": "bool",
          "name": "",
          "type": "bool"
        }
      ],
      "stateMutability": "view",
      "type": "function"
    },
    {
      "inputs": [
        {
          "internalType": "address",
          "name": "owner",
          "type": "address"
        },
        {
          "internalType": "address",
          "name": "operator",
          "type": "address"
        }
      ],
      "name": "isApprovedForAll",
      "outputs": [
        {
          "internalType": "bool",
          "name": "",
          "type": "bool"
        }
      ],
      "stateMutability": "view",
      "type": "function"
    },
    {
      "inputs": [
        {
          "internalType": "uint256",
          "name": "",
          "type": "uint256"
        }
      ],
      "name": "islands",
      "outputs": [
        {
          "internalType": "address",
          "name": "owner",
          "type": "address"
        },
        {
          "internalType": "uint256",
          "name": "tvlUsdCents",
          "type": "uint256"
        },
        {
          "internalType": "uint8",
          "name": "tier",
          "type": "uint8"
        },
        {
          "internalType": "string",
          "name": "tierName",
          "type": "string"
        },
        {
          "internalType": "uint8",
          "name": "milestonesCount",
          "type": "uint8"
        },
        {
          "internalType": "uint8",
          "name": "healthScore",
          "type": "uint8"
        },
        {
          "internalType": "uint256",
          "name": "mintedAt",
          "type": "uint256"
        },
        {
          "internalType": "bool",
          "name": "forSale",
          "type": "bool"
        },
        {
          "internalType": "uint256",
          "name": "priceUsdCents",
          "type": "uint256"
        }
      ],
      "stateMutability": "view",
      "type": "function"
    },
    {
      "inputs": [
        {
          "internalType": "uint256",
          "name": "tokenId",
          "type": "uint256"
        },
        {
          "internalType": "uint256",
          "name": "priceUsdCents",
          "type": "uint256"
        }
      ],
      "name": "listIsland",
      "outputs": [],
      "stateMutability": "nonpayable",
      "type": "function"
    },
    {
      "inputs": [
        {
          "internalType": "uint256",
          "name": "tvlUsdCents",
          "type": "uint256"
        },
        {
          "internalType": "uint8",
          "name": "tier",
          "type": "uint8"
        },
        {
          "internalType": "string",
          "name": "tierName",
          "type": "string"
        },
        {
          "internalType": "uint8",
          "name": "milestonesCount",
          "type": "uint8"
        },
        {
          "internalType": "uint8",
          "name": "healthScore",
          "type": "uint8"
        }
      ],
      "name": "mintIsland",
      "outputs": [
        {
          "internalType": "uint256",
          "name": "tokenId",
          "type": "uint256"
        }
      ],
      "stateMutability": "nonpayable",
      "type": "function"
    },
    {
      "inputs": [],
      "name": "name",
      "outputs": [
        {
          "internalType": "string",
          "name": "",
          "type": "string"
        }
      ],
      "stateMutability": "view",
      "type": "function"
    },
    {
      "inputs": [],
      "name": "owner",
      "outputs": [
        {
          "internalType": "address",
          "name": "",
          "type": "address"
        }
      ],
      "stateMutability": "view",
      "type": "function"
    },
    {
      "inputs": [
        {
          "internalType": "uint256",
          "name": "tokenId",
          "type": "uint256"
        }
      ],
      "name": "ownerOf",
      "outputs": [
        {
          "internalType": "address",
          "name": "",
          "type": "address"
        }
      ],
      "stateMutability": "view",
      "type": "function"
    },
    {
      "inputs": [],
      "name": "renounceOwnership",
      "outputs": [],
      "stateMutability": "nonpayable",
      "type": "function"
    },
    {
      "inputs": [
        {
          "internalType": "address",
          "name": "from",
          "type": "address"
        },
        {
          "internalType": "address",
          "name": "to",
          "type": "address"
        },
        {
          "internalType": "uint256",
          "name": "tokenId",
          "type": "uint256"
        }
      ],
      "name": "safeTransferFrom",
      "outputs": [],
      "stateMutability": "nonpayable",
      "type": "function"
    },
    {
      "inputs": [
        {
          "internalType": "address",
          "name": "from",
          "type": "address"
        },
        {
          "internalType": "address",
          "name": "to",
          "type": "address"
        },
        {
          "internalType": "uint256",
          "name": "tokenId",
          "type": "uint256"
        },
        {
          "internalType": "bytes",
          "name": "data",
          "type": "bytes"
        }
      ],
      "name": "safeTransferFrom",
      "outputs": [],
      "stateMutability": "nonpayable",
      "type": "function"
    },
    {
      "inputs": [
        {
          "internalType": "address",
          "name": "operator",
          "type": "address"
        },
        {
          "internalType": "bool",
          "name": "approved",
          "type": "bool"
        }
      ],
      "name": "setApprovalForAll",
      "outputs": [],
      "stateMutability": "nonpayable",
      "type": "function"
    },
    {
      "inputs": [
        {
          "internalType": "bytes4",
          "name": "interfaceId",
          "type": "bytes4"
        }
      ],
      "name": "supportsInterface",
      "outputs": [
        {
          "internalType": "bool",
          "name": "",
          "type": "bool"
        }
      ],
      "stateMutability": "view",
      "type": "function"
    },
    {
      "inputs": [],
      "name": "symbol",
      "outputs": [
        {
          "internalType": "string",
          "name": "",
          "type": "string"
        }
      ],
      "stateMutability": "view",
      "type": "function"
    },
    {
      "inputs": [
        {
          "internalType": "uint256",
          "name": "tokenId",
          "type": "uint256"
        }
      ],
      "name": "tokenURI",
      "outputs": [
        {
          "internalType": "string",
          "name": "",
          "type": "string"
        }
      ],
      "stateMutability": "view",
      "type": "function"
    },
    {
      "inputs": [],
      "name": "totalMinted",
      "outputs": [
        {
          "internalType": "uint256",
          "name": "",
          "type": "uint256"
        }
      ],
      "stateMutability": "view",
      "type": "function"
    },
    {
      "inputs": [
        {
          "internalType": "address",
          "name": "from",
          "type": "address"
        },
        {
          "internalType": "address",
          "name": "to",
          "type": "address"
        },
        {
          "internalType": "uint256",
          "name": "tokenId",
          "type": "uint256"
        }
      ],
      "name": "transferFrom",
      "outputs": [],
      "stateMutability": "nonpayable",
      "type": "function"
    },
    {
      "inputs": [
        {
          "internalType": "address",
          "name": "newOwner",
          "type": "address"
        }
      ],
      "name": "transferOwnership",
      "outputs": [],
      "stateMutability": "nonpayable",
      "type": "function"
    },
    {
      "inputs": [
        {
          "internalType": "address",
          "name": "",
          "type": "address"
        }
      ],
      "name": "userIslandToken",
      "outputs": [
        {
          "internalType": "uint256",
          "name": "",
          "type": "uint256"
        }
      ],
      "stateMutability": "view",
      "type": "function"
    }
  ],
  "bytecode": "0x60806040526001600755348015610014575f80fd5b50336040518060400160405280600c81526020016b105d1b185cc8125cdb185b9960a21b815250604051806040016040528060098152602001681055131054cb5254d360ba1b815250815f908161006b91906101a0565b50600161007882826101a0565b5050506001600160a01b0381166100a857604051631e4fbdf760e01b81525f600482015260240160405180910390fd5b6100b1816100b7565b5061025a565b600680546001600160a01b038381166001600160a01b0319831681179093556040519116919082907f8be0079c531659141344cd1fd0a4f28419497f9722a3daafe3b4186f6b6457e0905f90a35050565b634e487b7160e01b5f52604160045260245ffd5b600181811c9082168061013057607f821691505b60208210810361014e57634e487b7160e01b5f52602260045260245ffd5b50919050565b601f82111561019b57805f5260205f20601f840160051c810160208510156101795750805b601f840160051c820191505b81811015610198575f8155600101610185565b50505b505050565b81516001600160401b038111156101b9576101b9610108565b6101cd816101c7845461011c565b84610154565b6020601f8211600181146101ff575f83156101e85750848201515b5f19600385901b1c1916600184901b178455610198565b5f84815260208120601f198516915b8281101561022e578785015182556020948501946001909201910161020e565b508482101561024b57868401515f19600387901b60f8161c191681555b50505050600190811b01905550565b611abe806102675f395ff3fe608060405234801561000f575f80fd5b506004361061016d575f3560e01c80638da5cb5b116100d9578063c1ee225511610093578063de8563541161006e578063de85635414610330578063e2c5a91714610343578063e985e9c51461036b578063f2fde38b1461037e575f80fd5b8063c1ee2255146102eb578063c87b56dd146102fe578063da4c963a14610311575f80fd5b80638da5cb5b1461029157806395d89b41146102a2578063a22cb465146102aa578063a2309ff8146102bd578063b88d4fde146102c5578063bc6b1b0a146102d8575f80fd5b80633ac4df1d1161012a5780633ac4df1d1461022357806342842e0e1461023b5780636352211e1461024e57806370a0823114610261578063715018a61461027457806380981f2b1461027c575f80fd5b806301ffc9a71461017157806306fdde0314610199578063081812fc146101ae578063095ea7b3146101d957806323b872dd146101ee57806338e21cce14610201575b5f80fd5b61018461017f36600461143e565b610391565b60405190151581526020015b60405180910390f35b6101a16103e2565b6040516101909190611487565b6101c16101bc366004611499565b610471565b6040516001600160a01b039091168152602001610190565b6101ec6101e73660046114cb565b610498565b005b6101ec6101fc3660046114f3565b6104a7565b61018461020f36600461152d565b600a6020525f908152604090205460ff1681565b61022d6207a12081565b604051908152602001610190565b6101ec6102493660046114f3565b610535565b6101c161025c366004611499565b610554565b61022d61026f36600461152d565b61055e565b6101ec6105a3565b6102846105b6565b6040516101909190611546565b6006546001600160a01b03166101c1565b6101a16106c5565b6101ec6102b8366004611588565b6106d4565b61022d6106df565b6101ec6102d33660046115d5565b6106f4565b61022d6102e63660046116c2565b61070c565b6101ec6102f9366004611769565b6109e8565b6101a161030c366004611499565b610a9c565b61022d61031f36600461152d565b60096020525f908152604090205481565b6101ec61033e366004611499565b610b0d565b610356610351366004611499565b610ba1565b60405161019099989796959493929190611789565b6101846103793660046117ed565b610c87565b6101ec61038c36600461152d565b610cb4565b5f6001600160e01b031982166380ac58cd60e01b14806103c157506001600160e01b03198216635b5e139f60e01b145b806103dc57506301ffc9a760e01b6001600160e01b03198316145b92915050565b60605f80546103f09061181e565b80601f016020809104026020016040519081016040528092919081815260200182805461041c9061181e565b80156104675780601f1061043e57610100808354040283529160200191610467565b820191905f5260205f20905b81548152906001019060200180831161044a57829003601f168201915b5050505050905090565b5f61047b82610cf1565b505f828152600460205260409020546001600160a01b03166103dc565b6104a3828233610d29565b5050565b6001600160a01b0382166104d557604051633250574960e11b81525f60048201526024015b60405180910390fd5b5f6104e1838333610d36565b9050836001600160a01b0316816001600160a01b03161461052f576040516364283d7b60e01b81526001600160a01b03808616600483015260248201849052821660448201526064016104cc565b50505050565b61054f83838360405180602001604052805f8152506106f4565b505050565b5f6103dc82610cf1565b5f6001600160a01b038216610588576040516322718ad960e21b81525f60048201526024016104cc565b506001600160a01b03165f9081526003602052604090205490565b6105ab610e28565b6105b45f610e55565b565b60605f60016007546105c8919061186a565b90505f60015b828111610617575f8181526008602052604090206006015460ff166105f3575f6105f6565b60015b6106039060ff168361187d565b91508061060f81611890565b9150506105ce565b508067ffffffffffffffff811115610631576106316115c1565b60405190808252806020026020018201604052801561065a578160200160208202803683370190505b5092505f60015b8381116106be575f8181526008602052604090206006015460ff16156106ac5780858361068d81611890565b94508151811061069f5761069f6118a8565b6020026020010181815250505b806106b681611890565b915050610661565b5050505090565b6060600180546103f09061181e565b6104a3338383610ea6565b5f60016007546106ef919061186a565b905090565b6106ff8484846104a7565b61052f3385858585610f6d565b335f908152600a602052604081205460ff16156107635760405162461bcd60e51b8152602060048201526015602482015274125cdb185b9908185b1c9958591e481b5a5b9d1959605a1b60448201526064016104cc565b6207a1208710156107b65760405162461bcd60e51b815260206004820152601a60248201527f54564c2062656c6f77206d696e696d756d202824352c3030302900000000000060448201526064016104cc565b60028660ff1610156108145760405162461bcd60e51b815260206004820152602160248201527f4d757374207265616368204f7574706f73742074696572206f722068696768656044820152603960f91b60648201526084016104cc565b60078054905f61082383611890565b9190505590506108333382611095565b604051806101200160405280336001600160a01b031681526020018881526020018760ff16815260200186868080601f0160208091040260200160405190810160405280939291908181526020018383808284375f92018290525093855250505060ff868116602080850191909152868216604080860191909152426060808701919091526080860185905260a09095018490528684526008825292839020855181546001600160a01b0319166001600160a01b039091161781559085015160018201559184015160028301805460ff19169190921617905590820151600382019061091f9082611900565b50608082015160048201805460a085015160ff90811661010090810261ffff19909316919094161717905560c0830151600583015560e083015160068301805491151560ff19928316179055920151600790910155335f818152600960209081526040808320869055600a90915290819020805490931660011790925590518291907ffdda520b65e27df0f5dde80a52f8aeb7cee91da2a545b064f7a2ba1020d23e92906109d6908a908a908a908e908b906119bb565b60405180910390a39695505050505050565b336109f283610554565b6001600160a01b031614610a3a5760405162461bcd60e51b815260206004820152600f60248201526e139bdd081e5bdd5c881a5cdb185b99608a1b60448201526064016104cc565b5f828152600860205260409081902060068101805460ff191660011790556007018290555182907ffc923409361dde370fd0740830134eb7e059d959edf60061c9fa59b00e1668aa90610a909084815260200190565b60405180910390a25050565b6060610aa782610cf1565b505f610abd60408051602081019091525f815290565b90505f815111610adb5760405180602001604052805f815250610b06565b80610ae5846110f6565b604051602001610af6929190611a1d565b6040516020818303038152906040525b9392505050565b33610b1782610554565b6001600160a01b031614610b5f5760405162461bcd60e51b815260206004820152600f60248201526e139bdd081e5bdd5c881a5cdb185b99608a1b60448201526064016104cc565b5f81815260086020526040808220600601805460ff191690555182917f9dd180759db5a33374bd9db1c06109b15c5ff13fb85ed9417557bb0e34643cc591a250565b60086020525f908152604090208054600182015460028301546003840180546001600160a01b0390941694929360ff9092169291610bde9061181e565b80601f0160208091040260200160405190810160405280929190818152602001828054610c0a9061181e565b8015610c555780601f10610c2c57610100808354040283529160200191610c55565b820191905f5260205f20905b815481529060010190602001808311610c3857829003601f168201915b505050600484015460058501546006860154600790960154949560ff8084169661010090940481169550919350169089565b6001600160a01b039182165f90815260056020908152604080832093909416825291909152205460ff1690565b610cbc610e28565b6001600160a01b038116610ce557604051631e4fbdf760e01b81525f60048201526024016104cc565b610cee81610e55565b50565b5f818152600260205260408120546001600160a01b0316806103dc57604051637e27328960e01b8152600481018490526024016104cc565b61054f8383836001611186565b5f828152600260205260408120546001600160a01b0390811690831615610d6257610d6281848661128a565b6001600160a01b03811615610d9c57610d7d5f855f80611186565b6001600160a01b0381165f90815260036020526040902080545f190190555b6001600160a01b03851615610dca576001600160a01b0385165f908152600360205260409020805460010190555b5f8481526002602052604080822080546001600160a01b0319166001600160a01b0389811691821790925591518793918516917fddf252ad1be2c89b69c2b068fc378daa952ba7f163c4a11628f55a4df523b3ef91a4949350505050565b6006546001600160a01b031633146105b45760405163118cdaa760e01b81523360048201526024016104cc565b600680546001600160a01b038381166001600160a01b0319831681179093556040519116919082907f8be0079c531659141344cd1fd0a4f28419497f9722a3daafe3b4186f6b6457e0905f90a35050565b6001600160a01b038316610ecf5760405163a9fbf51f60e01b81525f60048201526024016104cc565b6001600160a01b038216610f0157604051630b61174360e31b81526001600160a01b03831660048201526024016104cc565b6001600160a01b038381165f81815260056020908152604080832094871680845294825291829020805460ff191686151590811790915591519182527f17307eab39ab6107e8899845ad3d59bd9653f200f220920489ca2b5937696c31910160405180910390a3505050565b6001600160a01b0383163b1561108e57604051630a85bd0160e11b81526001600160a01b0384169063150b7a0290610faf908890889087908790600401611a31565b6020604051808303815f875af1925050508015610fe9575060408051601f3d908101601f19168201909252610fe691810190611a6d565b60015b611050573d808015611016576040519150601f19603f3d011682016040523d82523d5f602084013e61101b565b606091505b5080515f0361104857604051633250574960e11b81526001600160a01b03851660048201526024016104cc565b805160208201fd5b6001600160e01b03198116630a85bd0160e11b1461108c57604051633250574960e11b81526001600160a01b03851660048201526024016104cc565b505b5050505050565b6001600160a01b0382166110be57604051633250574960e11b81525f60048201526024016104cc565b5f6110ca83835f610d36565b90506001600160a01b0381161561054f576040516339e3563760e11b81525f60048201526024016104cc565b60605f611102836112ee565b60010190505f8167ffffffffffffffff811115611121576111216115c1565b6040519080825280601f01601f19166020018201604052801561114b576020820181803683370190505b5090508181016020015b5f19016f181899199a1a9b1b9c1cb0b131b232b360811b600a86061a8153600a850494508461115557509392505050565b808061119a57506001600160a01b03821615155b1561125b575f6111a984610cf1565b90506001600160a01b038316158015906111d55750826001600160a01b0316816001600160a01b031614155b80156111e857506111e68184610c87565b155b156112115760405163a9fbf51f60e01b81526001600160a01b03841660048201526024016104cc565b81156112595783856001600160a01b0316826001600160a01b03167f8c5be1e5ebec7d5bd14f71427d1e84f3dd0314c0f7b2291e5b200ac8c7c3b92560405160405180910390a45b505b50505f90815260046020526040902080546001600160a01b0319166001600160a01b0392909216919091179055565b6112958383836113c5565b61054f576001600160a01b0383166112c357604051637e27328960e01b8152600481018290526024016104cc565b60405163177e802f60e01b81526001600160a01b0383166004820152602481018290526044016104cc565b5f8072184f03e93ff9f4daa797ed6e38ed64bf6a1f0160401b831061132c5772184f03e93ff9f4daa797ed6e38ed64bf6a1f0160401b830492506040015b6d04ee2d6d415b85acef81000000008310611358576d04ee2d6d415b85acef8100000000830492506020015b662386f26fc10000831061137657662386f26fc10000830492506010015b6305f5e100831061138e576305f5e100830492506008015b61271083106113a257612710830492506004015b606483106113b4576064830492506002015b600a83106103dc5760010192915050565b5f6001600160a01b038316158015906114215750826001600160a01b0316846001600160a01b031614806113fe57506113fe8484610c87565b8061142157505f828152600460205260409020546001600160a01b038481169116145b949350505050565b6001600160e01b031981168114610cee575f80fd5b5f6020828403121561144e575f80fd5b8135610b0681611429565b5f81518084528060208401602086015e5f602082860101526020601f19601f83011685010191505092915050565b602081525f610b066020830184611459565b5f602082840312156114a9575f80fd5b5035919050565b80356001600160a01b03811681146114c6575f80fd5b919050565b5f80604083850312156114dc575f80fd5b6114e5836114b0565b946020939093013593505050565b5f805f60608486031215611505575f80fd5b61150e846114b0565b925061151c602085016114b0565b929592945050506040919091013590565b5f6020828403121561153d575f80fd5b610b06826114b0565b602080825282518282018190525f918401906040840190835b8181101561157d57835183526020938401939092019160010161155f565b509095945050505050565b5f8060408385031215611599575f80fd5b6115a2836114b0565b9150602083013580151581146115b6575f80fd5b809150509250929050565b634e487b7160e01b5f52604160045260245ffd5b5f805f80608085870312156115e8575f80fd5b6115f1856114b0565b93506115ff602086016114b0565b925060408501359150606085013567ffffffffffffffff811115611621575f80fd5b8501601f81018713611631575f80fd5b803567ffffffffffffffff81111561164b5761164b6115c1565b604051601f8201601f19908116603f0116810167ffffffffffffffff8111828210171561167a5761167a6115c1565b604052818152828201602001891015611691575f80fd5b816020840160208301375f6020838301015280935050505092959194509250565b803560ff811681146114c6575f80fd5b5f805f805f8060a087890312156116d7575f80fd5b863595506116e7602088016116b2565b9450604087013567ffffffffffffffff811115611702575f80fd5b8701601f81018913611712575f80fd5b803567ffffffffffffffff811115611728575f80fd5b896020828401011115611739575f80fd5b6020919091019450925061174f606088016116b2565b915061175d608088016116b2565b90509295509295509295565b5f806040838503121561177a575f80fd5b50508035926020909101359150565b60018060a01b038a16815288602082015260ff8816604082015261012060608201525f6117ba610120830189611459565b60ff97881660808401529590961660a082015260c081019390935290151560e08301526101009091015295945050505050565b5f80604083850312156117fe575f80fd5b611807836114b0565b9150611815602084016114b0565b90509250929050565b600181811c9082168061183257607f821691505b60208210810361185057634e487b7160e01b5f52602260045260245ffd5b50919050565b634e487b7160e01b5f52601160045260245ffd5b818103818111156103dc576103dc611856565b808201808211156103dc576103dc611856565b5f600182016118a1576118a1611856565b5060010190565b634e487b7160e01b5f52603260045260245ffd5b601f82111561054f57805f5260205f20601f840160051c810160208510156118e15750805b601f840160051c820191505b8181101561108e575f81556001016118ed565b815167ffffffffffffffff81111561191a5761191a6115c1565b61192e81611928845461181e565b846118bc565b6020601f821160018114611960575f83156119495750848201515b5f19600385901b1c1916600184901b17845561108e565b5f84815260208120601f198516915b8281101561198f578785015182556020948501946001909201910161196f565b50848210156119ac57868401515f19600387901b60f8161c191681555b50505050600190811b01905550565b60ff8616815260806020820152836080820152838560a08301375f60a085830101525f60a0601f19601f870116830101905083604083015260ff831660608301529695505050505050565b5f81518060208401855e5f93019283525090919050565b5f611421611a2b8386611a06565b84611a06565b6001600160a01b03858116825284166020820152604081018390526080606082018190525f90611a6390830184611459565b9695505050505050565b5f60208284031215611a7d575f80fd5b8151610b068161142956fea26469706673582212206165afdb25ff00f1c0ebbe4109f0611f582719896739912c79c698acc3f008e464736f6c634300081a0033",
  "linkReferences": {},
  "deployedLinkReferences": {},
  "immutableReferences": {},
  "inputSourceName": "project/contracts/AtlasIslandNFT.sol",
  "buildInfoId": "solc-0_8_26-42db223827d0ce03be3d59953c3cc2576cb60f2e"
}