{
  "_format": "hh3-artifact-1",
  "contractName": "AtlasIslandNFT",
  "sourceName": "contracts/AtlasIslandNFT.sol",
  "abi": [
    {
      "inputs": [],
      "stateMutability": "nonpayable",
      "type": "constructor"
    },
    {
      "inputs": [
        {
          "internalType": "address",
          "name": "sender",
          "type": "address"
        },
        {
          "internalType": "uint256",
          "name": "tokenId",
          "type": "uint256"
        },
        {
          "internalType": "address",
          "name": "owner",
          "type": "address"
        }
      ],
      "name": "ERC721IncorrectOwner",
      "type": "error"
    },
    {
      "inputs": [
        {
          "internalType": "address",
          "name": "operator",
          "type": "address"
        },
        {
          "internalType": "uint256",
          "name": "tokenId",
          "type": "uint256"
        }
      ],
      "name": "ERC721InsufficientApproval",
      "type": "error"
    },
    {
      "inputs": [
        {
          "internalType": "address",
          "name": "approver",
          "type": "address"
        }
      ],
      "name": "ERC721InvalidApprover",
      "type": "error"
    },
    {
      "inputs": [
        {
          "internalType": "address",
          "name": "operator",
          "type": "address"
        }
      ],
      "name": "ERC721InvalidOperator",
      "type": "error"
    },
    {
      "inputs": [
        {
          "internalType": "address",
          "name": "owner",
          "type": "address"
        }
      ],
      "name": "ERC721InvalidOwner",
      "type": "error"
    },
    {
      "inputs": [
        {
          "internalType": "address",
          "name": "receiver",
          "type": "address"
        }
      ],
      "name": "ERC721InvalidReceiver",
      "type": "error"
    },
    {
      "inputs": [
        {
          "internalType": "address",
          "name": "sender",
          "type": "address"
        }
      ],
      "name": "ERC721InvalidSender",
      "type": "error"
    },
    {
      "inputs": [
        {
          "internalType": "uint256",
          "name": "tokenId",
          "type": "uint256"
        }
      ],
      "name": "ERC721NonexistentToken",
      "type": "error"
    },
    {
      "inputs": [
        {
          "internalType": "address",
          "name": "owner",
          "type": "address"
        }
      ],
      "name": "OwnableInvalidOwner",
      "type": "error"
    },
    {
      "inputs": [
        {
          "internalType": "address",
          "name": "account",
          "type": "address"
        }
      ],
      "name": "OwnableUnauthorizedAccount",
      "type": "error"
    },
    {
      "anonymous": false,
      "inputs": [
        {
          "indexed": true,
          "internalType": "address",
          "name": "owner",
          "type": "address"
        },
        {
          "indexed": true,
          "internalType": "address",
          "name": "approved",
          "type": "address"
        },
        {
          "indexed": true,
          "internalType": "uint256",
          "name": "tokenId",
          "type": "uint256"
        }
      ],
      "name": "Approval",
      "type": "event"
    },
    {
      "anonymous": false,
      "inputs": [
        {
          "indexed": true,
          "internalType": "address",
          "name": "owner",
          "type": "address"
        },
        {
          "indexed": true,
          "internalType": "address",
          "name": "operator",
          "type": "address"
        },
        {
          "indexed": false,
          "internalType": "bool",
          "name": "approved",
          "type": "bool"
        }
      ],
      "name": "ApprovalForAll",
      "type": "event"
    },
    {
      "anonymous": false,
      "inputs": [
        {
          "indexed": true,
          "internalType": "uint256",
          "name": "tokenId",
          "type": "uint256"
        }
      ],
      "name": "IslandDelisted",
      "type": "event"
    },
    {
      "anonymous": false,
      "inputs": [
        {
          "indexed": true,
          "internalType": "uint256",
          "name": "tokenId",
          "type": "uint256"
        },
        {
          "indexed": false,
          "internalType": "uint256",
          "name": "priceUsdCents",
          "type": "uint256"
        }
      ],
      "name": "IslandListed",
      "type": "event"
    },
    {
      "anonymous": false,
      "inputs": [
        {
          "indexed": true,
          "internalType": "address",
          "name": "owner",
          "type": "address"
        },
        {
          "indexed": true,
          "internalType": "uint256",
          "name": "tokenId",
          "type": "uint256"
        },
        {
          "indexed": false,
          "internalType": "uint8",
          "name": "tier",
          "type": "uint8"
        },
        {
          "indexed": false,
          "internalType": "string",
          "name": "tierName",
          "type": "string"
        },
        {
          "indexed": false,
          "internalType": "uint256",
          "name": "tvlUsdCents",
          "type": "uint256"
        },
        {
          "indexed": false,
          "internalType": "uint8",
          "name": "milestonesCount",
          "type": "uint8"
        }
      ],
      "name": "IslandMinted",
      "type": "event"
    },
    {
      "anonymous": false,
      "inputs": [
        {
          "indexed": true,
          "internalType": "address",
          "name": "previousOwner",
          "type": "address"
        },
        {
          "indexed": true,
          "internalType": "address",
          "name": "newOwner",
          "type": "address"
        }
      ],
      "name": "OwnershipTransferred",
      "type": "event"
    },
    {
      "anonymous": false,
      "inputs": [
        {
          "indexed": true,
          "internalType": "address",
          "name": "from",
          "type": "address"
        },
        {
          "indexed": true,
          "internalType": "address",
          "name": "to",
          "type": "address"
        },
        {
          "indexed": true,
          "internalType": "uint256",
          "name": "tokenId",
          "type": "uint256"
        }
      ],
      "name": "Transfer",
      "type": "event"
    },
    {
      "inputs": [],
      "name": "MIN_TVL_USD_CENTS",
      "outputs": [
        {
          "internalType": "uint256",
          "name": "",
          "type": "uint256"
        }
      ],
      "stateMutability": "view",
      "type": "function"
    },
    {
      "inputs": [
        {
          "internalType": "address",
          "name": "to",
          "type": "address"
        },
        {
          "internalType": "uint256",
          "name": "tokenId",
          "type": "uint256"
        }
      ],
      "name": "approve",
      "outputs": [],
      "stateMutability": "nonpayable",
      "type": "function"
    },
    {
      "inputs": [
        {
          "internalType": "address",
          "name": "owner",
          "type": "address"
        }
      ],
      "name": "balanceOf",
      "outputs": [
        {
          "internalType": "uint256",
          "name": "",
          "type": "uint256"
        }
      ],
      "stateMutability": "view",
      "type": "function"
    },
    {
      "inputs": [
        {
          "internalType": "uint256",
          "name": "tokenId",
          "type": "uint256"
        }
      ],
      "name": "delistIsland",
      "outputs": [],
      "stateMutability": "nonpayable",
      "type": "function"
    },
    {
      "inputs": [
        {
          "internalType": "uint256",
          "name": "tokenId",
          "type": "uint256"
        }
      ],
      "name": "getApproved",
      "outputs": [
        {
          "internalType": "address",
          "name": "",
          "type": "address"
        }
      ],
      "stateMutability": "view",
      "type": "function"
    },
    {
      "inputs": [],
      "name": "getListedIslands",
      "outputs": [
        {
          "internalType": "uint256[]",
          "name": "tokenIds",
          "type": "uint256[]"
        }
      ],
      "stateMutability": "view",
      "type": "function"
    },
    {
      "inputs": [
        {
          "internalType": "address",
          "name": "",
          "type": "address"
        }
      ],
      "name": "hasMinted",
      "outputs": [
        {
          "internalType": "bool",
          "name": "",
          "type": "bool"
        }
      ],
      "stateMutability": "view",
      "type": "function"
    },
    {
      "inputs": [
        {
          "internalType": "address",
          "name": "owner",
          "type": "address"
        },
        {
          "internalType": "address",
          "name": "operator",
          "type": "address"
        }
      ],
      "name": "isApprovedForAll",
      "outputs": [
        {
          "internalType": "bool",
          "name": "",
          "type": "bool"
        }
      ],
      "stateMutability": "view",
      "type": "function"
    },
    {
      "inputs": [
        {
          "internalType": "uint256",
          "name": "",
          "type": "uint256"
        }
      ],
      "name": "islands",
      "outputs": [
        {
          "internalType": "address",
          "name": "owner",
          "type": "address"
        },
        {
          "internalType": "uint256",
          "name": "tvlUsdCents",
          "type": "uint256"
        },
        {
          "internalType": "uint8",
          "name": "tier",
          "type": "uint8"
        },
        {
          "internalType": "string",
          "name": "tierName",
          "type": "string"
        },
        {
          "internalType": "uint8",
          "name": "milestonesCount",
          "type": "uint8"
        },
        {
          "internalType": "uint8",
          "name": "healthScore",
          "type": "uint8"
        },
        {
          "internalType": "uint256",
          "name": "mintedAt",
          "type": "uint256"
        },
        {
          "internalType": "bool",
          "name": "forSale",
          "type": "bool"
        },
        {
          "internalType": "uint256",
          "name": "priceUsdCents",
          "type": "uint256"
        }
      ],
      "stateMutability": "view",
      "type": "function"
    },
    {
      "inputs": [
        {
          "internalType": "uint256",
          "name": "tokenId",
          "type": "uint256"
        },
        {
          "internalType": "uint256",
          "name": "priceUsdCents",
          "type": "uint256"
        }
      ],
      "name": "listIsland",
      "outputs": [],
      "stateMutability": "nonpayable",
      "type": "function"
    },
    {
      "inputs": [
        {
          "internalType": "uint256",
          "name": "tvlUsdCents",
          "type": "uint256"
        },
        {
          "internalType": "uint8",
          "name": "tier",
          "type": "uint8"
        },
        {
          "internalType": "string",
          "name": "tierName",
          "type": "string"
        },
        {
          "internalType": "uint8",
          "name": "milestonesCount",
          "type": "uint8"
        },
        {
          "internalType": "uint8",
          "name": "healthScore",
          "type": "uint8"
        }
      ],
      "name": "mintIsland",
      "outputs": [
        {
          "internalType": "uint256",
          "name": "tokenId",
          "type": "uint256"
        }
      ],
      "stateMutability": "nonpayable",
      "type": "function"
    },
    {
      "inputs": [],
      "name": "name",
      "outputs": [
        {
          "internalType": "string",
          "name": "",
          "type": "string"
        }
      ],
      "stateMutability": "view",
      "type": "function"
    },
    {
      "inputs": [],
      "name": "owner",
      "outputs": [
        {
          "internalType": "address",
          "name": "",
          "type": "address"
        }
      ],
      "stateMutability": "view",
      "type": "function"
    },
    {
      "inputs": [
        {
          "internalType": "uint256",
          "name": "tokenId",
          "type": "uint256"
        }
      ],
      "name": "ownerOf",
      "outputs": [
        {
          "internalType": "address",
          "name": "",
          "type": "address"
        }
      ],
      "stateMutability": "view",
      "type": "function"
    },
    {
      "inputs": [],
      "name": "renounceOwnership",
      "outputs": [],
      "stateMutability": "nonpayable",
      "type": "function"
    },
    {
      "inputs": [
        {
          "internalType": "address",
          "name": "from",
          "type": "address"
        },
        {
          "internalType": "address",
          "name": "to",
          "type": "address"
        },
        {
          "internalType": "uint256",
          "name": "tokenId",
          "type": "uint256"
        }
      ],
      "name": "safeTransferFrom",
      "outputs": [],
      "stateMutability": "nonpayable",
      "type": "function"
    },
    {
      "inputs": [
        {
          "internalType": "address",
          "name": "from",
          "type": "address"
        },
        {
          "internalType": "address",
          "name": "to",
          "type": "address"
        },
        {
          "internalType": "uint256",
          "name": "tokenId",
          "type": "uint256"
        },
        {
          "internalType": "bytes",
          "name": "data",
          "type": "bytes"
        }
      ],
      "name": "safeTransferFrom",
      "outputs": [],
      "stateMutability": "nonpayable",
      "type": "function"
    },
    {
      "inputs": [
        {
          "internalType": "address",
          "name": "operator",
          "type": "address"
        },
        {
          "internalType": "bool",
          "name": "approved",
          "type": "bool"
        }
      ],
      "name": "setApprovalForAll",
      "outputs": [],
      "stateMutability": "nonpayable",
      "type": "function"
    },
    {
      "inputs": [
        {
          "internalType": "bytes4",
          "name": "interfaceId",
          "type": "bytes4"
        }
      ],
      "name": "supportsInterface",
      "outputs": [
        {
          "internalType": "bool",
          "name": "",
          "type": "bool"
        }
      ],
      "stateMutability": "view",
      "type": "function"
    },
    {
      "inputs": [],
      "name": "symbol",
      "outputs": [
        {
          "internalType": "string",
          "name": "",
          "type": "string"
        }
      ],
      "stateMutability": "view",
      "type": "function"
    },
    {
      "inputs": [
        {
          "internalType": "uint256",
          "name": "tokenId",
          "type": "uint256"
        }
      ],
      "name": "tokenURI",
      "outputs": [
        {
          "internalType": "string",
          "name": "",
          "type": "string"
        }
      ],
      "stateMutability": "view",
      "type": "function"
    },
    {
      "inputs": [],
      "name": "totalMinted",
      "outputs": [
        {
          "internalType": "uint256",
          "name": "",
          "type": "uint256"
        }
      ],
      "stateMutability": "view",
      "type": "function"
    },
    {
      "inputs": [
        {
          "internalType": "address",
          "name": "from",
          "type": "address"
        },
        {
          "internalType": "address",
          "name": "to",
          "type": "address"
        },
        {
          "internalType": "uint256",
          "name": "tokenId",
          "type": "uint256"
        }
      ],
      "name": "transferFrom",
      "outputs": [],
      "stateMutability": "nonpayable",
      "type": "function"
    },
    {
      "inputs": [
        {
          "internalType": "address",
          "name": "newOwner",
          "type": "address"
        }
      ],
      "name": "transferOwnership",
      "outputs": [],
      "stateMutability": "nonpayable",
      "type": "function"
    },
    {
      "inputs": [
        {
          "internalType": "address",
          "name": "",
          "type": "address"
        }
      ],
      "name": "userIslandToken",
      "outputs": [
        {
          "internalType": "uint256",
          "name": "",
          "type": "uint256"
        }
      ],
      "stateMutability": "view",
      "type": "function"
    }
  ],
  "bytecode": "0x60806040523461037857604080519081016001600160401b0381118282101761028e576040908152600c82526b105d1b185cc8125cdb185b9960a21b602083015280519081016001600160401b0381118282101761028e5760405260098152681055131054cb5254d360ba1b602082015281516001600160401b03811161028e575f54600181811c9116801561036e575b602082101461027057601f811161030c575b50602092601f82116001146102ad57928192935f926102a2575b50508160011b915f199060031b1c1916175f555b80516001600160401b03811161028e57600154600181811c91168015610284575b602082101461027057601f811161020d575b50602091601f82116001146101ad579181925f926101a2575b50508160011b915f199060031b1c1916176001555b331561018f5760068054336001600160a01b03198216811790925560405191906001600160a01b03167f8be0079c531659141344cd1fd0a4f28419497f9722a3daafe3b4186f6b6457e05f80a360016007556116b1908161037d8239f35b631e4fbdf760e01b5f525f60045260245ffd5b015190505f8061011c565b601f1982169260015f52805f20915f5b8581106101f5575083600195106101dd575b505050811b01600155610131565b01515f1960f88460031b161c191690555f80806101cf565b919260206001819286850151815501940192016101bd565b60015f527fb10e2d527612073b26eecdfd717e6a320cf44b4afac2b0732d9fcbe2b7fa0cf6601f830160051c81019160208410610266575b601f0160051c01905b81811061025b5750610103565b5f815560010161024e565b9091508190610245565b634e487b7160e01b5f52602260045260245ffd5b90607f16906100f1565b634e487b7160e01b5f52604160045260245ffd5b015190505f806100bc565b601f198216935f8052805f20915f5b8681106102f457508360019596106102dc575b505050811b015f556100d0565b01515f1960f88460031b161c191690555f80806102cf565b919260206001819286850151815501940192016102bc565b5f80527f290decd9548b62a8d60345a988386fc84ba6bc95484008f6362f93160ef3e563601f830160051c81019160208410610364575b601f0160051c01905b81811061035957506100a2565b5f815560010161034c565b9091508190610343565b90607f1690610090565b5f80fdfe6080806040526004361015610012575f80fd5b5f905f3560e01c90816301ffc9a71461114e5750806306fdde03146110ac578063081812fc14611070578063095ea7b314610f8657806323b872dd14610f6f57806338e21cce14610f325780633ac4df1d14610f1557806342842e0e14610eec5780636352211e14610ebc57806370a0823114610e6b578063715018a614610e1057806380981f2b14610cc15780638da5cb5b14610c9957806395d89b4114610bbb578063a22cb46514610afe578063a2309ff814610ac1578063b88d4fde14610a5f578063bc6b1b0a146104d6578063c1ee22551461045e578063c87b56dd14610401578063da4c963a146103c8578063de85635414610359578063e2c5a91714610214578063e985e9c5146101bc5763f2fde38b14610131575f80fd5b346101b95760203660031901126101b95761014a6111dd565b610152611654565b6001600160a01b031680156101a557600680546001600160a01b0319811683179091556001600160a01b03167f8be0079c531659141344cd1fd0a4f28419497f9722a3daafe3b4186f6b6457e05f80a380f35b631e4fbdf760e01b82526004829052602482fd5b80fd5b50346101b95760403660031901126101b95760406101d86111dd565b916101e16111f3565b9260018060a01b031681526005602052209060018060a01b03165f52602052602060ff60405f2054166040519015158152f35b50346101b95760203660031901126101b957604090600435815260086020522060018060a01b0381541660018201549160ff600282015416600382019160405192835f825492610263846112b7565b808452936001811690811561033757506001146102f3575b5061028892500384611243565b60048101549260ff6102cb60058401549260078360068701541695015495604051998a998a5260208a0152604089015261012060608901526101208801906111b9565b94818116608088015260081c1660a086015260c0850152151560e08401526101008301520390f35b90505f9291925260205f20905f915b81831061031b575050906020610288928201015f61027b565b6020919350806001915483858a01015201910190918592610302565b90506020925061028894915060ff191682840152151560051b8201015f61027b565b50346101b95760203660031901126101b95760043561038a61037a82611620565b6001600160a01b031633146115e2565b808252600860205260408220600601805460ff191690557f9dd180759db5a33374bd9db1c06109b15c5ff13fb85ed9417557bb0e34643cc58280a280f35b50346101b95760203660031901126101b9576020906040906001600160a01b036103f06111dd565b168152600983522054604051908152f35b3461045a57602036600319011261045a5761041d600435611620565b505f60405161042d602082611243565b5261045660405161043f602082611243565b5f81526040519182916020835260208301906111b9565b0390f35b5f80fd5b3461045a57604036600319011261045a576004357ffc923409361dde370fd0740830134eb7e059d959edf60061c9fa59b00e1668aa60206024356104a461037a85611620565b835f5260088252600660405f2001600160ff19825416179055835f526008825280600760405f200155604051908152a2005b3461045a5760a036600319011261045a5760243560ff8116810361045a576044359067ffffffffffffffff821161045a573660238301121561045a5767ffffffffffffffff82600401351161045a5736602483600401358401011161045a5760643560ff8116810361045a576084359260ff841680940361045a57335f52600a60205260ff60405f205416610a22576207a120600435106109dd57600260ff84161061098e57600754916105898361147c565b600755331561097b575f838152600260205260409020546001600160a01b03168015159081610948575b335f818152600360209081526040808320805460010190558883526002909152812080546001600160a01b0319168317905586919083907fddf252ad1be2c89b69c2b068fc378daa952ba7f163c4a11628f55a4df523b3ef9080a4506109355760405194610120860186811067ffffffffffffffff821117610921576040523386526020860190600435825260ff60408801818816815261065c36876004013560248901611281565b9260608a0193845282861660808b015260a08a01524260c08a01525f60e08a01525f6101008a0152865f52600860205260405f209360018060a01b0360018060a01b038b5116166bffffffffffffffffffffffff60a01b865416178555516001850155511660ff60028401911660ff198254161790555195865167ffffffffffffffff8111610921576106f260038401546112b7565b97601f89116108d9575b602098508890601f83116001146108425761010060ff94847ffdda520b65e27df0f5dde80a52f8aeb7cee91da2a545b064f7a2ba1020d23e9298958b9c98956007955f92610837575b50508160011b915f199060031b1c19161760038501555b60048401868060808401511616871982541617815560a082015161ff0082549160081b169061ff00191617905560c081015160058501556107b260e08201511515600686019060ff801983541691151516179055565b0151910155335f52600988528560405f2055335f52600a885260405f206001831982541617905581604051931683526080888401528460040135608084015284600401356024860160a08501375f60a0866004013585010152600435604084015216606082015260a0813394601f8019916004013501168101030190a3604051908152f35b015190508e80610745565b90600385015f52805f20915f5b601f19851681106108c2575060ff946001858b9c9895600795610100957ffdda520b65e27df0f5dde80a52f8aeb7cee91da2a545b064f7a2ba1020d23e929c99601f198116106108aa575b505050811b01600385015561075c565b01515f1960f88460031b161c191690558e808061089a565b91928b60018192868501518155019401920161084f565b600384015f5260205f20601f830160051c81019960208410610917575b601f0160051c01985b89811061090c57506106fc565b5f81556001016108ff565b90995089906108f6565b634e487b7160e01b5f52604160045260245ffd5b6339e3563760e11b5f525f60045260245ffd5b5f85815260046020526040902080546001600160a01b0319169055805f52600360205260405f205f1981540190556105b3565b633250574960e11b5f525f60045260245ffd5b60405162461bcd60e51b815260206004820152602160248201527f4d757374207265616368204f7574706f73742074696572206f722068696768656044820152603960f91b6064820152608490fd5b60405162461bcd60e51b815260206004820152601a60248201527f54564c2062656c6f77206d696e696d756d202824352c303030290000000000006044820152606490fd5b60405162461bcd60e51b8152602060048201526015602482015274125cdb185b9908185b1c9958591e481b5a5b9d1959605a1b6044820152606490fd5b3461045a57608036600319011261045a57610a786111dd565b610a806111f3565b6064359167ffffffffffffffff831161045a573660238401121561045a57610ab5610abf933690602481600401359101611281565b91604435916114a2565b005b3461045a575f36600319011261045a576007545f198101908111610aea57602090604051908152f35b634e487b7160e01b5f52601160045260245ffd5b3461045a57604036600319011261045a57610b176111dd565b602435908115159081830361045a573315610ba8576001600160a01b0316918215610b9557610b6790335f52600560205260405f20845f5260205260405f209060ff801983541691151516179055565b6040519081527f17307eab39ab6107e8899845ad3d59bd9653f200f220920489ca2b5937696c3160203392a3005b82630b61174360e31b5f5260045260245ffd5b63a9fbf51f60e01b5f525f60045260245ffd5b3461045a575f36600319011261045a576040515f600154610bdb816112b7565b8084529060018116908115610c755750600114610c17575b61045683610c0381850382611243565b6040519182916020835260208301906111b9565b60015f9081527fb10e2d527612073b26eecdfd717e6a320cf44b4afac2b0732d9fcbe2b7fa0cf6939250905b808210610c5b57509091508101602001610c03610bf3565b919260018160209254838588010152019101909291610c43565b60ff191660208086019190915291151560051b84019091019150610c039050610bf3565b3461045a575f36600319011261045a576006546040516001600160a01b039091168152602090f35b3461045a575f36600319011261045a576007545f198101908111610aea575f9060015b81811115610dd05750610d0f610cf98361148a565b92610d076040519485611243565b80845261148a565b602083019190601f19013683375f9060015b81811115610d6d578385604051918291602083019060208452518091526040830191905f5b818110610d54575050500390f35b8251845285945060209384019390920191600101610d46565b805f52600860205260ff600660405f20015416610d93575b610d8e9061147c565b610d21565b91610d9d8161147c565b928551821015610dbc57806020610d8e9360051b880101529050610d85565b634e487b7160e01b5f52603260045260245ffd5b91825f52600860205260ff600660405f200154165f14610e085760ff60015b168101809111610aea57610e03909261147c565b610ce4565b60ff5f610def565b3461045a575f36600319011261045a57610e28611654565b600680546001600160a01b031981169091555f906001600160a01b03167f8be0079c531659141344cd1fd0a4f28419497f9722a3daafe3b4186f6b6457e08280a3005b3461045a57602036600319011261045a576001600160a01b03610e8c6111dd565b168015610ea9575f526003602052602060405f2054604051908152f35b6322718ad960e21b5f525f60045260245ffd5b3461045a57602036600319011261045a576020610eda600435611620565b6040516001600160a01b039091168152f35b3461045a57610abf610efd36611209565b9060405192610f0d602085611243565b5f84526114a2565b3461045a575f36600319011261045a5760206040516207a1208152f35b3461045a57602036600319011261045a576001600160a01b03610f536111dd565b165f52600a602052602060ff60405f2054166040519015158152f35b3461045a57610abf610f8036611209565b916112ef565b3461045a57604036600319011261045a57610f9f6111dd565b602435610fab81611620565b3315158061105d575b80611030575b61101d5781906001600160a01b0384811691167f8c5be1e5ebec7d5bd14f71427d1e84f3dd0314c0f7b2291e5b200ac8c7c3b9255f80a45f90815260046020526040902080546001600160a01b0319166001600160a01b03909216919091179055005b63a9fbf51f60e01b5f523360045260245ffd5b506001600160a01b0381165f90815260056020908152604080832033845290915290205460ff1615610fba565b506001600160a01b038116331415610fb4565b3461045a57602036600319011261045a5760043561108d81611620565b505f526004602052602060018060a01b0360405f205416604051908152f35b3461045a575f36600319011261045a576040515f80546110cb816112b7565b8084529060018116908115610c7557506001146110f25761045683610c0381850382611243565b5f8080527f290decd9548b62a8d60345a988386fc84ba6bc95484008f6362f93160ef3e563939250905b80821061113457509091508101602001610c03610bf3565b91926001816020925483858801015201910190929161111c565b3461045a57602036600319011261045a576004359063ffffffff60e01b821680920361045a576020916380ac58cd60e01b81149081156111a8575b8115611197575b5015158152f35b6301ffc9a760e01b14905083611190565b635b5e139f60e01b81149150611189565b805180835260209291819084018484015e5f828201840152601f01601f1916010190565b600435906001600160a01b038216820361045a57565b602435906001600160a01b038216820361045a57565b606090600319011261045a576004356001600160a01b038116810361045a57906024356001600160a01b038116810361045a579060443590565b90601f8019910116810190811067ffffffffffffffff82111761092157604052565b67ffffffffffffffff811161092157601f01601f191660200190565b92919261128d82611265565b9161129b6040519384611243565b82948184528183011161045a578281602093845f960137010152565b90600182811c921680156112e5575b60208310146112d157565b634e487b7160e01b5f52602260045260245ffd5b91607f16916112c6565b6001600160a01b039091169190821561097b575f828152600260205260409020546001600160a01b0316928290331515806113e7575b50846113b4575b805f52600360205260405f2060018154019055815f52600260205260405f20816bffffffffffffffffffffffff60a01b825416179055847fddf252ad1be2c89b69c2b068fc378daa952ba7f163c4a11628f55a4df523b3ef5f80a46001600160a01b031680830361139c57505050565b6364283d7b60e01b5f5260045260245260445260645ffd5b5f82815260046020526040902080546001600160a01b0319169055845f52600360205260405f205f19815401905561132c565b9091508061142b575b156113fd5782905f611325565b828461141557637e27328960e01b5f5260045260245ffd5b63177e802f60e01b5f523360045260245260445ffd5b50338414801561145a575b806113f057505f838152600460205260409020546001600160a01b031633146113f0565b505f84815260056020908152604080832033845290915290205460ff16611436565b5f198114610aea5760010190565b67ffffffffffffffff81116109215760051b60200190565b92916114af8183866112ef565b813b6114bc575b50505050565b604051630a85bd0160e11b81523360048201526001600160a01b03948516602482015260448101919091526080606482015292169190602090829081906115079060848301906111b9565b03815f865af15f918161159d575b5061156a57503d15611563573d61152b81611265565b906115396040519283611243565b81523d5f602083013e5b8051908161155e5782633250574960e11b5f5260045260245ffd5b602001fd5b6060611543565b6001600160e01b03191663757a42ff60e11b0161158b57505f8080806114b6565b633250574960e11b5f5260045260245ffd5b9091506020813d6020116115da575b816115b960209383611243565b8101031261045a57516001600160e01b03198116810361045a57905f611515565b3d91506115ac565b156115e957565b60405162461bcd60e51b815260206004820152600f60248201526e139bdd081e5bdd5c881a5cdb185b99608a1b6044820152606490fd5b5f818152600260205260409020546001600160a01b0316908115611642575090565b637e27328960e01b5f5260045260245ffd5b6006546001600160a01b0316330361166857565b63118cdaa760e01b5f523360045260245ffdfea264697066735822122031ea7b180009fed05a8e50e8dd9c9c2f2d7191c90909468301bd13d010f5ffba64736f6c634300081a0033",
  "linkReferences": {},
  "deployedLinkReferences": {},
  "immutableReferences": {},
  "inputSourceName": "project/contracts/AtlasIslandNFT.sol",
  "buildInfoId": "solc-0_8_26-ac8e8f7ae0d4a58a2b57c295ef04d0cc44ed4303"
}