{
  "_format": "hh3-artifact-1",
  "contractName": "AtlasIdentityRegistry",
  "sourceName": "contracts/AtlasIdentityRegistry.sol",
  "abi": [
    {
      "inputs": [],
      "stateMutability": "nonpayable",
      "type": "constructor"
    },
    {
      "inputs": [
        {
          "internalType": "address",
          "name": "sender",
          "type": "address"
        },
        {
          "internalType": "uint256",
          "name": "tokenId",
          "type": "uint256"
        },
        {
          "internalType": "address",
          "name": "owner",
          "type": "address"
        }
      ],
      "name": "ERC721IncorrectOwner",
      "type": "error"
    },
    {
      "inputs": [
        {
          "internalType": "address",
          "name": "operator",
          "type": "address"
        },
        {
          "internalType": "uint256",
          "name": "tokenId",
          "type": "uint256"
        }
      ],
      "name": "ERC721InsufficientApproval",
      "type": "error"
    },
    {
      "inputs": [
        {
          "internalType": "address",
          "name": "approver",
          "type": "address"
        }
      ],
      "name": "ERC721InvalidApprover",
      "type": "error"
    },
    {
      "inputs": [
        {
          "internalType": "address",
          "name": "operator",
          "type": "address"
        }
      ],
      "name": "ERC721InvalidOperator",
      "type": "error"
    },
    {
      "inputs": [
        {
          "internalType": "address",
          "name": "owner",
          "type": "address"
        }
      ],
      "name": "ERC721InvalidOwner",
      "type": "error"
    },
    {
      "inputs": [
        {
          "internalType": "address",
          "name": "receiver",
          "type": "address"
        }
      ],
      "name": "ERC721InvalidReceiver",
      "type": "error"
    },
    {
      "inputs": [
        {
          "internalType": "address",
          "name": "sender",
          "type": "address"
        }
      ],
      "name": "ERC721InvalidSender",
      "type": "error"
    },
    {
      "inputs": [
        {
          "internalType": "uint256",
          "name": "tokenId",
          "type": "uint256"
        }
      ],
      "name": "ERC721NonexistentToken",
      "type": "error"
    },
    {
      "inputs": [
        {
          "internalType": "address",
          "name": "owner",
          "type": "address"
        }
      ],
      "name": "OwnableInvalidOwner",
      "type": "error"
    },
    {
      "inputs": [
        {
          "internalType": "address",
          "name": "account",
          "type": "address"
        }
      ],
      "name": "OwnableUnauthorizedAccount",
      "type": "error"
    },
    {
      "anonymous": false,
      "inputs": [
        {
          "indexed": true,
          "internalType": "address",
          "name": "owner",
          "type": "address"
        },
        {
          "indexed": true,
          "internalType": "address",
          "name": "approved",
          "type": "address"
        },
        {
          "indexed": true,
          "internalType": "uint256",
          "name": "tokenId",
          "type": "uint256"
        }
      ],
      "name": "Approval",
      "type": "event"
    },
    {
      "anonymous": false,
      "inputs": [
        {
          "indexed": true,
          "internalType": "address",
          "name": "owner",
          "type": "address"
        },
        {
          "indexed": true,
          "internalType": "address",
          "name": "operator",
          "type": "address"
        },
        {
          "indexed": false,
          "internalType": "bool",
          "name": "approved",
          "type": "bool"
        }
      ],
      "name": "ApprovalForAll",
      "type": "event"
    },
    {
      "anonymous": false,
      "inputs": [
        {
          "indexed": true,
          "internalType": "uint256",
          "name": "agentId",
          "type": "uint256"
        },
        {
          "indexed": false,
          "internalType": "string",
          "name": "decisionType",
          "type": "string"
        },
        {
          "indexed": false,
          "internalType": "bytes32",
          "name": "payloadHash",
          "type": "bytes32"
        },
        {
          "indexed": true,
          "internalType": "uint256",
          "name": "decisionIndex",
          "type": "uint256"
        }
      ],
      "name": "DecisionRecorded",
      "type": "event"
    },
    {
      "anonymous": false,
      "inputs": [
        {
          "indexed": true,
          "internalType": "uint256",
          "name": "agentId",
          "type": "uint256"
        },
        {
          "indexed": true,
          "internalType": "string",
          "name": "indexedMetadataKey",
          "type": "string"
        },
        {
          "indexed": false,
          "internalType": "string",
          "name": "metadataKey",
          "type": "string"
        },
        {
          "indexed": false,
          "internalType": "bytes",
          "name": "metadataValue",
          "type": "bytes"
        }
      ],
      "name": "MetadataSet",
      "type": "event"
    },
    {
      "anonymous": false,
      "inputs": [
        {
          "indexed": true,
          "internalType": "address",
          "name": "previousOwner",
          "type": "address"
        },
        {
          "indexed": true,
          "internalType": "address",
          "name": "newOwner",
          "type": "address"
        }
      ],
      "name": "OwnershipTransferred",
      "type": "event"
    },
    {
      "anonymous": false,
      "inputs": [
        {
          "indexed": true,
          "internalType": "uint256",
          "name": "agentId",
          "type": "uint256"
        },
        {
          "indexed": false,
          "internalType": "string",
          "name": "agentURI",
          "type": "string"
        },
        {
          "indexed": true,
          "internalType": "address",
          "name": "owner",
          "type": "address"
        }
      ],
      "name": "Registered",
      "type": "event"
    },
    {
      "anonymous": false,
      "inputs": [
        {
          "indexed": true,
          "internalType": "address",
          "name": "from",
          "type": "address"
        },
        {
          "indexed": true,
          "internalType": "address",
          "name": "to",
          "type": "address"
        },
        {
          "indexed": true,
          "internalType": "uint256",
          "name": "tokenId",
          "type": "uint256"
        }
      ],
      "name": "Transfer",
      "type": "event"
    },
    {
      "anonymous": false,
      "inputs": [
        {
          "indexed": true,
          "internalType": "uint256",
          "name": "agentId",
          "type": "uint256"
        },
        {
          "indexed": false,
          "internalType": "string",
          "name": "newURI",
          "type": "string"
        },
        {
          "indexed": true,
          "internalType": "address",
          "name": "updatedBy",
          "type": "address"
        }
      ],
      "name": "URIUpdated",
      "type": "event"
    },
    {
      "inputs": [
        {
          "internalType": "address",
          "name": "to",
          "type": "address"
        },
        {
          "internalType": "uint256",
          "name": "tokenId",
          "type": "uint256"
        }
      ],
      "name": "approve",
      "outputs": [],
      "stateMutability": "nonpayable",
      "type": "function"
    },
    {
      "inputs": [
        {
          "internalType": "address",
          "name": "owner",
          "type": "address"
        }
      ],
      "name": "balanceOf",
      "outputs": [
        {
          "internalType": "uint256",
          "name": "",
          "type": "uint256"
        }
      ],
      "stateMutability": "view",
      "type": "function"
    },
    {
      "inputs": [
        {
          "internalType": "uint256",
          "name": "agentId",
          "type": "uint256"
        }
      ],
      "name": "getAgentWallet",
      "outputs": [
        {
          "internalType": "address",
          "name": "",
          "type": "address"
        }
      ],
      "stateMutability": "view",
      "type": "function"
    },
    {
      "inputs": [
        {
          "internalType": "uint256",
          "name": "tokenId",
          "type": "uint256"
        }
      ],
      "name": "getApproved",
      "outputs": [
        {
          "internalType": "address",
          "name": "",
          "type": "address"
        }
      ],
      "stateMutability": "view",
      "type": "function"
    },
    {
      "inputs": [
        {
          "internalType": "uint256",
          "name": "agentId",
          "type": "uint256"
        },
        {
          "internalType": "uint256",
          "name": "decisionIndex",
          "type": "uint256"
        }
      ],
      "name": "getDecision",
      "outputs": [
        {
          "components": [
            {
              "internalType": "uint256",
              "name": "agentId",
              "type": "uint256"
            },
            {
              "internalType": "string",
              "name": "decisionType",
              "type": "string"
            },
            {
              "internalType": "string",
              "name": "payload",
              "type": "string"
            },
            {
              "internalType": "bytes32",
              "name": "payloadHash",
              "type": "bytes32"
            },
            {
              "internalType": "uint256",
              "name": "timestamp",
              "type": "uint256"
            },
            {
              "internalType": "address",
              "name": "recorder",
              "type": "address"
            }
          ],
          "internalType": "struct AtlasIdentityRegistry.Decision",
          "name": "",
          "type": "tuple"
        }
      ],
      "stateMutability": "view",
      "type": "function"
    },
    {
      "inputs": [
        {
          "internalType": "uint256",
          "name": "agentId",
          "type": "uint256"
        }
      ],
      "name": "getDecisionCount",
      "outputs": [
        {
          "internalType": "uint256",
          "name": "",
          "type": "uint256"
        }
      ],
      "stateMutability": "view",
      "type": "function"
    },
    {
      "inputs": [
        {
          "internalType": "uint256",
          "name": "agentId",
          "type": "uint256"
        },
        {
          "internalType": "string",
          "name": "metadataKey",
          "type": "string"
        }
      ],
      "name": "getMetadata",
      "outputs": [
        {
          "internalType": "bytes",
          "name": "",
          "type": "bytes"
        }
      ],
      "stateMutability": "view",
      "type": "function"
    },
    {
      "inputs": [
        {
          "internalType": "uint256",
          "name": "agentId",
          "type": "uint256"
        },
        {
          "internalType": "uint256",
          "name": "count",
          "type": "uint256"
        }
      ],
      "name": "getRecentDecisions",
      "outputs": [
        {
          "components": [
            {
              "internalType": "uint256",
              "name": "agentId",
              "type": "uint256"
            },
            {
              "internalType": "string",
              "name": "decisionType",
              "type": "string"
            },
            {
              "internalType": "string",
              "name": "payload",
              "type": "string"
            },
            {
              "internalType": "bytes32",
              "name": "payloadHash",
              "type": "bytes32"
            },
            {
              "internalType": "uint256",
              "name": "timestamp",
              "type": "uint256"
            },
            {
              "internalType": "address",
              "name": "recorder",
              "type": "address"
            }
          ],
          "internalType": "struct AtlasIdentityRegistry.Decision[]",
          "name": "",
          "type": "tuple[]"
        }
      ],
      "stateMutability": "view",
      "type": "function"
    },
    {
      "inputs": [
        {
          "internalType": "address",
          "name": "owner",
          "type": "address"
        },
        {
          "internalType": "address",
          "name": "operator",
          "type": "address"
        }
      ],
      "name": "isApprovedForAll",
      "outputs": [
        {
          "internalType": "bool",
          "name": "",
          "type": "bool"
        }
      ],
      "stateMutability": "view",
      "type": "function"
    },
    {
      "inputs": [],
      "name": "name",
      "outputs": [
        {
          "internalType": "string",
          "name": "",
          "type": "string"
        }
      ],
      "stateMutability": "view",
      "type": "function"
    },
    {
      "inputs": [],
      "name": "owner",
      "outputs": [
        {
          "internalType": "address",
          "name": "",
          "type": "address"
        }
      ],
      "stateMutability": "view",
      "type": "function"
    },
    {
      "inputs": [
        {
          "internalType": "uint256",
          "name": "tokenId",
          "type": "uint256"
        }
      ],
      "name": "ownerOf",
      "outputs": [
        {
          "internalType": "address",
          "name": "",
          "type": "address"
        }
      ],
      "stateMutability": "view",
      "type": "function"
    },
    {
      "inputs": [
        {
          "internalType": "uint256",
          "name": "agentId",
          "type": "uint256"
        },
        {
          "internalType": "string",
          "name": "decisionType",
          "type": "string"
        },
        {
          "internalType": "string",
          "name": "payload",
          "type": "string"
        }
      ],
      "name": "recordDecision",
      "outputs": [
        {
          "internalType": "uint256",
          "name": "decisionIndex",
          "type": "uint256"
        }
      ],
      "stateMutability": "nonpayable",
      "type": "function"
    },
    {
      "inputs": [],
      "name": "register",
      "outputs": [
        {
          "internalType": "uint256",
          "name": "agentId",
          "type": "uint256"
        }
      ],
      "stateMutability": "nonpayable",
      "type": "function"
    },
    {
      "inputs": [
        {
          "internalType": "string",
          "name": "agentURI",
          "type": "string"
        },
        {
          "components": [
            {
              "internalType": "string",
              "name": "metadataKey",
              "type": "string"
            },
            {
              "internalType": "bytes",
              "name": "metadataValue",
              "type": "bytes"
            }
          ],
          "internalType": "struct AtlasIdentityRegistry.MetadataEntry[]",
          "name": "metadata",
          "type": "tuple[]"
        }
      ],
      "name": "register",
      "outputs": [
        {
          "internalType": "uint256",
          "name": "agentId",
          "type": "uint256"
        }
      ],
      "stateMutability": "nonpayable",
      "type": "function"
    },
    {
      "inputs": [
        {
          "internalType": "string",
          "name": "agentURI",
          "type": "string"
        }
      ],
      "name": "register",
      "outputs": [
        {
          "internalType": "uint256",
          "name": "agentId",
          "type": "uint256"
        }
      ],
      "stateMutability": "nonpayable",
      "type": "function"
    },
    {
      "inputs": [],
      "name": "renounceOwnership",
      "outputs": [],
      "stateMutability": "nonpayable",
      "type": "function"
    },
    {
      "inputs": [
        {
          "internalType": "address",
          "name": "from",
          "type": "address"
        },
        {
          "internalType": "address",
          "name": "to",
          "type": "address"
        },
        {
          "internalType": "uint256",
          "name": "tokenId",
          "type": "uint256"
        }
      ],
      "name": "safeTransferFrom",
      "outputs": [],
      "stateMutability": "nonpayable",
      "type": "function"
    },
    {
      "inputs": [
        {
          "internalType": "address",
          "name": "from",
          "type": "address"
        },
        {
          "internalType": "address",
          "name": "to",
          "type": "address"
        },
        {
          "internalType": "uint256",
          "name": "tokenId",
          "type": "uint256"
        },
        {
          "internalType": "bytes",
          "name": "data",
          "type": "bytes"
        }
      ],
      "name": "safeTransferFrom",
      "outputs": [],
      "stateMutability": "nonpayable",
      "type": "function"
    },
    {
      "inputs": [
        {
          "internalType": "uint256",
          "name": "agentId",
          "type": "uint256"
        },
        {
          "internalType": "string",
          "name": "newURI",
          "type": "string"
        }
      ],
      "name": "setAgentURI",
      "outputs": [],
      "stateMutability": "nonpayable",
      "type": "function"
    },
    {
      "inputs": [
        {
          "internalType": "uint256",
          "name": "agentId",
          "type": "uint256"
        },
        {
          "internalType": "address",
          "name": "newWallet",
          "type": "address"
        }
      ],
      "name": "setAgentWallet",
      "outputs": [],
      "stateMutability": "nonpayable",
      "type": "function"
    },
    {
      "inputs": [
        {
          "internalType": "address",
          "name": "operator",
          "type": "address"
        },
        {
          "internalType": "bool",
          "name": "approved",
          "type": "bool"
        }
      ],
      "name": "setApprovalForAll",
      "outputs": [],
      "stateMutability": "nonpayable",
      "type": "function"
    },
    {
      "inputs": [
        {
          "internalType": "uint256",
          "name": "agentId",
          "type": "uint256"
        },
        {
          "internalType": "string",
          "name": "metadataKey",
          "type": "string"
        },
        {
          "internalType": "bytes",
          "name": "metadataValue",
          "type": "bytes"
        }
      ],
      "name": "setMetadata",
      "outputs": [],
      "stateMutability": "nonpayable",
      "type": "function"
    },
    {
      "inputs": [
        {
          "internalType": "bytes4",
          "name": "interfaceId",
          "type": "bytes4"
        }
      ],
      "name": "supportsInterface",
      "outputs": [
        {
          "internalType": "bool",
          "name": "",
          "type": "bool"
        }
      ],
      "stateMutability": "view",
      "type": "function"
    },
    {
      "inputs": [],
      "name": "symbol",
      "outputs": [
        {
          "internalType": "string",
          "name": "",
          "type": "string"
        }
      ],
      "stateMutability": "view",
      "type": "function"
    },
    {
      "inputs": [
        {
          "internalType": "uint256",
          "name": "agentId",
          "type": "uint256"
        }
      ],
      "name": "tokenURI",
      "outputs": [
        {
          "internalType": "string",
          "name": "",
          "type": "string"
        }
      ],
      "stateMutability": "view",
      "type": "function"
    },
    {
      "inputs": [],
      "name": "totalDecisions",
      "outputs": [
        {
          "internalType": "uint256",
          "name": "",
          "type": "uint256"
        }
      ],
      "stateMutability": "view",
      "type": "function"
    },
    {
      "inputs": [
        {
          "internalType": "address",
          "name": "from",
          "type": "address"
        },
        {
          "internalType": "address",
          "name": "to",
          "type": "address"
        },
        {
          "internalType": "uint256",
          "name": "tokenId",
          "type": "uint256"
        }
      ],
      "name": "transferFrom",
      "outputs": [],
      "stateMutability": "nonpayable",
      "type": "function"
    },
    {
      "inputs": [
        {
          "internalType": "address",
          "name": "newOwner",
          "type": "address"
        }
      ],
      "name": "transferOwnership",
      "outputs": [],
      "stateMutability": "nonpayable",
      "type": "function"
    },
    {
      "inputs": [
        {
          "internalType": "uint256",
          "name": "agentId",
          "type": "uint256"
        }
      ],
      "name": "unsetAgentWallet",
      "outputs": [],
      "stateMutability": "nonpayable",
      "type": "function"
    }
  ],
  "bytecode": "0x60806040526001600755348015610014575f80fd5b50336040518060400160405280601481526020017f41746c6173204167656e74204964656e746974790000000000000000000000008152506040518060400160405280600b81526020016a1055131054cb5051d1539560aa1b815250815f908161007e91906101b3565b50600161008b82826101b3565b5050506001600160a01b0381166100bb57604051631e4fbdf760e01b81525f600482015260240160405180910390fd5b6100c4816100ca565b5061026d565b600680546001600160a01b038381166001600160a01b0319831681179093556040519116919082907f8be0079c531659141344cd1fd0a4f28419497f9722a3daafe3b4186f6b6457e0905f90a35050565b634e487b7160e01b5f52604160045260245ffd5b600181811c9082168061014357607f821691505b60208210810361016157634e487b7160e01b5f52602260045260245ffd5b50919050565b601f8211156101ae57805f5260205f20601f840160051c8101602085101561018c5750805b601f840160051c820191505b818110156101ab575f8155600101610198565b50505b505050565b81516001600160401b038111156101cc576101cc61011b565b6101e0816101da845461012f565b84610167565b6020601f821160018114610212575f83156101fb5750848201515b5f19600385901b1c1916600184901b1784556101ab565b5f84815260208120601f198516915b828110156102415787850151825560209485019460019092019101610221565b508482101561025e57868401515f19600387901b60f8161c191681555b50505050600190811b01905550565b6123f38061027a5f395ff3fe608060405234801561000f575f80fd5b50600436106101d0575f3560e01c80636352211e116100fe57806395d89b411161009e578063cb4799f21161006e578063cb4799f21461040f578063e985e9c514610422578063f2c298be14610435578063f2fde38b14610448575f80fd5b806395d89b41146103ce578063a22cb465146103d6578063b88d4fde146103e9578063c87b56dd146103fc575f80fd5b8063715018a6116100d9578063715018a614610382578063839c317c1461038a5780638da5cb5b146103aa5780638ea42286146103bb575f80fd5b80636352211e14610349578063636d2f641461035c57806370a082311461036f575f80fd5b80630c96a61a116101745780633c3a0124116101445780633c3a0124146102fd5780633fddcf191461031057806342842e0e14610323578063466648da14610336575f80fd5b80630c96a61a146102ac57806312593b82146102c35780631aa3a008146102e257806323b872dd146102ea575f80fd5b806306fdde03116101af57806306fdde031461025c578063081812fc14610271578063095ea7b3146102845780630af28bd314610299575f80fd5b8062339509146101d457806301ffc9a714610219578063036aa50b1461023c575b5f80fd5b6101fc6101e236600461196c565b5f908152600a60205260409020546001600160a01b031690565b6040516001600160a01b0390911681526020015b60405180910390f35b61022c610227366004611998565b61045b565b6040519015158152602001610210565b61024f61024a3660046119ba565b6104ac565b6040516102109190611a72565b610264610642565b6040516102109190611a84565b6101fc61027f36600461196c565b6106d1565b610297610292366004611ab1565b6106f8565b005b6102976102a7366004611b1d565b610707565b6102b5600c5481565b604051908152602001610210565b6102b56102d136600461196c565b5f908152600b602052604090205490565b6102b56107a2565b6102976102f8366004611b64565b610802565b6102b561030b366004611b9e565b61088b565b61029761031e36600461196c565b610aaa565b610297610331366004611b64565b610af7565b610297610344366004611cb8565b610b16565b6101fc61035736600461196c565b610bc9565b61029761036a366004611d23565b610bd3565b6102b561037d366004611d4d565b610c30565b610297610c75565b61039d6103983660046119ba565b610c88565b6040516102109190611d66565b6006546001600160a01b03166101fc565b6102b56103c9366004611dc9565b610ed4565b6102646110e1565b6102976103e4366004611e62565b6110f0565b6102976103f7366004611e9b565b6110fb565b61026461040a36600461196c565b611113565b61026461041d366004611efe565b6111ba565b61022c610430366004611f41565b611278565b6102b5610443366004611f69565b6112a5565b610297610456366004611d4d565b611328565b5f6001600160e01b031982166380ac58cd60e01b148061048b57506001600160e01b03198216635b5e139f60e01b145b806104a657506301ffc9a760e01b6001600160e01b03198316145b92915050565b6104b461192e565b5f838152600b602052604090208054839081106104d3576104d3611fa7565b905f5260205f2090600602016040518060c00160405290815f820154815260200160018201805461050390611fbb565b80601f016020809104026020016040519081016040528092919081815260200182805461052f90611fbb565b801561057a5780601f106105515761010080835404028352916020019161057a565b820191905f5260205f20905b81548152906001019060200180831161055d57829003601f168201915b5050505050815260200160028201805461059390611fbb565b80601f01602080910402602001604051908101604052809291908181526020018280546105bf90611fbb565b801561060a5780601f106105e15761010080835404028352916020019161060a565b820191905f5260205f20905b8154815290600101906020018083116105ed57829003601f168201915b505050918352505060038201546020820152600482015460408201526005909101546001600160a01b03166060909101529392505050565b60605f805461065090611fbb565b80601f016020809104026020016040519081016040528092919081815260200182805461067c90611fbb565b80156106c75780601f1061069e576101008083540402835291602001916106c7565b820191905f5260205f20905b8154815290600101906020018083116106aa57829003601f168201915b5050505050905090565b5f6106db82611365565b505f828152600460205260409020546001600160a01b03166104a6565b61070382823361139d565b5050565b3361071184610bc9565b6001600160a01b0316146107405760405162461bcd60e51b815260040161073790611ff3565b60405180910390fd5b5f838152600860205260409020610758828483612060565b50336001600160a01b0316837f3a2c7fffc2cba7582c690e3b82c453ea02a308326a98a3ad7576c606336409fb8484604051610795929190612141565b60405180910390a3505050565b600780545f91826107b283612168565b9190505590506107c233826113aa565b6040805160208082525f90820152339183917fca52e62c367d81bb2e328eb795f7c7ba24afb478408a26c0e201d155c449bc4a910160405180910390a390565b6001600160a01b03821661082b57604051633250574960e11b81525f6004820152602401610737565b5f61083783833361140b565b9050836001600160a01b0316816001600160a01b031614610885576040516364283d7b60e01b81526001600160a01b0380861660048301526024820184905282166044820152606401610737565b50505050565b5f3361089687610bc9565b6001600160a01b031614806108c057505f868152600a60205260409020546001600160a01b031633145b6108fd5760405162461bcd60e51b815260206004820152600e60248201526d139bdd08185d5d1a1bdc9a5e995960921b6044820152606401610737565b5f8383604051602001610911929190612180565b60408051601f1981840301815282825280516020918201205f8b8152600b8352839020805460c0860185528c86528451601f8c018590048502810185019095528a855296509094509291828201918a908a90819084018382808284375f92019190915250505090825250604080516020601f8901819004810282018101909252878152918101919088908890819084018382808284375f9201829052509385525050506020808301869052426040840152336060909301929092528354600181810186559482529082902083516006909202019081559082015191929091908201906109fd908261218f565b5060408201516002820190610a12908261218f565b50606082015160038201556080820151600482015560a090910151600590910180546001600160a01b0319166001600160a01b03909216919091179055600c8054905f610a5e83612168565b919050555081877fc4494e6fc35818db2dda3e978f155382fb3e997aecc9ef19696722e239e76399888885604051610a9893929190612249565b60405180910390a35095945050505050565b33610ab482610bc9565b6001600160a01b031614610ada5760405162461bcd60e51b815260040161073790611ff3565b5f908152600a6020526040902080546001600160a01b0319169055565b610b1183838360405180602001604052805f8152506110fb565b505050565b33610b2084610bc9565b6001600160a01b031614610b465760405162461bcd60e51b815260040161073790611ff3565b8060095f8581526020019081526020015f2083604051610b66919061226c565b90815260200160405180910390209081610b80919061218f565b5081604051610b8f919061226c565b6040518091039020837f2c149ed548c6d2993cd73efe187df6eccabe4538091b33adbd25fafdb8a1468b8484604051610795929190612282565b5f6104a682611365565b33610bdd83610bc9565b6001600160a01b031614610c035760405162461bcd60e51b815260040161073790611ff3565b5f918252600a602052604090912080546001600160a01b0319166001600160a01b03909216919091179055565b5f6001600160a01b038216610c5a576040516322718ad960e21b81525f6004820152602401610737565b506001600160a01b03165f9081526003602052604090205490565b610c7d6114fd565b610c865f61152a565b565b5f828152600b6020526040812054606091818411610ca65783610ca8565b815b90505f816001600160401b03811115610cc357610cc3611c15565b604051908082528060200260200182016040528015610cfc57816020015b610ce961192e565b815260200190600190039081610ce15790505b5090505f5b82811015610eca575f878152600b6020526040902081610d2185876122af565b610d2b91906122c2565b81548110610d3b57610d3b611fa7565b905f5260205f2090600602016040518060c00160405290815f8201548152602001600182018054610d6b90611fbb565b80601f0160208091040260200160405190810160405280929190818152602001828054610d9790611fbb565b8015610de25780601f10610db957610100808354040283529160200191610de2565b820191905f5260205f20905b815481529060010190602001808311610dc557829003601f168201915b50505050508152602001600282018054610dfb90611fbb565b80601f0160208091040260200160405190810160405280929190818152602001828054610e2790611fbb565b8015610e725780601f10610e4957610100808354040283529160200191610e72565b820191905f5260205f20905b815481529060010190602001808311610e5557829003601f168201915b505050918352505060038201546020820152600482015460408201526005909101546001600160a01b03166060909101528251839083908110610eb757610eb7611fa7565b6020908102919091010152600101610d01565b5095945050505050565b600780545f9182610ee483612168565b919050559050610ef433826113aa565b5f818152600860205260409020610f0c858783612060565b505f5b8281101561109457838382818110610f2957610f29611fa7565b9050602002810190610f3b91906122d5565b610f499060208101906122f3565b5f848152600960205260409020868685818110610f6857610f68611fa7565b9050602002810190610f7a91906122d5565b610f8490806122f3565b604051610f92929190612180565b90815260200160405180910390209182610fad929190612060565b50838382818110610fc057610fc0611fa7565b9050602002810190610fd291906122d5565b610fdc90806122f3565b604051610fea929190612180565b6040518091039020827f2c149ed548c6d2993cd73efe187df6eccabe4538091b33adbd25fafdb8a1468b86868581811061102657611026611fa7565b905060200281019061103891906122d5565b61104290806122f3565b88888781811061105457611054611fa7565b905060200281019061106691906122d5565b6110749060208101906122f3565b6040516110849493929190612335565b60405180910390a3600101610f0f565b50336001600160a01b0316817fca52e62c367d81bb2e328eb795f7c7ba24afb478408a26c0e201d155c449bc4a87876040516110d1929190612141565b60405180910390a3949350505050565b60606001805461065090611fbb565b61070333838361157b565b611106848484610802565b610885338585858561163a565b606061111e82610bc9565b505f828152600860205260409020805461113790611fbb565b80601f016020809104026020016040519081016040528092919081815260200182805461116390611fbb565b80156111ae5780601f10611185576101008083540402835291602001916111ae565b820191905f5260205f20905b81548152906001019060200180831161119157829003601f168201915b50505050509050919050565b606060095f8481526020019081526020015f20826040516111db919061226c565b908152602001604051809103902080546111f490611fbb565b80601f016020809104026020016040519081016040528092919081815260200182805461122090611fbb565b801561126b5780601f106112425761010080835404028352916020019161126b565b820191905f5260205f20905b81548152906001019060200180831161124e57829003601f168201915b5050505050905092915050565b6001600160a01b039182165f90815260056020908152604080832093909416825291909152205460ff1690565b600780545f91826112b583612168565b9190505590506112c533826113aa565b5f8181526008602052604090206112dd838583612060565b50336001600160a01b0316817fca52e62c367d81bb2e328eb795f7c7ba24afb478408a26c0e201d155c449bc4a858560405161131a929190612141565b60405180910390a392915050565b6113306114fd565b6001600160a01b03811661135957604051631e4fbdf760e01b81525f6004820152602401610737565b6113628161152a565b50565b5f818152600260205260408120546001600160a01b0316806104a657604051637e27328960e01b815260048101849052602401610737565b610b118383836001611762565b6001600160a01b0382166113d357604051633250574960e11b81525f6004820152602401610737565b5f6113df83835f61140b565b90506001600160a01b03811615610b11576040516339e3563760e11b81525f6004820152602401610737565b5f828152600260205260408120546001600160a01b039081169083161561143757611437818486611866565b6001600160a01b03811615611471576114525f855f80611762565b6001600160a01b0381165f90815260036020526040902080545f190190555b6001600160a01b0385161561149f576001600160a01b0385165f908152600360205260409020805460010190555b5f8481526002602052604080822080546001600160a01b0319166001600160a01b0389811691821790925591518793918516917fddf252ad1be2c89b69c2b068fc378daa952ba7f163c4a11628f55a4df523b3ef91a4949350505050565b6006546001600160a01b03163314610c865760405163118cdaa760e01b8152336004820152602401610737565b600680546001600160a01b038381166001600160a01b0319831681179093556040519116919082907f8be0079c531659141344cd1fd0a4f28419497f9722a3daafe3b4186f6b6457e0905f90a35050565b6001600160a01b0383166115a45760405163a9fbf51f60e01b81525f6004820152602401610737565b6001600160a01b0382166115d657604051630b61174360e31b81526001600160a01b0383166004820152602401610737565b6001600160a01b038381165f81815260056020908152604080832094871680845294825291829020805460ff191686151590811790915591519182527f17307eab39ab6107e8899845ad3d59bd9653f200f220920489ca2b5937696c319101610795565b6001600160a01b0383163b1561175b57604051630a85bd0160e11b81526001600160a01b0384169063150b7a029061167c908890889087908790600401612366565b6020604051808303815f875af19250505080156116b6575060408051601f3d908101601f191682019092526116b3918101906123a2565b60015b61171d573d8080156116e3576040519150601f19603f3d011682016040523d82523d5f602084013e6116e8565b606091505b5080515f0361171557604051633250574960e11b81526001600160a01b0385166004820152602401610737565b805160208201fd5b6001600160e01b03198116630a85bd0160e11b1461175957604051633250574960e11b81526001600160a01b0385166004820152602401610737565b505b5050505050565b808061177657506001600160a01b03821615155b15611837575f61178584611365565b90506001600160a01b038316158015906117b15750826001600160a01b0316816001600160a01b031614155b80156117c457506117c28184611278565b155b156117ed5760405163a9fbf51f60e01b81526001600160a01b0384166004820152602401610737565b81156118355783856001600160a01b0316826001600160a01b03167f8c5be1e5ebec7d5bd14f71427d1e84f3dd0314c0f7b2291e5b200ac8c7c3b92560405160405180910390a45b505b50505f90815260046020526040902080546001600160a01b0319166001600160a01b0392909216919091179055565b6118718383836118ca565b610b11576001600160a01b03831661189f57604051637e27328960e01b815260048101829052602401610737565b60405163177e802f60e01b81526001600160a01b038316600482015260248101829052604401610737565b5f6001600160a01b038316158015906119265750826001600160a01b0316846001600160a01b0316148061190357506119038484611278565b8061192657505f828152600460205260409020546001600160a01b038481169116145b949350505050565b6040518060c001604052805f815260200160608152602001606081526020015f80191681526020015f81526020015f6001600160a01b031681525090565b5f6020828403121561197c575f80fd5b5035919050565b6001600160e01b031981168114611362575f80fd5b5f602082840312156119a8575f80fd5b81356119b381611983565b9392505050565b5f80604083850312156119cb575f80fd5b50508035926020909101359150565b5f81518084528060208401602086015e5f602082860101526020601f19601f83011685010191505092915050565b805182525f602082015160c06020850152611a2660c08501826119da565b905060408301518482036040860152611a3f82826119da565b606085810151908701526080808601519087015260a0948501516001600160a01b03169490950193909352509192915050565b602081525f6119b36020830184611a08565b602081525f6119b360208301846119da565b80356001600160a01b0381168114611aac575f80fd5b919050565b5f8060408385031215611ac2575f80fd5b611acb83611a96565b946020939093013593505050565b5f8083601f840112611ae9575f80fd5b5081356001600160401b03811115611aff575f80fd5b602083019150836020828501011115611b16575f80fd5b9250929050565b5f805f60408486031215611b2f575f80fd5b8335925060208401356001600160401b03811115611b4b575f80fd5b611b5786828701611ad9565b9497909650939450505050565b5f805f60608486031215611b76575f80fd5b611b7f84611a96565b9250611b8d60208501611a96565b929592945050506040919091013590565b5f805f805f60608688031215611bb2575f80fd5b8535945060208601356001600160401b03811115611bce575f80fd5b611bda88828901611ad9565b90955093505060408601356001600160401b03811115611bf8575f80fd5b611c0488828901611ad9565b969995985093965092949392505050565b634e487b7160e01b5f52604160045260245ffd5b5f82601f830112611c38575f80fd5b8135602083015f806001600160401b03841115611c5757611c57611c15565b50604051601f19601f85018116603f011681018181106001600160401b0382111715611c8557611c85611c15565b604052838152905080828401871015611c9c575f80fd5b838360208301375f602085830101528094505050505092915050565b5f805f60608486031215611cca575f80fd5b8335925060208401356001600160401b03811115611ce6575f80fd5b611cf286828701611c29565b92505060408401356001600160401b03811115611d0d575f80fd5b611d1986828701611c29565b9150509250925092565b5f8060408385031215611d34575f80fd5b82359150611d4460208401611a96565b90509250929050565b5f60208284031215611d5d575f80fd5b6119b382611a96565b5f602082016020835280845180835260408501915060408160051b8601019250602086015f5b82811015611dbd57603f19878603018452611da8858351611a08565b94506020938401939190910190600101611d8c565b50929695505050505050565b5f805f8060408587031215611ddc575f80fd5b84356001600160401b03811115611df1575f80fd5b611dfd87828801611ad9565b90955093505060208501356001600160401b03811115611e1b575f80fd5b8501601f81018713611e2b575f80fd5b80356001600160401b03811115611e40575f80fd5b8760208260051b8401011115611e54575f80fd5b949793965060200194505050565b5f8060408385031215611e73575f80fd5b611e7c83611a96565b915060208301358015158114611e90575f80fd5b809150509250929050565b5f805f8060808587031215611eae575f80fd5b611eb785611a96565b9350611ec560208601611a96565b92506040850135915060608501356001600160401b03811115611ee6575f80fd5b611ef287828801611c29565b91505092959194509250565b5f8060408385031215611f0f575f80fd5b8235915060208301356001600160401b03811115611f2b575f80fd5b611f3785828601611c29565b9150509250929050565b5f8060408385031215611f52575f80fd5b611f5b83611a96565b9150611d4460208401611a96565b5f8060208385031215611f7a575f80fd5b82356001600160401b03811115611f8f575f80fd5b611f9b85828601611ad9565b90969095509350505050565b634e487b7160e01b5f52603260045260245ffd5b600181811c90821680611fcf57607f821691505b602082108103611fed57634e487b7160e01b5f52602260045260245ffd5b50919050565b6020808252600f908201526e2737ba1030b3b2b73a1037bbb732b960891b604082015260600190565b601f821115610b1157805f5260205f20601f840160051c810160208510156120415750805b601f840160051c820191505b8181101561175b575f815560010161204d565b6001600160401b0383111561207757612077611c15565b61208b836120858354611fbb565b8361201c565b5f601f8411600181146120bc575f85156120a55750838201355b5f19600387901b1c1916600186901b17835561175b565b5f83815260208120601f198716915b828110156120eb57868501358255602094850194600190920191016120cb565b5086821015612107575f1960f88860031b161c19848701351681555b505060018560011b0183555050505050565b81835281816020850137505f828201602090810191909152601f909101601f19169091010190565b602081525f611926602083018486612119565b634e487b7160e01b5f52601160045260245ffd5b5f6001820161217957612179612154565b5060010190565b818382375f9101908152919050565b81516001600160401b038111156121a8576121a8611c15565b6121bc816121b68454611fbb565b8461201c565b6020601f8211600181146121ee575f83156121d75750848201515b5f19600385901b1c1916600184901b17845561175b565b5f84815260208120601f198516915b8281101561221d57878501518255602094850194600190920191016121fd565b508482101561223a57868401515f19600387901b60f8161c191681555b50505050600190811b01905550565b604081525f61225c604083018587612119565b9050826020830152949350505050565b5f82518060208501845e5f920191825250919050565b604081525f61229460408301856119da565b82810360208401526122a681856119da565b95945050505050565b818103818111156104a6576104a6612154565b808201808211156104a6576104a6612154565b5f8235603e198336030181126122e9575f80fd5b9190910192915050565b5f808335601e19843603018112612308575f80fd5b8301803591506001600160401b03821115612321575f80fd5b602001915036819003821315611b16575f80fd5b604081525f612348604083018688612119565b828103602084015261235b818587612119565b979650505050505050565b6001600160a01b03858116825284166020820152604081018390526080606082018190525f90612398908301846119da565b9695505050505050565b5f602082840312156123b2575f80fd5b81516119b38161198356fea2646970667358221220ebf779518d13213b6c2d3be243c8bbde21352d39cda91f5f5cba3223f7841a2364736f6c634300081a0033",
  "linkReferences": {},
  "deployedLinkReferences": {},
  "immutableReferences": {},
  "inputSourceName": "project/contracts/AtlasIdentityRegistry.sol",
  "buildInfoId": "solc-0_8_26-09e0d87fee71c366856ce3adb843a82886777332"
}