{
  "_format": "hh3-artifact-1",
  "contractName": "AtlasYieldVault",
  "sourceName": "contracts/AtlasYieldVault.sol",
  "abi": [
    {
      "inputs": [
        {
          "internalType": "string",
          "name": "name_",
          "type": "string"
        },
        {
          "internalType": "string",
          "name": "symbol_",
          "type": "string"
        },
        {
          "internalType": "string",
          "name": "assetSymbol_",
          "type": "string"
        },
        {
          "internalType": "string",
          "name": "protocol_",
          "type": "string"
        },
        {
          "internalType": "uint256",
          "name": "apyBps_",
          "type": "uint256"
        }
      ],
      "stateMutability": "nonpayable",
      "type": "constructor"
    },
    {
      "inputs": [
        {
          "internalType": "address",
          "name": "spender",
          "type": "address"
        },
        {
          "internalType": "uint256",
          "name": "allowance",
          "type": "uint256"
        },
        {
          "internalType": "uint256",
          "name": "needed",
          "type": "uint256"
        }
      ],
      "name": "ERC20InsufficientAllowance",
      "type": "error"
    },
    {
      "inputs": [
        {
          "internalType": "address",
          "name": "sender",
          "type": "address"
        },
        {
          "internalType": "uint256",
          "name": "balance",
          "type": "uint256"
        },
        {
          "internalType": "uint256",
          "name": "needed",
          "type": "uint256"
        }
      ],
      "name": "ERC20InsufficientBalance",
      "type": "error"
    },
    {
      "inputs": [
        {
          "internalType": "address",
          "name": "approver",
          "type": "address"
        }
      ],
      "name": "ERC20InvalidApprover",
      "type": "error"
    },
    {
      "inputs": [
        {
          "internalType": "address",
          "name": "receiver",
          "type": "address"
        }
      ],
      "name": "ERC20InvalidReceiver",
      "type": "error"
    },
    {
      "inputs": [
        {
          "internalType": "address",
          "name": "sender",
          "type": "address"
        }
      ],
      "name": "ERC20InvalidSender",
      "type": "error"
    },
    {
      "inputs": [
        {
          "internalType": "address",
          "name": "spender",
          "type": "address"
        }
      ],
      "name": "ERC20InvalidSpender",
      "type": "error"
    },
    {
      "inputs": [
        {
          "internalType": "address",
          "name": "owner",
          "type": "address"
        }
      ],
      "name": "OwnableInvalidOwner",
      "type": "error"
    },
    {
      "inputs": [
        {
          "internalType": "address",
          "name": "account",
          "type": "address"
        }
      ],
      "name": "OwnableUnauthorizedAccount",
      "type": "error"
    },
    {
      "anonymous": false,
      "inputs": [
        {
          "indexed": true,
          "internalType": "address",
          "name": "owner",
          "type": "address"
        },
        {
          "indexed": true,
          "internalType": "address",
          "name": "spender",
          "type": "address"
        },
        {
          "indexed": false,
          "internalType": "uint256",
          "name": "value",
          "type": "uint256"
        }
      ],
      "name": "Approval",
      "type": "event"
    },
    {
      "anonymous": false,
      "inputs": [
        {
          "indexed": true,
          "internalType": "address",
          "name": "user",
          "type": "address"
        },
        {
          "indexed": false,
          "internalType": "uint256",
          "name": "mntAmount",
          "type": "uint256"
        },
        {
          "indexed": false,
          "internalType": "uint256",
          "name": "sharesIssued",
          "type": "uint256"
        }
      ],
      "name": "Deposited",
      "type": "event"
    },
    {
      "anonymous": false,
      "inputs": [
        {
          "indexed": true,
          "internalType": "address",
          "name": "previousOwner",
          "type": "address"
        },
        {
          "indexed": true,
          "internalType": "address",
          "name": "newOwner",
          "type": "address"
        }
      ],
      "name": "OwnershipTransferred",
      "type": "event"
    },
    {
      "anonymous": false,
      "inputs": [
        {
          "indexed": true,
          "internalType": "address",
          "name": "from",
          "type": "address"
        },
        {
          "indexed": true,
          "internalType": "address",
          "name": "to",
          "type": "address"
        },
        {
          "indexed": false,
          "internalType": "uint256",
          "name": "value",
          "type": "uint256"
        }
      ],
      "name": "Transfer",
      "type": "event"
    },
    {
      "anonymous": false,
      "inputs": [
        {
          "indexed": true,
          "internalType": "address",
          "name": "user",
          "type": "address"
        },
        {
          "indexed": false,
          "internalType": "uint256",
          "name": "sharesRedeemed",
          "type": "uint256"
        },
        {
          "indexed": false,
          "internalType": "uint256",
          "name": "mntReturned",
          "type": "uint256"
        }
      ],
      "name": "Withdrawn",
      "type": "event"
    },
    {
      "anonymous": false,
      "inputs": [
        {
          "indexed": false,
          "internalType": "uint256",
          "name": "newExchangeRate",
          "type": "uint256"
        }
      ],
      "name": "YieldAccrued",
      "type": "event"
    },
    {
      "inputs": [
        {
          "internalType": "address",
          "name": "owner",
          "type": "address"
        },
        {
          "internalType": "address",
          "name": "spender",
          "type": "address"
        }
      ],
      "name": "allowance",
      "outputs": [
        {
          "internalType": "uint256",
          "name": "",
          "type": "uint256"
        }
      ],
      "stateMutability": "view",
      "type": "function"
    },
    {
      "inputs": [
        {
          "internalType": "address",
          "name": "spender",
          "type": "address"
        },
        {
          "internalType": "uint256",
          "name": "value",
          "type": "uint256"
        }
      ],
      "name": "approve",
      "outputs": [
        {
          "internalType": "bool",
          "name": "",
          "type": "bool"
        }
      ],
      "stateMutability": "nonpayable",
      "type": "function"
    },
    {
      "inputs": [],
      "name": "apyBps",
      "outputs": [
        {
          "internalType": "uint256",
          "name": "",
          "type": "uint256"
        }
      ],
      "stateMutability": "view",
      "type": "function"
    },
    {
      "inputs": [],
      "name": "assetSymbol",
      "outputs": [
        {
          "internalType": "string",
          "name": "",
          "type": "string"
        }
      ],
      "stateMutability": "view",
      "type": "function"
    },
    {
      "inputs": [
        {
          "internalType": "address",
          "name": "account",
          "type": "address"
        }
      ],
      "name": "balanceOf",
      "outputs": [
        {
          "internalType": "uint256",
          "name": "",
          "type": "uint256"
        }
      ],
      "stateMutability": "view",
      "type": "function"
    },
    {
      "inputs": [],
      "name": "decimals",
      "outputs": [
        {
          "internalType": "uint8",
          "name": "",
          "type": "uint8"
        }
      ],
      "stateMutability": "view",
      "type": "function"
    },
    {
      "inputs": [],
      "name": "deposit",
      "outputs": [
        {
          "internalType": "uint256",
          "name": "shares",
          "type": "uint256"
        }
      ],
      "stateMutability": "payable",
      "type": "function"
    },
    {
      "inputs": [],
      "name": "exchangeRate",
      "outputs": [
        {
          "internalType": "uint256",
          "name": "",
          "type": "uint256"
        }
      ],
      "stateMutability": "view",
      "type": "function"
    },
    {
      "inputs": [],
      "name": "getAPY",
      "outputs": [
        {
          "internalType": "uint256",
          "name": "",
          "type": "uint256"
        }
      ],
      "stateMutability": "view",
      "type": "function"
    },
    {
      "inputs": [],
      "name": "getCurrentExchangeRate",
      "outputs": [
        {
          "internalType": "uint256",
          "name": "",
          "type": "uint256"
        }
      ],
      "stateMutability": "view",
      "type": "function"
    },
    {
      "inputs": [
        {
          "internalType": "address",
          "name": "user",
          "type": "address"
        }
      ],
      "name": "getPositionValue",
      "outputs": [
        {
          "internalType": "uint256",
          "name": "shares",
          "type": "uint256"
        },
        {
          "internalType": "uint256",
          "name": "currentValue",
          "type": "uint256"
        },
        {
          "internalType": "uint256",
          "name": "depositedValue",
          "type": "uint256"
        },
        {
          "internalType": "uint256",
          "name": "yieldEarned",
          "type": "uint256"
        }
      ],
      "stateMutability": "view",
      "type": "function"
    },
    {
      "inputs": [],
      "name": "getTVL",
      "outputs": [
        {
          "internalType": "uint256",
          "name": "",
          "type": "uint256"
        }
      ],
      "stateMutability": "view",
      "type": "function"
    },
    {
      "inputs": [],
      "name": "lastUpdateBlock",
      "outputs": [
        {
          "internalType": "uint256",
          "name": "",
          "type": "uint256"
        }
      ],
      "stateMutability": "view",
      "type": "function"
    },
    {
      "inputs": [],
      "name": "name",
      "outputs": [
        {
          "internalType": "string",
          "name": "",
          "type": "string"
        }
      ],
      "stateMutability": "view",
      "type": "function"
    },
    {
      "inputs": [],
      "name": "owner",
      "outputs": [
        {
          "internalType": "address",
          "name": "",
          "type": "address"
        }
      ],
      "stateMutability": "view",
      "type": "function"
    },
    {
      "inputs": [],
      "name": "protocol",
      "outputs": [
        {
          "internalType": "string",
          "name": "",
          "type": "string"
        }
      ],
      "stateMutability": "view",
      "type": "function"
    },
    {
      "inputs": [],
      "name": "renounceOwnership",
      "outputs": [],
      "stateMutability": "nonpayable",
      "type": "function"
    },
    {
      "inputs": [],
      "name": "symbol",
      "outputs": [
        {
          "internalType": "string",
          "name": "",
          "type": "string"
        }
      ],
      "stateMutability": "view",
      "type": "function"
    },
    {
      "inputs": [],
      "name": "totalDeposited",
      "outputs": [
        {
          "internalType": "uint256",
          "name": "",
          "type": "uint256"
        }
      ],
      "stateMutability": "view",
      "type": "function"
    },
    {
      "inputs": [],
      "name": "totalSupply",
      "outputs": [
        {
          "internalType": "uint256",
          "name": "",
          "type": "uint256"
        }
      ],
      "stateMutability": "view",
      "type": "function"
    },
    {
      "inputs": [
        {
          "internalType": "address",
          "name": "to",
          "type": "address"
        },
        {
          "internalType": "uint256",
          "name": "value",
          "type": "uint256"
        }
      ],
      "name": "transfer",
      "outputs": [
        {
          "internalType": "bool",
          "name": "",
          "type": "bool"
        }
      ],
      "stateMutability": "nonpayable",
      "type": "function"
    },
    {
      "inputs": [
        {
          "internalType": "address",
          "name": "from",
          "type": "address"
        },
        {
          "internalType": "address",
          "name": "to",
          "type": "address"
        },
        {
          "internalType": "uint256",
          "name": "value",
          "type": "uint256"
        }
      ],
      "name": "transferFrom",
      "outputs": [
        {
          "internalType": "bool",
          "name": "",
          "type": "bool"
        }
      ],
      "stateMutability": "nonpayable",
      "type": "function"
    },
    {
      "inputs": [
        {
          "internalType": "address",
          "name": "newOwner",
          "type": "address"
        }
      ],
      "name": "transferOwnership",
      "outputs": [],
      "stateMutability": "nonpayable",
      "type": "function"
    },
    {
      "inputs": [
        {
          "internalType": "uint256",
          "name": "shares",
          "type": "uint256"
        }
      ],
      "name": "withdraw",
      "outputs": [
        {
          "internalType": "uint256",
          "name": "mntAmount",
          "type": "uint256"
        }
      ],
      "stateMutability": "nonpayable",
      "type": "function"
    },
    {
      "inputs": [],
      "name": "withdrawAll",
      "outputs": [
        {
          "internalType": "uint256",
          "name": "mntAmount",
          "type": "uint256"
        }
      ],
      "stateMutability": "nonpayable",
      "type": "function"
    },
    {
      "stateMutability": "payable",
      "type": "receive"
    }
  ],
  "bytecode": "0x60806040523461065657611748803803806100198161065a565b928339810160a0828203126106565781516001600160401b038111610656578161004491840161067f565b60208301519092906001600160401b038111610656578261006691830161067f565b60408201519093906001600160401b038111610656578361008891840161067f565b60608301519093906001600160401b038111610656576080916100ac91850161067f565b920151815190916001600160401b0382116103905760035490600182811c9216801561064c575b60208310146103725781601f8493116105de575b50602090601f8311600114610578575f9261056d575b50508160011b915f199060031b1c1916176003555b83516001600160401b03811161039057600454600181811c91168015610563575b602082101461037257601f8111610500575b50602094601f821160011461049d579481929394955f92610492575b50508160011b915f199060031b1c1916176004555b331561047f5760058054336001600160a01b0319821681179092556001600160a01b03167f8be0079c531659141344cd1fd0a4f28419497f9722a3daafe3b4186f6b6457e05f80a382516001600160401b03811161039057600654600181811c91168015610475575b602082101461037257601f8111610412575b506020601f82116001146103af57819293945f926103a4575b50508160011b915f199060031b1c1916176006555b81516001600160401b03811161039057600754600181811c91168015610386575b602082101461037257601f811161030f575b50602092601f82116001146102ae57928192935f926102a3575b50508160011b915f199060031b1c1916176007555b600855670de0b6b3a764000060095543600a5560405161107790816106d18239f35b015190505f8061026c565b601f1982169360075f52805f20915f5b8681106102f757508360019596106102df575b505050811b01600755610281565b01515f1960f88460031b161c191690555f80806102d1565b919260206001819286850151815501940192016102be565b60075f527fa66cc928b5edb82af9bd49922954155ab7b0942694bea4ce44661d9a8736c688601f830160051c81019160208410610368575b601f0160051c01905b81811061035d5750610252565b5f8155600101610350565b9091508190610347565b634e487b7160e01b5f52602260045260245ffd5b90607f1690610240565b634e487b7160e01b5f52604160045260245ffd5b015190505f8061020a565b601f1982169060065f52805f20915f5b8181106103fa575095836001959697106103e2575b505050811b0160065561021f565b01515f1960f88460031b161c191690555f80806103d4565b9192602060018192868b0151815501940192016103bf565b60065f527ff652222313e28459528d920b65115c16c04f3efc82aaedc97be59f3f377c0d3f601f830160051c8101916020841061046b575b601f0160051c01905b81811061046057506101f1565b5f8155600101610453565b909150819061044a565b90607f16906101df565b631e4fbdf760e01b5f525f60045260245ffd5b015190505f80610161565b601f1982169560045f52805f20915f5b8881106104e8575083600195969798106104d0575b505050811b01600455610176565b01515f1960f88460031b161c191690555f80806104c2565b919260206001819286850151815501940192016104ad565b60045f527f8a35acfbc15ff81a39ae7d344fd709f28e8600b4aa8c65c6b64bfe7fe36bd19b601f830160051c81019160208410610559575b601f0160051c01905b81811061054e5750610145565b5f8155600101610541565b9091508190610538565b90607f1690610133565b015190505f806100fd565b60035f9081528281209350601f198516905b8181106105c657509084600195949392106105ae575b505050811b01600355610112565b01515f1960f88460031b161c191690555f80806105a0565b9293602060018192878601518155019501930161058a565b60035f529091507fc2575a0e9e593c00f959f8c92f12db2869c3395a3b0502d05e2516446f71f85b601f840160051c81019160208510610642575b90601f859493920160051c01905b81811061063457506100e7565b5f8155849350600101610627565b9091508190610619565b91607f16916100d3565b5f80fd5b6040519190601f01601f191682016001600160401b0381118382101761039057604052565b81601f82011215610656578051906001600160401b038211610390576106ae601f8301601f191660200161065a565b928284526020838301011161065657815f9260208093018386015e830101529056fe6080604052600436101561001a575b3615610018575f80fd5b005b5f3560e01c806306fdde0314610ca8578063095ea7b314610c26578063176de7a814610b5157806318160ddd14610b345780631c083f6a14610a2057806323b872dd146109415780632e1a7d4d146108c7578063313ce567146108ac5780633ba0b9a91461088f5780633ca967f31461082b57806351618ed31461022857806370a08231146107f4578063715018a614610799578063853828b6146106a95780638ce74426146105d45780638da5cb5b146105ac57806395d89b41146104a257806397b3fcaa14610487578063a218141b1461046a578063a9059cbb14610439578063d0e30db014610245578063d2cbf7ad14610228578063dd62ed3e146101d8578063f2fde38b146101525763ff50abdc0361000e573461014e575f36600319011261014e576020600d54604051908152f35b5f80fd5b3461014e57602036600319011261014e5761016b610da7565b61017361101a565b6001600160a01b031680156101c557600580546001600160a01b0319811683179091556001600160a01b03167f8be0079c531659141344cd1fd0a4f28419497f9722a3daafe3b4186f6b6457e05f80a3005b631e4fbdf760e01b5f525f60045260245ffd5b3461014e57604036600319011261014e576101f1610da7565b6101f9610dbd565b6001600160a01b039182165f908152600160209081526040808320949093168252928352819020549051908152f35b3461014e575f36600319011261014e576020600854604051908152f35b5f36600319011261014e5734156104015761025e610f14565b670de0b6b3a76400003402348104670de0b6b3a7640000036103ed5760095461028691610df3565b33156103da5761029881600254610e11565b600255335f525f60205260405f208181540190556040518181525f7fddf252ad1be2c89b69c2b068fc378daa952ba7f163c4a11628f55a4df523b3ef60203393a36102e534600d54610e11565b600d55335f52600c60205260ff60405f2054161561033a575b60209060405134815281838201527f73a19dd210f1a7f902193214c0ee91dd35ee5b4d920cba8d519eca65a7b488ca60403392a2604051908152f35b600b5490680100000000000000008210156103c6576001820180600b558210156103b2577f0175b7a638427703f0dbe7bb9bbf987a2551717b34e79f33b5b1008d1fa01db990910180546001600160a01b031916339081179091555f908152600c60205260409020805460ff191660011790556102fe565b634e487b7160e01b5f52603260045260245ffd5b634e487b7160e01b5f52604160045260245ffd5b63ec442f0560e01b5f525f60045260245ffd5b634e487b7160e01b5f52601160045260245ffd5b60405162461bcd60e51b815260206004820152601060248201526f04d757374206465706f736974203e20360841b6044820152606490fd5b3461014e57604036600319011261014e5761045f610455610da7565b6024359033610e6a565b602060405160018152f35b3461014e575f36600319011261014e576020600a54604051908152f35b3461014e575f36600319011261014e57602047604051908152f35b3461014e575f36600319011261014e576040515f6004548060011c906001811680156105a2575b60208310811461058e57828552908115610572575060011461051c575b50819003601f01601f191681019067ffffffffffffffff8211818310176103c657604082905281906105189082610d7d565b0390f35b60045f9081529091507f8a35acfbc15ff81a39ae7d344fd709f28e8600b4aa8c65c6b64bfe7fe36bd19b5b82821061055c575060209150820101826104e6565b6001816020925483858801015201910190610547565b90506020925060ff191682840152151560051b820101826104e6565b634e487b7160e01b5f52602260045260245ffd5b91607f16916104c9565b3461014e575f36600319011261014e576005546040516001600160a01b039091168152602090f35b3461014e575f36600319011261014e576040515f6007548060011c9060018116801561069f575b60208310811461058e5782855290811561057257506001146106495750819003601f01601f191681019067ffffffffffffffff8211818310176103c657604082905281906105189082610d7d565b60075f9081529091507fa66cc928b5edb82af9bd49922954155ab7b0942694bea4ce44661d9a8736c6885b828210610689575060209150820101826104e6565b6001816020925483858801015201910190610674565b91607f16916105fb565b3461014e575f36600319011261014e57335f525f60205260405f20548015610766576106d3610f14565b670de0b6b3a76400006106e860095483610de0565b046106f581471015610e1e565b6106ff8233610f96565b805f811561075d575b5f80809381933390f1156107525760209160405190815281838201527f92ccf450a286a957af52509bc1c9939d1a6a481783e142e41e2499f0bb66ebc660403392a2604051908152f35b6040513d5f823e3d90fd5b506108fc610708565b60405162461bcd60e51b815260206004820152600b60248201526a2737903837b9b4ba34b7b760a91b6044820152606490fd5b3461014e575f36600319011261014e576107b161101a565b600580546001600160a01b031981169091555f906001600160a01b03167f8be0079c531659141344cd1fd0a4f28419497f9722a3daafe3b4186f6b6457e08280a3005b3461014e57602036600319011261014e576001600160a01b03610815610da7565b165f525f602052602060405f2054604051908152f35b3461014e575f36600319011261014e57610847600a5443610dd3565b6009549061085760085483610de0565b91600a830292808404600a14901517156103ed57610881610887926424b675dc0060209504610de0565b90610e11565b604051908152f35b3461014e575f36600319011261014e576020600954604051908152f35b3461014e575f36600319011261014e57602060405160128152f35b3461014e57602036600319011261014e576004358015158061092c575b156108f1576106d3610f14565b60405162461bcd60e51b8152602060048201526013602482015272496e73756666696369656e742073686172657360681b6044820152606490fd5b50335f525f6020528060405f205410156108e4565b3461014e57606036600319011261014e5761095a610da7565b610962610dbd565b6001600160a01b0382165f818152600160209081526040808320338452909152902054909260443592915f1981106109a0575b5061045f9350610e6a565b838110610a055784156109f25733156109df5761045f945f52600160205260405f2060018060a01b0333165f526020528360405f209103905584610995565b634a1406b160e11b5f525f60045260245ffd5b63e602df0560e01b5f525f60045260245ffd5b8390637dc7a0d960e11b5f523360045260245260445260645ffd5b3461014e57602036600319011261014e576001600160a01b03610a41610da7565b165f525f60205260405f2054610a59600a5443610dd3565b600954610a6860085482610de0565b600a810290808204600a14901517156103ed57610a8f926424b675dc006108819204610de0565b90670de0b6b3a7640000610aa38383610de0565b04670de0b6b3a76400008202821593838204670de0b6b3a7640000148517156103ed57608094610adc82610ad78186610df3565b610de0565b50610b2c57610aea91610df3565b80821115610b25575b80821115610b1e57610b058183610dd3565b915b604051938452602084015260408301526060820152f35b5f91610b07565b5080610af3565b50505f610aea565b3461014e575f36600319011261014e576020600254604051908152f35b3461014e575f36600319011261014e576040515f6006548060011c90600181168015610c1c575b60208310811461058e578285529081156105725750600114610bc65750819003601f01601f191681019067ffffffffffffffff8211818310176103c657604082905281906105189082610d7d565b60065f9081529091507ff652222313e28459528d920b65115c16c04f3efc82aaedc97be59f3f377c0d3f5b828210610c06575060209150820101826104e6565b6001816020925483858801015201910190610bf1565b91607f1691610b78565b3461014e57604036600319011261014e57610c3f610da7565b6024359033156109f2576001600160a01b03169081156109df57335f52600160205260405f20825f526020528060405f20556040519081527f8c5be1e5ebec7d5bd14f71427d1e84f3dd0314c0f7b2291e5b200ac8c7c3b92560203392a3602060405160018152f35b3461014e575f36600319011261014e576040515f6003548060011c90600181168015610d73575b60208310811461058e578285529081156105725750600114610d1d5750819003601f01601f191681019067ffffffffffffffff8211818310176103c657604082905281906105189082610d7d565b60035f9081529091507fc2575a0e9e593c00f959f8c92f12db2869c3395a3b0502d05e2516446f71f85b5b828210610d5d575060209150820101826104e6565b6001816020925483858801015201910190610d48565b91607f1691610ccf565b602060409281835280519182918282860152018484015e5f828201840152601f01601f1916010190565b600435906001600160a01b038216820361014e57565b602435906001600160a01b038216820361014e57565b919082039182116103ed57565b818102929181159184041417156103ed57565b8115610dfd570490565b634e487b7160e01b5f52601260045260245ffd5b919082018092116103ed57565b15610e2557565b60405162461bcd60e51b815260206004820152601c60248201527f496e73756666696369656e74207661756c74206c6971756964697479000000006044820152606490fd5b6001600160a01b0316908115610f01576001600160a01b03169182156103da57815f525f60205260405f2054818110610ee857817fddf252ad1be2c89b69c2b068fc378daa952ba7f163c4a11628f55a4df523b3ef92602092855f525f84520360405f2055845f525f825260405f20818154019055604051908152a3565b8263391434e360e21b5f5260045260245260445260645ffd5b634b637e8f60e11b5f525f60045260245ffd5b610f20600a5443610dd3565b8015610f935760095490610f3660085483610de0565b90600a820291808304600a14901517156103ed577f3b6bc0ba304eaa17cdca1b053baac859e721c7a775cddefc825f6286641311fc92610881610f82926424b675dc0060209504610de0565b8060095543600a55604051908152a1565b50565b9091906001600160a01b03168015610f0157805f525f60205260405f2054838110611000576020845f94957fddf252ad1be2c89b69c2b068fc378daa952ba7f163c4a11628f55a4df523b3ef938587528684520360408620558060025403600255604051908152a3565b915063391434e360e21b5f5260045260245260445260645ffd5b6005546001600160a01b0316330361102e57565b63118cdaa760e01b5f523360045260245ffdfea2646970667358221220107f2b2fdcf4c91f621f7a6b90612fb91f2d60d9497214f304b660804c9d9feb64736f6c634300081a0033",
  "linkReferences": {},
  "deployedLinkReferences": {},
  "immutableReferences": {},
  "inputSourceName": "project/contracts/AtlasYieldVault.sol",
  "buildInfoId": "solc-0_8_26-ac8e8f7ae0d4a58a2b57c295ef04d0cc44ed4303"
}