{
  "_format": "hh3-artifact-1",
  "contractName": "AtlasYieldVault",
  "sourceName": "contracts/AtlasYieldVault.sol",
  "abi": [
    {
      "inputs": [
        {
          "internalType": "string",
          "name": "name_",
          "type": "string"
        },
        {
          "internalType": "string",
          "name": "symbol_",
          "type": "string"
        },
        {
          "internalType": "string",
          "name": "assetSymbol_",
          "type": "string"
        },
        {
          "internalType": "string",
          "name": "protocol_",
          "type": "string"
        },
        {
          "internalType": "uint256",
          "name": "apyBps_",
          "type": "uint256"
        }
      ],
      "stateMutability": "nonpayable",
      "type": "constructor"
    },
    {
      "inputs": [
        {
          "internalType": "address",
          "name": "spender",
          "type": "address"
        },
        {
          "internalType": "uint256",
          "name": "allowance",
          "type": "uint256"
        },
        {
          "internalType": "uint256",
          "name": "needed",
          "type": "uint256"
        }
      ],
      "name": "ERC20InsufficientAllowance",
      "type": "error"
    },
    {
      "inputs": [
        {
          "internalType": "address",
          "name": "sender",
          "type": "address"
        },
        {
          "internalType": "uint256",
          "name": "balance",
          "type": "uint256"
        },
        {
          "internalType": "uint256",
          "name": "needed",
          "type": "uint256"
        }
      ],
      "name": "ERC20InsufficientBalance",
      "type": "error"
    },
    {
      "inputs": [
        {
          "internalType": "address",
          "name": "approver",
          "type": "address"
        }
      ],
      "name": "ERC20InvalidApprover",
      "type": "error"
    },
    {
      "inputs": [
        {
          "internalType": "address",
          "name": "receiver",
          "type": "address"
        }
      ],
      "name": "ERC20InvalidReceiver",
      "type": "error"
    },
    {
      "inputs": [
        {
          "internalType": "address",
          "name": "sender",
          "type": "address"
        }
      ],
      "name": "ERC20InvalidSender",
      "type": "error"
    },
    {
      "inputs": [
        {
          "internalType": "address",
          "name": "spender",
          "type": "address"
        }
      ],
      "name": "ERC20InvalidSpender",
      "type": "error"
    },
    {
      "inputs": [
        {
          "internalType": "address",
          "name": "owner",
          "type": "address"
        }
      ],
      "name": "OwnableInvalidOwner",
      "type": "error"
    },
    {
      "inputs": [
        {
          "internalType": "address",
          "name": "account",
          "type": "address"
        }
      ],
      "name": "OwnableUnauthorizedAccount",
      "type": "error"
    },
    {
      "anonymous": false,
      "inputs": [
        {
          "indexed": true,
          "internalType": "address",
          "name": "owner",
          "type": "address"
        },
        {
          "indexed": true,
          "internalType": "address",
          "name": "spender",
          "type": "address"
        },
        {
          "indexed": false,
          "internalType": "uint256",
          "name": "value",
          "type": "uint256"
        }
      ],
      "name": "Approval",
      "type": "event"
    },
    {
      "anonymous": false,
      "inputs": [
        {
          "indexed": true,
          "internalType": "address",
          "name": "user",
          "type": "address"
        },
        {
          "indexed": false,
          "internalType": "uint256",
          "name": "mntAmount",
          "type": "uint256"
        },
        {
          "indexed": false,
          "internalType": "uint256",
          "name": "sharesIssued",
          "type": "uint256"
        }
      ],
      "name": "Deposited",
      "type": "event"
    },
    {
      "anonymous": false,
      "inputs": [
        {
          "indexed": true,
          "internalType": "address",
          "name": "previousOwner",
          "type": "address"
        },
        {
          "indexed": true,
          "internalType": "address",
          "name": "newOwner",
          "type": "address"
        }
      ],
      "name": "OwnershipTransferred",
      "type": "event"
    },
    {
      "anonymous": false,
      "inputs": [
        {
          "indexed": true,
          "internalType": "address",
          "name": "from",
          "type": "address"
        },
        {
          "indexed": true,
          "internalType": "address",
          "name": "to",
          "type": "address"
        },
        {
          "indexed": false,
          "internalType": "uint256",
          "name": "value",
          "type": "uint256"
        }
      ],
      "name": "Transfer",
      "type": "event"
    },
    {
      "anonymous": false,
      "inputs": [
        {
          "indexed": true,
          "internalType": "address",
          "name": "user",
          "type": "address"
        },
        {
          "indexed": false,
          "internalType": "uint256",
          "name": "sharesRedeemed",
          "type": "uint256"
        },
        {
          "indexed": false,
          "internalType": "uint256",
          "name": "mntReturned",
          "type": "uint256"
        }
      ],
      "name": "Withdrawn",
      "type": "event"
    },
    {
      "anonymous": false,
      "inputs": [
        {
          "indexed": false,
          "internalType": "uint256",
          "name": "newExchangeRate",
          "type": "uint256"
        }
      ],
      "name": "YieldAccrued",
      "type": "event"
    },
    {
      "inputs": [
        {
          "internalType": "address",
          "name": "owner",
          "type": "address"
        },
        {
          "internalType": "address",
          "name": "spender",
          "type": "address"
        }
      ],
      "name": "allowance",
      "outputs": [
        {
          "internalType": "uint256",
          "name": "",
          "type": "uint256"
        }
      ],
      "stateMutability": "view",
      "type": "function"
    },
    {
      "inputs": [
        {
          "internalType": "address",
          "name": "spender",
          "type": "address"
        },
        {
          "internalType": "uint256",
          "name": "value",
          "type": "uint256"
        }
      ],
      "name": "approve",
      "outputs": [
        {
          "internalType": "bool",
          "name": "",
          "type": "bool"
        }
      ],
      "stateMutability": "nonpayable",
      "type": "function"
    },
    {
      "inputs": [],
      "name": "apyBps",
      "outputs": [
        {
          "internalType": "uint256",
          "name": "",
          "type": "uint256"
        }
      ],
      "stateMutability": "view",
      "type": "function"
    },
    {
      "inputs": [],
      "name": "assetSymbol",
      "outputs": [
        {
          "internalType": "string",
          "name": "",
          "type": "string"
        }
      ],
      "stateMutability": "view",
      "type": "function"
    },
    {
      "inputs": [
        {
          "internalType": "address",
          "name": "account",
          "type": "address"
        }
      ],
      "name": "balanceOf",
      "outputs": [
        {
          "internalType": "uint256",
          "name": "",
          "type": "uint256"
        }
      ],
      "stateMutability": "view",
      "type": "function"
    },
    {
      "inputs": [],
      "name": "decimals",
      "outputs": [
        {
          "internalType": "uint8",
          "name": "",
          "type": "uint8"
        }
      ],
      "stateMutability": "view",
      "type": "function"
    },
    {
      "inputs": [],
      "name": "deposit",
      "outputs": [
        {
          "internalType": "uint256",
          "name": "shares",
          "type": "uint256"
        }
      ],
      "stateMutability": "payable",
      "type": "function"
    },
    {
      "inputs": [],
      "name": "exchangeRate",
      "outputs": [
        {
          "internalType": "uint256",
          "name": "",
          "type": "uint256"
        }
      ],
      "stateMutability": "view",
      "type": "function"
    },
    {
      "inputs": [],
      "name": "getAPY",
      "outputs": [
        {
          "internalType": "uint256",
          "name": "",
          "type": "uint256"
        }
      ],
      "stateMutability": "view",
      "type": "function"
    },
    {
      "inputs": [],
      "name": "getCurrentExchangeRate",
      "outputs": [
        {
          "internalType": "uint256",
          "name": "",
          "type": "uint256"
        }
      ],
      "stateMutability": "view",
      "type": "function"
    },
    {
      "inputs": [
        {
          "internalType": "address",
          "name": "user",
          "type": "address"
        }
      ],
      "name": "getPositionValue",
      "outputs": [
        {
          "internalType": "uint256",
          "name": "shares",
          "type": "uint256"
        },
        {
          "internalType": "uint256",
          "name": "currentValue",
          "type": "uint256"
        },
        {
          "internalType": "uint256",
          "name": "depositedValue",
          "type": "uint256"
        },
        {
          "internalType": "uint256",
          "name": "yieldEarned",
          "type": "uint256"
        }
      ],
      "stateMutability": "view",
      "type": "function"
    },
    {
      "inputs": [],
      "name": "getTVL",
      "outputs": [
        {
          "internalType": "uint256",
          "name": "",
          "type": "uint256"
        }
      ],
      "stateMutability": "view",
      "type": "function"
    },
    {
      "inputs": [],
      "name": "lastUpdateBlock",
      "outputs": [
        {
          "internalType": "uint256",
          "name": "",
          "type": "uint256"
        }
      ],
      "stateMutability": "view",
      "type": "function"
    },
    {
      "inputs": [],
      "name": "name",
      "outputs": [
        {
          "internalType": "string",
          "name": "",
          "type": "string"
        }
      ],
      "stateMutability": "view",
      "type": "function"
    },
    {
      "inputs": [],
      "name": "owner",
      "outputs": [
        {
          "internalType": "address",
          "name": "",
          "type": "address"
        }
      ],
      "stateMutability": "view",
      "type": "function"
    },
    {
      "inputs": [],
      "name": "protocol",
      "outputs": [
        {
          "internalType": "string",
          "name": "",
          "type": "string"
        }
      ],
      "stateMutability": "view",
      "type": "function"
    },
    {
      "inputs": [],
      "name": "renounceOwnership",
      "outputs": [],
      "stateMutability": "nonpayable",
      "type": "function"
    },
    {
      "inputs": [],
      "name": "symbol",
      "outputs": [
        {
          "internalType": "string",
          "name": "",
          "type": "string"
        }
      ],
      "stateMutability": "view",
      "type": "function"
    },
    {
      "inputs": [],
      "name": "totalDeposited",
      "outputs": [
        {
          "internalType": "uint256",
          "name": "",
          "type": "uint256"
        }
      ],
      "stateMutability": "view",
      "type": "function"
    },
    {
      "inputs": [],
      "name": "totalSupply",
      "outputs": [
        {
          "internalType": "uint256",
          "name": "",
          "type": "uint256"
        }
      ],
      "stateMutability": "view",
      "type": "function"
    },
    {
      "inputs": [
        {
          "internalType": "address",
          "name": "to",
          "type": "address"
        },
        {
          "internalType": "uint256",
          "name": "value",
          "type": "uint256"
        }
      ],
      "name": "transfer",
      "outputs": [
        {
          "internalType": "bool",
          "name": "",
          "type": "bool"
        }
      ],
      "stateMutability": "nonpayable",
      "type": "function"
    },
    {
      "inputs": [
        {
          "internalType": "address",
          "name": "from",
          "type": "address"
        },
        {
          "internalType": "address",
          "name": "to",
          "type": "address"
        },
        {
          "internalType": "uint256",
          "name": "value",
          "type": "uint256"
        }
      ],
      "name": "transferFrom",
      "outputs": [
        {
          "internalType": "bool",
          "name": "",
          "type": "bool"
        }
      ],
      "stateMutability": "nonpayable",
      "type": "function"
    },
    {
      "inputs": [
        {
          "internalType": "address",
          "name": "newOwner",
          "type": "address"
        }
      ],
      "name": "transferOwnership",
      "outputs": [],
      "stateMutability": "nonpayable",
      "type": "function"
    },
    {
      "inputs": [
        {
          "internalType": "uint256",
          "name": "shares",
          "type": "uint256"
        }
      ],
      "name": "withdraw",
      "outputs": [
        {
          "internalType": "uint256",
          "name": "mntAmount",
          "type": "uint256"
        }
      ],
      "stateMutability": "nonpayable",
      "type": "function"
    },
    {
      "inputs": [],
      "name": "withdrawAll",
      "outputs": [
        {
          "internalType": "uint256",
          "name": "mntAmount",
          "type": "uint256"
        }
      ],
      "stateMutability": "nonpayable",
      "type": "function"
    },
    {
      "stateMutability": "payable",
      "type": "receive"
    }
  ],
  "bytecode": "0x608060405234801561000f575f80fd5b506040516115c43803806115c483398101604081905261002e916101a8565b338585600361003d83826102f0565b50600461004a82826102f0565b5050506001600160a01b03811661007a57604051631e4fbdf760e01b81525f600482015260240160405180910390fd5b610083816100ba565b50600661009084826102f0565b50600761009d83826102f0565b506008555050670de0b6b3a7640000600955505043600a556103aa565b600580546001600160a01b038381166001600160a01b0319831681179093556040519116919082907f8be0079c531659141344cd1fd0a4f28419497f9722a3daafe3b4186f6b6457e0905f90a35050565b634e487b7160e01b5f52604160045260245ffd5b5f82601f83011261012e575f80fd5b81516001600160401b038111156101475761014761010b565b604051601f8201601f19908116603f011681016001600160401b03811182821017156101755761017561010b565b60405281815283820160200185101561018c575f80fd5b8160208501602083015e5f918101602001919091529392505050565b5f805f805f60a086880312156101bc575f80fd5b85516001600160401b038111156101d1575f80fd5b6101dd8882890161011f565b602088015190965090506001600160401b038111156101fa575f80fd5b6102068882890161011f565b604088015190955090506001600160401b03811115610223575f80fd5b61022f8882890161011f565b606088015190945090506001600160401b0381111561024c575f80fd5b6102588882890161011f565b925050608086015190509295509295909350565b600181811c9082168061028057607f821691505b60208210810361029e57634e487b7160e01b5f52602260045260245ffd5b50919050565b601f8211156102eb57805f5260205f20601f840160051c810160208510156102c95750805b601f840160051c820191505b818110156102e8575f81556001016102d5565b50505b505050565b81516001600160401b038111156103095761030961010b565b61031d81610317845461026c565b846102a4565b6020601f82116001811461034f575f83156103385750848201515b5f19600385901b1c1916600184901b1784556102e8565b5f84815260208120601f198516915b8281101561037e578785015182556020948501946001909201910161035e565b508482101561039b57868401515f19600387901b60f8161c191681555b50505050600190811b01905550565b61120d806103b75f395ff3fe608060405260043610610164575f3560e01c8063715018a6116100cd578063a218141b11610087578063d2cbf7ad11610062578063d2cbf7ad146103cb578063dd62ed3e146103df578063f2fde38b14610423578063ff50abdc14610442575f80fd5b8063a218141b1461038f578063a9059cbb146103a4578063d0e30db0146103c3575f80fd5b8063715018a614610304578063853828b61461031a5780638ce744261461032e5780638da5cb5b1461034257806395d89b411461036957806397b3fcaa1461037d575f80fd5b80632e1a7d4d1161011e5780632e1a7d4d14610258578063313ce567146102775780633ba0b9a9146102925780633ca967f3146102a757806351618ed3146102bb57806370a08231146102d0575f80fd5b806306fdde031461016f578063095ea7b314610199578063176de7a8146101c857806318160ddd146101dc5780631c083f6a146101fa57806323b872dd14610239575f80fd5b3661016b57005b5f80fd5b34801561017a575f80fd5b50610183610457565b6040516101909190611015565b60405180910390f35b3480156101a4575f80fd5b506101b86101b3366004611065565b6104e7565b6040519015158152602001610190565b3480156101d3575f80fd5b50610183610500565b3480156101e7575f80fd5b506002545b604051908152602001610190565b348015610205575f80fd5b5061021961021436600461108d565b61058c565b604080519485526020850193909352918301526060820152608001610190565b348015610244575f80fd5b506101b86102533660046110ad565b6106c8565b348015610263575f80fd5b506101ec6102723660046110e7565b6106eb565b348015610282575f80fd5b5060405160128152602001610190565b34801561029d575f80fd5b506101ec60095481565b3480156102b2575f80fd5b506101ec610840565b3480156102c6575f80fd5b506101ec60085481565b3480156102db575f80fd5b506101ec6102ea36600461108d565b6001600160a01b03165f9081526020819052604090205490565b34801561030f575f80fd5b506103186108a9565b005b348015610325575f80fd5b506101ec6108bc565b348015610339575f80fd5b506101836109f7565b34801561034d575f80fd5b506005546040516001600160a01b039091168152602001610190565b348015610374575f80fd5b50610183610a04565b348015610388575f80fd5b50476101ec565b34801561039a575f80fd5b506101ec600a5481565b3480156103af575f80fd5b506101b86103be366004611065565b610a13565b6101ec610a20565b3480156103d6575f80fd5b506008546101ec565b3480156103ea575f80fd5b506101ec6103f93660046110fe565b6001600160a01b039182165f90815260016020908152604080832093909416825291909152205490565b34801561042e575f80fd5b5061031861043d36600461108d565b610b5a565b34801561044d575f80fd5b506101ec600d5481565b6060600380546104669061112f565b80601f01602080910402602001604051908101604052809291908181526020018280546104929061112f565b80156104dd5780601f106104b4576101008083540402835291602001916104dd565b820191905f5260205f20905b8154815290600101906020018083116104c057829003601f168201915b5050505050905090565b5f336104f4818585610b97565b60019150505b92915050565b6006805461050d9061112f565b80601f01602080910402602001604051908101604052809291908181526020018280546105399061112f565b80156105845780601f1061055b57610100808354040283529160200191610584565b820191905f5260205f20905b81548152906001019060200180831161056757829003601f168201915b505050505081565b5f805f806105ae856001600160a01b03165f9081526020819052604090205490565b93505f600a54436105bf919061117b565b905062f099c05f6105d28261271061118e565b6008546009546105e2919061118e565b6105ed90600a61118e565b6105f791906111a5565b90505f610604848361118e565b60095461061191906111c4565b9050670de0b6b3a7640000610626828a61118e565b61063091906111a5565b9650670de0b6b3a764000081806106478b8461118e565b61065191906111a5565b61065b919061118e565b61066591906111a5565b95505f8811610674575f610691565b8061068789670de0b6b3a764000061118e565b61069191906111a5565b95508587116106a057866106a2565b855b95508587116106b1575f6106bb565b6106bb868861117b565b9450505050509193509193565b5f336106d5858285610ba9565b6106e0858585610c25565b506001949350505050565b5f80821180156107095750335f908152602081905260409020548211155b6107505760405162461bcd60e51b8152602060048201526013602482015272496e73756666696369656e742073686172657360681b60448201526064015b60405180910390fd5b610758610c82565b670de0b6b3a76400006009548361076f919061118e565b61077991906111a5565b9050804710156107cb5760405162461bcd60e51b815260206004820152601c60248201527f496e73756666696369656e74207661756c74206c6971756964697479000000006044820152606401610747565b6107d53383610d33565b604051339082156108fc029083905f818181858888f193505050501580156107ff573d5f803e3d5ffd5b50604080518381526020810183905233917f92ccf450a286a957af52509bc1c9939d1a6a481783e142e41e2499f0bb66ebc6910160405180910390a2919050565b5f80600a5443610850919061117b565b905062f099c05f6108638261271061118e565b600854600954610873919061118e565b61087e90600a61118e565b61088891906111a5565b9050610894838261118e565b6009546108a191906111c4565b935050505090565b6108b1610d6b565b6108ba5f610d98565b565b335f908152602081905260408120545f81116109085760405162461bcd60e51b815260206004820152600b60248201526a2737903837b9b4ba34b7b760a91b6044820152606401610747565b610910610c82565b670de0b6b3a764000060095482610927919061118e565b61093191906111a5565b9150814710156109835760405162461bcd60e51b815260206004820152601c60248201527f496e73756666696369656e74207661756c74206c6971756964697479000000006044820152606401610747565b61098d3382610d33565b604051339083156108fc029084905f818181858888f193505050501580156109b7573d5f803e3d5ffd5b50604080518281526020810184905233917f92ccf450a286a957af52509bc1c9939d1a6a481783e142e41e2499f0bb66ebc6910160405180910390a25090565b6007805461050d9061112f565b6060600480546104669061112f565b5f336104f4818585610c25565b5f803411610a635760405162461bcd60e51b815260206004820152601060248201526f04d757374206465706f736974203e20360841b6044820152606401610747565b610a6b610c82565b600954610a8034670de0b6b3a764000061118e565b610a8a91906111a5565b9050610a963382610de9565b34600d5f828254610aa791906111c4565b9091555050335f908152600c602052604090205460ff16610b1c57600b805460018181019092557f0175b7a638427703f0dbe7bb9bbf987a2551717b34e79f33b5b1008d1fa01db90180546001600160a01b031916339081179091555f908152600c60205260409020805460ff191690911790555b604080513481526020810183905233917f73a19dd210f1a7f902193214c0ee91dd35ee5b4d920cba8d519eca65a7b488ca910160405180910390a290565b610b62610d6b565b6001600160a01b038116610b8b57604051631e4fbdf760e01b81525f6004820152602401610747565b610b9481610d98565b50565b610ba48383836001610e1d565b505050565b6001600160a01b038381165f908152600160209081526040808320938616835292905220545f19811015610c1f5781811015610c1157604051637dc7a0d960e11b81526001600160a01b03841660048201526024810182905260448101839052606401610747565b610c1f84848484035f610e1d565b50505050565b6001600160a01b038316610c4e57604051634b637e8f60e11b81525f6004820152602401610747565b6001600160a01b038216610c775760405163ec442f0560e01b81525f6004820152602401610747565b610ba4838383610eef565b5f600a5443610c91919061117b565b9050805f03610c9d5750565b62f099c05f610cae8261271061118e565b600854600954610cbe919061118e565b610cc990600a61118e565b610cd391906111a5565b9050610cdf838261118e565b60095f828254610cef91906111c4565b909155505043600a556009546040519081527f3b6bc0ba304eaa17cdca1b053baac859e721c7a775cddefc825f6286641311fc9060200160405180910390a1505050565b6001600160a01b038216610d5c57604051634b637e8f60e11b81525f6004820152602401610747565b610d67825f83610eef565b5050565b6005546001600160a01b031633146108ba5760405163118cdaa760e01b8152336004820152602401610747565b600580546001600160a01b038381166001600160a01b0319831681179093556040519116919082907f8be0079c531659141344cd1fd0a4f28419497f9722a3daafe3b4186f6b6457e0905f90a35050565b6001600160a01b038216610e125760405163ec442f0560e01b81525f6004820152602401610747565b610d675f8383610eef565b6001600160a01b038416610e465760405163e602df0560e01b81525f6004820152602401610747565b6001600160a01b038316610e6f57604051634a1406b160e11b81525f6004820152602401610747565b6001600160a01b038085165f9081526001602090815260408083209387168352929052208290558015610c1f57826001600160a01b0316846001600160a01b03167f8c5be1e5ebec7d5bd14f71427d1e84f3dd0314c0f7b2291e5b200ac8c7c3b92584604051610ee191815260200190565b60405180910390a350505050565b6001600160a01b038316610f19578060025f828254610f0e91906111c4565b90915550610f899050565b6001600160a01b0383165f9081526020819052604090205481811015610f6b5760405163391434e360e21b81526001600160a01b03851660048201526024810182905260448101839052606401610747565b6001600160a01b0384165f9081526020819052604090209082900390555b6001600160a01b038216610fa557600280548290039055610fc3565b6001600160a01b0382165f9081526020819052604090208054820190555b816001600160a01b0316836001600160a01b03167fddf252ad1be2c89b69c2b068fc378daa952ba7f163c4a11628f55a4df523b3ef8360405161100891815260200190565b60405180910390a3505050565b602081525f82518060208401528060208501604085015e5f604082850101526040601f19601f83011684010191505092915050565b80356001600160a01b0381168114611060575f80fd5b919050565b5f8060408385031215611076575f80fd5b61107f8361104a565b946020939093013593505050565b5f6020828403121561109d575f80fd5b6110a68261104a565b9392505050565b5f805f606084860312156110bf575f80fd5b6110c88461104a565b92506110d66020850161104a565b929592945050506040919091013590565b5f602082840312156110f7575f80fd5b5035919050565b5f806040838503121561110f575f80fd5b6111188361104a565b91506111266020840161104a565b90509250929050565b600181811c9082168061114357607f821691505b60208210810361116157634e487b7160e01b5f52602260045260245ffd5b50919050565b634e487b7160e01b5f52601160045260245ffd5b818103818111156104fa576104fa611167565b80820281158282048414176104fa576104fa611167565b5f826111bf57634e487b7160e01b5f52601260045260245ffd5b500490565b808201808211156104fa576104fa61116756fea264697066735822122015833ee2a313f650ab633e371e766501bf673478ae0136e5660c3a4eca9579a764736f6c634300081a0033",
  "linkReferences": {},
  "deployedLinkReferences": {},
  "immutableReferences": {},
  "inputSourceName": "project/contracts/AtlasYieldVault.sol",
  "buildInfoId": "solc-0_8_26-6484ad054b18f3531712c302a966b6123a7ce187"
}